{
  "_format": "hh-sol-artifact-1",
  "contractName": "INTMAXTokenL",
  "sourceName": "contracts/int1/minterV1/layer2/token/INTMAXTokenL.sol",
  "abi": [
    {
      "inputs": [
        {
          "internalType": "address",
          "name": "admin_",
          "type": "address"
        }
      ],
      "stateMutability": "nonpayable",
      "type": "constructor"
    },
    {
      "inputs": [],
      "name": "AccessControlBadConfirmation",
      "type": "error"
    },
    {
      "inputs": [
        {
          "internalType": "address",
          "name": "account",
          "type": "address"
        },
        {
          "internalType": "bytes32",
          "name": "neededRole",
          "type": "bytes32"
        }
      ],
      "name": "AccessControlUnauthorizedAccount",
      "type": "error"
    },
    {
      "inputs": [
        {
          "internalType": "address",
          "name": "spender",
          "type": "address"
        },
        {
          "internalType": "uint256",
          "name": "allowance",
          "type": "uint256"
        },
        {
          "internalType": "uint256",
          "name": "needed",
          "type": "uint256"
        }
      ],
      "name": "ERC20InsufficientAllowance",
      "type": "error"
    },
    {
      "inputs": [
        {
          "internalType": "address",
          "name": "sender",
          "type": "address"
        },
        {
          "internalType": "uint256",
          "name": "balance",
          "type": "uint256"
        },
        {
          "internalType": "uint256",
          "name": "needed",
          "type": "uint256"
        }
      ],
      "name": "ERC20InsufficientBalance",
      "type": "error"
    },
    {
      "inputs": [
        {
          "internalType": "address",
          "name": "approver",
          "type": "address"
        }
      ],
      "name": "ERC20InvalidApprover",
      "type": "error"
    },
    {
      "inputs": [
        {
          "internalType": "address",
          "name": "receiver",
          "type": "address"
        }
      ],
      "name": "ERC20InvalidReceiver",
      "type": "error"
    },
    {
      "inputs": [
        {
          "internalType": "address",
          "name": "sender",
          "type": "address"
        }
      ],
      "name": "ERC20InvalidSender",
      "type": "error"
    },
    {
      "inputs": [
        {
          "internalType": "address",
          "name": "spender",
          "type": "address"
        }
      ],
      "name": "ERC20InvalidSpender",
      "type": "error"
    },
    {
      "inputs": [],
      "name": "MiningAlreadyStarted",
      "type": "error"
    },
    {
      "inputs": [],
      "name": "MiningNotStarted",
      "type": "error"
    },
    {
      "inputs": [],
      "name": "TransferNotAllowed",
      "type": "error"
    },
    {
      "anonymous": false,
      "inputs": [
        {
          "indexed": true,
          "internalType": "address",
          "name": "owner",
          "type": "address"
        },
        {
          "indexed": true,
          "internalType": "address",
          "name": "spender",
          "type": "address"
        },
        {
          "indexed": false,
          "internalType": "uint256",
          "name": "value",
          "type": "uint256"
        }
      ],
      "name": "Approval",
      "type": "event"
    },
    {
      "anonymous": false,
      "inputs": [
        {
          "indexed": true,
          "internalType": "bytes32",
          "name": "role",
          "type": "bytes32"
        },
        {
          "indexed": true,
          "internalType": "bytes32",
          "name": "previousAdminRole",
          "type": "bytes32"
        },
        {
          "indexed": true,
          "internalType": "bytes32",
          "name": "newAdminRole",
          "type": "bytes32"
        }
      ],
      "name": "RoleAdminChanged",
      "type": "event"
    },
    {
      "anonymous": false,
      "inputs": [
        {
          "indexed": true,
          "internalType": "bytes32",
          "name": "role",
          "type": "bytes32"
        },
        {
          "indexed": true,
          "internalType": "address",
          "name": "account",
          "type": "address"
        },
        {
          "indexed": true,
          "internalType": "address",
          "name": "sender",
          "type": "address"
        }
      ],
      "name": "RoleGranted",
      "type": "event"
    },
    {
      "anonymous": false,
      "inputs": [
        {
          "indexed": true,
          "internalType": "bytes32",
          "name": "role",
          "type": "bytes32"
        },
        {
          "indexed": true,
          "internalType": "address",
          "name": "account",
          "type": "address"
        },
        {
          "indexed": true,
          "internalType": "address",
          "name": "sender",
          "type": "address"
        }
      ],
      "name": "RoleRevoked",
      "type": "event"
    },
    {
      "anonymous": false,
      "inputs": [
        {
          "indexed": true,
          "internalType": "address",
          "name": "from",
          "type": "address"
        },
        {
          "indexed": true,
          "internalType": "address",
          "name": "to",
          "type": "address"
        },
        {
          "indexed": false,
          "internalType": "uint256",
          "name": "value",
          "type": "uint256"
        }
      ],
      "name": "Transfer",
      "type": "event"
    },
    {
      "inputs": [],
      "name": "DEFAULT_ADMIN_ROLE",
      "outputs": [
        {
          "internalType": "bytes32",
          "name": "",
          "type": "bytes32"
        }
      ],
      "stateMutability": "view",
      "type": "function"
    },
    {
      "inputs": [],
      "name": "GENESIS_TIMESTAMP",
      "outputs": [
        {
          "internalType": "uint256",
          "name": "",
          "type": "uint256"
        }
      ],
      "stateMutability": "view",
      "type": "function"
    },
    {
      "inputs": [],
      "name": "MAX_SUPPLY",
      "outputs": [
        {
          "internalType": "uint256",
          "name": "",
          "type": "uint256"
        }
      ],
      "stateMutability": "view",
      "type": "function"
    },
    {
      "inputs": [],
      "name": "MINTER_ROLE",
      "outputs": [
        {
          "internalType": "bytes32",
          "name": "",
          "type": "bytes32"
        }
      ],
      "stateMutability": "view",
      "type": "function"
    },
    {
      "inputs": [],
      "name": "NUM_PHASES",
      "outputs": [
        {
          "internalType": "uint256",
          "name": "",
          "type": "uint256"
        }
      ],
      "stateMutability": "view",
      "type": "function"
    },
    {
      "inputs": [],
      "name": "PHASE0_PERIOD",
      "outputs": [
        {
          "internalType": "uint256",
          "name": "",
          "type": "uint256"
        }
      ],
      "stateMutability": "view",
      "type": "function"
    },
    {
      "inputs": [],
      "name": "PHASE0_REWARD_PER_DAY",
      "outputs": [
        {
          "internalType": "uint256",
          "name": "",
          "type": "uint256"
        }
      ],
      "stateMutability": "view",
      "type": "function"
    },
    {
      "inputs": [],
      "name": "allowTransfers",
      "outputs": [],
      "stateMutability": "nonpayable",
      "type": "function"
    },
    {
      "inputs": [
        {
          "internalType": "address",
          "name": "owner",
          "type": "address"
        },
        {
          "internalType": "address",
          "name": "spender",
          "type": "address"
        }
      ],
      "name": "allowance",
      "outputs": [
        {
          "internalType": "uint256",
          "name": "",
          "type": "uint256"
        }
      ],
      "stateMutability": "view",
      "type": "function"
    },
    {
      "inputs": [
        {
          "internalType": "address",
          "name": "spender",
          "type": "address"
        },
        {
          "internalType": "uint256",
          "name": "value",
          "type": "uint256"
        }
      ],
      "name": "approve",
      "outputs": [
        {
          "internalType": "bool",
          "name": "",
          "type": "bool"
        }
      ],
      "stateMutability": "nonpayable",
      "type": "function"
    },
    {
      "inputs": [
        {
          "internalType": "address",
          "name": "account",
          "type": "address"
        }
      ],
      "name": "balanceOf",
      "outputs": [
        {
          "internalType": "uint256",
          "name": "",
          "type": "uint256"
        }
      ],
      "stateMutability": "view",
      "type": "function"
    },
    {
      "inputs": [
        {
          "internalType": "uint256",
          "name": "amount",
          "type": "uint256"
        }
      ],
      "name": "burn",
      "outputs": [],
      "stateMutability": "nonpayable",
      "type": "function"
    },
    {
      "inputs": [],
      "name": "decimals",
      "outputs": [
        {
          "internalType": "uint8",
          "name": "",
          "type": "uint8"
        }
      ],
      "stateMutability": "view",
      "type": "function"
    },
    {
      "inputs": [
        {
          "internalType": "bytes32",
          "name": "role",
          "type": "bytes32"
        }
      ],
      "name": "getRoleAdmin",
      "outputs": [
        {
          "internalType": "bytes32",
          "name": "",
          "type": "bytes32"
        }
      ],
      "stateMutability": "view",
      "type": "function"
    },
    {
      "inputs": [
        {
          "internalType": "bytes32",
          "name": "role",
          "type": "bytes32"
        },
        {
          "internalType": "address",
          "name": "account",
          "type": "address"
        }
      ],
      "name": "grantRole",
      "outputs": [],
      "stateMutability": "nonpayable",
      "type": "function"
    },
    {
      "inputs": [
        {
          "internalType": "bytes32",
          "name": "role",
          "type": "bytes32"
        },
        {
          "internalType": "address",
          "name": "account",
          "type": "address"
        }
      ],
      "name": "hasRole",
      "outputs": [
        {
          "internalType": "bool",
          "name": "",
          "type": "bool"
        }
      ],
      "stateMutability": "view",
      "type": "function"
    },
    {
      "inputs": [],
      "name": "isStarted",
      "outputs": [
        {
          "internalType": "bool",
          "name": "",
          "type": "bool"
        }
      ],
      "stateMutability": "view",
      "type": "function"
    },
    {
      "inputs": [
        {
          "internalType": "address",
          "name": "to",
          "type": "address"
        }
      ],
      "name": "mint",
      "outputs": [],
      "stateMutability": "nonpayable",
      "type": "function"
    },
    {
      "inputs": [],
      "name": "name",
      "outputs": [
        {
          "internalType": "string",
          "name": "",
          "type": "string"
        }
      ],
      "stateMutability": "view",
      "type": "function"
    },
    {
      "inputs": [
        {
          "internalType": "bytes32",
          "name": "role",
          "type": "bytes32"
        },
        {
          "internalType": "address",
          "name": "callerConfirmation",
          "type": "address"
        }
      ],
      "name": "renounceRole",
      "outputs": [],
      "stateMutability": "nonpayable",
      "type": "function"
    },
    {
      "inputs": [
        {
          "internalType": "bytes32",
          "name": "role",
          "type": "bytes32"
        },
        {
          "internalType": "address",
          "name": "account",
          "type": "address"
        }
      ],
      "name": "revokeRole",
      "outputs": [],
      "stateMutability": "nonpayable",
      "type": "function"
    },
    {
      "inputs": [],
      "name": "startMining",
      "outputs": [],
      "stateMutability": "nonpayable",
      "type": "function"
    },
    {
      "inputs": [
        {
          "internalType": "bytes4",
          "name": "interfaceId",
          "type": "bytes4"
        }
      ],
      "name": "supportsInterface",
      "outputs": [
        {
          "internalType": "bool",
          "name": "",
          "type": "bool"
        }
      ],
      "stateMutability": "view",
      "type": "function"
    },
    {
      "inputs": [],
      "name": "symbol",
      "outputs": [
        {
          "internalType": "string",
          "name": "",
          "type": "string"
        }
      ],
      "stateMutability": "view",
      "type": "function"
    },
    {
      "inputs": [],
      "name": "totalBurnedAmount",
      "outputs": [
        {
          "internalType": "uint256",
          "name": "",
          "type": "uint256"
        }
      ],
      "stateMutability": "view",
      "type": "function"
    },
    {
      "inputs": [],
      "name": "totalClaimedAmount",
      "outputs": [
        {
          "internalType": "uint256",
          "name": "",
          "type": "uint256"
        }
      ],
      "stateMutability": "view",
      "type": "function"
    },
    {
      "inputs": [],
      "name": "totalMintableAmount",
      "outputs": [
        {
          "internalType": "uint256",
          "name": "",
          "type": "uint256"
        }
      ],
      "stateMutability": "view",
      "type": "function"
    },
    {
      "inputs": [],
      "name": "totalSupply",
      "outputs": [
        {
          "internalType": "uint256",
          "name": "",
          "type": "uint256"
        }
      ],
      "stateMutability": "view",
      "type": "function"
    },
    {
      "inputs": [
        {
          "internalType": "address",
          "name": "to",
          "type": "address"
        },
        {
          "internalType": "uint256",
          "name": "value",
          "type": "uint256"
        }
      ],
      "name": "transfer",
      "outputs": [
        {
          "internalType": "bool",
          "name": "",
          "type": "bool"
        }
      ],
      "stateMutability": "nonpayable",
      "type": "function"
    },
    {
      "inputs": [
        {
          "internalType": "address",
          "name": "from",
          "type": "address"
        },
        {
          "internalType": "address",
          "name": "to",
          "type": "address"
        },
        {
          "internalType": "uint256",
          "name": "value",
          "type": "uint256"
        }
      ],
      "name": "transferFrom",
      "outputs": [
        {
          "internalType": "bool",
          "name": "",
          "type": "bool"
        }
      ],
      "stateMutability": "nonpayable",
      "type": "function"
    },
    {
      "inputs": [],
      "name": "transfersAllowed",
      "outputs": [
        {
          "internalType": "bool",
          "name": "",
          "type": "bool"
        }
      ],
      "stateMutability": "view",
      "type": "function"
    },
    {
      "inputs": [
        {
          "internalType": "uint256",
          "name": "amount",
          "type": "uint256"
        }
      ],
      "name": "vanish",
      "outputs": [],
      "stateMutability": "nonpayable",
      "type": "function"
    }
  ],
  "bytecode": "0x60c060405234801561001057600080fd5b506040516127f03803806127f083398181016040528101906100329190610323565b6040518060400160405280600681526020017f494e544d415800000000000000000000000000000000000000000000000000008152506040518060400160405280600381526020017f495458000000000000000000000000000000000000000000000000000000000081525081600390816100ad91906105a0565b5080600490816100bd91906105a0565b5050506100ce61014660201b60201c565b600a6100da91906107e1565b6288601c6100e8919061082c565b6080818152505060076010608051610100919061082c565b61010a919061082c565b60a081815250506000600860006101000a81548160ff02191690831515021790555061013f6000801b8261014f60201b60201c565b505061086e565b60006012905090565b6000610161838361024d60201b60201c565b6102425760016005600085815260200190815260200160002060000160008473ffffffffffffffffffffffffffffffffffffffff1673ffffffffffffffffffffffffffffffffffffffff16815260200190815260200160002060006101000a81548160ff0219169083151502179055506101df6102b860201b60201c565b73ffffffffffffffffffffffffffffffffffffffff168273ffffffffffffffffffffffffffffffffffffffff16847f2f8788117e7eff1d82e926ec794901d17c78024a50270940304540a733656f0d60405160405180910390a460019050610247565b600090505b92915050565b60006005600084815260200190815260200160002060000160008373ffffffffffffffffffffffffffffffffffffffff1673ffffffffffffffffffffffffffffffffffffffff16815260200190815260200160002060009054906101000a900460ff16905092915050565b600033905090565b600080fd5b600073ffffffffffffffffffffffffffffffffffffffff82169050919050565b60006102f0826102c5565b9050919050565b610300816102e5565b811461030b57600080fd5b50565b60008151905061031d816102f7565b92915050565b600060208284031215610339576103386102c0565b5b60006103478482850161030e565b91505092915050565b600081519050919050565b7f4e487b7100000000000000000000000000000000000000000000000000000000600052604160045260246000fd5b7f4e487b7100000000000000000000000000000000000000000000000000000000600052602260045260246000fd5b600060028204905060018216806103d157607f821691505b6020821081036103e4576103e361038a565b5b50919050565b60008190508160005260206000209050919050565b60006020601f8301049050919050565b600082821b905092915050565b60006008830261044c7fffffffffffffffffffffffffffffffffffffffffffffffffffffffffffffffff8261040f565b610456868361040f565b95508019841693508086168417925050509392505050565b6000819050919050565b6000819050919050565b600061049d6104986104938461046e565b610478565b61046e565b9050919050565b6000819050919050565b6104b783610482565b6104cb6104c3826104a4565b84845461041c565b825550505050565b600090565b6104e06104d3565b6104eb8184846104ae565b505050565b5b8181101561050f576105046000826104d8565b6001810190506104f1565b5050565b601f82111561055457610525816103ea565b61052e846103ff565b8101602085101561053d578190505b610551610549856103ff565b8301826104f0565b50505b505050565b600082821c905092915050565b600061057760001984600802610559565b1980831691505092915050565b60006105908383610566565b9150826002028217905092915050565b6105a982610350565b67ffffffffffffffff8111156105c2576105c161035b565b5b6105cc82546103b9565b6105d7828285610513565b600060209050601f83116001811461060a57600084156105f8578287015190505b6106028582610584565b86555061066a565b601f198416610618866103ea565b60005b828110156106405784890151825560018201915060208501945060208101905061061b565b8683101561065d5784890151610659601f891682610566565b8355505b6001600288020188555050505b505050505050565b7f4e487b7100000000000000000000000000000000000000000000000000000000600052601160045260246000fd5b60008160011c9050919050565b6000808291508390505b60018511156106f8578086048111156106d4576106d3610672565b5b60018516156106e35780820291505b80810290506106f1856106a1565b94506106b8565b94509492505050565b60008261071157600190506107cd565b8161071f57600090506107cd565b8160018114610735576002811461073f5761076e565b60019150506107cd565b60ff84111561075157610750610672565b5b8360020a91508482111561076857610767610672565b5b506107cd565b5060208310610133831016604e8410600b84101617156107a35782820a90508381111561079e5761079d610672565b5b6107cd565b6107b084848460016106ae565b925090508184048111156107c7576107c6610672565b5b81810290505b9392505050565b600060ff82169050919050565b60006107ec8261046e565b91506107f7836107d4565b92506108247fffffffffffffffffffffffffffffffffffffffffffffffffffffffffffffffff8484610701565b905092915050565b60006108378261046e565b91506108428361046e565b92508282026108508161046e565b9150828204841483151761086757610866610672565b5b5092915050565b60805160a051611f5661089a60003960006108e1015260008181610bf30152610d0f0152611f566000f3fe608060405234801561001057600080fd5b50600436106101f05760003560e01c80636a6278421161010f578063b0660c3d116100a2578063d547741f11610071578063d547741f14610589578063dd62ed3e146105a5578063dea5b6ae146105d5578063eb9f1b1d146105f3576101f0565b8063b0660c3d14610511578063b8e500541461052f578063c52f41241461054d578063d53913931461056b576101f0565b80639661cb0d116100de5780639661cb0d14610489578063a217fddf146104a7578063a3bedaa3146104c5578063a9059cbb146104e1576101f0565b80636a627842146103ef57806370a082311461040b57806391d148541461043b57806395d89b411461046b576101f0565b8063248a9ca31161018757806335ab5f641161015657806335ab5f641461037b57806336568abe1461039957806342966c68146103b5578063544736e6146103d1576101f0565b8063248a9ca3146102f35780632f2ff15d14610323578063313ce5671461033f57806332cb6b0c1461035d576101f0565b806318160ddd116101c357806318160ddd146102915780632185810b146102af57806321b79d98146102b957806323b872dd146102c3576101f0565b806301ffc9a7146101f557806306fdde0314610225578063095ea7b3146102435780630c204d4414610273575b600080fd5b61020f600480360381019061020a91906118f9565b610611565b60405161021c9190611941565b60405180910390f35b61022d6106f3565b60405161023a91906119ec565b60405180910390f35b61025d60048036038101906102589190611aa2565b610785565b60405161026a9190611941565b60405180910390f35b61027b6107a8565b6040516102889190611af1565b60405180910390f35b6102996107b0565b6040516102a69190611af1565b60405180910390f35b6102b76107ba565b005b6102c16107e5565b005b6102dd60048036038101906102d89190611b0c565b610865565b6040516102ea9190611941565b60405180910390f35b61030d60048036038101906103089190611b95565b610894565b60405161031a9190611bd1565b60405180910390f35b61033d60048036038101906103389190611bec565b6108b4565b005b6103476108d6565b6040516103549190611c48565b60405180910390f35b6103656108df565b6040516103729190611af1565b60405180910390f35b610383610903565b6040516103909190611af1565b60405180910390f35b6103b360048036038101906103ae9190611bec565b610909565b005b6103cf60048036038101906103ca9190611c63565b610984565b005b6103d96109aa565b6040516103e69190611941565b60405180910390f35b61040960048036038101906104049190611c90565b6109bd565b005b61042560048036038101906104209190611c90565b610a5c565b6040516104329190611af1565b60405180910390f35b61045560048036038101906104509190611bec565b610aa4565b6040516104629190611941565b60405180910390f35b610473610b0f565b60405161048091906119ec565b60405180910390f35b610491610ba1565b60405161049e9190611af1565b60405180910390f35b6104af610ba7565b6040516104bc9190611bd1565b60405180910390f35b6104df60048036038101906104da9190611c63565b610bae565b005b6104fb60048036038101906104f69190611aa2565b610bbb565b6040516105089190611941565b60405180910390f35b610519610bde565b6040516105269190611941565b60405180910390f35b610537610bf1565b6040516105449190611af1565b60405180910390f35b610555610c15565b6040516105629190611af1565b60405180910390f35b610573610c1a565b6040516105809190611bd1565b60405180910390f35b6105a3600480360381019061059e9190611bec565b610c3e565b005b6105bf60048036038101906105ba9190611cbd565b610c60565b6040516105cc9190611af1565b60405180910390f35b6105dd610ce7565b6040516105ea9190611af1565b60405180910390f35b6105fb610dcb565b6040516106089190611af1565b60405180910390f35b60007f36372b07000000000000000000000000000000000000000000000000000000007bffffffffffffffffffffffffffffffffffffffffffffffffffffffff1916827bffffffffffffffffffffffffffffffffffffffffffffffffffffffff191614806106dc57507f67c66178000000000000000000000000000000000000000000000000000000007bffffffffffffffffffffffffffffffffffffffffffffffffffffffff1916827bffffffffffffffffffffffffffffffffffffffffffffffffffffffff1916145b806106ec57506106eb82610dd0565b5b9050919050565b60606003805461070290611d2c565b80601f016020809104026020016040519081016040528092919081815260200182805461072e90611d2c565b801561077b5780601f106107505761010080835404028352916020019161077b565b820191906000526020600020905b81548152906001019060200180831161075e57829003601f168201915b5050505050905090565b600080610790610e4a565b905061079d818585610e52565b600191505092915050565b6366b2e15081565b6000600254905090565b6000801b6107c781610e64565b6001600860006101000a81548160ff02191690831515021790555050565b6000801b6107f281610e64565b600860019054906101000a900460ff1615610839576040517f6d5d3b1800000000000000000000000000000000000000000000000000000000815260040160405180910390fd5b610841610ce7565b6007819055506001600860016101000a81548160ff02191690831515021790555050565b600080610870610e4a565b905061087d858285610e78565b610888858585610f0c565b60019150509392505050565b600060056000838152602001908152602001600020600101549050919050565b6108bd82610894565b6108c681610e64565b6108d08383611000565b50505050565b60006012905090565b7f000000000000000000000000000000000000000000000000000000000000000081565b60065481565b610911610e4a565b73ffffffffffffffffffffffffffffffffffffffff168173ffffffffffffffffffffffffffffffffffffffff1614610975576040517f6697b23200000000000000000000000000000000000000000000000000000000815260040160405180910390fd5b61097f82826110f2565b505050565b61098e33826111e5565b80600660008282546109a09190611d8c565b9250508190555050565b600860019054906101000a900460ff1681565b600860019054906101000a900460ff16610a03576040517fefdc789e00000000000000000000000000000000000000000000000000000000815260040160405180910390fd5b7f9f2df0fed2c77648de5860a4cc508cd0818c85b8b8a1ab4ceeef8d981c8956a6610a2d81610e64565b6000610a37610ce7565b9050610a508360075483610a4b9190611dc0565b611267565b80600781905550505050565b60008060008373ffffffffffffffffffffffffffffffffffffffff1673ffffffffffffffffffffffffffffffffffffffff168152602001908152602001600020549050919050565b60006005600084815260200190815260200160002060000160008373ffffffffffffffffffffffffffffffffffffffff1673ffffffffffffffffffffffffffffffffffffffff16815260200190815260200160002060009054906101000a900460ff16905092915050565b606060048054610b1e90611d2c565b80601f0160208091040260200160405190810160405280929190818152602001828054610b4a90611d2c565b8015610b975780601f10610b6c57610100808354040283529160200191610b97565b820191906000526020600020905b815481529060010190602001808311610b7a57829003601f168201915b5050505050905090565b60075481565b6000801b81565b610bb833826111e5565b50565b600080610bc6610e4a565b9050610bd3818585610f0c565b600191505092915050565b600860009054906101000a900460ff1681565b7f000000000000000000000000000000000000000000000000000000000000000081565b601081565b7f9f2df0fed2c77648de5860a4cc508cd0818c85b8b8a1ab4ceeef8d981c8956a681565b610c4782610894565b610c5081610e64565b610c5a83836110f2565b50505050565b6000600160008473ffffffffffffffffffffffffffffffffffffffff1673ffffffffffffffffffffffffffffffffffffffff16815260200190815260200160002060008373ffffffffffffffffffffffffffffffffffffffff1673ffffffffffffffffffffffffffffffffffffffff16815260200190815260200160002054905092915050565b600080620151806366b2e15042610cfe9190611dc0565b610d089190611e23565b90506000807f0000000000000000000000000000000000000000000000000000000000000000905060005b6007811015610da8576000816010901b905080851015610d6c578285610d599190611e54565b84610d649190611d8c565b935050610da8565b8281610d789190611e54565b84610d839190611d8c565b93508085610d919190611dc0565b9450600183901c9250508080600101915050610d33565b506002600654610db89190611e23565b82610dc39190611d8c565b935050505090565b600781565b60007f7965db0b000000000000000000000000000000000000000000000000000000007bffffffffffffffffffffffffffffffffffffffffffffffffffffffff1916827bffffffffffffffffffffffffffffffffffffffffffffffffffffffff19161480610e435750610e42826112e9565b5b9050919050565b600033905090565b610e5f8383836001611353565b505050565b610e7581610e70610e4a565b61152a565b50565b6000610e848484610c60565b90507fffffffffffffffffffffffffffffffffffffffffffffffffffffffffffffffff8114610f065781811015610ef6578281836040517ffb8f41b2000000000000000000000000000000000000000000000000000000008152600401610eed93929190611ea5565b60405180910390fd5b610f0584848484036000611353565b5b50505050565b600073ffffffffffffffffffffffffffffffffffffffff168373ffffffffffffffffffffffffffffffffffffffff1603610f7e5760006040517f96c6fd1e000000000000000000000000000000000000000000000000000000008152600401610f759190611edc565b60405180910390fd5b600073ffffffffffffffffffffffffffffffffffffffff168273ffffffffffffffffffffffffffffffffffffffff1603610ff05760006040517fec442f05000000000000000000000000000000000000000000000000000000008152600401610fe79190611edc565b60405180910390fd5b610ffb83838361157b565b505050565b600061100c8383610aa4565b6110e75760016005600085815260200190815260200160002060000160008473ffffffffffffffffffffffffffffffffffffffff1673ffffffffffffffffffffffffffffffffffffffff16815260200190815260200160002060006101000a81548160ff021916908315150217905550611084610e4a565b73ffffffffffffffffffffffffffffffffffffffff168273ffffffffffffffffffffffffffffffffffffffff16847f2f8788117e7eff1d82e926ec794901d17c78024a50270940304540a733656f0d60405160405180910390a4600190506110ec565b600090505b92915050565b60006110fe8383610aa4565b156111da5760006005600085815260200190815260200160002060000160008473ffffffffffffffffffffffffffffffffffffffff1673ffffffffffffffffffffffffffffffffffffffff16815260200190815260200160002060006101000a81548160ff021916908315150217905550611177610e4a565b73ffffffffffffffffffffffffffffffffffffffff168273ffffffffffffffffffffffffffffffffffffffff16847ff6391f5c32d9c69d2a47ea670b442974b53935d1edc7fd64eb21e047a839171b60405160405180910390a4600190506111df565b600090505b92915050565b600073ffffffffffffffffffffffffffffffffffffffff168273ffffffffffffffffffffffffffffffffffffffff16036112575760006040517f96c6fd1e00000000000000000000000000000000000000000000000000000000815260040161124e9190611edc565b60405180910390fd5b6112638260008361157b565b5050565b600073ffffffffffffffffffffffffffffffffffffffff168273ffffffffffffffffffffffffffffffffffffffff16036112d95760006040517fec442f050000000000000000000000000000000000000000000000000000000081526004016112d09190611edc565b60405180910390fd5b6112e56000838361157b565b5050565b60007f01ffc9a7000000000000000000000000000000000000000000000000000000007bffffffffffffffffffffffffffffffffffffffffffffffffffffffff1916827bffffffffffffffffffffffffffffffffffffffffffffffffffffffff1916149050919050565b600073ffffffffffffffffffffffffffffffffffffffff168473ffffffffffffffffffffffffffffffffffffffff16036113c55760006040517fe602df050000000000000000000000000000000000000000000000000000000081526004016113bc9190611edc565b60405180910390fd5b600073ffffffffffffffffffffffffffffffffffffffff168373ffffffffffffffffffffffffffffffffffffffff16036114375760006040517f94280d6200000000000000000000000000000000000000000000000000000000815260040161142e9190611edc565b60405180910390fd5b81600160008673ffffffffffffffffffffffffffffffffffffffff1673ffffffffffffffffffffffffffffffffffffffff16815260200190815260200160002060008573ffffffffffffffffffffffffffffffffffffffff1673ffffffffffffffffffffffffffffffffffffffff168152602001908152602001600020819055508015611524578273ffffffffffffffffffffffffffffffffffffffff168473ffffffffffffffffffffffffffffffffffffffff167f8c5be1e5ebec7d5bd14f71427d1e84f3dd0314c0f7b2291e5b200ac8c7c3b9258460405161151b9190611af1565b60405180910390a35b50505050565b6115348282610aa4565b6115775780826040517fe2517d3f00000000000000000000000000000000000000000000000000000000815260040161156e929190611ef7565b60405180910390fd5b5050565b6115858383611595565b611590838383611677565b505050565b600860009054906101000a900460ff16611673576115d37f9f2df0fed2c77648de5860a4cc508cd0818c85b8b8a1ab4ceeef8d981c8956a683610aa4565b61167357600073ffffffffffffffffffffffffffffffffffffffff168273ffffffffffffffffffffffffffffffffffffffff16031561167357600073ffffffffffffffffffffffffffffffffffffffff168173ffffffffffffffffffffffffffffffffffffffff160315611673576040517f8cd22d1900000000000000000000000000000000000000000000000000000000815260040160405180910390fd5b5050565b600073ffffffffffffffffffffffffffffffffffffffff168373ffffffffffffffffffffffffffffffffffffffff16036116c95780600260008282546116bd9190611d8c565b9250508190555061179c565b60008060008573ffffffffffffffffffffffffffffffffffffffff1673ffffffffffffffffffffffffffffffffffffffff16815260200190815260200160002054905081811015611755578381836040517fe450d38c00000000000000000000000000000000000000000000000000000000815260040161174c93929190611ea5565b60405180910390fd5b8181036000808673ffffffffffffffffffffffffffffffffffffffff1673ffffffffffffffffffffffffffffffffffffffff16815260200190815260200160002081905550505b600073ffffffffffffffffffffffffffffffffffffffff168273ffffffffffffffffffffffffffffffffffffffff16036117e55780600260008282540392505081905550611832565b806000808473ffffffffffffffffffffffffffffffffffffffff1673ffffffffffffffffffffffffffffffffffffffff168152602001908152602001600020600082825401925050819055505b8173ffffffffffffffffffffffffffffffffffffffff168373ffffffffffffffffffffffffffffffffffffffff167fddf252ad1be2c89b69c2b068fc378daa952ba7f163c4a11628f55a4df523b3ef8360405161188f9190611af1565b60405180910390a3505050565b600080fd5b60007fffffffff0000000000000000000000000000000000000000000000000000000082169050919050565b6118d6816118a1565b81146118e157600080fd5b50565b6000813590506118f3816118cd565b92915050565b60006020828403121561190f5761190e61189c565b5b600061191d848285016118e4565b91505092915050565b60008115159050919050565b61193b81611926565b82525050565b60006020820190506119566000830184611932565b92915050565b600081519050919050565b600082825260208201905092915050565b60005b8381101561199657808201518184015260208101905061197b565b60008484015250505050565b6000601f19601f8301169050919050565b60006119be8261195c565b6119c88185611967565b93506119d8818560208601611978565b6119e1816119a2565b840191505092915050565b60006020820190508181036000830152611a0681846119b3565b905092915050565b600073ffffffffffffffffffffffffffffffffffffffff82169050919050565b6000611a3982611a0e565b9050919050565b611a4981611a2e565b8114611a5457600080fd5b50565b600081359050611a6681611a40565b92915050565b6000819050919050565b611a7f81611a6c565b8114611a8a57600080fd5b50565b600081359050611a9c81611a76565b92915050565b60008060408385031215611ab957611ab861189c565b5b6000611ac785828601611a57565b9250506020611ad885828601611a8d565b9150509250929050565b611aeb81611a6c565b82525050565b6000602082019050611b066000830184611ae2565b92915050565b600080600060608486031215611b2557611b2461189c565b5b6000611b3386828701611a57565b9350506020611b4486828701611a57565b9250506040611b5586828701611a8d565b9150509250925092565b6000819050919050565b611b7281611b5f565b8114611b7d57600080fd5b50565b600081359050611b8f81611b69565b92915050565b600060208284031215611bab57611baa61189c565b5b6000611bb984828501611b80565b91505092915050565b611bcb81611b5f565b82525050565b6000602082019050611be66000830184611bc2565b92915050565b60008060408385031215611c0357611c0261189c565b5b6000611c1185828601611b80565b9250506020611c2285828601611a57565b9150509250929050565b600060ff82169050919050565b611c4281611c2c565b82525050565b6000602082019050611c5d6000830184611c39565b92915050565b600060208284031215611c7957611c7861189c565b5b6000611c8784828501611a8d565b91505092915050565b600060208284031215611ca657611ca561189c565b5b6000611cb484828501611a57565b91505092915050565b60008060408385031215611cd457611cd361189c565b5b6000611ce285828601611a57565b9250506020611cf385828601611a57565b9150509250929050565b7f4e487b7100000000000000000000000000000000000000000000000000000000600052602260045260246000fd5b60006002820490506001821680611d4457607f821691505b602082108103611d5757611d56611cfd565b5b50919050565b7f4e487b7100000000000000000000000000000000000000000000000000000000600052601160045260246000fd5b6000611d9782611a6c565b9150611da283611a6c565b9250828201905080821115611dba57611db9611d5d565b5b92915050565b6000611dcb82611a6c565b9150611dd683611a6c565b9250828203905081811115611dee57611ded611d5d565b5b92915050565b7f4e487b7100000000000000000000000000000000000000000000000000000000600052601260045260246000fd5b6000611e2e82611a6c565b9150611e3983611a6c565b925082611e4957611e48611df4565b5b828204905092915050565b6000611e5f82611a6c565b9150611e6a83611a6c565b9250828202611e7881611a6c565b91508282048414831517611e8f57611e8e611d5d565b5b5092915050565b611e9f81611a2e565b82525050565b6000606082019050611eba6000830186611e96565b611ec76020830185611ae2565b611ed46040830184611ae2565b949350505050565b6000602082019050611ef16000830184611e96565b92915050565b6000604082019050611f0c6000830185611e96565b611f196020830184611bc2565b939250505056fea26469706673582212200ad004d54644ecc4e6e7798ece72dfd8825e85f81dd4ead8b2bc8e83100c39ad64736f6c634300081b0033",
  "linkReferences": {},
  "deployedLinkReferences": {}
}