{
  "_format": "hh-sol-artifact-1",
  "contractName": "Int1LV2",
  "sourceName": "contracts/int1/int1/layer2/Int1LV2.sol",
  "abi": [
    {
      "inputs": [],
      "name": "AccessControlBadConfirmation",
      "type": "error"
    },
    {
      "inputs": [
        {
          "internalType": "address",
          "name": "account",
          "type": "address"
        },
        {
          "internalType": "bytes32",
          "name": "neededRole",
          "type": "bytes32"
        }
      ],
      "name": "AccessControlUnauthorizedAccount",
      "type": "error"
    },
    {
      "inputs": [
        {
          "internalType": "address",
          "name": "target",
          "type": "address"
        }
      ],
      "name": "AddressEmptyCode",
      "type": "error"
    },
    {
      "inputs": [],
      "name": "AlreadyAnalyzed",
      "type": "error"
    },
    {
      "inputs": [
        {
          "internalType": "address",
          "name": "implementation",
          "type": "address"
        }
      ],
      "name": "ERC1967InvalidImplementation",
      "type": "error"
    },
    {
      "inputs": [],
      "name": "ERC1967NonPayable",
      "type": "error"
    },
    {
      "inputs": [],
      "name": "FailedInnerCall",
      "type": "error"
    },
    {
      "inputs": [],
      "name": "GasTooHigh",
      "type": "error"
    },
    {
      "inputs": [
        {
          "internalType": "bytes32",
          "name": "depositDataHash",
          "type": "bytes32"
        },
        {
          "internalType": "bytes32",
          "name": "calculatedHash",
          "type": "bytes32"
        }
      ],
      "name": "InvalidDepositHash",
      "type": "error"
    },
    {
      "inputs": [
        {
          "internalType": "bytes32",
          "name": "depositRoot",
          "type": "bytes32"
        }
      ],
      "name": "InvalidDepositRoot",
      "type": "error"
    },
    {
      "inputs": [],
      "name": "InvalidInitialization",
      "type": "error"
    },
    {
      "inputs": [],
      "name": "InvalidProof",
      "type": "error"
    },
    {
      "inputs": [],
      "name": "InvalidTokenIndex",
      "type": "error"
    },
    {
      "inputs": [],
      "name": "MerkleTreeFull",
      "type": "error"
    },
    {
      "inputs": [],
      "name": "NotInitializing",
      "type": "error"
    },
    {
      "inputs": [],
      "name": "OnlySenderCanCancelDeposit",
      "type": "error"
    },
    {
      "inputs": [],
      "name": "RecipientSaltHashAlreadyUsed",
      "type": "error"
    },
    {
      "inputs": [
        {
          "internalType": "uint256",
          "name": "upToDepositId",
          "type": "uint256"
        },
        {
          "internalType": "uint256",
          "name": "firstDepositId",
          "type": "uint256"
        },
        {
          "internalType": "uint256",
          "name": "lastDepositId",
          "type": "uint256"
        }
      ],
      "name": "TriedAnalyzeOutOfRange",
      "type": "error"
    },
    {
      "inputs": [],
      "name": "TriedToDepositZero",
      "type": "error"
    },
    {
      "inputs": [
        {
          "internalType": "uint256",
          "name": "rejectIndex",
          "type": "uint256"
        },
        {
          "internalType": "uint256",
          "name": "front",
          "type": "uint256"
        },
        {
          "internalType": "uint256",
          "name": "upToDepositId",
          "type": "uint256"
        }
      ],
      "name": "TriedToRejectOutOfRange",
      "type": "error"
    },
    {
      "inputs": [],
      "name": "UUPSUnauthorizedCallContext",
      "type": "error"
    },
    {
      "inputs": [
        {
          "internalType": "bytes32",
          "name": "slot",
          "type": "bytes32"
        }
      ],
      "name": "UUPSUnsupportedProxiableUUID",
      "type": "error"
    },
    {
      "inputs": [
        {
          "internalType": "bytes32",
          "name": "nullifier",
          "type": "bytes32"
        }
      ],
      "name": "UsedNullifier",
      "type": "error"
    },
    {
      "anonymous": false,
      "inputs": [
        {
          "indexed": true,
          "internalType": "uint256",
          "name": "depositId",
          "type": "uint256"
        }
      ],
      "name": "DepositCanceled",
      "type": "event"
    },
    {
      "anonymous": false,
      "inputs": [
        {
          "indexed": true,
          "internalType": "uint32",
          "name": "depositIndex",
          "type": "uint32"
        },
        {
          "indexed": true,
          "internalType": "bytes32",
          "name": "depositHash",
          "type": "bytes32"
        }
      ],
      "name": "DepositLeafInserted",
      "type": "event"
    },
    {
      "anonymous": false,
      "inputs": [
        {
          "indexed": true,
          "internalType": "uint256",
          "name": "depositId",
          "type": "uint256"
        },
        {
          "indexed": true,
          "internalType": "address",
          "name": "sender",
          "type": "address"
        },
        {
          "indexed": true,
          "internalType": "bytes32",
          "name": "recipientSaltHash",
          "type": "bytes32"
        },
        {
          "indexed": false,
          "internalType": "uint32",
          "name": "tokenIndex",
          "type": "uint32"
        },
        {
          "indexed": false,
          "internalType": "uint256",
          "name": "amount",
          "type": "uint256"
        },
        {
          "indexed": false,
          "internalType": "uint256",
          "name": "depositedAt",
          "type": "uint256"
        }
      ],
      "name": "Deposited",
      "type": "event"
    },
    {
      "anonymous": false,
      "inputs": [
        {
          "indexed": true,
          "internalType": "uint256",
          "name": "upToDepositId",
          "type": "uint256"
        },
        {
          "indexed": false,
          "internalType": "uint256[]",
          "name": "rejectedIndices",
          "type": "uint256[]"
        },
        {
          "indexed": false,
          "internalType": "bytes32[]",
          "name": "depositHashes",
          "type": "bytes32[]"
        }
      ],
      "name": "DepositsAnalyzedAndProcessed",
      "type": "event"
    },
    {
      "anonymous": false,
      "inputs": [
        {
          "indexed": false,
          "internalType": "uint64",
          "name": "version",
          "type": "uint64"
        }
      ],
      "name": "Initialized",
      "type": "event"
    },
    {
      "anonymous": false,
      "inputs": [
        {
          "indexed": true,
          "internalType": "bytes32",
          "name": "role",
          "type": "bytes32"
        },
        {
          "indexed": true,
          "internalType": "bytes32",
          "name": "previousAdminRole",
          "type": "bytes32"
        },
        {
          "indexed": true,
          "internalType": "bytes32",
          "name": "newAdminRole",
          "type": "bytes32"
        }
      ],
      "name": "RoleAdminChanged",
      "type": "event"
    },
    {
      "anonymous": false,
      "inputs": [
        {
          "indexed": true,
          "internalType": "bytes32",
          "name": "role",
          "type": "bytes32"
        },
        {
          "indexed": true,
          "internalType": "address",
          "name": "account",
          "type": "address"
        },
        {
          "indexed": true,
          "internalType": "address",
          "name": "sender",
          "type": "address"
        }
      ],
      "name": "RoleGranted",
      "type": "event"
    },
    {
      "anonymous": false,
      "inputs": [
        {
          "indexed": true,
          "internalType": "bytes32",
          "name": "role",
          "type": "bytes32"
        },
        {
          "indexed": true,
          "internalType": "address",
          "name": "account",
          "type": "address"
        },
        {
          "indexed": true,
          "internalType": "address",
          "name": "sender",
          "type": "address"
        }
      ],
      "name": "RoleRevoked",
      "type": "event"
    },
    {
      "anonymous": false,
      "inputs": [
        {
          "indexed": true,
          "internalType": "address",
          "name": "implementation",
          "type": "address"
        }
      ],
      "name": "Upgraded",
      "type": "event"
    },
    {
      "anonymous": false,
      "inputs": [
        {
          "indexed": true,
          "internalType": "address",
          "name": "recipient",
          "type": "address"
        },
        {
          "indexed": true,
          "internalType": "bytes32",
          "name": "nullifier",
          "type": "bytes32"
        },
        {
          "indexed": false,
          "internalType": "uint32",
          "name": "tokenIndex",
          "type": "uint32"
        },
        {
          "indexed": false,
          "internalType": "uint256",
          "name": "amount",
          "type": "uint256"
        }
      ],
      "name": "Withdrawn",
      "type": "event"
    },
    {
      "inputs": [],
      "name": "ANALYZER",
      "outputs": [
        {
          "internalType": "bytes32",
          "name": "",
          "type": "bytes32"
        }
      ],
      "stateMutability": "view",
      "type": "function"
    },
    {
      "inputs": [],
      "name": "DEFAULT_ADMIN_ROLE",
      "outputs": [
        {
          "internalType": "bytes32",
          "name": "",
          "type": "bytes32"
        }
      ],
      "stateMutability": "view",
      "type": "function"
    },
    {
      "inputs": [],
      "name": "TX_BASE_GAS",
      "outputs": [
        {
          "internalType": "uint256",
          "name": "",
          "type": "uint256"
        }
      ],
      "stateMutability": "view",
      "type": "function"
    },
    {
      "inputs": [],
      "name": "TX_TRANSFER_GAS",
      "outputs": [
        {
          "internalType": "uint256",
          "name": "",
          "type": "uint256"
        }
      ],
      "stateMutability": "view",
      "type": "function"
    },
    {
      "inputs": [],
      "name": "UPGRADE_INTERFACE_VERSION",
      "outputs": [
        {
          "internalType": "string",
          "name": "",
          "type": "string"
        }
      ],
      "stateMutability": "view",
      "type": "function"
    },
    {
      "inputs": [],
      "name": "WITHDRAWER",
      "outputs": [
        {
          "internalType": "bytes32",
          "name": "",
          "type": "bytes32"
        }
      ],
      "stateMutability": "view",
      "type": "function"
    },
    {
      "inputs": [
        {
          "internalType": "uint256",
          "name": "upToDepositId",
          "type": "uint256"
        },
        {
          "internalType": "uint256[]",
          "name": "rejectDepositIds",
          "type": "uint256[]"
        }
      ],
      "name": "analyzeAndProcessDeposits",
      "outputs": [],
      "stateMutability": "nonpayable",
      "type": "function"
    },
    {
      "inputs": [
        {
          "internalType": "uint256",
          "name": "depositId",
          "type": "uint256"
        },
        {
          "components": [
            {
              "internalType": "bytes32",
              "name": "recipientSaltHash",
              "type": "bytes32"
            },
            {
              "internalType": "uint32",
              "name": "tokenIndex",
              "type": "uint32"
            },
            {
              "internalType": "uint256",
              "name": "amount",
              "type": "uint256"
            }
          ],
          "internalType": "struct DepositLib.Deposit",
          "name": "deposit",
          "type": "tuple"
        }
      ],
      "name": "cancelDeposit",
      "outputs": [],
      "stateMutability": "nonpayable",
      "type": "function"
    },
    {
      "inputs": [],
      "name": "depositIndex",
      "outputs": [
        {
          "internalType": "uint32",
          "name": "",
          "type": "uint32"
        }
      ],
      "stateMutability": "view",
      "type": "function"
    },
    {
      "inputs": [
        {
          "internalType": "bytes32",
          "name": "recipientSaltHash",
          "type": "bytes32"
        }
      ],
      "name": "depositNativeToken",
      "outputs": [],
      "stateMutability": "payable",
      "type": "function"
    },
    {
      "inputs": [
        {
          "internalType": "bytes32",
          "name": "",
          "type": "bytes32"
        }
      ],
      "name": "depositRoots",
      "outputs": [
        {
          "internalType": "uint256",
          "name": "",
          "type": "uint256"
        }
      ],
      "stateMutability": "view",
      "type": "function"
    },
    {
      "inputs": [
        {
          "internalType": "uint256",
          "name": "depositId",
          "type": "uint256"
        }
      ],
      "name": "getDepositData",
      "outputs": [
        {
          "components": [
            {
              "internalType": "bytes32",
              "name": "depositHash",
              "type": "bytes32"
            },
            {
              "internalType": "address",
              "name": "sender",
              "type": "address"
            },
            {
              "internalType": "bool",
              "name": "isRejected",
              "type": "bool"
            }
          ],
          "internalType": "struct DepositQueueLibV2.DepositData",
          "name": "",
          "type": "tuple"
        }
      ],
      "stateMutability": "view",
      "type": "function"
    },
    {
      "inputs": [
        {
          "internalType": "uint256[]",
          "name": "depositIds",
          "type": "uint256[]"
        }
      ],
      "name": "getDepositDataBatch",
      "outputs": [
        {
          "components": [
            {
              "internalType": "bytes32",
              "name": "depositHash",
              "type": "bytes32"
            },
            {
              "internalType": "address",
              "name": "sender",
              "type": "address"
            },
            {
              "internalType": "bool",
              "name": "isRejected",
              "type": "bool"
            }
          ],
          "internalType": "struct DepositQueueLibV2.DepositData[]",
          "name": "",
          "type": "tuple[]"
        }
      ],
      "stateMutability": "view",
      "type": "function"
    },
    {
      "inputs": [],
      "name": "getDepositRoot",
      "outputs": [
        {
          "internalType": "bytes32",
          "name": "",
          "type": "bytes32"
        }
      ],
      "stateMutability": "view",
      "type": "function"
    },
    {
      "inputs": [],
      "name": "getLastDepositId",
      "outputs": [
        {
          "internalType": "uint256",
          "name": "",
          "type": "uint256"
        }
      ],
      "stateMutability": "view",
      "type": "function"
    },
    {
      "inputs": [],
      "name": "getLastProcessedDepositId",
      "outputs": [
        {
          "internalType": "uint256",
          "name": "",
          "type": "uint256"
        }
      ],
      "stateMutability": "view",
      "type": "function"
    },
    {
      "inputs": [
        {
          "internalType": "bytes32",
          "name": "role",
          "type": "bytes32"
        }
      ],
      "name": "getRoleAdmin",
      "outputs": [
        {
          "internalType": "bytes32",
          "name": "",
          "type": "bytes32"
        }
      ],
      "stateMutability": "view",
      "type": "function"
    },
    {
      "inputs": [
        {
          "internalType": "bytes32",
          "name": "role",
          "type": "bytes32"
        },
        {
          "internalType": "address",
          "name": "account",
          "type": "address"
        }
      ],
      "name": "grantRole",
      "outputs": [],
      "stateMutability": "nonpayable",
      "type": "function"
    },
    {
      "inputs": [
        {
          "internalType": "bytes32",
          "name": "role",
          "type": "bytes32"
        },
        {
          "internalType": "address",
          "name": "account",
          "type": "address"
        }
      ],
      "name": "hasRole",
      "outputs": [
        {
          "internalType": "bool",
          "name": "",
          "type": "bool"
        }
      ],
      "stateMutability": "view",
      "type": "function"
    },
    {
      "inputs": [
        {
          "internalType": "address",
          "name": "withdrawalVerifier_",
          "type": "address"
        },
        {
          "internalType": "address",
          "name": "admin_",
          "type": "address"
        }
      ],
      "name": "initialize",
      "outputs": [],
      "stateMutability": "nonpayable",
      "type": "function"
    },
    {
      "inputs": [
        {
          "internalType": "bytes32",
          "name": "",
          "type": "bytes32"
        }
      ],
      "name": "nullifiers",
      "outputs": [
        {
          "internalType": "uint256",
          "name": "",
          "type": "uint256"
        }
      ],
      "stateMutability": "view",
      "type": "function"
    },
    {
      "inputs": [],
      "name": "proxiableUUID",
      "outputs": [
        {
          "internalType": "bytes32",
          "name": "",
          "type": "bytes32"
        }
      ],
      "stateMutability": "view",
      "type": "function"
    },
    {
      "inputs": [
        {
          "internalType": "bytes32",
          "name": "role",
          "type": "bytes32"
        },
        {
          "internalType": "address",
          "name": "callerConfirmation",
          "type": "address"
        }
      ],
      "name": "renounceRole",
      "outputs": [],
      "stateMutability": "nonpayable",
      "type": "function"
    },
    {
      "inputs": [
        {
          "internalType": "bytes32",
          "name": "role",
          "type": "bytes32"
        },
        {
          "internalType": "address",
          "name": "account",
          "type": "address"
        }
      ],
      "name": "revokeRole",
      "outputs": [],
      "stateMutability": "nonpayable",
      "type": "function"
    },
    {
      "inputs": [
        {
          "internalType": "address",
          "name": "verifier_",
          "type": "address"
        }
      ],
      "name": "setVerifier",
      "outputs": [],
      "stateMutability": "nonpayable",
      "type": "function"
    },
    {
      "inputs": [
        {
          "internalType": "bytes4",
          "name": "interfaceId",
          "type": "bytes4"
        }
      ],
      "name": "supportsInterface",
      "outputs": [
        {
          "internalType": "bool",
          "name": "",
          "type": "bool"
        }
      ],
      "stateMutability": "view",
      "type": "function"
    },
    {
      "inputs": [
        {
          "internalType": "address",
          "name": "newImplementation",
          "type": "address"
        },
        {
          "internalType": "bytes",
          "name": "data",
          "type": "bytes"
        }
      ],
      "name": "upgradeToAndCall",
      "outputs": [],
      "stateMutability": "payable",
      "type": "function"
    },
    {
      "inputs": [
        {
          "components": [
            {
              "internalType": "bytes32",
              "name": "depositRoot",
              "type": "bytes32"
            },
            {
              "internalType": "bytes32",
              "name": "nullifier",
              "type": "bytes32"
            },
            {
              "internalType": "address",
              "name": "recipient",
              "type": "address"
            },
            {
              "internalType": "uint32",
              "name": "tokenIndex",
              "type": "uint32"
            },
            {
              "internalType": "uint256",
              "name": "amount",
              "type": "uint256"
            }
          ],
          "internalType": "struct IInt1.WithdrawalPublicInputs",
          "name": "pis",
          "type": "tuple"
        },
        {
          "internalType": "bytes",
          "name": "proof",
          "type": "bytes"
        }
      ],
      "name": "verifyProof",
      "outputs": [
        {
          "internalType": "bool",
          "name": "",
          "type": "bool"
        }
      ],
      "stateMutability": "view",
      "type": "function"
    },
    {
      "inputs": [
        {
          "components": [
            {
              "internalType": "bytes32",
              "name": "depositRoot",
              "type": "bytes32"
            },
            {
              "internalType": "bytes32",
              "name": "nullifier",
              "type": "bytes32"
            },
            {
              "internalType": "address",
              "name": "recipient",
              "type": "address"
            },
            {
              "internalType": "uint32",
              "name": "tokenIndex",
              "type": "uint32"
            },
            {
              "internalType": "uint256",
              "name": "amount",
              "type": "uint256"
            }
          ],
          "internalType": "struct IInt1.WithdrawalPublicInputs",
          "name": "publicInputs",
          "type": "tuple"
        },
        {
          "internalType": "bytes",
          "name": "proof",
          "type": "bytes"
        }
      ],
      "name": "withdraw",
      "outputs": [],
      "stateMutability": "payable",
      "type": "function"
    },
    {
      "inputs": [],
      "name": "withdrawalVerifier",
      "outputs": [
        {
          "internalType": "contract IPlonkVerifier",
          "name": "",
          "type": "address"
        }
      ],
      "stateMutability": "view",
      "type": "function"
    }
  ],
  "bytecode": "0x60a06040523073ffffffffffffffffffffffffffffffffffffffff1660809073ffffffffffffffffffffffffffffffffffffffff16815250348015604257600080fd5b506080516143e961006c60003960008181612081015281816120d6015261229701526143e96000f3fe6080604052600436106101cd5760003560e01c806366941984116100f7578063c13819b611610095578063defe4d5b11610064578063defe4d5b14610672578063e09dfaa21461069b578063eff97cd2146106d8578063ffd5533214610715576101cd565b8063c13819b6146105b6578063d547741f146105f3578063dd4d4e891461061c578063dd9ea29914610647576101cd565b806391d14854116100d157806391d14854146104f85780639a33390614610535578063a217fddf14610560578063ad3cb1cc1461058b576101cd565b806366941984146104795780636ef5475b146104a45780637b898939146104cd576101cd565b80633310ea4f1161016f578063485cc9551161013e578063485cc955146103e05780634f1ef2861461040957806352d1902d146104255780635437988d14610450576101cd565b80633310ea4f1461034557806336568abe1461036157806337f9fe261461038a5780633ae05047146103b5576101cd565b8063248a9ca3116101ab578063248a9ca3146102775780632997e86b146102b45780632f2ff15d146102f15780632f7d39221461031a576101cd565b806301ffc9a7146101d25780630c0b59b91461020f578063232c1c8a1461023a575b600080fd5b3480156101de57600080fd5b506101f960048036038101906101f49190612f40565b610731565b6040516102069190612f88565b60405180910390f35b34801561021b57600080fd5b506102246107ab565b6040516102319190612fbc565b60405180910390f35b34801561024657600080fd5b50610261600480360381019061025c9190613166565b6107cf565b60405161026e91906132ff565b60405180910390f35b34801561028357600080fd5b5061029e6004803603810190610299919061334d565b610930565b6040516102ab9190612fbc565b60405180910390f35b3480156102c057600080fd5b506102db60048036038101906102d6919061334d565b61095e565b6040516102e89190613389565b60405180910390f35b3480156102fd57600080fd5b50610318600480360381019061031391906133d0565b610976565b005b34801561032657600080fd5b5061032f610998565b60405161033c9190613389565b60405180910390f35b61035f600480360381019061035a9190613538565b61099e565b005b34801561036d57600080fd5b50610388600480360381019061038391906133d0565b610d3f565b005b34801561039657600080fd5b5061039f610dba565b6040516103ac91906135f7565b60405180910390f35b3480156103c157600080fd5b506103ca610dde565b6040516103d79190612fbc565b60405180910390f35b3480156103ec57600080fd5b5061040760048036038101906104029190613612565b610e53565b005b610423600480360381019061041e9190613707565b6110c1565b005b34801561043157600080fd5b5061043a6110e0565b6040516104479190612fbc565b60405180910390f35b34801561045c57600080fd5b5061047760048036038101906104729190613763565b611113565b005b34801561048557600080fd5b5061048e611164565b60405161049b9190612fbc565b60405180910390f35b3480156104b057600080fd5b506104cb60048036038101906104c691906137b4565b611188565b005b3480156104d957600080fd5b506104e26114f0565b6040516104ef9190613803565b60405180910390f35b34801561050457600080fd5b5061051f600480360381019061051a91906133d0565b611506565b60405161052c9190612f88565b60405180910390f35b34801561054157600080fd5b5061054a61157f565b6040516105579190613389565b60405180910390f35b34801561056c57600080fd5b50610575611585565b6040516105829190612fbc565b60405180910390f35b34801561059757600080fd5b506105a061158c565b6040516105ad919061389d565b60405180910390f35b3480156105c257600080fd5b506105dd60048036038101906105d891906138bf565b6115c5565b6040516105ea919061392e565b60405180910390f35b3480156105ff57600080fd5b5061061a600480360381019061061591906133d0565b61167f565b005b34801561062857600080fd5b506106316116a1565b60405161063e9190613389565b60405180910390f35b34801561065357600080fd5b5061065c6116ba565b6040516106699190613389565b60405180910390f35b34801561067e57600080fd5b5061069960048036038101906106949190613949565b6116d3565b005b3480156106a757600080fd5b506106c260048036038101906106bd919061334d565b6118cb565b6040516106cf9190613389565b60405180910390f35b3480156106e457600080fd5b506106ff60048036038101906106fa9190613538565b6118e3565b60405161070c9190612f88565b60405180910390f35b61072f600480360381019061072a919061334d565b6119db565b005b60007f7965db0b000000000000000000000000000000000000000000000000000000007bffffffffffffffffffffffffffffffffffffffffffffffffffffffff1916827bffffffffffffffffffffffffffffffffffffffffffffffffffffffff191614806107a457506107a382611b4b565b5b9050919050565b7fe5002bd16ffc71462a6c1c19eaf55e254c97864c770378b6f68c1a085231514a81565b60606000825167ffffffffffffffff8111156107ee576107ed612fed565b5b60405190808252806020026020018201604052801561082757816020015b610814612e98565b81526020019060019003908161080c5790505b50905060005b835181101561092657602360000184828151811061084e5761084d6139a5565b5b602002602001015181548110610867576108666139a5565b5b9060005260206000209060020201604051806060016040529081600082015481526020016001820160009054906101000a900473ffffffffffffffffffffffffffffffffffffffff1673ffffffffffffffffffffffffffffffffffffffff1673ffffffffffffffffffffffffffffffffffffffff1681526020016001820160149054906101000a900460ff16151515158152505082828151811061090e5761090d6139a5565b5b6020026020010181905250808060010191505061082d565b5080915050919050565b60008061093b611bb5565b905080600001600084815260200190815260200160002060010154915050919050565b60276020528060005260406000206000915090505481565b61097f82610930565b61098881611bdd565b6109928383611bf1565b50505050565b61520881565b60005a9050600060266000866000015181526020019081526020016000205403610a035783600001516040517f1497ae930000000000000000000000000000000000000000000000000000000081526004016109fa9190612fbc565b60405180910390fd5b600060276000866020015181526020019081526020016000205414610a635783602001516040517f3d39a253000000000000000000000000000000000000000000000000000000008152600401610a5a9190612fbc565b60405180910390fd5b610a6e8484846118e3565b610aa4576040517f09bde33900000000000000000000000000000000000000000000000000000000815260040160405180910390fd5b6000846060015163ffffffff1614610ae8576040517f609f982f00000000000000000000000000000000000000000000000000000000815260040160405180910390fd5b426027600086602001518152602001908152602001600020819055508360200151846040015173ffffffffffffffffffffffffffffffffffffffff167f38cde577523eac700ac823c90961f96de39cbc1d0b288ca592f5e9c7b67d7d7386606001518760800151604051610b5d9291906139d4565b60405180910390a3610b967f779b9d7b1cefd23059ce3e2b194efb3183a6685dd830e8cbb723b0cbeb982b28610b91611cf2565b611506565b15610cde5760003a5a836108fc6002610baf9190613a2c565b615208610bbc9190613a6e565b610bc69190613a6e565b610bd09190613aa2565b610bda9190613a2c565b9050348560800151610bec9190613a6e565b811115610c25576040517fb257743000000000000000000000000000000000000000000000000000000000815260040160405180910390fd5b846040015173ffffffffffffffffffffffffffffffffffffffff166108fc82348860800151610c549190613a6e565b610c5e9190613aa2565b9081150290604051600060405180830381858888f19350505050158015610c89573d6000803e3d6000fd5b50610c92611cf2565b73ffffffffffffffffffffffffffffffffffffffff166108fc829081150290604051600060405180830381858888f19350505050158015610cd7573d6000803e3d6000fd5b5050610d39565b836040015173ffffffffffffffffffffffffffffffffffffffff166108fc348660800151610d0c9190613a6e565b9081150290604051600060405180830381858888f19350505050158015610d37573d6000803e3d6000fd5b505b50505050565b610d47611cf2565b73ffffffffffffffffffffffffffffffffffffffff168173ffffffffffffffffffffffffffffffffffffffff1614610dab576040517f6697b23200000000000000000000000000000000000000000000000000000000815260040160405180910390fd5b610db58282611cfa565b505050565b60008054906101000a900473ffffffffffffffffffffffffffffffffffffffff1681565b6000610e4e600160405180606001604052908160008201602080602002604051908101604052809291908260208015610e2c576020028201915b815481526020019060010190808311610e18575b5050505050815260200160208201548152602001602182015481525050611dfc565b905090565b6000610e5d611eec565b905060008160000160089054906101000a900460ff1615905060008260000160009054906101000a900467ffffffffffffffff1690506000808267ffffffffffffffff16148015610eab5750825b9050600060018367ffffffffffffffff16148015610ee0575060003073ffffffffffffffffffffffffffffffffffffffff163b145b905081158015610eee575080155b15610f25576040517ff92ee8a900000000000000000000000000000000000000000000000000000000815260040160405180910390fd5b60018560000160006101000a81548167ffffffffffffffff021916908367ffffffffffffffff1602179055508315610f755760018560000160086101000a81548160ff0219169083151502179055505b866000806101000a81548173ffffffffffffffffffffffffffffffffffffffff021916908373ffffffffffffffffffffffffffffffffffffffff160217905550610fbf6001611f14565b610fc96023611f90565b426026600061103c60016040518060600160405290816000820160208060200260405190810160405280929190826020801561101a576020028201915b815481526020019060010190808311611006575b5050505050815260200160208201548152602001602182015481525050611dfc565b81526020019081526020016000208190555061105b6000801b87611bf1565b5083156110b85760008560000160086101000a81548160ff0219169083151502179055507fc7f505b2f371ae2175ee4913f4499e1f2633a7b5936321eed1cdaeb6115181d260016040516110af9190613b25565b60405180910390a15b50505050505050565b6110c961207f565b6110d282612165565b6110dc8282612176565b5050565b60006110ea612295565b7f360894a13ba1a3210667c828492db98dca3e2076cc3735a920a3ca505d382bbc60001b905090565b6000801b61112081611bdd565b816000806101000a81548173ffffffffffffffffffffffffffffffffffffffff021916908373ffffffffffffffffffffffffffffffffffffffff1602179055505050565b7f779b9d7b1cefd23059ce3e2b194efb3183a6685dd830e8cbb723b0cbeb982b2881565b818180360381019061119a9190613ba4565b6000602360000183815481106111b3576111b26139a5565b5b9060005260206000209060020201604051806060016040529081600082015481526020016001820160009054906101000a900473ffffffffffffffffffffffffffffffffffffffff1673ffffffffffffffffffffffffffffffffffffffff1673ffffffffffffffffffffffffffffffffffffffff1681526020016001820160149054906101000a900460ff1615151515815250509050611251611cf2565b73ffffffffffffffffffffffffffffffffffffffff16816020015173ffffffffffffffffffffffffffffffffffffffff16146112b9576040517f8b2ea0f800000000000000000000000000000000000000000000000000000000815260040160405180910390fd5b60006112c48361231c565b905080826000015114611314578160000151816040517f7be225b600000000000000000000000000000000000000000000000000000000815260040161130b929190613bd1565b60405180910390fd5b61131c6116a1565b841161136557600015158260400151151503611364576040517f643710d400000000000000000000000000000000000000000000000000000000815260040160405180910390fd5b5b600061137b87602361235c90919063ffffffff16565b9050611385611cf2565b73ffffffffffffffffffffffffffffffffffffffff16816020015173ffffffffffffffffffffffffffffffffffffffff16146113ed576040517f8b2ea0f800000000000000000000000000000000000000000000000000000000815260040160405180910390fd5b611406868036038101906114019190613ba4565b61231c565b81600001511461146b57806000015161142e878036038101906114299190613ba4565b61231c565b6040517f7be225b6000000000000000000000000000000000000000000000000000000008152600401611462929190613bd1565b60405180910390fd5b806020015173ffffffffffffffffffffffffffffffffffffffff166108fc87604001359081150290604051600060405180830381858888f193505050501580156114b9573d6000803e3d6000fd5b50867f0c1c0787650562778c282502dfd6dcea2fb79d23783920aa18aee36b4aa3dc4860405160405180910390a250505050505050565b600060149054906101000a900463ffffffff1681565b600080611511611bb5565b905080600001600085815260200190815260200160002060000160008473ffffffffffffffffffffffffffffffffffffffff1673ffffffffffffffffffffffffffffffffffffffff16815260200190815260200160002060009054906101000a900460ff1691505092915050565b6108fc81565b6000801b81565b6040518060400160405280600581526020017f352e302e3000000000000000000000000000000000000000000000000000000081525081565b6115cd612e98565b602360000182815481106115e4576115e36139a5565b5b9060005260206000209060020201604051806060016040529081600082015481526020016001820160009054906101000a900473ffffffffffffffffffffffffffffffffffffffff1673ffffffffffffffffffffffffffffffffffffffff1673ffffffffffffffffffffffffffffffffffffffff1681526020016001820160149054906101000a900460ff1615151515815250509050919050565b61168882610930565b61169181611bdd565b61169b8383611cfa565b50505050565b600060016023600101546116b59190613aa2565b905090565b600060016023600201546116ce9190613aa2565b905090565b7fe5002bd16ffc71462a6c1c19eaf55e254c97864c770378b6f68c1a085231514a6116fd81611bdd565b6000611715848460236124809092919063ffffffff16565b905060005b81518110156117ff57611751828281518110611739576117386139a5565b5b6020026020010151600161284f90919063ffffffff16565b818181518110611764576117636139a5565b5b6020026020010151600060149054906101000a900463ffffffff1663ffffffff167f529a1f0fdd7142aabe2b12dd8590a30a26c8427b5200ad8c775a5b4aa03fb41d60405160405180910390a36000601481819054906101000a900463ffffffff16809291906117d390613bfa565b91906101000a81548163ffffffff021916908363ffffffff16021790555050808060010191505061171a565b50600061187060016040518060600160405290816000820160208060200260405190810160405280929190826020801561184e576020028201915b81548152602001906001019080831161183a575b5050505050815260200160208201548152602001602182015481525050611dfc565b9050426026600083815260200190815260200160002081905550847ff18887951e0128c56f80fe285e446cc180799fea48be52617a5b00d742ccd7cc85846040516118bc929190613d93565b60405180910390a25050505050565b60266020528060005260406000206000915090505481565b60008084600001518560200151866040015187606001518860800151604051602001611913959493929190613e8a565b60405160208183030381529060405280519060200120905060008054906101000a900473ffffffffffffffffffffffffffffffffffffffff1673ffffffffffffffffffffffffffffffffffffffff16637e4f7a8a858561197285612968565b6040518463ffffffff1660e01b815260040161199093929190613f27565b602060405180830381865afa1580156119ad573d6000803e3d6000fd5b505050506040513d601f19601f820116820180604052508101906119d19190613f8c565b9150509392505050565b806028600082815260200190815260200160002060009054906101000a900460ff1615611a34576040517f1e5bb9fc00000000000000000000000000000000000000000000000000000000815260040160405180910390fd5b60003403611a6e576040517f94fe88d900000000000000000000000000000000000000000000000000000000815260040160405180910390fd5b60016028600084815260200190815260200160002060006101000a81548160ff0219169083151502179055506000611ac66040518060600160405280858152602001600063ffffffff1681526020013481525061231c565b90506000611ae782611ad6611cf2565b6023612a139092919063ffffffff16565b905083611af2611cf2565b73ffffffffffffffffffffffffffffffffffffffff16827f1e88950eef3c1bd8dd83d765aec1f21f34ca153104f0acd7a6218bf8f48e841060003442604051611b3d93929190613ff4565b60405180910390a450505050565b60007f01ffc9a7000000000000000000000000000000000000000000000000000000007bffffffffffffffffffffffffffffffffffffffffffffffffffffffff1916827bffffffffffffffffffffffffffffffffffffffffffffffffffffffff1916149050919050565b60007f02dd7bc7dec4dceedda775e58dd541e08a116c6c53815c0bd028192f7b626800905090565b611bee81611be9611cf2565b612b11565b50565b600080611bfc611bb5565b9050611c088484611506565b611ce657600181600001600086815260200190815260200160002060000160008573ffffffffffffffffffffffffffffffffffffffff1673ffffffffffffffffffffffffffffffffffffffff16815260200190815260200160002060006101000a81548160ff021916908315150217905550611c82611cf2565b73ffffffffffffffffffffffffffffffffffffffff168373ffffffffffffffffffffffffffffffffffffffff16857f2f8788117e7eff1d82e926ec794901d17c78024a50270940304540a733656f0d60405160405180910390a46001915050611cec565b60009150505b92915050565b600033905090565b600080611d05611bb5565b9050611d118484611506565b15611df057600081600001600086815260200190815260200160002060000160008573ffffffffffffffffffffffffffffffffffffffff1673ffffffffffffffffffffffffffffffffffffffff16815260200190815260200160002060006101000a81548160ff021916908315150217905550611d8c611cf2565b73ffffffffffffffffffffffffffffffffffffffff168373ffffffffffffffffffffffffffffffffffffffff16857ff6391f5c32d9c69d2a47ea670b442974b53935d1edc7fd64eb21e047a839171b60405160405180910390a46001915050611df6565b60009150505b92915050565b6000808260400151905060008360200151905060008460400151905060005b6020811015611ee0576001808285901c1603611e7c5785600001518160208110611e4857611e476139a5565b5b602002015184604051602001611e5f92919061402b565b604051602081830303815290604052805190602001209350611ea8565b8382604051602001611e8f92919061402b565b6040516020818303038152906040528051906020012093505b8182604051602001611ebb92919061402b565b6040516020818303038152906040528051906020012091508080600101915050611e1b565b50829350505050919050565b60007ff0c57e16840df040f15088dc2f81fe391c3923bec73e23a9662efc9c229c6a00905090565b60008160200181905550611f4c60405180606001604052806000801b8152602001600063ffffffff168152602001600081525061231c565b816021018190555060005b6020811015611f8c576000801b826000018260208110611f7a57611f796139a5565b5b01819055508080600101915050611f57565b5050565b8060000160405180606001604052806000801b8152602001600073ffffffffffffffffffffffffffffffffffffffff1681526020016000151581525090806001815401808255809150506001900390600052602060002090600202016000909190919091506000820151816000015560208201518160010160006101000a81548173ffffffffffffffffffffffffffffffffffffffff021916908373ffffffffffffffffffffffffffffffffffffffff16021790555060408201518160010160146101000a81548160ff0219169083151502179055505050600181600101819055506001816002018190555050565b7f000000000000000000000000000000000000000000000000000000000000000073ffffffffffffffffffffffffffffffffffffffff163073ffffffffffffffffffffffffffffffffffffffff16148061212c57507f000000000000000000000000000000000000000000000000000000000000000073ffffffffffffffffffffffffffffffffffffffff16612113612b62565b73ffffffffffffffffffffffffffffffffffffffff1614155b15612163576040517fe07c8dba00000000000000000000000000000000000000000000000000000000815260040160405180910390fd5b565b6000801b61217281611bdd565b5050565b8173ffffffffffffffffffffffffffffffffffffffff166352d1902d6040518163ffffffff1660e01b8152600401602060405180830381865afa9250505080156121de57506040513d601f19601f820116820180604052508101906121db919061406c565b60015b61221f57816040517f4c9c8ce300000000000000000000000000000000000000000000000000000000815260040161221691906140a8565b60405180910390fd5b7f360894a13ba1a3210667c828492db98dca3e2076cc3735a920a3ca505d382bbc60001b811461228657806040517faa1d49a400000000000000000000000000000000000000000000000000000000815260040161227d9190612fbc565b60405180910390fd5b6122908383612bb9565b505050565b7f000000000000000000000000000000000000000000000000000000000000000073ffffffffffffffffffffffffffffffffffffffff163073ffffffffffffffffffffffffffffffffffffffff161461231a576040517fe07c8dba00000000000000000000000000000000000000000000000000000000815260040160405180910390fd5b565b600081600001518260200151836040015160405160200161233f939291906140c3565b604051602081830303815290604052805190602001209050919050565b612364612e98565b82600001828154811061237a576123796139a5565b5b9060005260206000209060020201604051806060016040529081600082015481526020016001820160009054906101000a900473ffffffffffffffffffffffffffffffffffffffff1673ffffffffffffffffffffffffffffffffffffffff1673ffffffffffffffffffffffffffffffffffffffff1681526020016001820160149054906101000a900460ff1615151515815250509050826000018281548110612426576124256139a5565b5b90600052602060002090600202016000808201600090556001820160006101000a81549073ffffffffffffffffffffffffffffffffffffffff02191690556001820160146101000a81549060ff0219169055505092915050565b606060008460010154905084600201548410158061249d57508084105b156124f3578381600187600201546124b59190613aa2565b6040517f3b4055360000000000000000000000000000000000000000000000000000000081526004016124ea93929190614100565b60405180910390fd5b60005b83518110156125c3576000848281518110612514576125136139a5565b5b602002602001015190508581118061252b57508281105b1561257557808760010154876040517f9e16c3b900000000000000000000000000000000000000000000000000000000815260040161256c93929190614100565b60405180910390fd5b600187600001828154811061258d5761258c6139a5565b5b906000526020600020906002020160010160146101000a81548160ff0219169083151502179055505080806001019150506124f6565b50600080866001015490505b8581116126ad57600073ffffffffffffffffffffffffffffffffffffffff16876000018281548110612604576126036139a5565b5b906000526020600020906002020160010160009054906101000a900473ffffffffffffffffffffffffffffffffffffffff1673ffffffffffffffffffffffffffffffffffffffff16031561269a57866000018181548110612668576126676139a5565b5b906000526020600020906002020160010160149054906101000a900460ff1661269a57818061269690614137565b9250505b80806126a590614137565b9150506125cf565b5060008167ffffffffffffffff8111156126ca576126c9612fed565b5b6040519080825280602002602001820160405280156126f85781602001602082028036833780820191505090505b509050600080886001015490505b87811161282b57600073ffffffffffffffffffffffffffffffffffffffff1689600001828154811061273b5761273a6139a5565b5b906000526020600020906002020160010160009054906101000a900473ffffffffffffffffffffffffffffffffffffffff1673ffffffffffffffffffffffffffffffffffffffff1603156128185788600001818154811061279f5761279e6139a5565b5b906000526020600020906002020160010160149054906101000a900460ff16612818578860000181815481106127d8576127d76139a5565b5b9060005260206000209060020201600001548383815181106127fd576127fc6139a5565b5b602002602001018181525050818061281490614137565b9250505b808061282390614137565b915050612706565b506001876128399190613a6e565b8860010181905550819450505050509392505050565b600081905060016020600261286491906142b2565b61286e9190613aa2565b8360200154106128aa576040517fef5ccf6600000000000000000000000000000000000000000000000000000000815260040160405180910390fd5b600083602001600081546128bd90614137565b919050819055905060005b6020811015612951576001808284901c160361290257828560000182602081106128f5576128f46139a5565b5b0181905550505050612964565b846000018160208110612918576129176139a5565b5b01548360405160200161292c92919061402b565b60405160208183030381529060405280519060200120925080806001019150506128c8565b506000612961576129606142fd565b5b50505b5050565b60606000600867ffffffffffffffff81111561298757612986612fed565b5b6040519080825280602002602001820160405280156129b55781602001602082028036833780820191505090505b50905060005b6008811015612a09576020816129d19190613a2c565b84901b60e01c63ffffffff168282815181106129f0576129ef6139a5565b5b60200260200101818152505080806001019150506129bb565b5080915050919050565b60008360000160405180606001604052808581526020018473ffffffffffffffffffffffffffffffffffffffff1681526020016000151581525090806001815401808255809150506001900390600052602060002090600202016000909190919091506000820151816000015560208201518160010160006101000a81548173ffffffffffffffffffffffffffffffffffffffff021916908373ffffffffffffffffffffffffffffffffffffffff16021790555060408201518160010160146101000a81548160ff021916908315150217905550505083600201549050836002016000815480929190612b0590614137565b91905055509392505050565b612b1b8282611506565b612b5e5780826040517fe2517d3f000000000000000000000000000000000000000000000000000000008152600401612b5592919061432c565b60405180910390fd5b5050565b6000612b907f360894a13ba1a3210667c828492db98dca3e2076cc3735a920a3ca505d382bbc60001b612c2c565b60000160009054906101000a900473ffffffffffffffffffffffffffffffffffffffff16905090565b612bc282612c36565b8173ffffffffffffffffffffffffffffffffffffffff167fbc7cd75a20ee27fd9adebab32041f755214dbc6bffa90cc0225b39da2e5c2d3b60405160405180910390a2600081511115612c1f57612c198282612d03565b50612c28565b612c27612d87565b5b5050565b6000819050919050565b60008173ffffffffffffffffffffffffffffffffffffffff163b03612c9257806040517f4c9c8ce3000000000000000000000000000000000000000000000000000000008152600401612c8991906140a8565b60405180910390fd5b80612cbf7f360894a13ba1a3210667c828492db98dca3e2076cc3735a920a3ca505d382bbc60001b612c2c565b60000160006101000a81548173ffffffffffffffffffffffffffffffffffffffff021916908373ffffffffffffffffffffffffffffffffffffffff16021790555050565b60606000808473ffffffffffffffffffffffffffffffffffffffff1684604051612d2d919061439c565b600060405180830381855af49150503d8060008114612d68576040519150601f19603f3d011682016040523d82523d6000602084013e612d6d565b606091505b5091509150612d7d858383612dc4565b9250505092915050565b6000341115612dc2576040517fb398979f00000000000000000000000000000000000000000000000000000000815260040160405180910390fd5b565b606082612dd957612dd482612e53565b612e4b565b60008251148015612e01575060008473ffffffffffffffffffffffffffffffffffffffff163b145b15612e4357836040517f9996b315000000000000000000000000000000000000000000000000000000008152600401612e3a91906140a8565b60405180910390fd5b819050612e4c565b5b9392505050565b600081511115612e665780518082602001fd5b6040517f1425ea4200000000000000000000000000000000000000000000000000000000815260040160405180910390fd5b604051806060016040528060008019168152602001600073ffffffffffffffffffffffffffffffffffffffff1681526020016000151581525090565b6000604051905090565b600080fd5b600080fd5b60007fffffffff0000000000000000000000000000000000000000000000000000000082169050919050565b612f1d81612ee8565b8114612f2857600080fd5b50565b600081359050612f3a81612f14565b92915050565b600060208284031215612f5657612f55612ede565b5b6000612f6484828501612f2b565b91505092915050565b60008115159050919050565b612f8281612f6d565b82525050565b6000602082019050612f9d6000830184612f79565b92915050565b6000819050919050565b612fb681612fa3565b82525050565b6000602082019050612fd16000830184612fad565b92915050565b600080fd5b6000601f19601f8301169050919050565b7f4e487b7100000000000000000000000000000000000000000000000000000000600052604160045260246000fd5b61302582612fdc565b810181811067ffffffffffffffff8211171561304457613043612fed565b5b80604052505050565b6000613057612ed4565b9050613063828261301c565b919050565b600067ffffffffffffffff82111561308357613082612fed565b5b602082029050602081019050919050565b600080fd5b6000819050919050565b6130ac81613099565b81146130b757600080fd5b50565b6000813590506130c9816130a3565b92915050565b60006130e26130dd84613068565b61304d565b9050808382526020820190506020840283018581111561310557613104613094565b5b835b8181101561312e578061311a88826130ba565b845260208401935050602081019050613107565b5050509392505050565b600082601f83011261314d5761314c612fd7565b5b813561315d8482602086016130cf565b91505092915050565b60006020828403121561317c5761317b612ede565b5b600082013567ffffffffffffffff81111561319a57613199612ee3565b5b6131a684828501613138565b91505092915050565b600081519050919050565b600082825260208201905092915050565b6000819050602082019050919050565b6131e481612fa3565b82525050565b600073ffffffffffffffffffffffffffffffffffffffff82169050919050565b6000613215826131ea565b9050919050565b6132258161320a565b82525050565b61323481612f6d565b82525050565b60608201600082015161325060008501826131db565b506020820151613263602085018261321c565b506040820151613276604085018261322b565b50505050565b6000613288838361323a565b60608301905092915050565b6000602082019050919050565b60006132ac826131af565b6132b681856131ba565b93506132c1836131cb565b8060005b838110156132f25781516132d9888261327c565b97506132e483613294565b9250506001810190506132c5565b5085935050505092915050565b6000602082019050818103600083015261331981846132a1565b905092915050565b61332a81612fa3565b811461333557600080fd5b50565b60008135905061334781613321565b92915050565b60006020828403121561336357613362612ede565b5b600061337184828501613338565b91505092915050565b61338381613099565b82525050565b600060208201905061339e600083018461337a565b92915050565b6133ad8161320a565b81146133b857600080fd5b50565b6000813590506133ca816133a4565b92915050565b600080604083850312156133e7576133e6612ede565b5b60006133f585828601613338565b9250506020613406858286016133bb565b9150509250929050565b600080fd5b600063ffffffff82169050919050565b61342e81613415565b811461343957600080fd5b50565b60008135905061344b81613425565b92915050565b600060a0828403121561346757613466613410565b5b61347160a061304d565b9050600061348184828501613338565b600083015250602061349584828501613338565b60208301525060406134a9848285016133bb565b60408301525060606134bd8482850161343c565b60608301525060806134d1848285016130ba565b60808301525092915050565b600080fd5b60008083601f8401126134f8576134f7612fd7565b5b8235905067ffffffffffffffff811115613515576135146134dd565b5b60208301915083600182028301111561353157613530613094565b5b9250929050565b600080600060c0848603121561355157613550612ede565b5b600061355f86828701613451565b93505060a084013567ffffffffffffffff8111156135805761357f612ee3565b5b61358c868287016134e2565b92509250509250925092565b6000819050919050565b60006135bd6135b86135b3846131ea565b613598565b6131ea565b9050919050565b60006135cf826135a2565b9050919050565b60006135e1826135c4565b9050919050565b6135f1816135d6565b82525050565b600060208201905061360c60008301846135e8565b92915050565b6000806040838503121561362957613628612ede565b5b6000613637858286016133bb565b9250506020613648858286016133bb565b9150509250929050565b600080fd5b600067ffffffffffffffff82111561367257613671612fed565b5b61367b82612fdc565b9050602081019050919050565b82818337600083830152505050565b60006136aa6136a584613657565b61304d565b9050828152602081018484840111156136c6576136c5613652565b5b6136d1848285613688565b509392505050565b600082601f8301126136ee576136ed612fd7565b5b81356136fe848260208601613697565b91505092915050565b6000806040838503121561371e5761371d612ede565b5b600061372c858286016133bb565b925050602083013567ffffffffffffffff81111561374d5761374c612ee3565b5b613759858286016136d9565b9150509250929050565b60006020828403121561377957613778612ede565b5b6000613787848285016133bb565b91505092915050565b600080fd5b6000606082840312156137ab576137aa613790565b5b81905092915050565b600080608083850312156137cb576137ca612ede565b5b60006137d9858286016130ba565b92505060206137ea85828601613795565b9150509250929050565b6137fd81613415565b82525050565b600060208201905061381860008301846137f4565b92915050565b600081519050919050565b600082825260208201905092915050565b60005b8381101561385857808201518184015260208101905061383d565b60008484015250505050565b600061386f8261381e565b6138798185613829565b935061388981856020860161383a565b61389281612fdc565b840191505092915050565b600060208201905081810360008301526138b78184613864565b905092915050565b6000602082840312156138d5576138d4612ede565b5b60006138e3848285016130ba565b91505092915050565b60608201600082015161390260008501826131db565b506020820151613915602085018261321c565b506040820151613928604085018261322b565b50505050565b600060608201905061394360008301846138ec565b92915050565b600080604083850312156139605761395f612ede565b5b600061396e858286016130ba565b925050602083013567ffffffffffffffff81111561398f5761398e612ee3565b5b61399b85828601613138565b9150509250929050565b7f4e487b7100000000000000000000000000000000000000000000000000000000600052603260045260246000fd5b60006040820190506139e960008301856137f4565b6139f6602083018461337a565b9392505050565b7f4e487b7100000000000000000000000000000000000000000000000000000000600052601160045260246000fd5b6000613a3782613099565b9150613a4283613099565b9250828202613a5081613099565b91508282048414831517613a6757613a666139fd565b5b5092915050565b6000613a7982613099565b9150613a8483613099565b9250828201905080821115613a9c57613a9b6139fd565b5b92915050565b6000613aad82613099565b9150613ab883613099565b9250828203905081811115613ad057613acf6139fd565b5b92915050565b6000819050919050565b600067ffffffffffffffff82169050919050565b6000613b0f613b0a613b0584613ad6565b613598565b613ae0565b9050919050565b613b1f81613af4565b82525050565b6000602082019050613b3a6000830184613b16565b92915050565b600060608284031215613b5657613b55613410565b5b613b60606061304d565b90506000613b7084828501613338565b6000830152506020613b848482850161343c565b6020830152506040613b98848285016130ba565b60408301525092915050565b600060608284031215613bba57613bb9612ede565b5b6000613bc884828501613b40565b91505092915050565b6000604082019050613be66000830185612fad565b613bf36020830184612fad565b9392505050565b6000613c0582613415565b915063ffffffff8203613c1b57613c1a6139fd565b5b600182019050919050565b600081519050919050565b600082825260208201905092915050565b6000819050602082019050919050565b613c5b81613099565b82525050565b6000613c6d8383613c52565b60208301905092915050565b6000602082019050919050565b6000613c9182613c26565b613c9b8185613c31565b9350613ca683613c42565b8060005b83811015613cd7578151613cbe8882613c61565b9750613cc983613c79565b925050600181019050613caa565b5085935050505092915050565b600081519050919050565b600082825260208201905092915050565b6000819050602082019050919050565b6000613d1c83836131db565b60208301905092915050565b6000602082019050919050565b6000613d4082613ce4565b613d4a8185613cef565b9350613d5583613d00565b8060005b83811015613d86578151613d6d8882613d10565b9750613d7883613d28565b925050600181019050613d59565b5085935050505092915050565b60006040820190508181036000830152613dad8185613c86565b90508181036020830152613dc18184613d35565b90509392505050565b6000819050919050565b613de5613de082612fa3565b613dca565b82525050565b60008160601b9050919050565b6000613e0382613deb565b9050919050565b6000613e1582613df8565b9050919050565b613e2d613e288261320a565b613e0a565b82525050565b60008160e01b9050919050565b6000613e4b82613e33565b9050919050565b613e63613e5e82613415565b613e40565b82525050565b6000819050919050565b613e84613e7f82613099565b613e69565b82525050565b6000613e968288613dd4565b602082019150613ea68287613dd4565b602082019150613eb68286613e1c565b601482019150613ec68285613e52565b600482019150613ed68284613e73565b6020820191508190509695505050505050565b600082825260208201905092915050565b6000613f068385613ee9565b9350613f13838584613688565b613f1c83612fdc565b840190509392505050565b60006040820190508181036000830152613f42818587613efa565b90508181036020830152613f568184613c86565b9050949350505050565b613f6981612f6d565b8114613f7457600080fd5b50565b600081519050613f8681613f60565b92915050565b600060208284031215613fa257613fa1612ede565b5b6000613fb084828501613f77565b91505092915050565b6000819050919050565b6000613fde613fd9613fd484613fb9565b613598565b613415565b9050919050565b613fee81613fc3565b82525050565b60006060820190506140096000830186613fe5565b614016602083018561337a565b614023604083018461337a565b949350505050565b60006140378285613dd4565b6020820191506140478284613dd4565b6020820191508190509392505050565b60008151905061406681613321565b92915050565b60006020828403121561408257614081612ede565b5b600061409084828501614057565b91505092915050565b6140a28161320a565b82525050565b60006020820190506140bd6000830184614099565b92915050565b60006140cf8286613dd4565b6020820191506140df8285613e52565b6004820191506140ef8284613e73565b602082019150819050949350505050565b6000606082019050614115600083018661337a565b614122602083018561337a565b61412f604083018461337a565b949350505050565b600061414282613099565b91507fffffffffffffffffffffffffffffffffffffffffffffffffffffffffffffffff8203614174576141736139fd565b5b600182019050919050565b60008160011c9050919050565b6000808291508390505b60018511156141d6578086048111156141b2576141b16139fd565b5b60018516156141c15780820291505b80810290506141cf8561417f565b9450614196565b94509492505050565b6000826141ef57600190506142ab565b816141fd57600090506142ab565b8160018114614213576002811461421d5761424c565b60019150506142ab565b60ff84111561422f5761422e6139fd565b5b8360020a915084821115614246576142456139fd565b5b506142ab565b5060208310610133831016604e8410600b84101617156142815782820a90508381111561427c5761427b6139fd565b5b6142ab565b61428e848484600161418c565b925090508184048111156142a5576142a46139fd565b5b81810290505b9392505050565b60006142bd82613099565b91506142c883613099565b92506142f57fffffffffffffffffffffffffffffffffffffffffffffffffffffffffffffffff84846141df565b905092915050565b7f4e487b7100000000000000000000000000000000000000000000000000000000600052600160045260246000fd5b60006040820190506143416000830185614099565b61434e6020830184612fad565b9392505050565b600081519050919050565b600081905092915050565b600061437682614355565b6143808185614360565b935061439081856020860161383a565b80840191505092915050565b60006143a8828461436b565b91508190509291505056fea26469706673582212208890472c7af3d57305ef172bebd824350682a0dc49bf9c84d73a05e4d5fe15b464736f6c634300081b0033",
  "linkReferences": {},
  "deployedLinkReferences": {}
}