{
  "_format": "hh-sol-artifact-1",
  "contractName": "INTMAXTokenLV2",
  "sourceName": "contracts/int1/minterV1/layer2/token/INTMAXTokenLV2.sol",
  "abi": [
    {
      "inputs": [
        {
          "internalType": "address",
          "name": "admin_",
          "type": "address"
        }
      ],
      "stateMutability": "nonpayable",
      "type": "constructor"
    },
    {
      "inputs": [],
      "name": "AccessControlBadConfirmation",
      "type": "error"
    },
    {
      "inputs": [
        {
          "internalType": "address",
          "name": "account",
          "type": "address"
        },
        {
          "internalType": "bytes32",
          "name": "neededRole",
          "type": "bytes32"
        }
      ],
      "name": "AccessControlUnauthorizedAccount",
      "type": "error"
    },
    {
      "inputs": [
        {
          "internalType": "address",
          "name": "spender",
          "type": "address"
        },
        {
          "internalType": "uint256",
          "name": "allowance",
          "type": "uint256"
        },
        {
          "internalType": "uint256",
          "name": "needed",
          "type": "uint256"
        }
      ],
      "name": "ERC20InsufficientAllowance",
      "type": "error"
    },
    {
      "inputs": [
        {
          "internalType": "address",
          "name": "sender",
          "type": "address"
        },
        {
          "internalType": "uint256",
          "name": "balance",
          "type": "uint256"
        },
        {
          "internalType": "uint256",
          "name": "needed",
          "type": "uint256"
        }
      ],
      "name": "ERC20InsufficientBalance",
      "type": "error"
    },
    {
      "inputs": [
        {
          "internalType": "address",
          "name": "approver",
          "type": "address"
        }
      ],
      "name": "ERC20InvalidApprover",
      "type": "error"
    },
    {
      "inputs": [
        {
          "internalType": "address",
          "name": "receiver",
          "type": "address"
        }
      ],
      "name": "ERC20InvalidReceiver",
      "type": "error"
    },
    {
      "inputs": [
        {
          "internalType": "address",
          "name": "sender",
          "type": "address"
        }
      ],
      "name": "ERC20InvalidSender",
      "type": "error"
    },
    {
      "inputs": [
        {
          "internalType": "address",
          "name": "spender",
          "type": "address"
        }
      ],
      "name": "ERC20InvalidSpender",
      "type": "error"
    },
    {
      "inputs": [],
      "name": "MiningAlreadyStarted",
      "type": "error"
    },
    {
      "inputs": [],
      "name": "MiningNotStarted",
      "type": "error"
    },
    {
      "inputs": [],
      "name": "TransferNotAllowed",
      "type": "error"
    },
    {
      "anonymous": false,
      "inputs": [
        {
          "indexed": true,
          "internalType": "address",
          "name": "owner",
          "type": "address"
        },
        {
          "indexed": true,
          "internalType": "address",
          "name": "spender",
          "type": "address"
        },
        {
          "indexed": false,
          "internalType": "uint256",
          "name": "value",
          "type": "uint256"
        }
      ],
      "name": "Approval",
      "type": "event"
    },
    {
      "anonymous": false,
      "inputs": [
        {
          "indexed": true,
          "internalType": "bytes32",
          "name": "role",
          "type": "bytes32"
        },
        {
          "indexed": true,
          "internalType": "bytes32",
          "name": "previousAdminRole",
          "type": "bytes32"
        },
        {
          "indexed": true,
          "internalType": "bytes32",
          "name": "newAdminRole",
          "type": "bytes32"
        }
      ],
      "name": "RoleAdminChanged",
      "type": "event"
    },
    {
      "anonymous": false,
      "inputs": [
        {
          "indexed": true,
          "internalType": "bytes32",
          "name": "role",
          "type": "bytes32"
        },
        {
          "indexed": true,
          "internalType": "address",
          "name": "account",
          "type": "address"
        },
        {
          "indexed": true,
          "internalType": "address",
          "name": "sender",
          "type": "address"
        }
      ],
      "name": "RoleGranted",
      "type": "event"
    },
    {
      "anonymous": false,
      "inputs": [
        {
          "indexed": true,
          "internalType": "bytes32",
          "name": "role",
          "type": "bytes32"
        },
        {
          "indexed": true,
          "internalType": "address",
          "name": "account",
          "type": "address"
        },
        {
          "indexed": true,
          "internalType": "address",
          "name": "sender",
          "type": "address"
        }
      ],
      "name": "RoleRevoked",
      "type": "event"
    },
    {
      "anonymous": false,
      "inputs": [
        {
          "indexed": true,
          "internalType": "address",
          "name": "from",
          "type": "address"
        },
        {
          "indexed": true,
          "internalType": "address",
          "name": "to",
          "type": "address"
        },
        {
          "indexed": false,
          "internalType": "uint256",
          "name": "value",
          "type": "uint256"
        }
      ],
      "name": "Transfer",
      "type": "event"
    },
    {
      "inputs": [],
      "name": "BASE_START_MINING_TIMESTAMP",
      "outputs": [
        {
          "internalType": "uint256",
          "name": "",
          "type": "uint256"
        }
      ],
      "stateMutability": "view",
      "type": "function"
    },
    {
      "inputs": [],
      "name": "DEFAULT_ADMIN_ROLE",
      "outputs": [
        {
          "internalType": "bytes32",
          "name": "",
          "type": "bytes32"
        }
      ],
      "stateMutability": "view",
      "type": "function"
    },
    {
      "inputs": [],
      "name": "GENESIS_TIMESTAMP",
      "outputs": [
        {
          "internalType": "uint256",
          "name": "",
          "type": "uint256"
        }
      ],
      "stateMutability": "view",
      "type": "function"
    },
    {
      "inputs": [],
      "name": "MAX_SUPPLY",
      "outputs": [
        {
          "internalType": "uint256",
          "name": "",
          "type": "uint256"
        }
      ],
      "stateMutability": "view",
      "type": "function"
    },
    {
      "inputs": [],
      "name": "MINTER_ROLE",
      "outputs": [
        {
          "internalType": "bytes32",
          "name": "",
          "type": "bytes32"
        }
      ],
      "stateMutability": "view",
      "type": "function"
    },
    {
      "inputs": [],
      "name": "NUM_PHASES",
      "outputs": [
        {
          "internalType": "uint256",
          "name": "",
          "type": "uint256"
        }
      ],
      "stateMutability": "view",
      "type": "function"
    },
    {
      "inputs": [],
      "name": "PHASE0_PERIOD",
      "outputs": [
        {
          "internalType": "uint256",
          "name": "",
          "type": "uint256"
        }
      ],
      "stateMutability": "view",
      "type": "function"
    },
    {
      "inputs": [],
      "name": "PHASE0_REWARD_PER_DAY",
      "outputs": [
        {
          "internalType": "uint256",
          "name": "",
          "type": "uint256"
        }
      ],
      "stateMutability": "view",
      "type": "function"
    },
    {
      "inputs": [],
      "name": "allowTransfers",
      "outputs": [],
      "stateMutability": "nonpayable",
      "type": "function"
    },
    {
      "inputs": [
        {
          "internalType": "address",
          "name": "owner",
          "type": "address"
        },
        {
          "internalType": "address",
          "name": "spender",
          "type": "address"
        }
      ],
      "name": "allowance",
      "outputs": [
        {
          "internalType": "uint256",
          "name": "",
          "type": "uint256"
        }
      ],
      "stateMutability": "view",
      "type": "function"
    },
    {
      "inputs": [
        {
          "internalType": "address",
          "name": "spender",
          "type": "address"
        },
        {
          "internalType": "uint256",
          "name": "value",
          "type": "uint256"
        }
      ],
      "name": "approve",
      "outputs": [
        {
          "internalType": "bool",
          "name": "",
          "type": "bool"
        }
      ],
      "stateMutability": "nonpayable",
      "type": "function"
    },
    {
      "inputs": [
        {
          "internalType": "address",
          "name": "account",
          "type": "address"
        }
      ],
      "name": "balanceOf",
      "outputs": [
        {
          "internalType": "uint256",
          "name": "",
          "type": "uint256"
        }
      ],
      "stateMutability": "view",
      "type": "function"
    },
    {
      "inputs": [
        {
          "internalType": "uint256",
          "name": "amount",
          "type": "uint256"
        }
      ],
      "name": "burn",
      "outputs": [],
      "stateMutability": "nonpayable",
      "type": "function"
    },
    {
      "inputs": [],
      "name": "decimals",
      "outputs": [
        {
          "internalType": "uint8",
          "name": "",
          "type": "uint8"
        }
      ],
      "stateMutability": "view",
      "type": "function"
    },
    {
      "inputs": [
        {
          "internalType": "bytes32",
          "name": "role",
          "type": "bytes32"
        }
      ],
      "name": "getRoleAdmin",
      "outputs": [
        {
          "internalType": "bytes32",
          "name": "",
          "type": "bytes32"
        }
      ],
      "stateMutability": "view",
      "type": "function"
    },
    {
      "inputs": [
        {
          "internalType": "bytes32",
          "name": "role",
          "type": "bytes32"
        },
        {
          "internalType": "address",
          "name": "account",
          "type": "address"
        }
      ],
      "name": "grantRole",
      "outputs": [],
      "stateMutability": "nonpayable",
      "type": "function"
    },
    {
      "inputs": [
        {
          "internalType": "bytes32",
          "name": "role",
          "type": "bytes32"
        },
        {
          "internalType": "address",
          "name": "account",
          "type": "address"
        }
      ],
      "name": "hasRole",
      "outputs": [
        {
          "internalType": "bool",
          "name": "",
          "type": "bool"
        }
      ],
      "stateMutability": "view",
      "type": "function"
    },
    {
      "inputs": [],
      "name": "isStarted",
      "outputs": [
        {
          "internalType": "bool",
          "name": "",
          "type": "bool"
        }
      ],
      "stateMutability": "view",
      "type": "function"
    },
    {
      "inputs": [
        {
          "internalType": "address",
          "name": "to",
          "type": "address"
        }
      ],
      "name": "mint",
      "outputs": [],
      "stateMutability": "nonpayable",
      "type": "function"
    },
    {
      "inputs": [],
      "name": "name",
      "outputs": [
        {
          "internalType": "string",
          "name": "",
          "type": "string"
        }
      ],
      "stateMutability": "view",
      "type": "function"
    },
    {
      "inputs": [
        {
          "internalType": "bytes32",
          "name": "role",
          "type": "bytes32"
        },
        {
          "internalType": "address",
          "name": "callerConfirmation",
          "type": "address"
        }
      ],
      "name": "renounceRole",
      "outputs": [],
      "stateMutability": "nonpayable",
      "type": "function"
    },
    {
      "inputs": [
        {
          "internalType": "bytes32",
          "name": "role",
          "type": "bytes32"
        },
        {
          "internalType": "address",
          "name": "account",
          "type": "address"
        }
      ],
      "name": "revokeRole",
      "outputs": [],
      "stateMutability": "nonpayable",
      "type": "function"
    },
    {
      "inputs": [
        {
          "internalType": "bytes4",
          "name": "interfaceId",
          "type": "bytes4"
        }
      ],
      "name": "supportsInterface",
      "outputs": [
        {
          "internalType": "bool",
          "name": "",
          "type": "bool"
        }
      ],
      "stateMutability": "view",
      "type": "function"
    },
    {
      "inputs": [],
      "name": "symbol",
      "outputs": [
        {
          "internalType": "string",
          "name": "",
          "type": "string"
        }
      ],
      "stateMutability": "view",
      "type": "function"
    },
    {
      "inputs": [],
      "name": "totalBurnedAmount",
      "outputs": [
        {
          "internalType": "uint256",
          "name": "",
          "type": "uint256"
        }
      ],
      "stateMutability": "view",
      "type": "function"
    },
    {
      "inputs": [],
      "name": "totalClaimedAmount",
      "outputs": [
        {
          "internalType": "uint256",
          "name": "",
          "type": "uint256"
        }
      ],
      "stateMutability": "view",
      "type": "function"
    },
    {
      "inputs": [],
      "name": "totalMintableAmount",
      "outputs": [
        {
          "internalType": "uint256",
          "name": "",
          "type": "uint256"
        }
      ],
      "stateMutability": "view",
      "type": "function"
    },
    {
      "inputs": [],
      "name": "totalSupply",
      "outputs": [
        {
          "internalType": "uint256",
          "name": "",
          "type": "uint256"
        }
      ],
      "stateMutability": "view",
      "type": "function"
    },
    {
      "inputs": [
        {
          "internalType": "address",
          "name": "to",
          "type": "address"
        },
        {
          "internalType": "uint256",
          "name": "value",
          "type": "uint256"
        }
      ],
      "name": "transfer",
      "outputs": [
        {
          "internalType": "bool",
          "name": "",
          "type": "bool"
        }
      ],
      "stateMutability": "nonpayable",
      "type": "function"
    },
    {
      "inputs": [
        {
          "internalType": "address",
          "name": "from",
          "type": "address"
        },
        {
          "internalType": "address",
          "name": "to",
          "type": "address"
        },
        {
          "internalType": "uint256",
          "name": "value",
          "type": "uint256"
        }
      ],
      "name": "transferFrom",
      "outputs": [
        {
          "internalType": "bool",
          "name": "",
          "type": "bool"
        }
      ],
      "stateMutability": "nonpayable",
      "type": "function"
    },
    {
      "inputs": [],
      "name": "transfersAllowed",
      "outputs": [
        {
          "internalType": "bool",
          "name": "",
          "type": "bool"
        }
      ],
      "stateMutability": "view",
      "type": "function"
    },
    {
      "inputs": [
        {
          "internalType": "uint256",
          "name": "amount",
          "type": "uint256"
        }
      ],
      "name": "vanish",
      "outputs": [],
      "stateMutability": "nonpayable",
      "type": "function"
    }
  ],
  "bytecode": "0x60c060405234801561001057600080fd5b506040516129ba3803806129ba83398181016040528101906100329190610476565b6040518060400160405280600681526020017f494e544d415800000000000000000000000000000000000000000000000000008152506040518060400160405280600381526020017f495458000000000000000000000000000000000000000000000000000000000081525081600390816100ad91906106f3565b5080600490816100bd91906106f3565b5050506100ce61015460201b60201c565b600a6100da9190610934565b6288601c6100e8919061097f565b6080818152505060076010608051610100919061097f565b61010a919061097f565b60a081815250506000600860006101000a81548160ff02191690831515021790555061013f6000801b8261015d60201b60201c565b5061014e61025b60201b60201c565b50610a89565b60006012905090565b600061016f83836102d860201b60201c565b6102505760016005600085815260200190815260200160002060000160008473ffffffffffffffffffffffffffffffffffffffff1673ffffffffffffffffffffffffffffffffffffffff16815260200190815260200160002060006101000a81548160ff0219169083151502179055506101ed61034360201b60201c565b73ffffffffffffffffffffffffffffffffffffffff168273ffffffffffffffffffffffffffffffffffffffff16847f2f8788117e7eff1d82e926ec794901d17c78024a50270940304540a733656f0d60405160405180910390a460019050610255565b600090505b92915050565b600860019054906101000a900460ff16156102a2576040517f6d5d3b1800000000000000000000000000000000000000000000000000000000815260040160405180910390fd5b6102b56367139f5d61034b60201b60201c565b6007819055506001600860016101000a81548160ff021916908315150217905550565b60006005600084815260200190815260200160002060000160008373ffffffffffffffffffffffffffffffffffffffff1673ffffffffffffffffffffffffffffffffffffffff16815260200190815260200160002060009054906101000a900460ff16905092915050565b600033905090565b600080620151806366b2e1508461036291906109c1565b61036c9190610a24565b9050600080608051905060005b60078110156103ee576000816010901b9050808510156103b257828561039f919061097f565b846103aa9190610a55565b9350506103ee565b82816103be919061097f565b846103c99190610a55565b935080856103d791906109c1565b9450600183901c9250508080600101915050610379565b5060026006546103fe9190610a24565b826104099190610a55565b9350505050919050565b600080fd5b600073ffffffffffffffffffffffffffffffffffffffff82169050919050565b600061044382610418565b9050919050565b61045381610438565b811461045e57600080fd5b50565b6000815190506104708161044a565b92915050565b60006020828403121561048c5761048b610413565b5b600061049a84828501610461565b91505092915050565b600081519050919050565b7f4e487b7100000000000000000000000000000000000000000000000000000000600052604160045260246000fd5b7f4e487b7100000000000000000000000000000000000000000000000000000000600052602260045260246000fd5b6000600282049050600182168061052457607f821691505b602082108103610537576105366104dd565b5b50919050565b60008190508160005260206000209050919050565b60006020601f8301049050919050565b600082821b905092915050565b60006008830261059f7fffffffffffffffffffffffffffffffffffffffffffffffffffffffffffffffff82610562565b6105a98683610562565b95508019841693508086168417925050509392505050565b6000819050919050565b6000819050919050565b60006105f06105eb6105e6846105c1565b6105cb565b6105c1565b9050919050565b6000819050919050565b61060a836105d5565b61061e610616826105f7565b84845461056f565b825550505050565b600090565b610633610626565b61063e818484610601565b505050565b5b818110156106625761065760008261062b565b600181019050610644565b5050565b601f8211156106a7576106788161053d565b61068184610552565b81016020851015610690578190505b6106a461069c85610552565b830182610643565b50505b505050565b600082821c905092915050565b60006106ca600019846008026106ac565b1980831691505092915050565b60006106e383836106b9565b9150826002028217905092915050565b6106fc826104a3565b67ffffffffffffffff811115610715576107146104ae565b5b61071f825461050c565b61072a828285610666565b600060209050601f83116001811461075d576000841561074b578287015190505b61075585826106d7565b8655506107bd565b601f19841661076b8661053d565b60005b828110156107935784890151825560018201915060208501945060208101905061076e565b868310156107b057848901516107ac601f8916826106b9565b8355505b6001600288020188555050505b505050505050565b7f4e487b7100000000000000000000000000000000000000000000000000000000600052601160045260246000fd5b60008160011c9050919050565b6000808291508390505b600185111561084b57808604811115610827576108266107c5565b5b60018516156108365780820291505b8081029050610844856107f4565b945061080b565b94509492505050565b6000826108645760019050610920565b816108725760009050610920565b81600181146108885760028114610892576108c1565b6001915050610920565b60ff8411156108a4576108a36107c5565b5b8360020a9150848211156108bb576108ba6107c5565b5b50610920565b5060208310610133831016604e8410600b84101617156108f65782820a9050838111156108f1576108f06107c5565b5b610920565b6109038484846001610801565b9250905081840481111561091a576109196107c5565b5b81810290505b9392505050565b600060ff82169050919050565b600061093f826105c1565b915061094a83610927565b92506109777fffffffffffffffffffffffffffffffffffffffffffffffffffffffffffffffff8484610854565b905092915050565b600061098a826105c1565b9150610995836105c1565b92508282026109a3816105c1565b915082820484148315176109ba576109b96107c5565b5b5092915050565b60006109cc826105c1565b91506109d7836105c1565b92508282039050818111156109ef576109ee6107c5565b5b92915050565b7f4e487b7100000000000000000000000000000000000000000000000000000000600052601260045260246000fd5b6000610a2f826105c1565b9150610a3a836105c1565b925082610a4a57610a496109f5565b5b828204905092915050565b6000610a60826105c1565b9150610a6b836105c1565b9250828201905080821115610a8357610a826107c5565b5b92915050565b60805160a051611f05610ab56000396000610875015260008181610b8801526111580152611f056000f3fe608060405234801561001057600080fd5b50600436106101f05760003560e01c806370a082311161010f578063b8e50054116100a2578063d547741f11610071578063d547741f1461059d578063dd62ed3e146105b9578063dea5b6ae146105e9578063eb9f1b1d14610607576101f0565b8063b8e5005414610525578063c52f412414610543578063d0d5501614610561578063d53913931461057f576101f0565b8063a217fddf116100de578063a217fddf1461049d578063a3bedaa3146104bb578063a9059cbb146104d7578063b0660c3d14610507576101f0565b806370a082311461040157806391d148541461043157806395d89b41146104615780639661cb0d1461047f576101f0565b80632f2ff15d1161018757806336568abe1161015657806336568abe1461038f57806342966c68146103ab578063544736e6146103c75780636a627842146103e5576101f0565b80632f2ff15d14610319578063313ce5671461033557806332cb6b0c1461035357806335ab5f6414610371576101f0565b806318160ddd116101c357806318160ddd146102915780632185810b146102af57806323b872dd146102b9578063248a9ca3146102e9576101f0565b806301ffc9a7146101f557806306fdde0314610225578063095ea7b3146102435780630c204d4414610273575b600080fd5b61020f600480360381019061020a91906118a8565b610625565b60405161021c91906118f0565b60405180910390f35b61022d610707565b60405161023a919061199b565b60405180910390f35b61025d60048036038101906102589190611a51565b610799565b60405161026a91906118f0565b60405180910390f35b61027b6107bc565b6040516102889190611aa0565b60405180910390f35b6102996107c4565b6040516102a69190611aa0565b60405180910390f35b6102b76107ce565b005b6102d360048036038101906102ce9190611abb565b6107f9565b6040516102e091906118f0565b60405180910390f35b61030360048036038101906102fe9190611b44565b610828565b6040516103109190611b80565b60405180910390f35b610333600480360381019061032e9190611b9b565b610848565b005b61033d61086a565b60405161034a9190611bf7565b60405180910390f35b61035b610873565b6040516103689190611aa0565b60405180910390f35b610379610897565b6040516103869190611aa0565b60405180910390f35b6103a960048036038101906103a49190611b9b565b61089d565b005b6103c560048036038101906103c09190611c12565b610918565b005b6103cf61093e565b6040516103dc91906118f0565b60405180910390f35b6103ff60048036038101906103fa9190611c3f565b610951565b005b61041b60048036038101906104169190611c3f565b6109f1565b6040516104289190611aa0565b60405180910390f35b61044b60048036038101906104469190611b9b565b610a39565b60405161045891906118f0565b60405180910390f35b610469610aa4565b604051610476919061199b565b60405180910390f35b610487610b36565b6040516104949190611aa0565b60405180910390f35b6104a5610b3c565b6040516104b29190611b80565b60405180910390f35b6104d560048036038101906104d09190611c12565b610b43565b005b6104f160048036038101906104ec9190611a51565b610b50565b6040516104fe91906118f0565b60405180910390f35b61050f610b73565b60405161051c91906118f0565b60405180910390f35b61052d610b86565b60405161053a9190611aa0565b60405180910390f35b61054b610baa565b6040516105589190611aa0565b60405180910390f35b610569610baf565b6040516105769190611aa0565b60405180910390f35b610587610bb7565b6040516105949190611b80565b60405180910390f35b6105b760048036038101906105b29190611b9b565b610bdb565b005b6105d360048036038101906105ce9190611c6c565b610bfd565b6040516105e09190611aa0565b60405180910390f35b6105f1610c84565b6040516105fe9190611aa0565b60405180910390f35b61060f610c94565b60405161061c9190611aa0565b60405180910390f35b60007f36372b07000000000000000000000000000000000000000000000000000000007bffffffffffffffffffffffffffffffffffffffffffffffffffffffff1916827bffffffffffffffffffffffffffffffffffffffffffffffffffffffff191614806106f057507f67c66178000000000000000000000000000000000000000000000000000000007bffffffffffffffffffffffffffffffffffffffffffffffffffffffff1916827bffffffffffffffffffffffffffffffffffffffffffffffffffffffff1916145b8061070057506106ff82610c99565b5b9050919050565b60606003805461071690611cdb565b80601f016020809104026020016040519081016040528092919081815260200182805461074290611cdb565b801561078f5780601f106107645761010080835404028352916020019161078f565b820191906000526020600020905b81548152906001019060200180831161077257829003601f168201915b5050505050905090565b6000806107a4610d13565b90506107b1818585610d1b565b600191505092915050565b6366b2e15081565b6000600254905090565b6000801b6107db81610d2d565b6001600860006101000a81548160ff02191690831515021790555050565b600080610804610d13565b9050610811858285610d41565b61081c858585610dd5565b60019150509392505050565b600060056000838152602001908152602001600020600101549050919050565b61085182610828565b61085a81610d2d565b6108648383610ec9565b50505050565b60006012905090565b7f000000000000000000000000000000000000000000000000000000000000000081565b60065481565b6108a5610d13565b73ffffffffffffffffffffffffffffffffffffffff168173ffffffffffffffffffffffffffffffffffffffff1614610909576040517f6697b23200000000000000000000000000000000000000000000000000000000815260040160405180910390fd5b6109138282610fbb565b505050565b61092233826110ae565b80600660008282546109349190611d3b565b9250508190555050565b600860019054906101000a900460ff1681565b600860019054906101000a900460ff16610997576040517fefdc789e00000000000000000000000000000000000000000000000000000000815260040160405180910390fd5b7f9f2df0fed2c77648de5860a4cc508cd0818c85b8b8a1ab4ceeef8d981c8956a66109c181610d2d565b60006109cc42611130565b90506109e583600754836109e09190611d6f565b611216565b80600781905550505050565b60008060008373ffffffffffffffffffffffffffffffffffffffff1673ffffffffffffffffffffffffffffffffffffffff168152602001908152602001600020549050919050565b60006005600084815260200190815260200160002060000160008373ffffffffffffffffffffffffffffffffffffffff1673ffffffffffffffffffffffffffffffffffffffff16815260200190815260200160002060009054906101000a900460ff16905092915050565b606060048054610ab390611cdb565b80601f0160208091040260200160405190810160405280929190818152602001828054610adf90611cdb565b8015610b2c5780601f10610b0157610100808354040283529160200191610b2c565b820191906000526020600020905b815481529060010190602001808311610b0f57829003601f168201915b5050505050905090565b60075481565b6000801b81565b610b4d33826110ae565b50565b600080610b5b610d13565b9050610b68818585610dd5565b600191505092915050565b600860009054906101000a900460ff1681565b7f000000000000000000000000000000000000000000000000000000000000000081565b601081565b6367139f5d81565b7f9f2df0fed2c77648de5860a4cc508cd0818c85b8b8a1ab4ceeef8d981c8956a681565b610be482610828565b610bed81610d2d565b610bf78383610fbb565b50505050565b6000600160008473ffffffffffffffffffffffffffffffffffffffff1673ffffffffffffffffffffffffffffffffffffffff16815260200190815260200160002060008373ffffffffffffffffffffffffffffffffffffffff1673ffffffffffffffffffffffffffffffffffffffff16815260200190815260200160002054905092915050565b6000610c8f42611130565b905090565b600781565b60007f7965db0b000000000000000000000000000000000000000000000000000000007bffffffffffffffffffffffffffffffffffffffffffffffffffffffff1916827bffffffffffffffffffffffffffffffffffffffffffffffffffffffff19161480610d0c5750610d0b82611298565b5b9050919050565b600033905090565b610d288383836001611302565b505050565b610d3e81610d39610d13565b6114d9565b50565b6000610d4d8484610bfd565b90507fffffffffffffffffffffffffffffffffffffffffffffffffffffffffffffffff8114610dcf5781811015610dbf578281836040517ffb8f41b2000000000000000000000000000000000000000000000000000000008152600401610db693929190611db2565b60405180910390fd5b610dce84848484036000611302565b5b50505050565b600073ffffffffffffffffffffffffffffffffffffffff168373ffffffffffffffffffffffffffffffffffffffff1603610e475760006040517f96c6fd1e000000000000000000000000000000000000000000000000000000008152600401610e3e9190611de9565b60405180910390fd5b600073ffffffffffffffffffffffffffffffffffffffff168273ffffffffffffffffffffffffffffffffffffffff1603610eb95760006040517fec442f05000000000000000000000000000000000000000000000000000000008152600401610eb09190611de9565b60405180910390fd5b610ec483838361152a565b505050565b6000610ed58383610a39565b610fb05760016005600085815260200190815260200160002060000160008473ffffffffffffffffffffffffffffffffffffffff1673ffffffffffffffffffffffffffffffffffffffff16815260200190815260200160002060006101000a81548160ff021916908315150217905550610f4d610d13565b73ffffffffffffffffffffffffffffffffffffffff168273ffffffffffffffffffffffffffffffffffffffff16847f2f8788117e7eff1d82e926ec794901d17c78024a50270940304540a733656f0d60405160405180910390a460019050610fb5565b600090505b92915050565b6000610fc78383610a39565b156110a35760006005600085815260200190815260200160002060000160008473ffffffffffffffffffffffffffffffffffffffff1673ffffffffffffffffffffffffffffffffffffffff16815260200190815260200160002060006101000a81548160ff021916908315150217905550611040610d13565b73ffffffffffffffffffffffffffffffffffffffff168273ffffffffffffffffffffffffffffffffffffffff16847ff6391f5c32d9c69d2a47ea670b442974b53935d1edc7fd64eb21e047a839171b60405160405180910390a4600190506110a8565b600090505b92915050565b600073ffffffffffffffffffffffffffffffffffffffff168273ffffffffffffffffffffffffffffffffffffffff16036111205760006040517f96c6fd1e0000000000000000000000000000000000000000000000000000000081526004016111179190611de9565b60405180910390fd5b61112c8260008361152a565b5050565b600080620151806366b2e150846111479190611d6f565b6111519190611e33565b90506000807f0000000000000000000000000000000000000000000000000000000000000000905060005b60078110156111f1576000816010901b9050808510156111b55782856111a29190611e64565b846111ad9190611d3b565b9350506111f1565b82816111c19190611e64565b846111cc9190611d3b565b935080856111da9190611d6f565b9450600183901c925050808060010191505061117c565b5060026006546112019190611e33565b8261120c9190611d3b565b9350505050919050565b600073ffffffffffffffffffffffffffffffffffffffff168273ffffffffffffffffffffffffffffffffffffffff16036112885760006040517fec442f0500000000000000000000000000000000000000000000000000000000815260040161127f9190611de9565b60405180910390fd5b6112946000838361152a565b5050565b60007f01ffc9a7000000000000000000000000000000000000000000000000000000007bffffffffffffffffffffffffffffffffffffffffffffffffffffffff1916827bffffffffffffffffffffffffffffffffffffffffffffffffffffffff1916149050919050565b600073ffffffffffffffffffffffffffffffffffffffff168473ffffffffffffffffffffffffffffffffffffffff16036113745760006040517fe602df0500000000000000000000000000000000000000000000000000000000815260040161136b9190611de9565b60405180910390fd5b600073ffffffffffffffffffffffffffffffffffffffff168373ffffffffffffffffffffffffffffffffffffffff16036113e65760006040517f94280d620000000000000000000000000000000000000000000000000000000081526004016113dd9190611de9565b60405180910390fd5b81600160008673ffffffffffffffffffffffffffffffffffffffff1673ffffffffffffffffffffffffffffffffffffffff16815260200190815260200160002060008573ffffffffffffffffffffffffffffffffffffffff1673ffffffffffffffffffffffffffffffffffffffff1681526020019081526020016000208190555080156114d3578273ffffffffffffffffffffffffffffffffffffffff168473ffffffffffffffffffffffffffffffffffffffff167f8c5be1e5ebec7d5bd14f71427d1e84f3dd0314c0f7b2291e5b200ac8c7c3b925846040516114ca9190611aa0565b60405180910390a35b50505050565b6114e38282610a39565b6115265780826040517fe2517d3f00000000000000000000000000000000000000000000000000000000815260040161151d929190611ea6565b60405180910390fd5b5050565b6115348383611544565b61153f838383611626565b505050565b600860009054906101000a900460ff16611622576115827f9f2df0fed2c77648de5860a4cc508cd0818c85b8b8a1ab4ceeef8d981c8956a683610a39565b61162257600073ffffffffffffffffffffffffffffffffffffffff168273ffffffffffffffffffffffffffffffffffffffff16031561162257600073ffffffffffffffffffffffffffffffffffffffff168173ffffffffffffffffffffffffffffffffffffffff160315611622576040517f8cd22d1900000000000000000000000000000000000000000000000000000000815260040160405180910390fd5b5050565b600073ffffffffffffffffffffffffffffffffffffffff168373ffffffffffffffffffffffffffffffffffffffff160361167857806002600082825461166c9190611d3b565b9250508190555061174b565b60008060008573ffffffffffffffffffffffffffffffffffffffff1673ffffffffffffffffffffffffffffffffffffffff16815260200190815260200160002054905081811015611704578381836040517fe450d38c0000000000000000000000000000000000000000000000000000000081526004016116fb93929190611db2565b60405180910390fd5b8181036000808673ffffffffffffffffffffffffffffffffffffffff1673ffffffffffffffffffffffffffffffffffffffff16815260200190815260200160002081905550505b600073ffffffffffffffffffffffffffffffffffffffff168273ffffffffffffffffffffffffffffffffffffffff160361179457806002600082825403925050819055506117e1565b806000808473ffffffffffffffffffffffffffffffffffffffff1673ffffffffffffffffffffffffffffffffffffffff168152602001908152602001600020600082825401925050819055505b8173ffffffffffffffffffffffffffffffffffffffff168373ffffffffffffffffffffffffffffffffffffffff167fddf252ad1be2c89b69c2b068fc378daa952ba7f163c4a11628f55a4df523b3ef8360405161183e9190611aa0565b60405180910390a3505050565b600080fd5b60007fffffffff0000000000000000000000000000000000000000000000000000000082169050919050565b61188581611850565b811461189057600080fd5b50565b6000813590506118a28161187c565b92915050565b6000602082840312156118be576118bd61184b565b5b60006118cc84828501611893565b91505092915050565b60008115159050919050565b6118ea816118d5565b82525050565b600060208201905061190560008301846118e1565b92915050565b600081519050919050565b600082825260208201905092915050565b60005b8381101561194557808201518184015260208101905061192a565b60008484015250505050565b6000601f19601f8301169050919050565b600061196d8261190b565b6119778185611916565b9350611987818560208601611927565b61199081611951565b840191505092915050565b600060208201905081810360008301526119b58184611962565b905092915050565b600073ffffffffffffffffffffffffffffffffffffffff82169050919050565b60006119e8826119bd565b9050919050565b6119f8816119dd565b8114611a0357600080fd5b50565b600081359050611a15816119ef565b92915050565b6000819050919050565b611a2e81611a1b565b8114611a3957600080fd5b50565b600081359050611a4b81611a25565b92915050565b60008060408385031215611a6857611a6761184b565b5b6000611a7685828601611a06565b9250506020611a8785828601611a3c565b9150509250929050565b611a9a81611a1b565b82525050565b6000602082019050611ab56000830184611a91565b92915050565b600080600060608486031215611ad457611ad361184b565b5b6000611ae286828701611a06565b9350506020611af386828701611a06565b9250506040611b0486828701611a3c565b9150509250925092565b6000819050919050565b611b2181611b0e565b8114611b2c57600080fd5b50565b600081359050611b3e81611b18565b92915050565b600060208284031215611b5a57611b5961184b565b5b6000611b6884828501611b2f565b91505092915050565b611b7a81611b0e565b82525050565b6000602082019050611b956000830184611b71565b92915050565b60008060408385031215611bb257611bb161184b565b5b6000611bc085828601611b2f565b9250506020611bd185828601611a06565b9150509250929050565b600060ff82169050919050565b611bf181611bdb565b82525050565b6000602082019050611c0c6000830184611be8565b92915050565b600060208284031215611c2857611c2761184b565b5b6000611c3684828501611a3c565b91505092915050565b600060208284031215611c5557611c5461184b565b5b6000611c6384828501611a06565b91505092915050565b60008060408385031215611c8357611c8261184b565b5b6000611c9185828601611a06565b9250506020611ca285828601611a06565b9150509250929050565b7f4e487b7100000000000000000000000000000000000000000000000000000000600052602260045260246000fd5b60006002820490506001821680611cf357607f821691505b602082108103611d0657611d05611cac565b5b50919050565b7f4e487b7100000000000000000000000000000000000000000000000000000000600052601160045260246000fd5b6000611d4682611a1b565b9150611d5183611a1b565b9250828201905080821115611d6957611d68611d0c565b5b92915050565b6000611d7a82611a1b565b9150611d8583611a1b565b9250828203905081811115611d9d57611d9c611d0c565b5b92915050565b611dac816119dd565b82525050565b6000606082019050611dc76000830186611da3565b611dd46020830185611a91565b611de16040830184611a91565b949350505050565b6000602082019050611dfe6000830184611da3565b92915050565b7f4e487b7100000000000000000000000000000000000000000000000000000000600052601260045260246000fd5b6000611e3e82611a1b565b9150611e4983611a1b565b925082611e5957611e58611e04565b5b828204905092915050565b6000611e6f82611a1b565b9150611e7a83611a1b565b9250828202611e8881611a1b565b91508282048414831517611e9f57611e9e611d0c565b5b5092915050565b6000604082019050611ebb6000830185611da3565b611ec86020830184611b71565b939250505056fea26469706673582212208741bc11f005cbde0fc51ea19b54ba0fc67d09989a8afe078f01b02d517605cc64736f6c634300081b0033",
  "linkReferences": {},
  "deployedLinkReferences": {}
}