{
  "_format": "hh-sol-artifact-1",
  "contractName": "Int0",
  "sourceName": "contracts/Int0.sol",
  "abi": [
    {
      "inputs": [
        {
          "internalType": "address",
          "name": "verifierAddress_",
          "type": "address"
        },
        {
          "internalType": "address",
          "name": "owner_",
          "type": "address"
        }
      ],
      "stateMutability": "nonpayable",
      "type": "constructor"
    },
    {
      "inputs": [],
      "name": "MerkleTreeFull",
      "type": "error"
    },
    {
      "anonymous": false,
      "inputs": [
        {
          "indexed": true,
          "internalType": "uint32",
          "name": "leafIndex",
          "type": "uint32"
        },
        {
          "indexed": false,
          "internalType": "bytes32",
          "name": "leafHash",
          "type": "bytes32"
        },
        {
          "indexed": false,
          "internalType": "bytes32",
          "name": "pubkey_salt_hash",
          "type": "bytes32"
        },
        {
          "indexed": false,
          "internalType": "uint32",
          "name": "tokenIndex",
          "type": "uint32"
        },
        {
          "indexed": false,
          "internalType": "uint256",
          "name": "amount",
          "type": "uint256"
        }
      ],
      "name": "Deposited",
      "type": "event"
    },
    {
      "inputs": [
        {
          "components": [
            {
              "internalType": "bytes32",
              "name": "pubkeySaltHash",
              "type": "bytes32"
            },
            {
              "internalType": "uint32",
              "name": "tokenIndex",
              "type": "uint32"
            },
            {
              "internalType": "uint256",
              "name": "amount",
              "type": "uint256"
            }
          ],
          "internalType": "struct Int0.DepositLeaf",
          "name": "leaf",
          "type": "tuple"
        }
      ],
      "name": "deposit",
      "outputs": [],
      "stateMutability": "payable",
      "type": "function"
    },
    {
      "inputs": [],
      "name": "depositCount",
      "outputs": [
        {
          "internalType": "uint256",
          "name": "",
          "type": "uint256"
        }
      ],
      "stateMutability": "view",
      "type": "function"
    },
    {
      "inputs": [
        {
          "internalType": "bytes32",
          "name": "",
          "type": "bytes32"
        }
      ],
      "name": "depositRoots",
      "outputs": [
        {
          "internalType": "uint256",
          "name": "",
          "type": "uint256"
        }
      ],
      "stateMutability": "view",
      "type": "function"
    },
    {
      "inputs": [],
      "name": "getBranch",
      "outputs": [
        {
          "internalType": "bytes32[32]",
          "name": "",
          "type": "bytes32[32]"
        }
      ],
      "stateMutability": "view",
      "type": "function"
    },
    {
      "inputs": [],
      "name": "getDepositRoot",
      "outputs": [
        {
          "internalType": "bytes32",
          "name": "",
          "type": "bytes32"
        }
      ],
      "stateMutability": "view",
      "type": "function"
    },
    {
      "inputs": [
        {
          "components": [
            {
              "internalType": "bytes32",
              "name": "pubkeySaltHash",
              "type": "bytes32"
            },
            {
              "internalType": "uint32",
              "name": "tokenIndex",
              "type": "uint32"
            },
            {
              "internalType": "uint256",
              "name": "amount",
              "type": "uint256"
            }
          ],
          "internalType": "struct Int0.DepositLeaf",
          "name": "depositLeaf",
          "type": "tuple"
        }
      ],
      "name": "getLeafHash",
      "outputs": [
        {
          "internalType": "bytes32",
          "name": "",
          "type": "bytes32"
        }
      ],
      "stateMutability": "pure",
      "type": "function"
    },
    {
      "inputs": [
        {
          "components": [
            {
              "internalType": "bytes32",
              "name": "depositRoot",
              "type": "bytes32"
            },
            {
              "internalType": "bytes32",
              "name": "nullifier",
              "type": "bytes32"
            },
            {
              "internalType": "uint32",
              "name": "tokenIndex",
              "type": "uint32"
            },
            {
              "internalType": "uint256",
              "name": "amount",
              "type": "uint256"
            }
          ],
          "internalType": "struct Int0.PublicInputs",
          "name": "publicInputs",
          "type": "tuple"
        }
      ],
      "name": "getPublicInputsHash",
      "outputs": [
        {
          "internalType": "bytes32",
          "name": "",
          "type": "bytes32"
        }
      ],
      "stateMutability": "pure",
      "type": "function"
    },
    {
      "inputs": [],
      "name": "leafIndex",
      "outputs": [
        {
          "internalType": "uint32",
          "name": "",
          "type": "uint32"
        }
      ],
      "stateMutability": "view",
      "type": "function"
    },
    {
      "inputs": [
        {
          "internalType": "bytes32",
          "name": "",
          "type": "bytes32"
        }
      ],
      "name": "nullifiers",
      "outputs": [
        {
          "internalType": "uint256",
          "name": "",
          "type": "uint256"
        }
      ],
      "stateMutability": "view",
      "type": "function"
    },
    {
      "inputs": [],
      "name": "owner",
      "outputs": [
        {
          "internalType": "address",
          "name": "",
          "type": "address"
        }
      ],
      "stateMutability": "view",
      "type": "function"
    },
    {
      "inputs": [],
      "name": "rescue",
      "outputs": [],
      "stateMutability": "nonpayable",
      "type": "function"
    },
    {
      "inputs": [
        {
          "internalType": "bytes32",
          "name": "input",
          "type": "bytes32"
        }
      ],
      "name": "splitBytes32",
      "outputs": [
        {
          "internalType": "uint256[]",
          "name": "",
          "type": "uint256[]"
        }
      ],
      "stateMutability": "pure",
      "type": "function"
    },
    {
      "inputs": [],
      "name": "verifierAddress",
      "outputs": [
        {
          "internalType": "address",
          "name": "",
          "type": "address"
        }
      ],
      "stateMutability": "view",
      "type": "function"
    },
    {
      "inputs": [
        {
          "internalType": "bytes32",
          "name": "leafHash",
          "type": "bytes32"
        },
        {
          "internalType": "bytes32[32]",
          "name": "smtProof",
          "type": "bytes32[32]"
        },
        {
          "internalType": "uint32",
          "name": "index",
          "type": "uint32"
        },
        {
          "internalType": "bytes32",
          "name": "root",
          "type": "bytes32"
        }
      ],
      "name": "verifyMerkleProof",
      "outputs": [
        {
          "internalType": "bool",
          "name": "",
          "type": "bool"
        }
      ],
      "stateMutability": "pure",
      "type": "function"
    },
    {
      "inputs": [
        {
          "components": [
            {
              "internalType": "bytes32",
              "name": "depositRoot",
              "type": "bytes32"
            },
            {
              "internalType": "bytes32",
              "name": "nullifier",
              "type": "bytes32"
            },
            {
              "internalType": "uint32",
              "name": "tokenIndex",
              "type": "uint32"
            },
            {
              "internalType": "uint256",
              "name": "amount",
              "type": "uint256"
            }
          ],
          "internalType": "struct Int0.PublicInputs",
          "name": "pis",
          "type": "tuple"
        },
        {
          "internalType": "bytes",
          "name": "proof",
          "type": "bytes"
        }
      ],
      "name": "verifyProof",
      "outputs": [
        {
          "internalType": "bool",
          "name": "",
          "type": "bool"
        }
      ],
      "stateMutability": "view",
      "type": "function"
    },
    {
      "inputs": [
        {
          "internalType": "address",
          "name": "to",
          "type": "address"
        },
        {
          "components": [
            {
              "internalType": "bytes32",
              "name": "depositRoot",
              "type": "bytes32"
            },
            {
              "internalType": "bytes32",
              "name": "nullifier",
              "type": "bytes32"
            },
            {
              "internalType": "uint32",
              "name": "tokenIndex",
              "type": "uint32"
            },
            {
              "internalType": "uint256",
              "name": "amount",
              "type": "uint256"
            }
          ],
          "internalType": "struct Int0.PublicInputs",
          "name": "publicInputs",
          "type": "tuple"
        },
        {
          "internalType": "bytes",
          "name": "proof",
          "type": "bytes"
        }
      ],
      "name": "withdraw",
      "outputs": [],
      "stateMutability": "payable",
      "type": "function"
    }
  ],
  "bytecode": "0x60806040523480156200001157600080fd5b5060405162001f3738038062001f3783398181016040528101906200003791906200012b565b81602160046101000a81548173ffffffffffffffffffffffffffffffffffffffff021916908373ffffffffffffffffffffffffffffffffffffffff16021790555080602260006101000a81548173ffffffffffffffffffffffffffffffffffffffff021916908373ffffffffffffffffffffffffffffffffffffffff160217905550505062000172565b600080fd5b600073ffffffffffffffffffffffffffffffffffffffff82169050919050565b6000620000f382620000c6565b9050919050565b6200010581620000e6565b81146200011157600080fd5b50565b6000815190506200012581620000fa565b92915050565b60008060408385031215620001455762000144620000c1565b5b6000620001558582860162000114565b9250506020620001688582860162000114565b9150509250929050565b611db580620001826000396000f3fe6080604052600436106100f35760003560e01c806360440a001161008a578063e09dfaa211610059578063e09dfaa214610312578063ea8ef6be1461034f578063fb5708341461037a578063ff043490146103b7576100f3565b806360440a001461023057806383e2e8691461026d5780638da5cb5b146102aa578063926deb98146102d5576100f3565b80632dfdf0b5116100c65780632dfdf0b5146101935780633ae05047146101be57806340f54777146101e95780635cdaa5f114610205576100f3565b8063165e954a146100f857806318bdffbb146101145780631fbe19791461013f5780632997e86b14610156575b600080fd5b610112600480360381019061010d9190611075565b6103f4565b005b34801561012057600080fd5b5061012961057d565b60405161013691906110f8565b60405180910390f35b34801561014b57600080fd5b506101546105a3565b005b34801561016257600080fd5b5061017d60048036038101906101789190611113565b61069e565b60405161018a919061114f565b60405180910390f35b34801561019f57600080fd5b506101a86106b6565b6040516101b5919061114f565b60405180910390f35b3480156101ca57600080fd5b506101d36106bc565b6040516101e09190611179565b60405180910390f35b61020360048036038101906101fe91906111f8565b610704565b005b34801561021157600080fd5b5061021a610879565b6040516102279190611234565b60405180910390f35b34801561023c57600080fd5b506102576004803603810190610252919061124f565b61088f565b60405161026491906112ca565b60405180910390f35b34801561027957600080fd5b50610294600480360381019061028f91906111f8565b61094f565b6040516102a19190611179565b60405180910390f35b3480156102b657600080fd5b506102bf61098f565b6040516102cc91906110f8565b60405180910390f35b3480156102e157600080fd5b506102fc60048036038101906102f79190611113565b6109b5565b60405161030991906113a3565b60405180910390f35b34801561031e57600080fd5b5061033960048036038101906103349190611113565b610a60565b604051610346919061114f565b60405180910390f35b34801561035b57600080fd5b50610364610a78565b6040516103719190611470565b60405180910390f35b34801561038657600080fd5b506103a1600480360381019061039c91906114ad565b610ac3565b6040516103ae91906112ca565b60405180910390f35b3480156103c357600080fd5b506103de60048036038101906103d99190611517565b610b94565b6040516103eb9190611179565b60405180910390f35b60006023600085600001518152602001908152602001600020541161044e576040517f08c379a0000000000000000000000000000000000000000000000000000000008152600401610445906115a1565b60405180910390fd5b6000602460008560200151815260200190815260200160002054146104a8576040517f08c379a000000000000000000000000000000000000000000000000000000000815260040161049f9061160d565b60405180910390fd5b6104b383838361088f565b6104f2576040517f08c379a00000000000000000000000000000000000000000000000000000000081526004016104e990611679565b60405180910390fd5b426024600085602001518152602001908152602001600020819055506000836040015163ffffffff1603610577578373ffffffffffffffffffffffffffffffffffffffff166108fc34856060015161054a91906116c8565b9081150290604051600060405180830381858888f19350505050158015610575573d6000803e3d6000fd5b505b50505050565b602160049054906101000a900473ffffffffffffffffffffffffffffffffffffffff1681565b602260009054906101000a900473ffffffffffffffffffffffffffffffffffffffff1673ffffffffffffffffffffffffffffffffffffffff163373ffffffffffffffffffffffffffffffffffffffff1614610633576040517f08c379a000000000000000000000000000000000000000000000000000000000815260040161062a90611748565b60405180910390fd5b602260009054906101000a900473ffffffffffffffffffffffffffffffffffffffff1673ffffffffffffffffffffffffffffffffffffffff166108fc479081150290604051600060405180830381858888f1935050505015801561069b573d6000803e3d6000fd5b50565b60246020528060005260406000206000915090505481565b60205481565b60008060405180606001604052806000801b8152602001600063ffffffff1681526020016000815250905060006106f28261094f565b90506106fd81610bda565b9250505090565b6000816020015163ffffffff1614610751576040517f08c379a0000000000000000000000000000000000000000000000000000000008152600401610748906117da565b60405180910390fd5b80604001513414610797576040517f08c379a000000000000000000000000000000000000000000000000000000000815260040161078e90611846565b60405180910390fd5b60006107a28261094f565b90506107ad81610cba565b602160009054906101000a900463ffffffff1663ffffffff167f7b04c7222082b2cbbee86dcff2548097802a8ae6edc2f182918f039548918647828460000151856020015186604001516040516108079493929190611866565b60405180910390a260006108196106bc565b90504260236000838152602001908152602001600020819055506021600081819054906101000a900463ffffffff1680929190610855906118ab565b91906101000a81548163ffffffff021916908363ffffffff16021790555050505050565b602160009054906101000a900463ffffffff1681565b60008061089b85610b94565b9050602160049054906101000a900473ffffffffffffffffffffffffffffffffffffffff1673ffffffffffffffffffffffffffffffffffffffff16637e4f7a8a85856108e6856109b5565b6040518463ffffffff1660e01b815260040161090493929190611924565b602060405180830381865afa158015610921573d6000803e3d6000fd5b505050506040513d601f19601f820116820180604052508101906109459190611989565b9150509392505050565b600081600001518260200151836040015160405160200161097293929190611a2e565b604051602081830303815290604052805190602001209050919050565b602260009054906101000a900473ffffffffffffffffffffffffffffffffffffffff1681565b60606000600867ffffffffffffffff8111156109d4576109d3610e75565b5b604051908082528060200260200182016040528015610a025781602001602082028036833780820191505090505b50905060005b6008811015610a5657602081610a1e9190611a6b565b84901b60e01c63ffffffff16828281518110610a3d57610a3c611aad565b5b6020026020010181815250508080600101915050610a08565b5080915050919050565b60236020528060005260406000206000915090505481565b610a80610dca565b6000602080602002604051908101604052809291908260208015610ab9576020028201915b815481526020019060010190808311610aa5575b5050505050905090565b60008085905060005b6020811015610b8557600180828763ffffffff16901c1663ffffffff1603610b3557858160208110610b0157610b00611aad565b5b602002013582604051602001610b18929190611adc565b604051602081830303815290604052805190602001209150610b78565b81868260208110610b4957610b48611aad565b5b6020020135604051602001610b5f929190611adc565b6040516020818303038152906040528051906020012091505b8080600101915050610acc565b50828114915050949350505050565b60008160000151826020015183604001518460600151604051602001610bbd9493929190611b08565b604051602081830303815290604052805190602001209050919050565b60008082905060006020549050600084905060005b6020811015610cae576001808285901c1603610c4a5760008160208110610c1957610c18611aad565b5b015484604051602001610c2d929190611adc565b604051602081830303815290604052805190602001209350610c76565b8382604051602001610c5d929190611adc565b6040516020818303038152906040528051906020012093505b8182604051602001610c89929190611adc565b6040516020818303038152906040528051906020012091508080600101915050610bef565b50829350505050919050565b6000819050600160206002610ccf9190611c89565b610cd99190611cd4565b60205410610d13576040517fef5ccf6600000000000000000000000000000000000000000000000000000000815260040160405180910390fd5b6000602060008154610d2490611d08565b919050819055905060005b6020811015610db4576001808284901c1603610d67578260008260208110610d5a57610d59611aad565b5b0181905550505050610dc7565b60008160208110610d7b57610d7a611aad565b5b015483604051602001610d8f929190611adc565b6040516020818303038152906040528051906020012092508080600101915050610d2f565b506000610dc457610dc3611d50565b5b50505b50565b604051806104000160405280602090602082028036833780820191505090505090565b6000604051905090565b600080fd5b600080fd5b600073ffffffffffffffffffffffffffffffffffffffff82169050919050565b6000610e2c82610e01565b9050919050565b610e3c81610e21565b8114610e4757600080fd5b50565b600081359050610e5981610e33565b92915050565b600080fd5b6000601f19601f8301169050919050565b7f4e487b7100000000000000000000000000000000000000000000000000000000600052604160045260246000fd5b610ead82610e64565b810181811067ffffffffffffffff82111715610ecc57610ecb610e75565b5b80604052505050565b6000610edf610ded565b9050610eeb8282610ea4565b919050565b6000819050919050565b610f0381610ef0565b8114610f0e57600080fd5b50565b600081359050610f2081610efa565b92915050565b600063ffffffff82169050919050565b610f3f81610f26565b8114610f4a57600080fd5b50565b600081359050610f5c81610f36565b92915050565b6000819050919050565b610f7581610f62565b8114610f8057600080fd5b50565b600081359050610f9281610f6c565b92915050565b600060808284031215610fae57610fad610e5f565b5b610fb86080610ed5565b90506000610fc884828501610f11565b6000830152506020610fdc84828501610f11565b6020830152506040610ff084828501610f4d565b604083015250606061100484828501610f83565b60608301525092915050565b600080fd5b600080fd5b600080fd5b60008083601f84011261103557611034611010565b5b8235905067ffffffffffffffff81111561105257611051611015565b5b60208301915083600182028301111561106e5761106d61101a565b5b9250929050565b60008060008060c0858703121561108f5761108e610df7565b5b600061109d87828801610e4a565b94505060206110ae87828801610f98565b93505060a085013567ffffffffffffffff8111156110cf576110ce610dfc565b5b6110db8782880161101f565b925092505092959194509250565b6110f281610e21565b82525050565b600060208201905061110d60008301846110e9565b92915050565b60006020828403121561112957611128610df7565b5b600061113784828501610f11565b91505092915050565b61114981610f62565b82525050565b60006020820190506111646000830184611140565b92915050565b61117381610ef0565b82525050565b600060208201905061118e600083018461116a565b92915050565b6000606082840312156111aa576111a9610e5f565b5b6111b46060610ed5565b905060006111c484828501610f11565b60008301525060206111d884828501610f4d565b60208301525060406111ec84828501610f83565b60408301525092915050565b60006060828403121561120e5761120d610df7565b5b600061121c84828501611194565b91505092915050565b61122e81610f26565b82525050565b60006020820190506112496000830184611225565b92915050565b600080600060a0848603121561126857611267610df7565b5b600061127686828701610f98565b935050608084013567ffffffffffffffff81111561129757611296610dfc565b5b6112a38682870161101f565b92509250509250925092565b60008115159050919050565b6112c4816112af565b82525050565b60006020820190506112df60008301846112bb565b92915050565b600081519050919050565b600082825260208201905092915050565b6000819050602082019050919050565b61131a81610f62565b82525050565b600061132c8383611311565b60208301905092915050565b6000602082019050919050565b6000611350826112e5565b61135a81856112f0565b935061136583611301565b8060005b8381101561139657815161137d8882611320565b975061138883611338565b925050600181019050611369565b5085935050505092915050565b600060208201905081810360008301526113bd8184611345565b905092915050565b600060209050919050565b600081905092915050565b6000819050919050565b6113ee81610ef0565b82525050565b600061140083836113e5565b60208301905092915050565b6000602082019050919050565b611422816113c5565b61142c81846113d0565b9250611437826113db565b8060005b8381101561146857815161144f87826113f4565b965061145a8361140c565b92505060018101905061143b565b505050505050565b6000610400820190506114866000830184611419565b92915050565b60008190508260208002820111156114a7576114a661101a565b5b92915050565b60008060008061046085870312156114c8576114c7610df7565b5b60006114d687828801610f11565b94505060206114e78782880161148c565b9350506104206114f987828801610f4d565b92505061044061150b87828801610f11565b91505092959194509250565b60006080828403121561152d5761152c610df7565b5b600061153b84828501610f98565b91505092915050565b600082825260208201905092915050565b7f496e76616c6964206465706f736974526f6f7400000000000000000000000000600082015250565b600061158b601383611544565b915061159682611555565b602082019050919050565b600060208201905081810360008301526115ba8161157e565b9050919050565b7f496e76616c6964206e756c6c6966696572000000000000000000000000000000600082015250565b60006115f7601183611544565b9150611602826115c1565b602082019050919050565b60006020820190508181036000830152611626816115ea565b9050919050565b7f496e76616c69642070726f6f6600000000000000000000000000000000000000600082015250565b6000611663600d83611544565b915061166e8261162d565b602082019050919050565b6000602082019050818103600083015261169281611656565b9050919050565b7f4e487b7100000000000000000000000000000000000000000000000000000000600052601160045260246000fd5b60006116d382610f62565b91506116de83610f62565b92508282019050808211156116f6576116f5611699565b5b92915050565b7f4f6e6c79206f776e65722063616e207265736375650000000000000000000000600082015250565b6000611732601583611544565b915061173d826116fc565b602082019050919050565b6000602082019050818103600083015261176181611725565b9050919050565b7f43757272656e746c79206f6e6c7920746f6b656e496e6465782030206973207360008201527f7570706f72746564000000000000000000000000000000000000000000000000602082015250565b60006117c4602883611544565b91506117cf82611768565b604082019050919050565b600060208201905081810360008301526117f3816117b7565b9050919050565b7f496e76616c696420616d6f756e74000000000000000000000000000000000000600082015250565b6000611830600e83611544565b915061183b826117fa565b602082019050919050565b6000602082019050818103600083015261185f81611823565b9050919050565b600060808201905061187b600083018761116a565b611888602083018661116a565b6118956040830185611225565b6118a26060830184611140565b95945050505050565b60006118b682610f26565b915063ffffffff82036118cc576118cb611699565b5b600182019050919050565b600082825260208201905092915050565b82818337600083830152505050565b600061190383856118d7565b93506119108385846118e8565b61191983610e64565b840190509392505050565b6000604082019050818103600083015261193f8185876118f7565b905081810360208301526119538184611345565b9050949350505050565b611966816112af565b811461197157600080fd5b50565b6000815190506119838161195d565b92915050565b60006020828403121561199f5761199e610df7565b5b60006119ad84828501611974565b91505092915050565b6000819050919050565b6119d16119cc82610ef0565b6119b6565b82525050565b60008160e01b9050919050565b60006119ef826119d7565b9050919050565b611a07611a0282610f26565b6119e4565b82525050565b6000819050919050565b611a28611a2382610f62565b611a0d565b82525050565b6000611a3a82866119c0565b602082019150611a4a82856119f6565b600482019150611a5a8284611a17565b602082019150819050949350505050565b6000611a7682610f62565b9150611a8183610f62565b9250828202611a8f81610f62565b91508282048414831517611aa657611aa5611699565b5b5092915050565b7f4e487b7100000000000000000000000000000000000000000000000000000000600052603260045260246000fd5b6000611ae882856119c0565b602082019150611af882846119c0565b6020820191508190509392505050565b6000611b1482876119c0565b602082019150611b2482866119c0565b602082019150611b3482856119f6565b600482019150611b448284611a17565b60208201915081905095945050505050565b60008160011c9050919050565b6000808291508390505b6001851115611bad57808604811115611b8957611b88611699565b5b6001851615611b985780820291505b8081029050611ba685611b56565b9450611b6d565b94509492505050565b600082611bc65760019050611c82565b81611bd45760009050611c82565b8160018114611bea5760028114611bf457611c23565b6001915050611c82565b60ff841115611c0657611c05611699565b5b8360020a915084821115611c1d57611c1c611699565b5b50611c82565b5060208310610133831016604e8410600b8410161715611c585782820a905083811115611c5357611c52611699565b5b611c82565b611c658484846001611b63565b92509050818404811115611c7c57611c7b611699565b5b81810290505b9392505050565b6000611c9482610f62565b9150611c9f83610f62565b9250611ccc7fffffffffffffffffffffffffffffffffffffffffffffffffffffffffffffffff8484611bb6565b905092915050565b6000611cdf82610f62565b9150611cea83610f62565b9250828203905081811115611d0257611d01611699565b5b92915050565b6000611d1382610f62565b91507fffffffffffffffffffffffffffffffffffffffffffffffffffffffffffffffff8203611d4557611d44611699565b5b600182019050919050565b7f4e487b7100000000000000000000000000000000000000000000000000000000600052600160045260246000fdfea2646970667358221220e5d7cf004a5e5dd704b70be9df2977d285ec6c0319a366ada7da272808ebec2864736f6c63430008180033",
  "linkReferences": {},
  "deployedLinkReferences": {}
}