{
  "_format": "hh-sol-artifact-1",
  "contractName": "INTMAXTokenL",
  "sourceName": "contracts/int1/minterV1/layer2/token/INTMAXTokenL.sol",
  "abi": [
    {
      "inputs": [
        {
          "internalType": "address",
          "name": "admin_",
          "type": "address"
        },
        {
          "internalType": "address",
          "name": "minter_",
          "type": "address"
        }
      ],
      "stateMutability": "nonpayable",
      "type": "constructor"
    },
    {
      "inputs": [],
      "name": "AccessControlBadConfirmation",
      "type": "error"
    },
    {
      "inputs": [
        {
          "internalType": "address",
          "name": "account",
          "type": "address"
        },
        {
          "internalType": "bytes32",
          "name": "neededRole",
          "type": "bytes32"
        }
      ],
      "name": "AccessControlUnauthorizedAccount",
      "type": "error"
    },
    {
      "inputs": [
        {
          "internalType": "address",
          "name": "spender",
          "type": "address"
        },
        {
          "internalType": "uint256",
          "name": "allowance",
          "type": "uint256"
        },
        {
          "internalType": "uint256",
          "name": "needed",
          "type": "uint256"
        }
      ],
      "name": "ERC20InsufficientAllowance",
      "type": "error"
    },
    {
      "inputs": [
        {
          "internalType": "address",
          "name": "sender",
          "type": "address"
        },
        {
          "internalType": "uint256",
          "name": "balance",
          "type": "uint256"
        },
        {
          "internalType": "uint256",
          "name": "needed",
          "type": "uint256"
        }
      ],
      "name": "ERC20InsufficientBalance",
      "type": "error"
    },
    {
      "inputs": [
        {
          "internalType": "address",
          "name": "approver",
          "type": "address"
        }
      ],
      "name": "ERC20InvalidApprover",
      "type": "error"
    },
    {
      "inputs": [
        {
          "internalType": "address",
          "name": "receiver",
          "type": "address"
        }
      ],
      "name": "ERC20InvalidReceiver",
      "type": "error"
    },
    {
      "inputs": [
        {
          "internalType": "address",
          "name": "sender",
          "type": "address"
        }
      ],
      "name": "ERC20InvalidSender",
      "type": "error"
    },
    {
      "inputs": [
        {
          "internalType": "address",
          "name": "spender",
          "type": "address"
        }
      ],
      "name": "ERC20InvalidSpender",
      "type": "error"
    },
    {
      "inputs": [],
      "name": "TransferNotAllowed",
      "type": "error"
    },
    {
      "anonymous": false,
      "inputs": [
        {
          "indexed": true,
          "internalType": "address",
          "name": "owner",
          "type": "address"
        },
        {
          "indexed": true,
          "internalType": "address",
          "name": "spender",
          "type": "address"
        },
        {
          "indexed": false,
          "internalType": "uint256",
          "name": "value",
          "type": "uint256"
        }
      ],
      "name": "Approval",
      "type": "event"
    },
    {
      "anonymous": false,
      "inputs": [
        {
          "indexed": true,
          "internalType": "bytes32",
          "name": "role",
          "type": "bytes32"
        },
        {
          "indexed": true,
          "internalType": "bytes32",
          "name": "previousAdminRole",
          "type": "bytes32"
        },
        {
          "indexed": true,
          "internalType": "bytes32",
          "name": "newAdminRole",
          "type": "bytes32"
        }
      ],
      "name": "RoleAdminChanged",
      "type": "event"
    },
    {
      "anonymous": false,
      "inputs": [
        {
          "indexed": true,
          "internalType": "bytes32",
          "name": "role",
          "type": "bytes32"
        },
        {
          "indexed": true,
          "internalType": "address",
          "name": "account",
          "type": "address"
        },
        {
          "indexed": true,
          "internalType": "address",
          "name": "sender",
          "type": "address"
        }
      ],
      "name": "RoleGranted",
      "type": "event"
    },
    {
      "anonymous": false,
      "inputs": [
        {
          "indexed": true,
          "internalType": "bytes32",
          "name": "role",
          "type": "bytes32"
        },
        {
          "indexed": true,
          "internalType": "address",
          "name": "account",
          "type": "address"
        },
        {
          "indexed": true,
          "internalType": "address",
          "name": "sender",
          "type": "address"
        }
      ],
      "name": "RoleRevoked",
      "type": "event"
    },
    {
      "anonymous": false,
      "inputs": [
        {
          "indexed": true,
          "internalType": "address",
          "name": "from",
          "type": "address"
        },
        {
          "indexed": true,
          "internalType": "address",
          "name": "to",
          "type": "address"
        },
        {
          "indexed": false,
          "internalType": "uint256",
          "name": "value",
          "type": "uint256"
        }
      ],
      "name": "Transfer",
      "type": "event"
    },
    {
      "inputs": [],
      "name": "DEFAULT_ADMIN_ROLE",
      "outputs": [
        {
          "internalType": "bytes32",
          "name": "",
          "type": "bytes32"
        }
      ],
      "stateMutability": "view",
      "type": "function"
    },
    {
      "inputs": [],
      "name": "GENESIS_TIMESTAMP",
      "outputs": [
        {
          "internalType": "uint256",
          "name": "",
          "type": "uint256"
        }
      ],
      "stateMutability": "view",
      "type": "function"
    },
    {
      "inputs": [],
      "name": "MAX_SUPPLY",
      "outputs": [
        {
          "internalType": "uint256",
          "name": "",
          "type": "uint256"
        }
      ],
      "stateMutability": "view",
      "type": "function"
    },
    {
      "inputs": [],
      "name": "MINTER_ROLE",
      "outputs": [
        {
          "internalType": "bytes32",
          "name": "",
          "type": "bytes32"
        }
      ],
      "stateMutability": "view",
      "type": "function"
    },
    {
      "inputs": [],
      "name": "NUM_PHASES",
      "outputs": [
        {
          "internalType": "uint256",
          "name": "",
          "type": "uint256"
        }
      ],
      "stateMutability": "view",
      "type": "function"
    },
    {
      "inputs": [],
      "name": "PHASE0_PERIOD",
      "outputs": [
        {
          "internalType": "uint256",
          "name": "",
          "type": "uint256"
        }
      ],
      "stateMutability": "view",
      "type": "function"
    },
    {
      "inputs": [],
      "name": "PHASE0_REWARD_PER_DAY",
      "outputs": [
        {
          "internalType": "uint256",
          "name": "",
          "type": "uint256"
        }
      ],
      "stateMutability": "view",
      "type": "function"
    },
    {
      "inputs": [],
      "name": "allowTransfers",
      "outputs": [],
      "stateMutability": "nonpayable",
      "type": "function"
    },
    {
      "inputs": [
        {
          "internalType": "address",
          "name": "owner",
          "type": "address"
        },
        {
          "internalType": "address",
          "name": "spender",
          "type": "address"
        }
      ],
      "name": "allowance",
      "outputs": [
        {
          "internalType": "uint256",
          "name": "",
          "type": "uint256"
        }
      ],
      "stateMutability": "view",
      "type": "function"
    },
    {
      "inputs": [
        {
          "internalType": "address",
          "name": "spender",
          "type": "address"
        },
        {
          "internalType": "uint256",
          "name": "value",
          "type": "uint256"
        }
      ],
      "name": "approve",
      "outputs": [
        {
          "internalType": "bool",
          "name": "",
          "type": "bool"
        }
      ],
      "stateMutability": "nonpayable",
      "type": "function"
    },
    {
      "inputs": [
        {
          "internalType": "address",
          "name": "account",
          "type": "address"
        }
      ],
      "name": "balanceOf",
      "outputs": [
        {
          "internalType": "uint256",
          "name": "",
          "type": "uint256"
        }
      ],
      "stateMutability": "view",
      "type": "function"
    },
    {
      "inputs": [
        {
          "internalType": "uint256",
          "name": "amount",
          "type": "uint256"
        }
      ],
      "name": "burn",
      "outputs": [],
      "stateMutability": "nonpayable",
      "type": "function"
    },
    {
      "inputs": [],
      "name": "decimals",
      "outputs": [
        {
          "internalType": "uint8",
          "name": "",
          "type": "uint8"
        }
      ],
      "stateMutability": "view",
      "type": "function"
    },
    {
      "inputs": [
        {
          "internalType": "bytes32",
          "name": "role",
          "type": "bytes32"
        }
      ],
      "name": "getRoleAdmin",
      "outputs": [
        {
          "internalType": "bytes32",
          "name": "",
          "type": "bytes32"
        }
      ],
      "stateMutability": "view",
      "type": "function"
    },
    {
      "inputs": [
        {
          "internalType": "bytes32",
          "name": "role",
          "type": "bytes32"
        },
        {
          "internalType": "address",
          "name": "account",
          "type": "address"
        }
      ],
      "name": "grantRole",
      "outputs": [],
      "stateMutability": "nonpayable",
      "type": "function"
    },
    {
      "inputs": [
        {
          "internalType": "bytes32",
          "name": "role",
          "type": "bytes32"
        },
        {
          "internalType": "address",
          "name": "account",
          "type": "address"
        }
      ],
      "name": "hasRole",
      "outputs": [
        {
          "internalType": "bool",
          "name": "",
          "type": "bool"
        }
      ],
      "stateMutability": "view",
      "type": "function"
    },
    {
      "inputs": [
        {
          "internalType": "address",
          "name": "to",
          "type": "address"
        }
      ],
      "name": "mint",
      "outputs": [],
      "stateMutability": "nonpayable",
      "type": "function"
    },
    {
      "inputs": [],
      "name": "name",
      "outputs": [
        {
          "internalType": "string",
          "name": "",
          "type": "string"
        }
      ],
      "stateMutability": "view",
      "type": "function"
    },
    {
      "inputs": [
        {
          "internalType": "bytes32",
          "name": "role",
          "type": "bytes32"
        },
        {
          "internalType": "address",
          "name": "callerConfirmation",
          "type": "address"
        }
      ],
      "name": "renounceRole",
      "outputs": [],
      "stateMutability": "nonpayable",
      "type": "function"
    },
    {
      "inputs": [
        {
          "internalType": "bytes32",
          "name": "role",
          "type": "bytes32"
        },
        {
          "internalType": "address",
          "name": "account",
          "type": "address"
        }
      ],
      "name": "revokeRole",
      "outputs": [],
      "stateMutability": "nonpayable",
      "type": "function"
    },
    {
      "inputs": [
        {
          "internalType": "bytes4",
          "name": "interfaceId",
          "type": "bytes4"
        }
      ],
      "name": "supportsInterface",
      "outputs": [
        {
          "internalType": "bool",
          "name": "",
          "type": "bool"
        }
      ],
      "stateMutability": "view",
      "type": "function"
    },
    {
      "inputs": [],
      "name": "symbol",
      "outputs": [
        {
          "internalType": "string",
          "name": "",
          "type": "string"
        }
      ],
      "stateMutability": "view",
      "type": "function"
    },
    {
      "inputs": [],
      "name": "totalBurnedAmount",
      "outputs": [
        {
          "internalType": "uint256",
          "name": "",
          "type": "uint256"
        }
      ],
      "stateMutability": "view",
      "type": "function"
    },
    {
      "inputs": [],
      "name": "totalClaimedAmount",
      "outputs": [
        {
          "internalType": "uint256",
          "name": "",
          "type": "uint256"
        }
      ],
      "stateMutability": "view",
      "type": "function"
    },
    {
      "inputs": [],
      "name": "totalMintableAmount",
      "outputs": [
        {
          "internalType": "uint256",
          "name": "",
          "type": "uint256"
        }
      ],
      "stateMutability": "view",
      "type": "function"
    },
    {
      "inputs": [],
      "name": "totalSupply",
      "outputs": [
        {
          "internalType": "uint256",
          "name": "",
          "type": "uint256"
        }
      ],
      "stateMutability": "view",
      "type": "function"
    },
    {
      "inputs": [
        {
          "internalType": "address",
          "name": "to",
          "type": "address"
        },
        {
          "internalType": "uint256",
          "name": "value",
          "type": "uint256"
        }
      ],
      "name": "transfer",
      "outputs": [
        {
          "internalType": "bool",
          "name": "",
          "type": "bool"
        }
      ],
      "stateMutability": "nonpayable",
      "type": "function"
    },
    {
      "inputs": [
        {
          "internalType": "address",
          "name": "from",
          "type": "address"
        },
        {
          "internalType": "address",
          "name": "to",
          "type": "address"
        },
        {
          "internalType": "uint256",
          "name": "value",
          "type": "uint256"
        }
      ],
      "name": "transferFrom",
      "outputs": [
        {
          "internalType": "bool",
          "name": "",
          "type": "bool"
        }
      ],
      "stateMutability": "nonpayable",
      "type": "function"
    },
    {
      "inputs": [],
      "name": "transfersAllowed",
      "outputs": [
        {
          "internalType": "bool",
          "name": "",
          "type": "bool"
        }
      ],
      "stateMutability": "view",
      "type": "function"
    },
    {
      "inputs": [
        {
          "internalType": "uint256",
          "name": "amount",
          "type": "uint256"
        }
      ],
      "name": "vanish",
      "outputs": [],
      "stateMutability": "nonpayable",
      "type": "function"
    }
  ],
  "bytecode": "0x60c060405234801561001057600080fd5b506040516128c03803806128c08339818101604052810190610032919061042f565b6040518060400160405280600681526020017f494e544d415800000000000000000000000000000000000000000000000000008152506040518060400160405280600381526020017f495458000000000000000000000000000000000000000000000000000000000081525081600390816100ad91906106bf565b5080600490816100bd91906106bf565b5050506100ce61018c60201b60201c565b600a6100da9190610900565b6288601c6100e8919061094b565b6080818152505060076010608051610100919061094b565b61010a919061094b565b60a081815250506000600860006101000a81548160ff02191690831515021790555061013f6000801b8361019560201b60201c565b506101707f9f2df0fed2c77648de5860a4cc508cd0818c85b8b8a1ab4ceeef8d981c8956a68261019560201b60201c565b5061017f61029360201b60201c565b6007819055505050610a55565b60006012905090565b60006101a7838361035960201b60201c565b6102885760016005600085815260200190815260200160002060000160008473ffffffffffffffffffffffffffffffffffffffff1673ffffffffffffffffffffffffffffffffffffffff16815260200190815260200160002060006101000a81548160ff0219169083151502179055506102256103c460201b60201c565b73ffffffffffffffffffffffffffffffffffffffff168273ffffffffffffffffffffffffffffffffffffffff16847f2f8788117e7eff1d82e926ec794901d17c78024a50270940304540a733656f0d60405160405180910390a46001905061028d565b600090505b92915050565b600080620151806366b2e150426102aa919061098d565b6102b491906109f0565b9050600080608051905060005b6007811015610336576000816010901b9050808510156102fa5782856102e7919061094b565b846102f29190610a21565b935050610336565b8281610306919061094b565b846103119190610a21565b9350808561031f919061098d565b9450600183901c92505080806001019150506102c1565b50600260065461034691906109f0565b826103519190610a21565b935050505090565b60006005600084815260200190815260200160002060000160008373ffffffffffffffffffffffffffffffffffffffff1673ffffffffffffffffffffffffffffffffffffffff16815260200190815260200160002060009054906101000a900460ff16905092915050565b600033905090565b600080fd5b600073ffffffffffffffffffffffffffffffffffffffff82169050919050565b60006103fc826103d1565b9050919050565b61040c816103f1565b811461041757600080fd5b50565b60008151905061042981610403565b92915050565b60008060408385031215610446576104456103cc565b5b60006104548582860161041a565b92505060206104658582860161041a565b9150509250929050565b600081519050919050565b7f4e487b7100000000000000000000000000000000000000000000000000000000600052604160045260246000fd5b7f4e487b7100000000000000000000000000000000000000000000000000000000600052602260045260246000fd5b600060028204905060018216806104f057607f821691505b602082108103610503576105026104a9565b5b50919050565b60008190508160005260206000209050919050565b60006020601f8301049050919050565b600082821b905092915050565b60006008830261056b7fffffffffffffffffffffffffffffffffffffffffffffffffffffffffffffffff8261052e565b610575868361052e565b95508019841693508086168417925050509392505050565b6000819050919050565b6000819050919050565b60006105bc6105b76105b28461058d565b610597565b61058d565b9050919050565b6000819050919050565b6105d6836105a1565b6105ea6105e2826105c3565b84845461053b565b825550505050565b600090565b6105ff6105f2565b61060a8184846105cd565b505050565b5b8181101561062e576106236000826105f7565b600181019050610610565b5050565b601f8211156106735761064481610509565b61064d8461051e565b8101602085101561065c578190505b6106706106688561051e565b83018261060f565b50505b505050565b600082821c905092915050565b600061069660001984600802610678565b1980831691505092915050565b60006106af8383610685565b9150826002028217905092915050565b6106c88261046f565b67ffffffffffffffff8111156106e1576106e061047a565b5b6106eb82546104d8565b6106f6828285610632565b600060209050601f8311600181146107295760008415610717578287015190505b61072185826106a3565b865550610789565b601f19841661073786610509565b60005b8281101561075f5784890151825560018201915060208501945060208101905061073a565b8683101561077c5784890151610778601f891682610685565b8355505b6001600288020188555050505b505050505050565b7f4e487b7100000000000000000000000000000000000000000000000000000000600052601160045260246000fd5b60008160011c9050919050565b6000808291508390505b6001851115610817578086048111156107f3576107f2610791565b5b60018516156108025780820291505b8081029050610810856107c0565b94506107d7565b94509492505050565b60008261083057600190506108ec565b8161083e57600090506108ec565b8160018114610854576002811461085e5761088d565b60019150506108ec565b60ff8411156108705761086f610791565b5b8360020a91508482111561088757610886610791565b5b506108ec565b5060208310610133831016604e8410600b84101617156108c25782820a9050838111156108bd576108bc610791565b5b6108ec565b6108cf84848460016107cd565b925090508184048111156108e6576108e5610791565b5b81810290505b9392505050565b600060ff82169050919050565b600061090b8261058d565b9150610916836108f3565b92506109437fffffffffffffffffffffffffffffffffffffffffffffffffffffffffffffffff8484610820565b905092915050565b60006109568261058d565b91506109618361058d565b925082820261096f8161058d565b9150828204841483151761098657610985610791565b5b5092915050565b60006109988261058d565b91506109a38361058d565b92508282039050818111156109bb576109ba610791565b5b92915050565b7f4e487b7100000000000000000000000000000000000000000000000000000000600052601260045260246000fd5b60006109fb8261058d565b9150610a068361058d565b925082610a1657610a156109c1565b5b828204905092915050565b6000610a2c8261058d565b9150610a378361058d565b9250828201905080821115610a4f57610a4e610791565b5b92915050565b60805160a051611e3f610a816000396000610823015260008181610adc0152610bf80152611e3f6000f3fe608060405234801561001057600080fd5b50600436106101da5760003560e01c806370a0823111610104578063b0660c3d116100a2578063d547741f11610071578063d547741f1461054b578063dd62ed3e14610567578063dea5b6ae14610597578063eb9f1b1d146105b5576101da565b8063b0660c3d146104d3578063b8e50054146104f1578063c52f41241461050f578063d53913931461052d576101da565b80639661cb0d116100de5780639661cb0d1461044b578063a217fddf14610469578063a3bedaa314610487578063a9059cbb146104a3576101da565b806370a08231146103cd57806391d14854146103fd57806395d89b411461042d576101da565b8063248a9ca31161017c57806335ab5f641161014b57806335ab5f641461035b57806336568abe1461037957806342966c68146103955780636a627842146103b1576101da565b8063248a9ca3146102d35780632f2ff15d14610303578063313ce5671461031f57806332cb6b0c1461033d576101da565b80630c204d44116101b85780630c204d441461025d57806318160ddd1461027b5780632185810b1461029957806323b872dd146102a3576101da565b806301ffc9a7146101df57806306fdde031461020f578063095ea7b31461022d575b600080fd5b6101f960048036038101906101f491906117e2565b6105d3565b604051610206919061182a565b60405180910390f35b6102176106b5565b60405161022491906118d5565b60405180910390f35b6102476004803603810190610242919061198b565b610747565b604051610254919061182a565b60405180910390f35b61026561076a565b60405161027291906119da565b60405180910390f35b610283610772565b60405161029091906119da565b60405180910390f35b6102a161077c565b005b6102bd60048036038101906102b891906119f5565b6107a7565b6040516102ca919061182a565b60405180910390f35b6102ed60048036038101906102e89190611a7e565b6107d6565b6040516102fa9190611aba565b60405180910390f35b61031d60048036038101906103189190611ad5565b6107f6565b005b610327610818565b6040516103349190611b31565b60405180910390f35b610345610821565b60405161035291906119da565b60405180910390f35b610363610845565b60405161037091906119da565b60405180910390f35b610393600480360381019061038e9190611ad5565b61084b565b005b6103af60048036038101906103aa9190611b4c565b6108c6565b005b6103cb60048036038101906103c69190611b79565b6108ec565b005b6103e760048036038101906103e29190611b79565b610945565b6040516103f491906119da565b60405180910390f35b61041760048036038101906104129190611ad5565b61098d565b604051610424919061182a565b60405180910390f35b6104356109f8565b60405161044291906118d5565b60405180910390f35b610453610a8a565b60405161046091906119da565b60405180910390f35b610471610a90565b60405161047e9190611aba565b60405180910390f35b6104a1600480360381019061049c9190611b4c565b610a97565b005b6104bd60048036038101906104b8919061198b565b610aa4565b6040516104ca919061182a565b60405180910390f35b6104db610ac7565b6040516104e8919061182a565b60405180910390f35b6104f9610ada565b60405161050691906119da565b60405180910390f35b610517610afe565b60405161052491906119da565b60405180910390f35b610535610b03565b6040516105429190611aba565b60405180910390f35b61056560048036038101906105609190611ad5565b610b27565b005b610581600480360381019061057c9190611ba6565b610b49565b60405161058e91906119da565b60405180910390f35b61059f610bd0565b6040516105ac91906119da565b60405180910390f35b6105bd610cb4565b6040516105ca91906119da565b60405180910390f35b60007f36372b07000000000000000000000000000000000000000000000000000000007bffffffffffffffffffffffffffffffffffffffffffffffffffffffff1916827bffffffffffffffffffffffffffffffffffffffffffffffffffffffff1916148061069e57507f67c66178000000000000000000000000000000000000000000000000000000007bffffffffffffffffffffffffffffffffffffffffffffffffffffffff1916827bffffffffffffffffffffffffffffffffffffffffffffffffffffffff1916145b806106ae57506106ad82610cb9565b5b9050919050565b6060600380546106c490611c15565b80601f01602080910402602001604051908101604052809291908181526020018280546106f090611c15565b801561073d5780601f106107125761010080835404028352916020019161073d565b820191906000526020600020905b81548152906001019060200180831161072057829003601f168201915b5050505050905090565b600080610752610d33565b905061075f818585610d3b565b600191505092915050565b6366b2e15081565b6000600254905090565b6000801b61078981610d4d565b6001600860006101000a81548160ff02191690831515021790555050565b6000806107b2610d33565b90506107bf858285610d61565b6107ca858585610df5565b60019150509392505050565b600060056000838152602001908152602001600020600101549050919050565b6107ff826107d6565b61080881610d4d565b6108128383610ee9565b50505050565b60006012905090565b7f000000000000000000000000000000000000000000000000000000000000000081565b60065481565b610853610d33565b73ffffffffffffffffffffffffffffffffffffffff168173ffffffffffffffffffffffffffffffffffffffff16146108b7576040517f6697b23200000000000000000000000000000000000000000000000000000000815260040160405180910390fd5b6108c18282610fdb565b505050565b6108d033826110ce565b80600660008282546108e29190611c75565b9250508190555050565b7f9f2df0fed2c77648de5860a4cc508cd0818c85b8b8a1ab4ceeef8d981c8956a661091681610d4d565b6000610920610bd0565b905061093983600754836109349190611ca9565b611150565b80600781905550505050565b60008060008373ffffffffffffffffffffffffffffffffffffffff1673ffffffffffffffffffffffffffffffffffffffff168152602001908152602001600020549050919050565b60006005600084815260200190815260200160002060000160008373ffffffffffffffffffffffffffffffffffffffff1673ffffffffffffffffffffffffffffffffffffffff16815260200190815260200160002060009054906101000a900460ff16905092915050565b606060048054610a0790611c15565b80601f0160208091040260200160405190810160405280929190818152602001828054610a3390611c15565b8015610a805780601f10610a5557610100808354040283529160200191610a80565b820191906000526020600020905b815481529060010190602001808311610a6357829003601f168201915b5050505050905090565b60075481565b6000801b81565b610aa133826110ce565b50565b600080610aaf610d33565b9050610abc818585610df5565b600191505092915050565b600860009054906101000a900460ff1681565b7f000000000000000000000000000000000000000000000000000000000000000081565b601081565b7f9f2df0fed2c77648de5860a4cc508cd0818c85b8b8a1ab4ceeef8d981c8956a681565b610b30826107d6565b610b3981610d4d565b610b438383610fdb565b50505050565b6000600160008473ffffffffffffffffffffffffffffffffffffffff1673ffffffffffffffffffffffffffffffffffffffff16815260200190815260200160002060008373ffffffffffffffffffffffffffffffffffffffff1673ffffffffffffffffffffffffffffffffffffffff16815260200190815260200160002054905092915050565b600080620151806366b2e15042610be79190611ca9565b610bf19190611d0c565b90506000807f0000000000000000000000000000000000000000000000000000000000000000905060005b6007811015610c91576000816010901b905080851015610c55578285610c429190611d3d565b84610c4d9190611c75565b935050610c91565b8281610c619190611d3d565b84610c6c9190611c75565b93508085610c7a9190611ca9565b9450600183901c9250508080600101915050610c1c565b506002600654610ca19190611d0c565b82610cac9190611c75565b935050505090565b600781565b60007f7965db0b000000000000000000000000000000000000000000000000000000007bffffffffffffffffffffffffffffffffffffffffffffffffffffffff1916827bffffffffffffffffffffffffffffffffffffffffffffffffffffffff19161480610d2c5750610d2b826111d2565b5b9050919050565b600033905090565b610d48838383600161123c565b505050565b610d5e81610d59610d33565b611413565b50565b6000610d6d8484610b49565b90507fffffffffffffffffffffffffffffffffffffffffffffffffffffffffffffffff8114610def5781811015610ddf578281836040517ffb8f41b2000000000000000000000000000000000000000000000000000000008152600401610dd693929190611d8e565b60405180910390fd5b610dee8484848403600061123c565b5b50505050565b600073ffffffffffffffffffffffffffffffffffffffff168373ffffffffffffffffffffffffffffffffffffffff1603610e675760006040517f96c6fd1e000000000000000000000000000000000000000000000000000000008152600401610e5e9190611dc5565b60405180910390fd5b600073ffffffffffffffffffffffffffffffffffffffff168273ffffffffffffffffffffffffffffffffffffffff1603610ed95760006040517fec442f05000000000000000000000000000000000000000000000000000000008152600401610ed09190611dc5565b60405180910390fd5b610ee4838383611464565b505050565b6000610ef5838361098d565b610fd05760016005600085815260200190815260200160002060000160008473ffffffffffffffffffffffffffffffffffffffff1673ffffffffffffffffffffffffffffffffffffffff16815260200190815260200160002060006101000a81548160ff021916908315150217905550610f6d610d33565b73ffffffffffffffffffffffffffffffffffffffff168273ffffffffffffffffffffffffffffffffffffffff16847f2f8788117e7eff1d82e926ec794901d17c78024a50270940304540a733656f0d60405160405180910390a460019050610fd5565b600090505b92915050565b6000610fe7838361098d565b156110c35760006005600085815260200190815260200160002060000160008473ffffffffffffffffffffffffffffffffffffffff1673ffffffffffffffffffffffffffffffffffffffff16815260200190815260200160002060006101000a81548160ff021916908315150217905550611060610d33565b73ffffffffffffffffffffffffffffffffffffffff168273ffffffffffffffffffffffffffffffffffffffff16847ff6391f5c32d9c69d2a47ea670b442974b53935d1edc7fd64eb21e047a839171b60405160405180910390a4600190506110c8565b600090505b92915050565b600073ffffffffffffffffffffffffffffffffffffffff168273ffffffffffffffffffffffffffffffffffffffff16036111405760006040517f96c6fd1e0000000000000000000000000000000000000000000000000000000081526004016111379190611dc5565b60405180910390fd5b61114c82600083611464565b5050565b600073ffffffffffffffffffffffffffffffffffffffff168273ffffffffffffffffffffffffffffffffffffffff16036111c25760006040517fec442f050000000000000000000000000000000000000000000000000000000081526004016111b99190611dc5565b60405180910390fd5b6111ce60008383611464565b5050565b60007f01ffc9a7000000000000000000000000000000000000000000000000000000007bffffffffffffffffffffffffffffffffffffffffffffffffffffffff1916827bffffffffffffffffffffffffffffffffffffffffffffffffffffffff1916149050919050565b600073ffffffffffffffffffffffffffffffffffffffff168473ffffffffffffffffffffffffffffffffffffffff16036112ae5760006040517fe602df050000000000000000000000000000000000000000000000000000000081526004016112a59190611dc5565b60405180910390fd5b600073ffffffffffffffffffffffffffffffffffffffff168373ffffffffffffffffffffffffffffffffffffffff16036113205760006040517f94280d620000000000000000000000000000000000000000000000000000000081526004016113179190611dc5565b60405180910390fd5b81600160008673ffffffffffffffffffffffffffffffffffffffff1673ffffffffffffffffffffffffffffffffffffffff16815260200190815260200160002060008573ffffffffffffffffffffffffffffffffffffffff1673ffffffffffffffffffffffffffffffffffffffff16815260200190815260200160002081905550801561140d578273ffffffffffffffffffffffffffffffffffffffff168473ffffffffffffffffffffffffffffffffffffffff167f8c5be1e5ebec7d5bd14f71427d1e84f3dd0314c0f7b2291e5b200ac8c7c3b9258460405161140491906119da565b60405180910390a35b50505050565b61141d828261098d565b6114605780826040517fe2517d3f000000000000000000000000000000000000000000000000000000008152600401611457929190611de0565b60405180910390fd5b5050565b61146e838361147e565b611479838383611560565b505050565b600860009054906101000a900460ff1661155c576114bc7f9f2df0fed2c77648de5860a4cc508cd0818c85b8b8a1ab4ceeef8d981c8956a68361098d565b61155c57600073ffffffffffffffffffffffffffffffffffffffff168273ffffffffffffffffffffffffffffffffffffffff16031561155c57600073ffffffffffffffffffffffffffffffffffffffff168173ffffffffffffffffffffffffffffffffffffffff16031561155c576040517f8cd22d1900000000000000000000000000000000000000000000000000000000815260040160405180910390fd5b5050565b600073ffffffffffffffffffffffffffffffffffffffff168373ffffffffffffffffffffffffffffffffffffffff16036115b25780600260008282546115a69190611c75565b92505081905550611685565b60008060008573ffffffffffffffffffffffffffffffffffffffff1673ffffffffffffffffffffffffffffffffffffffff1681526020019081526020016000205490508181101561163e578381836040517fe450d38c00000000000000000000000000000000000000000000000000000000815260040161163593929190611d8e565b60405180910390fd5b8181036000808673ffffffffffffffffffffffffffffffffffffffff1673ffffffffffffffffffffffffffffffffffffffff16815260200190815260200160002081905550505b600073ffffffffffffffffffffffffffffffffffffffff168273ffffffffffffffffffffffffffffffffffffffff16036116ce578060026000828254039250508190555061171b565b806000808473ffffffffffffffffffffffffffffffffffffffff1673ffffffffffffffffffffffffffffffffffffffff168152602001908152602001600020600082825401925050819055505b8173ffffffffffffffffffffffffffffffffffffffff168373ffffffffffffffffffffffffffffffffffffffff167fddf252ad1be2c89b69c2b068fc378daa952ba7f163c4a11628f55a4df523b3ef8360405161177891906119da565b60405180910390a3505050565b600080fd5b60007fffffffff0000000000000000000000000000000000000000000000000000000082169050919050565b6117bf8161178a565b81146117ca57600080fd5b50565b6000813590506117dc816117b6565b92915050565b6000602082840312156117f8576117f7611785565b5b6000611806848285016117cd565b91505092915050565b60008115159050919050565b6118248161180f565b82525050565b600060208201905061183f600083018461181b565b92915050565b600081519050919050565b600082825260208201905092915050565b60005b8381101561187f578082015181840152602081019050611864565b60008484015250505050565b6000601f19601f8301169050919050565b60006118a782611845565b6118b18185611850565b93506118c1818560208601611861565b6118ca8161188b565b840191505092915050565b600060208201905081810360008301526118ef818461189c565b905092915050565b600073ffffffffffffffffffffffffffffffffffffffff82169050919050565b6000611922826118f7565b9050919050565b61193281611917565b811461193d57600080fd5b50565b60008135905061194f81611929565b92915050565b6000819050919050565b61196881611955565b811461197357600080fd5b50565b6000813590506119858161195f565b92915050565b600080604083850312156119a2576119a1611785565b5b60006119b085828601611940565b92505060206119c185828601611976565b9150509250929050565b6119d481611955565b82525050565b60006020820190506119ef60008301846119cb565b92915050565b600080600060608486031215611a0e57611a0d611785565b5b6000611a1c86828701611940565b9350506020611a2d86828701611940565b9250506040611a3e86828701611976565b9150509250925092565b6000819050919050565b611a5b81611a48565b8114611a6657600080fd5b50565b600081359050611a7881611a52565b92915050565b600060208284031215611a9457611a93611785565b5b6000611aa284828501611a69565b91505092915050565b611ab481611a48565b82525050565b6000602082019050611acf6000830184611aab565b92915050565b60008060408385031215611aec57611aeb611785565b5b6000611afa85828601611a69565b9250506020611b0b85828601611940565b9150509250929050565b600060ff82169050919050565b611b2b81611b15565b82525050565b6000602082019050611b466000830184611b22565b92915050565b600060208284031215611b6257611b61611785565b5b6000611b7084828501611976565b91505092915050565b600060208284031215611b8f57611b8e611785565b5b6000611b9d84828501611940565b91505092915050565b60008060408385031215611bbd57611bbc611785565b5b6000611bcb85828601611940565b9250506020611bdc85828601611940565b9150509250929050565b7f4e487b7100000000000000000000000000000000000000000000000000000000600052602260045260246000fd5b60006002820490506001821680611c2d57607f821691505b602082108103611c4057611c3f611be6565b5b50919050565b7f4e487b7100000000000000000000000000000000000000000000000000000000600052601160045260246000fd5b6000611c8082611955565b9150611c8b83611955565b9250828201905080821115611ca357611ca2611c46565b5b92915050565b6000611cb482611955565b9150611cbf83611955565b9250828203905081811115611cd757611cd6611c46565b5b92915050565b7f4e487b7100000000000000000000000000000000000000000000000000000000600052601260045260246000fd5b6000611d1782611955565b9150611d2283611955565b925082611d3257611d31611cdd565b5b828204905092915050565b6000611d4882611955565b9150611d5383611955565b9250828202611d6181611955565b91508282048414831517611d7857611d77611c46565b5b5092915050565b611d8881611917565b82525050565b6000606082019050611da36000830186611d7f565b611db060208301856119cb565b611dbd60408301846119cb565b949350505050565b6000602082019050611dda6000830184611d7f565b92915050565b6000604082019050611df56000830185611d7f565b611e026020830184611aab565b939250505056fea26469706673582212206351a0dcf70ad2c886f2c32bcb8c069bebc17dc9504351c4ebb3dac4fec6d0ce64736f6c634300081b0033",
  "linkReferences": {},
  "deployedLinkReferences": {}
}