{
  "contracts/Verifier.sol": {
    "PlonkVerifier": {
      "abi": [
        {
          "inputs": [
            {
              "internalType": "bytes",
              "name": "proof",
              "type": "bytes"
            },
            {
              "internalType": "uint256[]",
              "name": "public_inputs",
              "type": "uint256[]"
            }
          ],
          "name": "Verify",
          "outputs": [
            {
              "internalType": "bool",
              "name": "success",
              "type": "bool"
            }
          ],
          "stateMutability": "view",
          "type": "function"
        }
      ],
      "evm": {
        "bytecode": {
          "linkReferences": {},
          "object": "608060405234801561001057600080fd5b50612b7b806100206000396000f3fe608060405234801561001057600080fd5b506004361061002b5760003560e01c80637e4f7a8a14610030575b600080fd5b61004a60048036038101906100459190612a8e565b610060565b6040516100579190612b2a565b60405180910390f35b6000604051610220810161007384610447565b61007d858561045b565b610086866104b5565b61008f876104d2565b600061009c86868a6106aa565b90506100a7816109f1565b90506100b38189610a59565b90506100bf8189610af0565b60608301517f30644e72e131a029b85045b68181585d2833e84879b9709143e1f593f000000160017f30644e72e131a029b85045b68181585d2833e84879b9709143e1f593f0000001036101188563010000008561294e565b08806101a086015261012b84888a610b5e565b61013685898d610ec5565b7f30644e72e131a029b85045b68181585d2833e84879b9709143e1f593f000000182820891508161018088015261016b611281565b6101748c61247e565b61017d8c612406565b6101868c612000565b61018f8c611ad9565b6101988c6117e8565b6101a18c6113d6565b6101e087015197506129ba565b6040517f08c379a000000000000000000000000000000000000000000000000000000000815260206004820152601d60248201527f77726f6e67206e756d626572206f66207075626c696320696e707574730000006044820152606481fd5b6040517f08c379a000000000000000000000000000000000000000000000000000000000815260206004820152601260248201527f6572726f72206563206f7065726174696f6e00000000000000000000000000006044820152606481fd5b6040517f08c379a000000000000000000000000000000000000000000000000000000000815260206004820152601860248201527f696e707574732061726520626967676572207468616e207200000000000000006044820152606481fd5b6040517f08c379a000000000000000000000000000000000000000000000000000000000815260206004820152601060248201527f77726f6e672070726f6f662073697a65000000000000000000000000000000006044820152606481fd5b6040517f08c379a000000000000000000000000000000000000000000000000000000000815260206004820152601660248201527f6f70656e696e677320626967676572207468616e2072000000000000000000006044820152606481fd5b6040517f08c379a000000000000000000000000000000000000000000000000000000000815260206004820152600c60248201527f6572726f722076657269667900000000000000000000000000000000000000006044820152606481fd5b6040517f08c379a000000000000000000000000000000000000000000000000000000000815260206004820152601460248201527f6572726f722072616e646f6d2067656e206b7a670000000000000000000000006044820152606481fd5b60088114610458576104576101ae565b5b50565b600160005b828110156104a1577f30644e72e131a029b85045b68181585d2833e84879b9709143e1f593f000000184351082169150602084019350600181019050610460565b50806104b0576104af61026c565b5b505050565b6060600102610340018082146104ce576104cd6102cb565b5b5050565b60016102a082017f30644e72e131a029b85045b68181585d2833e84879b9709143e1f593f000000181351082169150610280830190507f30644e72e131a029b85045b68181585d2833e84879b9709143e1f593f000000181351082169150610180830190507f30644e72e131a029b85045b68181585d2833e84879b9709143e1f593f0000001813510821691506101a0830190507f30644e72e131a029b85045b68181585d2833e84879b9709143e1f593f0000001813510821691506101c0830190507f30644e72e131a029b85045b68181585d2833e84879b9709143e1f593f0000001813510821691506101e0830190507f30644e72e131a029b85045b68181585d2833e84879b9709143e1f593f000000181351082169150610200830190507f30644e72e131a029b85045b68181585d2833e84879b9709143e1f593f000000181351082169150610260830190507f30644e72e131a029b85045b68181585d2833e84879b9709143e1f593f0000001813510821691506103408301905060005b6001811015610696577f30644e72e131a029b85045b68181585d2833e84879b9709143e1f593f000000182351083169250602082019150600181019050610654565b50816106a5576106a461032a565b5b505050565b600060405161022081016467616d6d6181527f132893973f9bfd040c1d2f14deae8ab39939f028a89695e9a51041ecbc353eba60208201527f1bc55692c4d18fbf2cda86445b20721e7639da9cb9e743ae9738fa742cf01a5460408201527f1aae9492c047d8ba13342cedf59276c6df50bd433921e0212673b477ba1144e060608201527f0d86485d30326191f6cf93a9da7755da1ee2c518882cdfd98268d04777d66d9f60808201527f19d72d73ca3652f6c7ba6d10de727f053a9a483c1f2f75164519ac2731217e5260a08201527f0c582a704c4306fc732d919c09b8f235718d38357ffa3137af64c471f171e4b960c08201527f1e4dea2a579567e182f0e8532f8ad92422ac2698f7bae77e3a77b6fdf0f9871460e08201527e0be660abc7f888d07b74e8b7f34a52bee23d4786bb475d48a8e59716cf34ef6101008201527f2b47457fe7db52639e541a94f564cb0a91d0b92aead363b038b0153161c23db86101208201527f1040eaba17035821fae38b07287869ece9b3d5d4f5c4beb8b65e09eba821c0656101408201527f0450e30bb17b9dad2cd9449c20a901efbe7abe9384d2371ea0425d61d2ed1c276101608201527f2c71e1f57406c5a4f3c8b66e6ff051415c94e6c6a24e8d165bba1e23b09eaf846101808201527f2f8abb8103086dac581d44bf84c242e64d75c4c3f7b19d0174effd7f649f6e296101a08201527f04fff8ce958dd588d2e09d8c1723f39a53b4fd238736de326b0536b798123b966101c08201527f1e4b818c205e1e52db852efaff3a902841af26c2f7057bfdb1ee2a74d86379e36101e08201527f204a8f6429e9d73707a387fb34dec1c7e3323eeff655071e683b7b72d6c9d5f66102008201527f21b38243a746b5410254d7ef482fc485c36a87f70e3e1c5d8534d6f5f2c0530d6102208201527f06da8c14025797fa87be7a45792f507c5f53af8f44e26699f4ea51eb755f0b1161024082015261026081016020860280888337808201915060c0808784378083019250816102c50160406001028101905060208582601b880160025afa806109b7576109b6610389565b5b855197507f30644e72e131a029b85045b68181585d2833e84879b9709143e1f593f000000188066040880152505050505050509392505050565b600060405161022060405101636265746181528360208201526020816024601c840160025afa80610a2557610a24610389565b5b815193507f30644e72e131a029b85045b68181585d2833e84879b9709143e1f593f000000184066020840152505050919050565b600060405161022060405101606564616c70686182526020820186815260208101905061036086016001604002808284378083019250808401935060406102208901843760208585601b880160025afa80610ab757610ab6610389565b5b855197507f30644e72e131a029b85045b68181585d2833e84879b9709143e1f593f0000001880660008801525050505050505092915050565b60405161022060405101637a657461815283602082015260c0808401604083013760208160e4601c840160025afa80610b2c57610b2b610389565b5b81517f30644e72e131a029b85045b68181585d2833e84879b9709143e1f593f000000181066060850152505050505050565b600060405160608101516101a082015186610b7b81888486610bf9565b6000805b88811015610bec577f30644e72e131a029b85045b68181585d2833e84879b9709143e1f593f0000001883584510991507f30644e72e131a029b85045b68181585d2833e84879b9709143e1f593f00000018288089650602083019250602088019750600181019050610b7f565b5050505050509392505050565b7f30644e72e131a029b85045b68181585d2833e84879b9709143e1f593f00000017f30644e427ce32d4886b01bfe313ba1dba6db8b2045d128178a7164500e0a6c11830960018560005b86811015610cea577f30644e72e131a029b85045b68181585d2833e84879b9709143e1f593f0000001837f30644e72e131a029b85045b68181585d2833e84879b9709143e1f593f000000103860882527f30644e72e131a029b85045b68181585d2833e84879b9709143e1f593f00000017f0c9fabc7845d50d2852e2a0371c6441f145e0db82e8326961c25f1e3e32b045b84099250602082019150600181019050610c43565b50610cf6818789610db3565b8690506001915060005b86811015610da9577f30644e72e131a029b85045b68181585d2833e84879b9709143e1f593f0000001837f30644e72e131a029b85045b68181585d2833e84879b9709143e1f593f0000001868551090982526020820191507f30644e72e131a029b85045b68181585d2833e84879b9709143e1f593f00000017f0c9fabc7845d50d2852e2a0371c6441f145e0db82e8326961c25f1e3e32b045b84099250600181019050610d00565b5050505050505050565b600183526000805b83811015610e095781850151828401517f30644e72e131a029b85045b68181585d2833e84879b9709143e1f593f0000001818309905060208401935080848801525050600181019050610dbb565b5060208103820191508084019350610e496020850160027f30644e72e131a029b85045b68181585d2833e84879b9709143e1f593f000000103865161294e565b60005b84811015610ebd5760208603955083517f30644e72e131a029b85045b68181585d2833e84879b9709143e1f593f0000001875184098086527f30644e72e131a029b85045b68181585d2833e84879b9709143e1f593f000000182850993506020860395505050600181019050610e4c565b505050505050565b600060405160608101516101a08201516103608501600080610eed8a6020850135853561107e565b9150610f008a6290bf998b018688610f3e565b90507f30644e72e131a029b85045b68181585d2833e84879b9709143e1f593f000000180828409880896506040830192505050505050509392505050565b6000610f6b85857f0c9fabc7845d50d2852e2a0371c6441f145e0db82e8326961c25f1e3e32b045b61294e565b7f30644e72e131a029b85045b68181585d2833e84879b9709143e1f593f0000001817f30644e72e131a029b85045b68181585d2833e84879b9709143e1f593f000000103840894507f30644e72e131a029b85045b68181585d2833e84879b9709143e1f593f00000017f30644e427ce32d4886b01bfe313ba1dba6db8b2045d128178a7164500e0a6c11820990506110278660027f30644e72e131a029b85045b68181585d2833e84879b9709143e1f593f0000001038761294e565b94507f30644e72e131a029b85045b68181585d2833e84879b9709143e1f593f000000185820990507f30644e72e131a029b85045b68181585d2833e84879b9709143e1f593f0000001848209915050949350505050565b6000808452600060208501528160408501528260608501526000608085015360306081850153600060828501536042608385015360536084850153604260858501536032608685015360326087850153602d608885015360506089850153606c608a850153606f608b850153606e608c850153606b608d850153600b608e850153602084608f8660025afa8061111757611116610389565b5b8451600160208701536042602187015360536022870153604260238701536032602487015360326025870153602d602687015360506027870153606c6028870153606f6029870153606e602a870153606b602b870153600b602c870153602086602d8860025afa91508161118e5761118d610389565b5b808651186020870152600260408701536042604187015360536042870153604260438701536032604487015360326045870153602d604687015360506047870153606c6048870153606f6049870153606e604a870153606b604b870153600b604c87015360208601602081602d8360025afa9250826112105761120f610389565b5b7f30644e72e131a029b85045b68181585d2833e84879b9709143e1f593f00000017001000000000000000000000000000000008851099350602087015160801c7f30644e72e131a029b85045b68181585d2833e84879b9709143e1f593f00000018186089450505050509392505050565b604051610220604051016101a08201517f30644e72e131a029b85045b68181585d2833e84879b9709143e1f593f000000160017f30644e72e131a029b85045b68181585d2833e84879b9709143e1f593f00000010360608501510861130a8360027f30644e72e131a029b85045b68181585d2833e84879b9709143e1f593f0000001038361294e565b90507f30644e72e131a029b85045b68181585d2833e84879b9709143e1f593f00000017f30644e427ce32d4886b01bfe313ba1dba6db8b2045d128178a7164500e0a6c11820990507f30644e72e131a029b85045b68181585d2833e84879b9709143e1f593f0000001828209915060008401517f30644e72e131a029b85045b68181585d2833e84879b9709143e1f593f000000181840992507f30644e72e131a029b85045b68181585d2833e84879b9709143e1f593f000000181840992508260808601525050505050565b6040516102208101610140820151815261016082015160208201526102c083013560408201526102e08301356060820152610220830135608082015261024083013560a082015261030083013560c082015261032083013560e082015260608201516101008201526101c08201516101208201526020816101408360025afa80611463576114626103e8565b5b7f30644e72e131a029b85045b68181585d2833e84879b9709143e1f593f00000018251069050816040810192506102c085013581526102e085013560208201526114b383836103008801846128a6565b61014084016114c884846102208901846128a6565b61012085016114dc846102608901836128fc565b846040810195507f1fa4be93b5e7f7e674d5059b63554fab99638b304ed8310e9fa44c281ac9b03b81527f1a01ae7fac6228e39d3cb5a5e71fd31160f3241e79a5f48ffb3737e6c389b72160208201528151604082015260408160608360075afa8061154b5761154a610389565b5b6020820180517f30644e72e131a029b85045b68181585d97816a916871ca8d3c208c16d87cfd470381526115818884878861275e565b8760408901985061159c8960608c01516102c08e0184612819565b7f30644e72e131a029b85045b68181585d2833e84879b9709143e1f593f00000017f0c9fabc7845d50d2852e2a0371c6441f145e0db82e8326961c25f1e3e32b045b60608c0151097f30644e72e131a029b85045b68181585d2833e84879b9709143e1f593f0000001818a09985061161a8a8a6103008f01856128a6565b6116268a83898a61275e565b6020880180517f30644e72e131a029b85045b68181585d97816a916871ca8d3c208c16d87cfd4703815287518b52602088015160208c01527f198e9393920d483a7260bfb731fb5d25f1aa493335a9e71297e485b7aef312c260408c01527f1800deef121f1e76426a00665e5c4479674322d4f75edadd46debd5cd992f6ed60608c01527f090689d0585ff075ec9e99ad690c3395bc4b313370b38ef355acdadcd122975b60808c01527f12c85ea5db8c6deb4aab71808dcb408fe3d1e7690c43d37b4ce6cc0166fa7daa60a08c0152885160c08c0152602089015160e08c01527f22f1acbb03c4508760c2430af35865e7cdf9f3eb1224504fdcc3708ddb954a486101008c01527f2a344fad01c2ed0ed73142ae1752429eaea515c6f3f6b941103cc21c2308e1cb6101208c01527f159f15b842ba9c8449aa3268f981010d4c7142e5193473d80b464e964845c3f86101408c01527f0efd30ac7b6f8d0d3ccbc2207587c2acbad1532dc0293f0d034cf8258cd428b36101608c01526117ac8b6117bb565b50505050505050505050505050565b604051602060006101808460085afa6000516101e083015180838316169150816101e08501525050505050565b6040516102206040510160208101604082016101c084015180610140860160a087015161014088015260c0870151610160880152610280880135610120880152611837868360e08a0184612850565b61184a826102a08a016101208a016128fc565b7f30644e72e131a029b85045b68181585d2833e84879b9709143e1f593f00000018383099150611883868360008b016101408b016128a6565b611896826101808a016101208a016128fc565b7f30644e72e131a029b85045b68181585d2833e84879b9709143e1f593f000000183830991506118cb868360408b01846128a6565b6118de826101a08a016101208a016128fc565b7f30644e72e131a029b85045b68181585d2833e84879b9709143e1f593f00000018383099150611913868360808b01846128a6565b611926826101c08a016101208a016128fc565b7f30644e72e131a029b85045b68181585d2833e84879b9709143e1f593f000000183830991507f132893973f9bfd040c1d2f14deae8ab39939f028a89695e9a51041ecbc353eba86527f1bc55692c4d18fbf2cda86445b20721e7639da9cb9e743ae9738fa742cf01a54855261199e84838884612850565b6119b1826101e08a016101208a016128fc565b7f30644e72e131a029b85045b68181585d2833e84879b9709143e1f593f000000183830991507f1aae9492c047d8ba13342cedf59276c6df50bd433921e0212673b477ba1144e086527f0d86485d30326191f6cf93a9da7755da1ee2c518882cdfd98268d04777d66d9f8552611a2984838884612850565b611a3c826102008a016101208a016128fc565b61034088017f30644e72e131a029b85045b68181585d2833e84879b9709143e1f593f000000184840992507f21b38243a746b5410254d7ef482fc485c36a87f70e3e1c5d8534d6f5f2c0530d87527f06da8c14025797fa87be7a45792f507c5f53af8f44e26699f4ea51eb755f0b118652611ab985848985612850565b611ac883826101208b016128fc565b602081019050505050505050505050565b604051610220604051016467616d6d6181526060820151602082015260a0820151604082015260c0820151606082015260e0820151608082015261010082015160a082015260c06000840160c08301377f132893973f9bfd040c1d2f14deae8ab39939f028a89695e9a51041ecbc353eba6101808201527f1bc55692c4d18fbf2cda86445b20721e7639da9cb9e743ae9738fa742cf01a546101a08201527f1aae9492c047d8ba13342cedf59276c6df50bd433921e0212673b477ba1144e06101c08201527f0d86485d30326191f6cf93a9da7755da1ee2c518882cdfd98268d04777d66d9f6101e08201526102007f21b38243a746b5410254d7ef482fc485c36a87f70e3e1c5d8534d6f5f2c0530d818301527f06da8c14025797fa87be7a45792f507c5f53af8f44e26699f4ea51eb755f0b1160208201830152604081019050610280840135818301526102a084013560208201830152610180840135604082018301526101a0840135606082018301526101c0840135608082018301526101e084013560a0820183015261020084013560c0820183015260e081018201610340850160005b6001811015611ca55781358352602082019150602083019250600181019050611c81565b506102608601358252601b600360010260170160208102600501905060206101c088018284890160025afa80611cde57611cdd610389565b5b7f30644e72e131a029b85045b68181585d2833e84879b9709143e1f593f00000016101c0890151066101c0890152505050505050505050565b604051610220604051017f1e4dea2a579567e182f0e8532f8ad92422ac2698f7bae77e3a77b6fdf0f9871481527e0be660abc7f888d07b74e8b7f34a52bee23d4786bb475d48a8e59716cf34ef6020820152611d80604082016101808501358360e086016127e2565b7f2b47457fe7db52639e541a94f564cb0a91d0b92aead363b038b0153161c23db881527f1040eaba17035821fae38b07287869ece9b3d5d4f5c4beb8b65e09eba821c0656020820152611de0604082016101a08501358360e08601612850565b7f30644e72e131a029b85045b68181585d2833e84879b9709143e1f593f00000016101a0840135610180850135097f0450e30bb17b9dad2cd9449c20a901efbe7abe9384d2371ea0425d61d2ed1c2782527f2c71e1f57406c5a4f3c8b66e6ff051415c94e6c6a24e8d165bba1e23b09eaf846020830152611e6960408301828460e08701612850565b7f2f8abb8103086dac581d44bf84c242e64d75c4c3f7b19d0174effd7f649f6e2982527f04fff8ce958dd588d2e09d8c1723f39a53b4fd238736de326b0536b798123b966020830152611ec9604083016101c08601358460e08701612850565b7f1e4b818c205e1e52db852efaff3a902841af26c2f7057bfdb1ee2a74d86379e382527f204a8f6429e9d73707a387fb34dec1c7e3323eeff655071e683b7b72d6c9d5f66020830152611f27604083018360e0860160e0870161275e565b6103408401610360850160005b6001811015611f75578135855260208201356020860152611f5e6040860184358760e08a01612850565b602083019250604082019150600181019050611f34565b507f19d72d73ca3652f6c7ba6d10de727f053a9a483c1f2f75164519ac2731217e5284527f0c582a704c4306fc732d919c09b8f235718d38357ffa3137af64c471f171e4b96020850152611fd160408501888660e08901612850565b61022086013584526102408601356020850152611ff660408501898660e08901612850565b5050505050505050565b60405160208101516040820151606083015160008401517f30644e72e131a029b85045b68181585d2833e84879b9709143e1f593f000000184610260880135097f30644e72e131a029b85045b68181585d2833e84879b9709143e1f593f00000016101e088013586097f30644e72e131a029b85045b68181585d2833e84879b9709143e1f593f0000001610180890135820890507f30644e72e131a029b85045b68181585d2833e84879b9709143e1f593f000000185820890507f30644e72e131a029b85045b68181585d2833e84879b9709143e1f593f000000161020089013587097f30644e72e131a029b85045b68181585d2833e84879b9709143e1f593f00000016101a08a0135820890507f30644e72e131a029b85045b68181585d2833e84879b9709143e1f593f000000186820890507f30644e72e131a029b85045b68181585d2833e84879b9709143e1f593f00000018284097f30644e72e131a029b85045b68181585d2833e84879b9709143e1f593f000000182820990507f30644e72e131a029b85045b68181585d2833e84879b9709143e1f593f000000185820990507f30644e72e131a029b85045b68181585d2833e84879b9709143e1f593f0000001600580097f30644e72e131a029b85045b68181585d2833e84879b9709143e1f593f0000001878a097f30644e72e131a029b85045b68181585d2833e84879b9709143e1f593f00000016101808d0135820895507f30644e72e131a029b85045b68181585d2833e84879b9709143e1f593f000000189870895507f30644e72e131a029b85045b68181585d2833e84879b9709143e1f593f00000016005820994507f30644e72e131a029b85045b68181585d2833e84879b9709143e1f593f00000016101a08d0135860894507f30644e72e131a029b85045b68181585d2833e84879b9709143e1f593f000000189860894507f30644e72e131a029b85045b68181585d2833e84879b9709143e1f593f000000182820993507f30644e72e131a029b85045b68181585d2833e84879b9709143e1f593f00000016101c08d0135850893507f30644e72e131a029b85045b68181585d2833e84879b9709143e1f593f000000189850893507f30644e72e131a029b85045b68181585d2833e84879b9709143e1f593f00000018587097f30644e72e131a029b85045b68181585d2833e84879b9709143e1f593f00000018582099050807f30644e72e131a029b85045b68181585d2833e84879b9709143e1f593f00000010390507f30644e72e131a029b85045b68181585d2833e84879b9709143e1f593f000000188820990507f30644e72e131a029b85045b68181585d2833e84879b9709143e1f593f000000160808d0151820890506123f781858f611d17565b50505050505050505050505050565b6040516002630100000001610220604051016124278183606086015161294e565b61243a8282610140880160a08801612819565b61245082610100870160a0870160a088016127a0565b612462828260a0870160a088016127e2565b6124778260c0870160a0870160a088016127a0565b5050505050565b604051610220604051017f30644e72e131a029b85045b68181585d2833e84879b9709143e1f593f000000160208301516101e08501350981527f30644e72e131a029b85045b68181585d2833e84879b9709143e1f593f0000001604083015182510881527f30644e72e131a029b85045b68181585d2833e84879b9709143e1f593f00000016101808401358251088152602081017f30644e72e131a029b85045b68181585d2833e84879b9709143e1f593f000000160208401516102008601350981527f30644e72e131a029b85045b68181585d2833e84879b9709143e1f593f0000001604084015182510881527f30644e72e131a029b85045b68181585d2833e84879b9709143e1f593f00000016101a08501358251088152604082017f30644e72e131a029b85045b68181585d2833e84879b9709143e1f593f000000160408501516101c08701350881527f30644e72e131a029b85045b68181585d2833e84879b9709143e1f593f0000001825184510983527f30644e72e131a029b85045b68181585d2833e84879b9709143e1f593f0000001815184510983527f30644e72e131a029b85045b68181585d2833e84879b9709143e1f593f0000001600085015184510983527f30644e72e131a029b85045b68181585d2833e84879b9709143e1f593f00000016102608601358451098352606083017f30644e72e131a029b85045b68181585d2833e84879b9709143e1f593f00000016101808601516102a08801350881527f30644e72e131a029b85045b68181585d2833e84879b9709143e1f593f0000001845182510881527f30644e72e131a029b85045b68181585d2833e84879b9709143e1f593f000000160808601517f30644e72e131a029b85045b68181585d2833e84879b9709143e1f593f00000010382510881527f30644e72e131a029b85045b68181585d2833e84879b9709143e1f593f00000016101a086015161028088013509835282518151146101e0860152505050505050565b6040518251855260208301516020860152835160408601526020840151606086015260408260808760065afa806127985761279761020d565b5b505050505050565b6040518251855260208301516020860152833560408601526020840135606086015260408260808760065afa806127da576127d961020d565b5b505050505050565b604051825185526020830151602086015283604086015260408260608760075afa806128115761281061020d565b5b505050505050565b604051823585526020830135602086015283604086015260408260608760075afa806128485761284761020d565b5b505050505050565b604051825185526020830151602086015283604086015260408560608760075afa825160408701526020830151606087015260408360808860065afa811690508061289e5761289d61020d565b5b505050505050565b604051823585526020830135602086015283604086015260408560608760075afa825160408701526020830151606087015260408360808860065afa81169050806128f4576128f361020d565b5b505050505050565b7f30644e72e131a029b85045b68181585d2833e84879b9709143e1f593f0000001838335097f30644e72e131a029b85045b68181585d2833e84879b9709143e1f593f000000181835108825250505050565b600060208452602080850152602060408501528160608501528260808501527f30644e72e131a029b85045b68181585d2833e84879b9709143e1f593f000000160a085015260208460c08660055afa600081036129ae576129ad610389565b5b84519150509392505050565b50505050505050949350505050565b600080fd5b600080fd5b600080fd5b600080fd5b600080fd5b60008083601f8401126129f8576129f76129d3565b5b8235905067ffffffffffffffff811115612a1557612a146129d8565b5b602083019150836001820283011115612a3157612a306129dd565b5b9250929050565b60008083601f840112612a4e57612a4d6129d3565b5b8235905067ffffffffffffffff811115612a6b57612a6a6129d8565b5b602083019150836020820283011115612a8757612a866129dd565b5b9250929050565b60008060008060408587031215612aa857612aa76129c9565b5b600085013567ffffffffffffffff811115612ac657612ac56129ce565b5b612ad2878288016129e2565b9450945050602085013567ffffffffffffffff811115612af557612af46129ce565b5b612b0187828801612a38565b925092505092959194509250565b60008115159050919050565b612b2481612b0f565b82525050565b6000602082019050612b3f6000830184612b1b565b9291505056fea2646970667358221220537fe601f2820ca8b1cf3010c39cfa93cdb0f468341904e115921bdfcf0dcc6c64736f6c63430008180033",
          "opcodes": "PUSH1 0x80 PUSH1 0x40 MSTORE CALLVALUE DUP1 ISZERO PUSH2 0x10 JUMPI PUSH1 0x0 DUP1 REVERT JUMPDEST POP PUSH2 0x2B7B DUP1 PUSH2 0x20 PUSH1 0x0 CODECOPY PUSH1 0x0 RETURN INVALID PUSH1 0x80 PUSH1 0x40 MSTORE CALLVALUE DUP1 ISZERO PUSH2 0x10 JUMPI PUSH1 0x0 DUP1 REVERT JUMPDEST POP PUSH1 0x4 CALLDATASIZE LT PUSH2 0x2B JUMPI PUSH1 0x0 CALLDATALOAD PUSH1 0xE0 SHR DUP1 PUSH4 0x7E4F7A8A EQ PUSH2 0x30 JUMPI JUMPDEST PUSH1 0x0 DUP1 REVERT JUMPDEST PUSH2 0x4A PUSH1 0x4 DUP1 CALLDATASIZE SUB DUP2 ADD SWAP1 PUSH2 0x45 SWAP2 SWAP1 PUSH2 0x2A8E JUMP JUMPDEST PUSH2 0x60 JUMP JUMPDEST PUSH1 0x40 MLOAD PUSH2 0x57 SWAP2 SWAP1 PUSH2 0x2B2A JUMP JUMPDEST PUSH1 0x40 MLOAD DUP1 SWAP2 SUB SWAP1 RETURN JUMPDEST PUSH1 0x0 PUSH1 0x40 MLOAD PUSH2 0x220 DUP2 ADD PUSH2 0x73 DUP5 PUSH2 0x447 JUMP JUMPDEST PUSH2 0x7D DUP6 DUP6 PUSH2 0x45B JUMP JUMPDEST PUSH2 0x86 DUP7 PUSH2 0x4B5 JUMP JUMPDEST PUSH2 0x8F DUP8 PUSH2 0x4D2 JUMP JUMPDEST PUSH1 0x0 PUSH2 0x9C DUP7 DUP7 DUP11 PUSH2 0x6AA JUMP JUMPDEST SWAP1 POP PUSH2 0xA7 DUP2 PUSH2 0x9F1 JUMP JUMPDEST SWAP1 POP PUSH2 0xB3 DUP2 DUP10 PUSH2 0xA59 JUMP JUMPDEST SWAP1 POP PUSH2 0xBF DUP2 DUP10 PUSH2 0xAF0 JUMP JUMPDEST PUSH1 0x60 DUP4 ADD MLOAD PUSH32 0x30644E72E131A029B85045B68181585D2833E84879B9709143E1F593F0000001 PUSH1 0x1 PUSH32 0x30644E72E131A029B85045B68181585D2833E84879B9709143E1F593F0000001 SUB PUSH2 0x118 DUP6 PUSH4 0x1000000 DUP6 PUSH2 0x294E JUMP JUMPDEST ADDMOD DUP1 PUSH2 0x1A0 DUP7 ADD MSTORE PUSH2 0x12B DUP5 DUP9 DUP11 PUSH2 0xB5E JUMP JUMPDEST PUSH2 0x136 DUP6 DUP10 DUP14 PUSH2 0xEC5 JUMP JUMPDEST PUSH32 0x30644E72E131A029B85045B68181585D2833E84879B9709143E1F593F0000001 DUP3 DUP3 ADDMOD SWAP2 POP DUP2 PUSH2 0x180 DUP9 ADD MSTORE PUSH2 0x16B PUSH2 0x1281 JUMP JUMPDEST PUSH2 0x174 DUP13 PUSH2 0x247E JUMP JUMPDEST PUSH2 0x17D DUP13 PUSH2 0x2406 JUMP JUMPDEST PUSH2 0x186 DUP13 PUSH2 0x2000 JUMP JUMPDEST PUSH2 0x18F DUP13 PUSH2 0x1AD9 JUMP JUMPDEST PUSH2 0x198 DUP13 PUSH2 0x17E8 JUMP JUMPDEST PUSH2 0x1A1 DUP13 PUSH2 0x13D6 JUMP JUMPDEST PUSH2 0x1E0 DUP8 ADD MLOAD SWAP8 POP PUSH2 0x29BA JUMP JUMPDEST PUSH1 0x40 MLOAD PUSH32 0x8C379A000000000000000000000000000000000000000000000000000000000 DUP2 MSTORE PUSH1 0x20 PUSH1 0x4 DUP3 ADD MSTORE PUSH1 0x1D PUSH1 0x24 DUP3 ADD MSTORE PUSH32 0x77726F6E67206E756D626572206F66207075626C696320696E70757473000000 PUSH1 0x44 DUP3 ADD MSTORE PUSH1 0x64 DUP2 REVERT JUMPDEST PUSH1 0x40 MLOAD PUSH32 0x8C379A000000000000000000000000000000000000000000000000000000000 DUP2 MSTORE PUSH1 0x20 PUSH1 0x4 DUP3 ADD MSTORE PUSH1 0x12 PUSH1 0x24 DUP3 ADD MSTORE PUSH32 0x6572726F72206563206F7065726174696F6E0000000000000000000000000000 PUSH1 0x44 DUP3 ADD MSTORE PUSH1 0x64 DUP2 REVERT JUMPDEST PUSH1 0x40 MLOAD PUSH32 0x8C379A000000000000000000000000000000000000000000000000000000000 DUP2 MSTORE PUSH1 0x20 PUSH1 0x4 DUP3 ADD MSTORE PUSH1 0x18 PUSH1 0x24 DUP3 ADD MSTORE PUSH32 0x696E707574732061726520626967676572207468616E20720000000000000000 PUSH1 0x44 DUP3 ADD MSTORE PUSH1 0x64 DUP2 REVERT JUMPDEST PUSH1 0x40 MLOAD PUSH32 0x8C379A000000000000000000000000000000000000000000000000000000000 DUP2 MSTORE PUSH1 0x20 PUSH1 0x4 DUP3 ADD MSTORE PUSH1 0x10 PUSH1 0x24 DUP3 ADD MSTORE PUSH32 0x77726F6E672070726F6F662073697A6500000000000000000000000000000000 PUSH1 0x44 DUP3 ADD MSTORE PUSH1 0x64 DUP2 REVERT JUMPDEST PUSH1 0x40 MLOAD PUSH32 0x8C379A000000000000000000000000000000000000000000000000000000000 DUP2 MSTORE PUSH1 0x20 PUSH1 0x4 DUP3 ADD MSTORE PUSH1 0x16 PUSH1 0x24 DUP3 ADD MSTORE PUSH32 0x6F70656E696E677320626967676572207468616E207200000000000000000000 PUSH1 0x44 DUP3 ADD MSTORE PUSH1 0x64 DUP2 REVERT JUMPDEST PUSH1 0x40 MLOAD PUSH32 0x8C379A000000000000000000000000000000000000000000000000000000000 DUP2 MSTORE PUSH1 0x20 PUSH1 0x4 DUP3 ADD MSTORE PUSH1 0xC PUSH1 0x24 DUP3 ADD MSTORE PUSH32 0x6572726F72207665726966790000000000000000000000000000000000000000 PUSH1 0x44 DUP3 ADD MSTORE PUSH1 0x64 DUP2 REVERT JUMPDEST PUSH1 0x40 MLOAD PUSH32 0x8C379A000000000000000000000000000000000000000000000000000000000 DUP2 MSTORE PUSH1 0x20 PUSH1 0x4 DUP3 ADD MSTORE PUSH1 0x14 PUSH1 0x24 DUP3 ADD MSTORE PUSH32 0x6572726F722072616E646F6D2067656E206B7A67000000000000000000000000 PUSH1 0x44 DUP3 ADD MSTORE PUSH1 0x64 DUP2 REVERT JUMPDEST PUSH1 0x8 DUP2 EQ PUSH2 0x458 JUMPI PUSH2 0x457 PUSH2 0x1AE JUMP JUMPDEST JUMPDEST POP JUMP JUMPDEST PUSH1 0x1 PUSH1 0x0 JUMPDEST DUP3 DUP2 LT ISZERO PUSH2 0x4A1 JUMPI PUSH32 0x30644E72E131A029B85045B68181585D2833E84879B9709143E1F593F0000001 DUP5 CALLDATALOAD LT DUP3 AND SWAP2 POP PUSH1 0x20 DUP5 ADD SWAP4 POP PUSH1 0x1 DUP2 ADD SWAP1 POP PUSH2 0x460 JUMP JUMPDEST POP DUP1 PUSH2 0x4B0 JUMPI PUSH2 0x4AF PUSH2 0x26C JUMP JUMPDEST JUMPDEST POP POP POP JUMP JUMPDEST PUSH1 0x60 PUSH1 0x1 MUL PUSH2 0x340 ADD DUP1 DUP3 EQ PUSH2 0x4CE JUMPI PUSH2 0x4CD PUSH2 0x2CB JUMP JUMPDEST JUMPDEST POP POP JUMP JUMPDEST PUSH1 0x1 PUSH2 0x2A0 DUP3 ADD PUSH32 0x30644E72E131A029B85045B68181585D2833E84879B9709143E1F593F0000001 DUP2 CALLDATALOAD LT DUP3 AND SWAP2 POP PUSH2 0x280 DUP4 ADD SWAP1 POP PUSH32 0x30644E72E131A029B85045B68181585D2833E84879B9709143E1F593F0000001 DUP2 CALLDATALOAD LT DUP3 AND SWAP2 POP PUSH2 0x180 DUP4 ADD SWAP1 POP PUSH32 0x30644E72E131A029B85045B68181585D2833E84879B9709143E1F593F0000001 DUP2 CALLDATALOAD LT DUP3 AND SWAP2 POP PUSH2 0x1A0 DUP4 ADD SWAP1 POP PUSH32 0x30644E72E131A029B85045B68181585D2833E84879B9709143E1F593F0000001 DUP2 CALLDATALOAD LT DUP3 AND SWAP2 POP PUSH2 0x1C0 DUP4 ADD SWAP1 POP PUSH32 0x30644E72E131A029B85045B68181585D2833E84879B9709143E1F593F0000001 DUP2 CALLDATALOAD LT DUP3 AND SWAP2 POP PUSH2 0x1E0 DUP4 ADD SWAP1 POP PUSH32 0x30644E72E131A029B85045B68181585D2833E84879B9709143E1F593F0000001 DUP2 CALLDATALOAD LT DUP3 AND SWAP2 POP PUSH2 0x200 DUP4 ADD SWAP1 POP PUSH32 0x30644E72E131A029B85045B68181585D2833E84879B9709143E1F593F0000001 DUP2 CALLDATALOAD LT DUP3 AND SWAP2 POP PUSH2 0x260 DUP4 ADD SWAP1 POP PUSH32 0x30644E72E131A029B85045B68181585D2833E84879B9709143E1F593F0000001 DUP2 CALLDATALOAD LT DUP3 AND SWAP2 POP PUSH2 0x340 DUP4 ADD SWAP1 POP PUSH1 0x0 JUMPDEST PUSH1 0x1 DUP2 LT ISZERO PUSH2 0x696 JUMPI PUSH32 0x30644E72E131A029B85045B68181585D2833E84879B9709143E1F593F0000001 DUP3 CALLDATALOAD LT DUP4 AND SWAP3 POP PUSH1 0x20 DUP3 ADD SWAP2 POP PUSH1 0x1 DUP2 ADD SWAP1 POP PUSH2 0x654 JUMP JUMPDEST POP DUP2 PUSH2 0x6A5 JUMPI PUSH2 0x6A4 PUSH2 0x32A JUMP JUMPDEST JUMPDEST POP POP POP JUMP JUMPDEST PUSH1 0x0 PUSH1 0x40 MLOAD PUSH2 0x220 DUP2 ADD PUSH5 0x67616D6D61 DUP2 MSTORE PUSH32 0x132893973F9BFD040C1D2F14DEAE8AB39939F028A89695E9A51041ECBC353EBA PUSH1 0x20 DUP3 ADD MSTORE PUSH32 0x1BC55692C4D18FBF2CDA86445B20721E7639DA9CB9E743AE9738FA742CF01A54 PUSH1 0x40 DUP3 ADD MSTORE PUSH32 0x1AAE9492C047D8BA13342CEDF59276C6DF50BD433921E0212673B477BA1144E0 PUSH1 0x60 DUP3 ADD MSTORE PUSH32 0xD86485D30326191F6CF93A9DA7755DA1EE2C518882CDFD98268D04777D66D9F PUSH1 0x80 DUP3 ADD MSTORE PUSH32 0x19D72D73CA3652F6C7BA6D10DE727F053A9A483C1F2F75164519AC2731217E52 PUSH1 0xA0 DUP3 ADD MSTORE PUSH32 0xC582A704C4306FC732D919C09B8F235718D38357FFA3137AF64C471F171E4B9 PUSH1 0xC0 DUP3 ADD MSTORE PUSH32 0x1E4DEA2A579567E182F0E8532F8AD92422AC2698F7BAE77E3A77B6FDF0F98714 PUSH1 0xE0 DUP3 ADD MSTORE PUSH31 0xBE660ABC7F888D07B74E8B7F34A52BEE23D4786BB475D48A8E59716CF34EF PUSH2 0x100 DUP3 ADD MSTORE PUSH32 0x2B47457FE7DB52639E541A94F564CB0A91D0B92AEAD363B038B0153161C23DB8 PUSH2 0x120 DUP3 ADD MSTORE PUSH32 0x1040EABA17035821FAE38B07287869ECE9B3D5D4F5C4BEB8B65E09EBA821C065 PUSH2 0x140 DUP3 ADD MSTORE PUSH32 0x450E30BB17B9DAD2CD9449C20A901EFBE7ABE9384D2371EA0425D61D2ED1C27 PUSH2 0x160 DUP3 ADD MSTORE PUSH32 0x2C71E1F57406C5A4F3C8B66E6FF051415C94E6C6A24E8D165BBA1E23B09EAF84 PUSH2 0x180 DUP3 ADD MSTORE PUSH32 0x2F8ABB8103086DAC581D44BF84C242E64D75C4C3F7B19D0174EFFD7F649F6E29 PUSH2 0x1A0 DUP3 ADD MSTORE PUSH32 0x4FFF8CE958DD588D2E09D8C1723F39A53B4FD238736DE326B0536B798123B96 PUSH2 0x1C0 DUP3 ADD MSTORE PUSH32 0x1E4B818C205E1E52DB852EFAFF3A902841AF26C2F7057BFDB1EE2A74D86379E3 PUSH2 0x1E0 DUP3 ADD MSTORE PUSH32 0x204A8F6429E9D73707A387FB34DEC1C7E3323EEFF655071E683B7B72D6C9D5F6 PUSH2 0x200 DUP3 ADD MSTORE PUSH32 0x21B38243A746B5410254D7EF482FC485C36A87F70E3E1C5D8534D6F5F2C0530D PUSH2 0x220 DUP3 ADD MSTORE PUSH32 0x6DA8C14025797FA87BE7A45792F507C5F53AF8F44E26699F4EA51EB755F0B11 PUSH2 0x240 DUP3 ADD MSTORE PUSH2 0x260 DUP2 ADD PUSH1 0x20 DUP7 MUL DUP1 DUP9 DUP4 CALLDATACOPY DUP1 DUP3 ADD SWAP2 POP PUSH1 0xC0 DUP1 DUP8 DUP5 CALLDATACOPY DUP1 DUP4 ADD SWAP3 POP DUP2 PUSH2 0x2C5 ADD PUSH1 0x40 PUSH1 0x1 MUL DUP2 ADD SWAP1 POP PUSH1 0x20 DUP6 DUP3 PUSH1 0x1B DUP9 ADD PUSH1 0x2 GAS STATICCALL DUP1 PUSH2 0x9B7 JUMPI PUSH2 0x9B6 PUSH2 0x389 JUMP JUMPDEST JUMPDEST DUP6 MLOAD SWAP8 POP PUSH32 0x30644E72E131A029B85045B68181585D2833E84879B9709143E1F593F0000001 DUP9 MOD PUSH1 0x40 DUP9 ADD MSTORE POP POP POP POP POP POP POP SWAP4 SWAP3 POP POP POP JUMP JUMPDEST PUSH1 0x0 PUSH1 0x40 MLOAD PUSH2 0x220 PUSH1 0x40 MLOAD ADD PUSH4 0x62657461 DUP2 MSTORE DUP4 PUSH1 0x20 DUP3 ADD MSTORE PUSH1 0x20 DUP2 PUSH1 0x24 PUSH1 0x1C DUP5 ADD PUSH1 0x2 GAS STATICCALL DUP1 PUSH2 0xA25 JUMPI PUSH2 0xA24 PUSH2 0x389 JUMP JUMPDEST JUMPDEST DUP2 MLOAD SWAP4 POP PUSH32 0x30644E72E131A029B85045B68181585D2833E84879B9709143E1F593F0000001 DUP5 MOD PUSH1 0x20 DUP5 ADD MSTORE POP POP POP SWAP2 SWAP1 POP JUMP JUMPDEST PUSH1 0x0 PUSH1 0x40 MLOAD PUSH2 0x220 PUSH1 0x40 MLOAD ADD PUSH1 0x65 PUSH5 0x616C706861 DUP3 MSTORE PUSH1 0x20 DUP3 ADD DUP7 DUP2 MSTORE PUSH1 0x20 DUP2 ADD SWAP1 POP PUSH2 0x360 DUP7 ADD PUSH1 0x1 PUSH1 0x40 MUL DUP1 DUP3 DUP5 CALLDATACOPY DUP1 DUP4 ADD SWAP3 POP DUP1 DUP5 ADD SWAP4 POP PUSH1 0x40 PUSH2 0x220 DUP10 ADD DUP5 CALLDATACOPY PUSH1 0x20 DUP6 DUP6 PUSH1 0x1B DUP9 ADD PUSH1 0x2 GAS STATICCALL DUP1 PUSH2 0xAB7 JUMPI PUSH2 0xAB6 PUSH2 0x389 JUMP JUMPDEST JUMPDEST DUP6 MLOAD SWAP8 POP PUSH32 0x30644E72E131A029B85045B68181585D2833E84879B9709143E1F593F0000001 DUP9 MOD PUSH1 0x0 DUP9 ADD MSTORE POP POP POP POP POP POP POP SWAP3 SWAP2 POP POP JUMP JUMPDEST PUSH1 0x40 MLOAD PUSH2 0x220 PUSH1 0x40 MLOAD ADD PUSH4 0x7A657461 DUP2 MSTORE DUP4 PUSH1 0x20 DUP3 ADD MSTORE PUSH1 0xC0 DUP1 DUP5 ADD PUSH1 0x40 DUP4 ADD CALLDATACOPY PUSH1 0x20 DUP2 PUSH1 0xE4 PUSH1 0x1C DUP5 ADD PUSH1 0x2 GAS STATICCALL DUP1 PUSH2 0xB2C JUMPI PUSH2 0xB2B PUSH2 0x389 JUMP JUMPDEST JUMPDEST DUP2 MLOAD PUSH32 0x30644E72E131A029B85045B68181585D2833E84879B9709143E1F593F0000001 DUP2 MOD PUSH1 0x60 DUP6 ADD MSTORE POP POP POP POP POP POP JUMP JUMPDEST PUSH1 0x0 PUSH1 0x40 MLOAD PUSH1 0x60 DUP2 ADD MLOAD PUSH2 0x1A0 DUP3 ADD MLOAD DUP7 PUSH2 0xB7B DUP2 DUP9 DUP5 DUP7 PUSH2 0xBF9 JUMP JUMPDEST PUSH1 0x0 DUP1 JUMPDEST DUP9 DUP2 LT ISZERO PUSH2 0xBEC JUMPI PUSH32 0x30644E72E131A029B85045B68181585D2833E84879B9709143E1F593F0000001 DUP9 CALLDATALOAD DUP5 MLOAD MULMOD SWAP2 POP PUSH32 0x30644E72E131A029B85045B68181585D2833E84879B9709143E1F593F0000001 DUP3 DUP9 ADDMOD SWAP7 POP PUSH1 0x20 DUP4 ADD SWAP3 POP PUSH1 0x20 DUP9 ADD SWAP8 POP PUSH1 0x1 DUP2 ADD SWAP1 POP PUSH2 0xB7F JUMP JUMPDEST POP POP POP POP POP POP SWAP4 SWAP3 POP POP POP JUMP JUMPDEST PUSH32 0x30644E72E131A029B85045B68181585D2833E84879B9709143E1F593F0000001 PUSH32 0x30644E427CE32D4886B01BFE313BA1DBA6DB8B2045D128178A7164500E0A6C11 DUP4 MULMOD PUSH1 0x1 DUP6 PUSH1 0x0 JUMPDEST DUP7 DUP2 LT ISZERO PUSH2 0xCEA JUMPI PUSH32 0x30644E72E131A029B85045B68181585D2833E84879B9709143E1F593F0000001 DUP4 PUSH32 0x30644E72E131A029B85045B68181585D2833E84879B9709143E1F593F0000001 SUB DUP7 ADDMOD DUP3 MSTORE PUSH32 0x30644E72E131A029B85045B68181585D2833E84879B9709143E1F593F0000001 PUSH32 0xC9FABC7845D50D2852E2A0371C6441F145E0DB82E8326961C25F1E3E32B045B DUP5 MULMOD SWAP3 POP PUSH1 0x20 DUP3 ADD SWAP2 POP PUSH1 0x1 DUP2 ADD SWAP1 POP PUSH2 0xC43 JUMP JUMPDEST POP PUSH2 0xCF6 DUP2 DUP8 DUP10 PUSH2 0xDB3 JUMP JUMPDEST DUP7 SWAP1 POP PUSH1 0x1 SWAP2 POP PUSH1 0x0 JUMPDEST DUP7 DUP2 LT ISZERO PUSH2 0xDA9 JUMPI PUSH32 0x30644E72E131A029B85045B68181585D2833E84879B9709143E1F593F0000001 DUP4 PUSH32 0x30644E72E131A029B85045B68181585D2833E84879B9709143E1F593F0000001 DUP7 DUP6 MLOAD MULMOD MULMOD DUP3 MSTORE PUSH1 0x20 DUP3 ADD SWAP2 POP PUSH32 0x30644E72E131A029B85045B68181585D2833E84879B9709143E1F593F0000001 PUSH32 0xC9FABC7845D50D2852E2A0371C6441F145E0DB82E8326961C25F1E3E32B045B DUP5 MULMOD SWAP3 POP PUSH1 0x1 DUP2 ADD SWAP1 POP PUSH2 0xD00 JUMP JUMPDEST POP POP POP POP POP POP POP POP JUMP JUMPDEST PUSH1 0x1 DUP4 MSTORE PUSH1 0x0 DUP1 JUMPDEST DUP4 DUP2 LT ISZERO PUSH2 0xE09 JUMPI DUP2 DUP6 ADD MLOAD DUP3 DUP5 ADD MLOAD PUSH32 0x30644E72E131A029B85045B68181585D2833E84879B9709143E1F593F0000001 DUP2 DUP4 MULMOD SWAP1 POP PUSH1 0x20 DUP5 ADD SWAP4 POP DUP1 DUP5 DUP9 ADD MSTORE POP POP PUSH1 0x1 DUP2 ADD SWAP1 POP PUSH2 0xDBB JUMP JUMPDEST POP PUSH1 0x20 DUP2 SUB DUP3 ADD SWAP2 POP DUP1 DUP5 ADD SWAP4 POP PUSH2 0xE49 PUSH1 0x20 DUP6 ADD PUSH1 0x2 PUSH32 0x30644E72E131A029B85045B68181585D2833E84879B9709143E1F593F0000001 SUB DUP7 MLOAD PUSH2 0x294E JUMP JUMPDEST PUSH1 0x0 JUMPDEST DUP5 DUP2 LT ISZERO PUSH2 0xEBD JUMPI PUSH1 0x20 DUP7 SUB SWAP6 POP DUP4 MLOAD PUSH32 0x30644E72E131A029B85045B68181585D2833E84879B9709143E1F593F0000001 DUP8 MLOAD DUP5 MULMOD DUP1 DUP7 MSTORE PUSH32 0x30644E72E131A029B85045B68181585D2833E84879B9709143E1F593F0000001 DUP3 DUP6 MULMOD SWAP4 POP PUSH1 0x20 DUP7 SUB SWAP6 POP POP POP PUSH1 0x1 DUP2 ADD SWAP1 POP PUSH2 0xE4C JUMP JUMPDEST POP POP POP POP POP POP JUMP JUMPDEST PUSH1 0x0 PUSH1 0x40 MLOAD PUSH1 0x60 DUP2 ADD MLOAD PUSH2 0x1A0 DUP3 ADD MLOAD PUSH2 0x360 DUP6 ADD PUSH1 0x0 DUP1 PUSH2 0xEED DUP11 PUSH1 0x20 DUP6 ADD CALLDATALOAD DUP6 CALLDATALOAD PUSH2 0x107E JUMP JUMPDEST SWAP2 POP PUSH2 0xF00 DUP11 PUSH3 0x90BF99 DUP12 ADD DUP7 DUP9 PUSH2 0xF3E JUMP JUMPDEST SWAP1 POP PUSH32 0x30644E72E131A029B85045B68181585D2833E84879B9709143E1F593F0000001 DUP1 DUP3 DUP5 MULMOD DUP9 ADDMOD SWAP7 POP PUSH1 0x40 DUP4 ADD SWAP3 POP POP POP POP POP POP POP SWAP4 SWAP3 POP POP POP JUMP JUMPDEST PUSH1 0x0 PUSH2 0xF6B DUP6 DUP6 PUSH32 0xC9FABC7845D50D2852E2A0371C6441F145E0DB82E8326961C25F1E3E32B045B PUSH2 0x294E JUMP JUMPDEST PUSH32 0x30644E72E131A029B85045B68181585D2833E84879B9709143E1F593F0000001 DUP2 PUSH32 0x30644E72E131A029B85045B68181585D2833E84879B9709143E1F593F0000001 SUB DUP5 ADDMOD SWAP5 POP PUSH32 0x30644E72E131A029B85045B68181585D2833E84879B9709143E1F593F0000001 PUSH32 0x30644E427CE32D4886B01BFE313BA1DBA6DB8B2045D128178A7164500E0A6C11 DUP3 MULMOD SWAP1 POP PUSH2 0x1027 DUP7 PUSH1 0x2 PUSH32 0x30644E72E131A029B85045B68181585D2833E84879B9709143E1F593F0000001 SUB DUP8 PUSH2 0x294E JUMP JUMPDEST SWAP5 POP PUSH32 0x30644E72E131A029B85045B68181585D2833E84879B9709143E1F593F0000001 DUP6 DUP3 MULMOD SWAP1 POP PUSH32 0x30644E72E131A029B85045B68181585D2833E84879B9709143E1F593F0000001 DUP5 DUP3 MULMOD SWAP2 POP POP SWAP5 SWAP4 POP POP POP POP JUMP JUMPDEST PUSH1 0x0 DUP1 DUP5 MSTORE PUSH1 0x0 PUSH1 0x20 DUP6 ADD MSTORE DUP2 PUSH1 0x40 DUP6 ADD MSTORE DUP3 PUSH1 0x60 DUP6 ADD MSTORE PUSH1 0x0 PUSH1 0x80 DUP6 ADD MSTORE8 PUSH1 0x30 PUSH1 0x81 DUP6 ADD MSTORE8 PUSH1 0x0 PUSH1 0x82 DUP6 ADD MSTORE8 PUSH1 0x42 PUSH1 0x83 DUP6 ADD MSTORE8 PUSH1 0x53 PUSH1 0x84 DUP6 ADD MSTORE8 PUSH1 0x42 PUSH1 0x85 DUP6 ADD MSTORE8 PUSH1 0x32 PUSH1 0x86 DUP6 ADD MSTORE8 PUSH1 0x32 PUSH1 0x87 DUP6 ADD MSTORE8 PUSH1 0x2D PUSH1 0x88 DUP6 ADD MSTORE8 PUSH1 0x50 PUSH1 0x89 DUP6 ADD MSTORE8 PUSH1 0x6C PUSH1 0x8A DUP6 ADD MSTORE8 PUSH1 0x6F PUSH1 0x8B DUP6 ADD MSTORE8 PUSH1 0x6E PUSH1 0x8C DUP6 ADD MSTORE8 PUSH1 0x6B PUSH1 0x8D DUP6 ADD MSTORE8 PUSH1 0xB PUSH1 0x8E DUP6 ADD MSTORE8 PUSH1 0x20 DUP5 PUSH1 0x8F DUP7 PUSH1 0x2 GAS STATICCALL DUP1 PUSH2 0x1117 JUMPI PUSH2 0x1116 PUSH2 0x389 JUMP JUMPDEST JUMPDEST DUP5 MLOAD PUSH1 0x1 PUSH1 0x20 DUP8 ADD MSTORE8 PUSH1 0x42 PUSH1 0x21 DUP8 ADD MSTORE8 PUSH1 0x53 PUSH1 0x22 DUP8 ADD MSTORE8 PUSH1 0x42 PUSH1 0x23 DUP8 ADD MSTORE8 PUSH1 0x32 PUSH1 0x24 DUP8 ADD MSTORE8 PUSH1 0x32 PUSH1 0x25 DUP8 ADD MSTORE8 PUSH1 0x2D PUSH1 0x26 DUP8 ADD MSTORE8 PUSH1 0x50 PUSH1 0x27 DUP8 ADD MSTORE8 PUSH1 0x6C PUSH1 0x28 DUP8 ADD MSTORE8 PUSH1 0x6F PUSH1 0x29 DUP8 ADD MSTORE8 PUSH1 0x6E PUSH1 0x2A DUP8 ADD MSTORE8 PUSH1 0x6B PUSH1 0x2B DUP8 ADD MSTORE8 PUSH1 0xB PUSH1 0x2C DUP8 ADD MSTORE8 PUSH1 0x20 DUP7 PUSH1 0x2D DUP9 PUSH1 0x2 GAS STATICCALL SWAP2 POP DUP2 PUSH2 0x118E JUMPI PUSH2 0x118D PUSH2 0x389 JUMP JUMPDEST JUMPDEST DUP1 DUP7 MLOAD XOR PUSH1 0x20 DUP8 ADD MSTORE PUSH1 0x2 PUSH1 0x40 DUP8 ADD MSTORE8 PUSH1 0x42 PUSH1 0x41 DUP8 ADD MSTORE8 PUSH1 0x53 PUSH1 0x42 DUP8 ADD MSTORE8 PUSH1 0x42 PUSH1 0x43 DUP8 ADD MSTORE8 PUSH1 0x32 PUSH1 0x44 DUP8 ADD MSTORE8 PUSH1 0x32 PUSH1 0x45 DUP8 ADD MSTORE8 PUSH1 0x2D PUSH1 0x46 DUP8 ADD MSTORE8 PUSH1 0x50 PUSH1 0x47 DUP8 ADD MSTORE8 PUSH1 0x6C PUSH1 0x48 DUP8 ADD MSTORE8 PUSH1 0x6F PUSH1 0x49 DUP8 ADD MSTORE8 PUSH1 0x6E PUSH1 0x4A DUP8 ADD MSTORE8 PUSH1 0x6B PUSH1 0x4B DUP8 ADD MSTORE8 PUSH1 0xB PUSH1 0x4C DUP8 ADD MSTORE8 PUSH1 0x20 DUP7 ADD PUSH1 0x20 DUP2 PUSH1 0x2D DUP4 PUSH1 0x2 GAS STATICCALL SWAP3 POP DUP3 PUSH2 0x1210 JUMPI PUSH2 0x120F PUSH2 0x389 JUMP JUMPDEST JUMPDEST PUSH32 0x30644E72E131A029B85045B68181585D2833E84879B9709143E1F593F0000001 PUSH17 0x100000000000000000000000000000000 DUP9 MLOAD MULMOD SWAP4 POP PUSH1 0x20 DUP8 ADD MLOAD PUSH1 0x80 SHR PUSH32 0x30644E72E131A029B85045B68181585D2833E84879B9709143E1F593F0000001 DUP2 DUP7 ADDMOD SWAP5 POP POP POP POP POP SWAP4 SWAP3 POP POP POP JUMP JUMPDEST PUSH1 0x40 MLOAD PUSH2 0x220 PUSH1 0x40 MLOAD ADD PUSH2 0x1A0 DUP3 ADD MLOAD PUSH32 0x30644E72E131A029B85045B68181585D2833E84879B9709143E1F593F0000001 PUSH1 0x1 PUSH32 0x30644E72E131A029B85045B68181585D2833E84879B9709143E1F593F0000001 SUB PUSH1 0x60 DUP6 ADD MLOAD ADDMOD PUSH2 0x130A DUP4 PUSH1 0x2 PUSH32 0x30644E72E131A029B85045B68181585D2833E84879B9709143E1F593F0000001 SUB DUP4 PUSH2 0x294E JUMP JUMPDEST SWAP1 POP PUSH32 0x30644E72E131A029B85045B68181585D2833E84879B9709143E1F593F0000001 PUSH32 0x30644E427CE32D4886B01BFE313BA1DBA6DB8B2045D128178A7164500E0A6C11 DUP3 MULMOD SWAP1 POP PUSH32 0x30644E72E131A029B85045B68181585D2833E84879B9709143E1F593F0000001 DUP3 DUP3 MULMOD SWAP2 POP PUSH1 0x0 DUP5 ADD MLOAD PUSH32 0x30644E72E131A029B85045B68181585D2833E84879B9709143E1F593F0000001 DUP2 DUP5 MULMOD SWAP3 POP PUSH32 0x30644E72E131A029B85045B68181585D2833E84879B9709143E1F593F0000001 DUP2 DUP5 MULMOD SWAP3 POP DUP3 PUSH1 0x80 DUP7 ADD MSTORE POP POP POP POP POP JUMP JUMPDEST PUSH1 0x40 MLOAD PUSH2 0x220 DUP2 ADD PUSH2 0x140 DUP3 ADD MLOAD DUP2 MSTORE PUSH2 0x160 DUP3 ADD MLOAD PUSH1 0x20 DUP3 ADD MSTORE PUSH2 0x2C0 DUP4 ADD CALLDATALOAD PUSH1 0x40 DUP3 ADD MSTORE PUSH2 0x2E0 DUP4 ADD CALLDATALOAD PUSH1 0x60 DUP3 ADD MSTORE PUSH2 0x220 DUP4 ADD CALLDATALOAD PUSH1 0x80 DUP3 ADD MSTORE PUSH2 0x240 DUP4 ADD CALLDATALOAD PUSH1 0xA0 DUP3 ADD MSTORE PUSH2 0x300 DUP4 ADD CALLDATALOAD PUSH1 0xC0 DUP3 ADD MSTORE PUSH2 0x320 DUP4 ADD CALLDATALOAD PUSH1 0xE0 DUP3 ADD MSTORE PUSH1 0x60 DUP3 ADD MLOAD PUSH2 0x100 DUP3 ADD MSTORE PUSH2 0x1C0 DUP3 ADD MLOAD PUSH2 0x120 DUP3 ADD MSTORE PUSH1 0x20 DUP2 PUSH2 0x140 DUP4 PUSH1 0x2 GAS STATICCALL DUP1 PUSH2 0x1463 JUMPI PUSH2 0x1462 PUSH2 0x3E8 JUMP JUMPDEST JUMPDEST PUSH32 0x30644E72E131A029B85045B68181585D2833E84879B9709143E1F593F0000001 DUP3 MLOAD MOD SWAP1 POP DUP2 PUSH1 0x40 DUP2 ADD SWAP3 POP PUSH2 0x2C0 DUP6 ADD CALLDATALOAD DUP2 MSTORE PUSH2 0x2E0 DUP6 ADD CALLDATALOAD PUSH1 0x20 DUP3 ADD MSTORE PUSH2 0x14B3 DUP4 DUP4 PUSH2 0x300 DUP9 ADD DUP5 PUSH2 0x28A6 JUMP JUMPDEST PUSH2 0x140 DUP5 ADD PUSH2 0x14C8 DUP5 DUP5 PUSH2 0x220 DUP10 ADD DUP5 PUSH2 0x28A6 JUMP JUMPDEST PUSH2 0x120 DUP6 ADD PUSH2 0x14DC DUP5 PUSH2 0x260 DUP10 ADD DUP4 PUSH2 0x28FC JUMP JUMPDEST DUP5 PUSH1 0x40 DUP2 ADD SWAP6 POP PUSH32 0x1FA4BE93B5E7F7E674D5059B63554FAB99638B304ED8310E9FA44C281AC9B03B DUP2 MSTORE PUSH32 0x1A01AE7FAC6228E39D3CB5A5E71FD31160F3241E79A5F48FFB3737E6C389B721 PUSH1 0x20 DUP3 ADD MSTORE DUP2 MLOAD PUSH1 0x40 DUP3 ADD MSTORE PUSH1 0x40 DUP2 PUSH1 0x60 DUP4 PUSH1 0x7 GAS STATICCALL DUP1 PUSH2 0x154B JUMPI PUSH2 0x154A PUSH2 0x389 JUMP JUMPDEST JUMPDEST PUSH1 0x20 DUP3 ADD DUP1 MLOAD PUSH32 0x30644E72E131A029B85045B68181585D97816A916871CA8D3C208C16D87CFD47 SUB DUP2 MSTORE PUSH2 0x1581 DUP9 DUP5 DUP8 DUP9 PUSH2 0x275E JUMP JUMPDEST DUP8 PUSH1 0x40 DUP10 ADD SWAP9 POP PUSH2 0x159C DUP10 PUSH1 0x60 DUP13 ADD MLOAD PUSH2 0x2C0 DUP15 ADD DUP5 PUSH2 0x2819 JUMP JUMPDEST PUSH32 0x30644E72E131A029B85045B68181585D2833E84879B9709143E1F593F0000001 PUSH32 0xC9FABC7845D50D2852E2A0371C6441F145E0DB82E8326961C25F1E3E32B045B PUSH1 0x60 DUP13 ADD MLOAD MULMOD PUSH32 0x30644E72E131A029B85045B68181585D2833E84879B9709143E1F593F0000001 DUP2 DUP11 MULMOD SWAP9 POP PUSH2 0x161A DUP11 DUP11 PUSH2 0x300 DUP16 ADD DUP6 PUSH2 0x28A6 JUMP JUMPDEST PUSH2 0x1626 DUP11 DUP4 DUP10 DUP11 PUSH2 0x275E JUMP JUMPDEST PUSH1 0x20 DUP9 ADD DUP1 MLOAD PUSH32 0x30644E72E131A029B85045B68181585D97816A916871CA8D3C208C16D87CFD47 SUB DUP2 MSTORE DUP8 MLOAD DUP12 MSTORE PUSH1 0x20 DUP9 ADD MLOAD PUSH1 0x20 DUP13 ADD MSTORE PUSH32 0x198E9393920D483A7260BFB731FB5D25F1AA493335A9E71297E485B7AEF312C2 PUSH1 0x40 DUP13 ADD MSTORE PUSH32 0x1800DEEF121F1E76426A00665E5C4479674322D4F75EDADD46DEBD5CD992F6ED PUSH1 0x60 DUP13 ADD MSTORE PUSH32 0x90689D0585FF075EC9E99AD690C3395BC4B313370B38EF355ACDADCD122975B PUSH1 0x80 DUP13 ADD MSTORE PUSH32 0x12C85EA5DB8C6DEB4AAB71808DCB408FE3D1E7690C43D37B4CE6CC0166FA7DAA PUSH1 0xA0 DUP13 ADD MSTORE DUP9 MLOAD PUSH1 0xC0 DUP13 ADD MSTORE PUSH1 0x20 DUP10 ADD MLOAD PUSH1 0xE0 DUP13 ADD MSTORE PUSH32 0x22F1ACBB03C4508760C2430AF35865E7CDF9F3EB1224504FDCC3708DDB954A48 PUSH2 0x100 DUP13 ADD MSTORE PUSH32 0x2A344FAD01C2ED0ED73142AE1752429EAEA515C6F3F6B941103CC21C2308E1CB PUSH2 0x120 DUP13 ADD MSTORE PUSH32 0x159F15B842BA9C8449AA3268F981010D4C7142E5193473D80B464E964845C3F8 PUSH2 0x140 DUP13 ADD MSTORE PUSH32 0xEFD30AC7B6F8D0D3CCBC2207587C2ACBAD1532DC0293F0D034CF8258CD428B3 PUSH2 0x160 DUP13 ADD MSTORE PUSH2 0x17AC DUP12 PUSH2 0x17BB JUMP JUMPDEST POP POP POP POP POP POP POP POP POP POP POP POP POP JUMP JUMPDEST PUSH1 0x40 MLOAD PUSH1 0x20 PUSH1 0x0 PUSH2 0x180 DUP5 PUSH1 0x8 GAS STATICCALL PUSH1 0x0 MLOAD PUSH2 0x1E0 DUP4 ADD MLOAD DUP1 DUP4 DUP4 AND AND SWAP2 POP DUP2 PUSH2 0x1E0 DUP6 ADD MSTORE POP POP POP POP POP JUMP JUMPDEST PUSH1 0x40 MLOAD PUSH2 0x220 PUSH1 0x40 MLOAD ADD PUSH1 0x20 DUP2 ADD PUSH1 0x40 DUP3 ADD PUSH2 0x1C0 DUP5 ADD MLOAD DUP1 PUSH2 0x140 DUP7 ADD PUSH1 0xA0 DUP8 ADD MLOAD PUSH2 0x140 DUP9 ADD MSTORE PUSH1 0xC0 DUP8 ADD MLOAD PUSH2 0x160 DUP9 ADD MSTORE PUSH2 0x280 DUP9 ADD CALLDATALOAD PUSH2 0x120 DUP9 ADD MSTORE PUSH2 0x1837 DUP7 DUP4 PUSH1 0xE0 DUP11 ADD DUP5 PUSH2 0x2850 JUMP JUMPDEST PUSH2 0x184A DUP3 PUSH2 0x2A0 DUP11 ADD PUSH2 0x120 DUP11 ADD PUSH2 0x28FC JUMP JUMPDEST PUSH32 0x30644E72E131A029B85045B68181585D2833E84879B9709143E1F593F0000001 DUP4 DUP4 MULMOD SWAP2 POP PUSH2 0x1883 DUP7 DUP4 PUSH1 0x0 DUP12 ADD PUSH2 0x140 DUP12 ADD PUSH2 0x28A6 JUMP JUMPDEST PUSH2 0x1896 DUP3 PUSH2 0x180 DUP11 ADD PUSH2 0x120 DUP11 ADD PUSH2 0x28FC JUMP JUMPDEST PUSH32 0x30644E72E131A029B85045B68181585D2833E84879B9709143E1F593F0000001 DUP4 DUP4 MULMOD SWAP2 POP PUSH2 0x18CB DUP7 DUP4 PUSH1 0x40 DUP12 ADD DUP5 PUSH2 0x28A6 JUMP JUMPDEST PUSH2 0x18DE DUP3 PUSH2 0x1A0 DUP11 ADD PUSH2 0x120 DUP11 ADD PUSH2 0x28FC JUMP JUMPDEST PUSH32 0x30644E72E131A029B85045B68181585D2833E84879B9709143E1F593F0000001 DUP4 DUP4 MULMOD SWAP2 POP PUSH2 0x1913 DUP7 DUP4 PUSH1 0x80 DUP12 ADD DUP5 PUSH2 0x28A6 JUMP JUMPDEST PUSH2 0x1926 DUP3 PUSH2 0x1C0 DUP11 ADD PUSH2 0x120 DUP11 ADD PUSH2 0x28FC JUMP JUMPDEST PUSH32 0x30644E72E131A029B85045B68181585D2833E84879B9709143E1F593F0000001 DUP4 DUP4 MULMOD SWAP2 POP PUSH32 0x132893973F9BFD040C1D2F14DEAE8AB39939F028A89695E9A51041ECBC353EBA DUP7 MSTORE PUSH32 0x1BC55692C4D18FBF2CDA86445B20721E7639DA9CB9E743AE9738FA742CF01A54 DUP6 MSTORE PUSH2 0x199E DUP5 DUP4 DUP9 DUP5 PUSH2 0x2850 JUMP JUMPDEST PUSH2 0x19B1 DUP3 PUSH2 0x1E0 DUP11 ADD PUSH2 0x120 DUP11 ADD PUSH2 0x28FC JUMP JUMPDEST PUSH32 0x30644E72E131A029B85045B68181585D2833E84879B9709143E1F593F0000001 DUP4 DUP4 MULMOD SWAP2 POP PUSH32 0x1AAE9492C047D8BA13342CEDF59276C6DF50BD433921E0212673B477BA1144E0 DUP7 MSTORE PUSH32 0xD86485D30326191F6CF93A9DA7755DA1EE2C518882CDFD98268D04777D66D9F DUP6 MSTORE PUSH2 0x1A29 DUP5 DUP4 DUP9 DUP5 PUSH2 0x2850 JUMP JUMPDEST PUSH2 0x1A3C DUP3 PUSH2 0x200 DUP11 ADD PUSH2 0x120 DUP11 ADD PUSH2 0x28FC JUMP JUMPDEST PUSH2 0x340 DUP9 ADD PUSH32 0x30644E72E131A029B85045B68181585D2833E84879B9709143E1F593F0000001 DUP5 DUP5 MULMOD SWAP3 POP PUSH32 0x21B38243A746B5410254D7EF482FC485C36A87F70E3E1C5D8534D6F5F2C0530D DUP8 MSTORE PUSH32 0x6DA8C14025797FA87BE7A45792F507C5F53AF8F44E26699F4EA51EB755F0B11 DUP7 MSTORE PUSH2 0x1AB9 DUP6 DUP5 DUP10 DUP6 PUSH2 0x2850 JUMP JUMPDEST PUSH2 0x1AC8 DUP4 DUP3 PUSH2 0x120 DUP12 ADD PUSH2 0x28FC JUMP JUMPDEST PUSH1 0x20 DUP2 ADD SWAP1 POP POP POP POP POP POP POP POP POP POP JUMP JUMPDEST PUSH1 0x40 MLOAD PUSH2 0x220 PUSH1 0x40 MLOAD ADD PUSH5 0x67616D6D61 DUP2 MSTORE PUSH1 0x60 DUP3 ADD MLOAD PUSH1 0x20 DUP3 ADD MSTORE PUSH1 0xA0 DUP3 ADD MLOAD PUSH1 0x40 DUP3 ADD MSTORE PUSH1 0xC0 DUP3 ADD MLOAD PUSH1 0x60 DUP3 ADD MSTORE PUSH1 0xE0 DUP3 ADD MLOAD PUSH1 0x80 DUP3 ADD MSTORE PUSH2 0x100 DUP3 ADD MLOAD PUSH1 0xA0 DUP3 ADD MSTORE PUSH1 0xC0 PUSH1 0x0 DUP5 ADD PUSH1 0xC0 DUP4 ADD CALLDATACOPY PUSH32 0x132893973F9BFD040C1D2F14DEAE8AB39939F028A89695E9A51041ECBC353EBA PUSH2 0x180 DUP3 ADD MSTORE PUSH32 0x1BC55692C4D18FBF2CDA86445B20721E7639DA9CB9E743AE9738FA742CF01A54 PUSH2 0x1A0 DUP3 ADD MSTORE PUSH32 0x1AAE9492C047D8BA13342CEDF59276C6DF50BD433921E0212673B477BA1144E0 PUSH2 0x1C0 DUP3 ADD MSTORE PUSH32 0xD86485D30326191F6CF93A9DA7755DA1EE2C518882CDFD98268D04777D66D9F PUSH2 0x1E0 DUP3 ADD MSTORE PUSH2 0x200 PUSH32 0x21B38243A746B5410254D7EF482FC485C36A87F70E3E1C5D8534D6F5F2C0530D DUP2 DUP4 ADD MSTORE PUSH32 0x6DA8C14025797FA87BE7A45792F507C5F53AF8F44E26699F4EA51EB755F0B11 PUSH1 0x20 DUP3 ADD DUP4 ADD MSTORE PUSH1 0x40 DUP2 ADD SWAP1 POP PUSH2 0x280 DUP5 ADD CALLDATALOAD DUP2 DUP4 ADD MSTORE PUSH2 0x2A0 DUP5 ADD CALLDATALOAD PUSH1 0x20 DUP3 ADD DUP4 ADD MSTORE PUSH2 0x180 DUP5 ADD CALLDATALOAD PUSH1 0x40 DUP3 ADD DUP4 ADD MSTORE PUSH2 0x1A0 DUP5 ADD CALLDATALOAD PUSH1 0x60 DUP3 ADD DUP4 ADD MSTORE PUSH2 0x1C0 DUP5 ADD CALLDATALOAD PUSH1 0x80 DUP3 ADD DUP4 ADD MSTORE PUSH2 0x1E0 DUP5 ADD CALLDATALOAD PUSH1 0xA0 DUP3 ADD DUP4 ADD MSTORE PUSH2 0x200 DUP5 ADD CALLDATALOAD PUSH1 0xC0 DUP3 ADD DUP4 ADD MSTORE PUSH1 0xE0 DUP2 ADD DUP3 ADD PUSH2 0x340 DUP6 ADD PUSH1 0x0 JUMPDEST PUSH1 0x1 DUP2 LT ISZERO PUSH2 0x1CA5 JUMPI DUP2 CALLDATALOAD DUP4 MSTORE PUSH1 0x20 DUP3 ADD SWAP2 POP PUSH1 0x20 DUP4 ADD SWAP3 POP PUSH1 0x1 DUP2 ADD SWAP1 POP PUSH2 0x1C81 JUMP JUMPDEST POP PUSH2 0x260 DUP7 ADD CALLDATALOAD DUP3 MSTORE PUSH1 0x1B PUSH1 0x3 PUSH1 0x1 MUL PUSH1 0x17 ADD PUSH1 0x20 DUP2 MUL PUSH1 0x5 ADD SWAP1 POP PUSH1 0x20 PUSH2 0x1C0 DUP9 ADD DUP3 DUP5 DUP10 ADD PUSH1 0x2 GAS STATICCALL DUP1 PUSH2 0x1CDE JUMPI PUSH2 0x1CDD PUSH2 0x389 JUMP JUMPDEST JUMPDEST PUSH32 0x30644E72E131A029B85045B68181585D2833E84879B9709143E1F593F0000001 PUSH2 0x1C0 DUP10 ADD MLOAD MOD PUSH2 0x1C0 DUP10 ADD MSTORE POP POP POP POP POP POP POP POP POP JUMP JUMPDEST PUSH1 0x40 MLOAD PUSH2 0x220 PUSH1 0x40 MLOAD ADD PUSH32 0x1E4DEA2A579567E182F0E8532F8AD92422AC2698F7BAE77E3A77B6FDF0F98714 DUP2 MSTORE PUSH31 0xBE660ABC7F888D07B74E8B7F34A52BEE23D4786BB475D48A8E59716CF34EF PUSH1 0x20 DUP3 ADD MSTORE PUSH2 0x1D80 PUSH1 0x40 DUP3 ADD PUSH2 0x180 DUP6 ADD CALLDATALOAD DUP4 PUSH1 0xE0 DUP7 ADD PUSH2 0x27E2 JUMP JUMPDEST PUSH32 0x2B47457FE7DB52639E541A94F564CB0A91D0B92AEAD363B038B0153161C23DB8 DUP2 MSTORE PUSH32 0x1040EABA17035821FAE38B07287869ECE9B3D5D4F5C4BEB8B65E09EBA821C065 PUSH1 0x20 DUP3 ADD MSTORE PUSH2 0x1DE0 PUSH1 0x40 DUP3 ADD PUSH2 0x1A0 DUP6 ADD CALLDATALOAD DUP4 PUSH1 0xE0 DUP7 ADD PUSH2 0x2850 JUMP JUMPDEST PUSH32 0x30644E72E131A029B85045B68181585D2833E84879B9709143E1F593F0000001 PUSH2 0x1A0 DUP5 ADD CALLDATALOAD PUSH2 0x180 DUP6 ADD CALLDATALOAD MULMOD PUSH32 0x450E30BB17B9DAD2CD9449C20A901EFBE7ABE9384D2371EA0425D61D2ED1C27 DUP3 MSTORE PUSH32 0x2C71E1F57406C5A4F3C8B66E6FF051415C94E6C6A24E8D165BBA1E23B09EAF84 PUSH1 0x20 DUP4 ADD MSTORE PUSH2 0x1E69 PUSH1 0x40 DUP4 ADD DUP3 DUP5 PUSH1 0xE0 DUP8 ADD PUSH2 0x2850 JUMP JUMPDEST PUSH32 0x2F8ABB8103086DAC581D44BF84C242E64D75C4C3F7B19D0174EFFD7F649F6E29 DUP3 MSTORE PUSH32 0x4FFF8CE958DD588D2E09D8C1723F39A53B4FD238736DE326B0536B798123B96 PUSH1 0x20 DUP4 ADD MSTORE PUSH2 0x1EC9 PUSH1 0x40 DUP4 ADD PUSH2 0x1C0 DUP7 ADD CALLDATALOAD DUP5 PUSH1 0xE0 DUP8 ADD PUSH2 0x2850 JUMP JUMPDEST PUSH32 0x1E4B818C205E1E52DB852EFAFF3A902841AF26C2F7057BFDB1EE2A74D86379E3 DUP3 MSTORE PUSH32 0x204A8F6429E9D73707A387FB34DEC1C7E3323EEFF655071E683B7B72D6C9D5F6 PUSH1 0x20 DUP4 ADD MSTORE PUSH2 0x1F27 PUSH1 0x40 DUP4 ADD DUP4 PUSH1 0xE0 DUP7 ADD PUSH1 0xE0 DUP8 ADD PUSH2 0x275E JUMP JUMPDEST PUSH2 0x340 DUP5 ADD PUSH2 0x360 DUP6 ADD PUSH1 0x0 JUMPDEST PUSH1 0x1 DUP2 LT ISZERO PUSH2 0x1F75 JUMPI DUP2 CALLDATALOAD DUP6 MSTORE PUSH1 0x20 DUP3 ADD CALLDATALOAD PUSH1 0x20 DUP7 ADD MSTORE PUSH2 0x1F5E PUSH1 0x40 DUP7 ADD DUP5 CALLDATALOAD DUP8 PUSH1 0xE0 DUP11 ADD PUSH2 0x2850 JUMP JUMPDEST PUSH1 0x20 DUP4 ADD SWAP3 POP PUSH1 0x40 DUP3 ADD SWAP2 POP PUSH1 0x1 DUP2 ADD SWAP1 POP PUSH2 0x1F34 JUMP JUMPDEST POP PUSH32 0x19D72D73CA3652F6C7BA6D10DE727F053A9A483C1F2F75164519AC2731217E52 DUP5 MSTORE PUSH32 0xC582A704C4306FC732D919C09B8F235718D38357FFA3137AF64C471F171E4B9 PUSH1 0x20 DUP6 ADD MSTORE PUSH2 0x1FD1 PUSH1 0x40 DUP6 ADD DUP9 DUP7 PUSH1 0xE0 DUP10 ADD PUSH2 0x2850 JUMP JUMPDEST PUSH2 0x220 DUP7 ADD CALLDATALOAD DUP5 MSTORE PUSH2 0x240 DUP7 ADD CALLDATALOAD PUSH1 0x20 DUP6 ADD MSTORE PUSH2 0x1FF6 PUSH1 0x40 DUP6 ADD DUP10 DUP7 PUSH1 0xE0 DUP10 ADD PUSH2 0x2850 JUMP JUMPDEST POP POP POP POP POP POP POP POP JUMP JUMPDEST PUSH1 0x40 MLOAD PUSH1 0x20 DUP2 ADD MLOAD PUSH1 0x40 DUP3 ADD MLOAD PUSH1 0x60 DUP4 ADD MLOAD PUSH1 0x0 DUP5 ADD MLOAD PUSH32 0x30644E72E131A029B85045B68181585D2833E84879B9709143E1F593F0000001 DUP5 PUSH2 0x260 DUP9 ADD CALLDATALOAD MULMOD PUSH32 0x30644E72E131A029B85045B68181585D2833E84879B9709143E1F593F0000001 PUSH2 0x1E0 DUP9 ADD CALLDATALOAD DUP7 MULMOD PUSH32 0x30644E72E131A029B85045B68181585D2833E84879B9709143E1F593F0000001 PUSH2 0x180 DUP10 ADD CALLDATALOAD DUP3 ADDMOD SWAP1 POP PUSH32 0x30644E72E131A029B85045B68181585D2833E84879B9709143E1F593F0000001 DUP6 DUP3 ADDMOD SWAP1 POP PUSH32 0x30644E72E131A029B85045B68181585D2833E84879B9709143E1F593F0000001 PUSH2 0x200 DUP10 ADD CALLDATALOAD DUP8 MULMOD PUSH32 0x30644E72E131A029B85045B68181585D2833E84879B9709143E1F593F0000001 PUSH2 0x1A0 DUP11 ADD CALLDATALOAD DUP3 ADDMOD SWAP1 POP PUSH32 0x30644E72E131A029B85045B68181585D2833E84879B9709143E1F593F0000001 DUP7 DUP3 ADDMOD SWAP1 POP PUSH32 0x30644E72E131A029B85045B68181585D2833E84879B9709143E1F593F0000001 DUP3 DUP5 MULMOD PUSH32 0x30644E72E131A029B85045B68181585D2833E84879B9709143E1F593F0000001 DUP3 DUP3 MULMOD SWAP1 POP PUSH32 0x30644E72E131A029B85045B68181585D2833E84879B9709143E1F593F0000001 DUP6 DUP3 MULMOD SWAP1 POP PUSH32 0x30644E72E131A029B85045B68181585D2833E84879B9709143E1F593F0000001 PUSH1 0x5 DUP1 MULMOD PUSH32 0x30644E72E131A029B85045B68181585D2833E84879B9709143E1F593F0000001 DUP8 DUP11 MULMOD PUSH32 0x30644E72E131A029B85045B68181585D2833E84879B9709143E1F593F0000001 PUSH2 0x180 DUP14 ADD CALLDATALOAD DUP3 ADDMOD SWAP6 POP PUSH32 0x30644E72E131A029B85045B68181585D2833E84879B9709143E1F593F0000001 DUP10 DUP8 ADDMOD SWAP6 POP PUSH32 0x30644E72E131A029B85045B68181585D2833E84879B9709143E1F593F0000001 PUSH1 0x5 DUP3 MULMOD SWAP5 POP PUSH32 0x30644E72E131A029B85045B68181585D2833E84879B9709143E1F593F0000001 PUSH2 0x1A0 DUP14 ADD CALLDATALOAD DUP7 ADDMOD SWAP5 POP PUSH32 0x30644E72E131A029B85045B68181585D2833E84879B9709143E1F593F0000001 DUP10 DUP7 ADDMOD SWAP5 POP PUSH32 0x30644E72E131A029B85045B68181585D2833E84879B9709143E1F593F0000001 DUP3 DUP3 MULMOD SWAP4 POP PUSH32 0x30644E72E131A029B85045B68181585D2833E84879B9709143E1F593F0000001 PUSH2 0x1C0 DUP14 ADD CALLDATALOAD DUP6 ADDMOD SWAP4 POP PUSH32 0x30644E72E131A029B85045B68181585D2833E84879B9709143E1F593F0000001 DUP10 DUP6 ADDMOD SWAP4 POP PUSH32 0x30644E72E131A029B85045B68181585D2833E84879B9709143E1F593F0000001 DUP6 DUP8 MULMOD PUSH32 0x30644E72E131A029B85045B68181585D2833E84879B9709143E1F593F0000001 DUP6 DUP3 MULMOD SWAP1 POP DUP1 PUSH32 0x30644E72E131A029B85045B68181585D2833E84879B9709143E1F593F0000001 SUB SWAP1 POP PUSH32 0x30644E72E131A029B85045B68181585D2833E84879B9709143E1F593F0000001 DUP9 DUP3 MULMOD SWAP1 POP PUSH32 0x30644E72E131A029B85045B68181585D2833E84879B9709143E1F593F0000001 PUSH1 0x80 DUP14 ADD MLOAD DUP3 ADDMOD SWAP1 POP PUSH2 0x23F7 DUP2 DUP6 DUP16 PUSH2 0x1D17 JUMP JUMPDEST POP POP POP POP POP POP POP POP POP POP POP POP POP JUMP JUMPDEST PUSH1 0x40 MLOAD PUSH1 0x2 PUSH4 0x1000000 ADD PUSH2 0x220 PUSH1 0x40 MLOAD ADD PUSH2 0x2427 DUP2 DUP4 PUSH1 0x60 DUP7 ADD MLOAD PUSH2 0x294E JUMP JUMPDEST PUSH2 0x243A DUP3 DUP3 PUSH2 0x140 DUP9 ADD PUSH1 0xA0 DUP9 ADD PUSH2 0x2819 JUMP JUMPDEST PUSH2 0x2450 DUP3 PUSH2 0x100 DUP8 ADD PUSH1 0xA0 DUP8 ADD PUSH1 0xA0 DUP9 ADD PUSH2 0x27A0 JUMP JUMPDEST PUSH2 0x2462 DUP3 DUP3 PUSH1 0xA0 DUP8 ADD PUSH1 0xA0 DUP9 ADD PUSH2 0x27E2 JUMP JUMPDEST PUSH2 0x2477 DUP3 PUSH1 0xC0 DUP8 ADD PUSH1 0xA0 DUP8 ADD PUSH1 0xA0 DUP9 ADD PUSH2 0x27A0 JUMP JUMPDEST POP POP POP POP POP JUMP JUMPDEST PUSH1 0x40 MLOAD PUSH2 0x220 PUSH1 0x40 MLOAD ADD PUSH32 0x30644E72E131A029B85045B68181585D2833E84879B9709143E1F593F0000001 PUSH1 0x20 DUP4 ADD MLOAD PUSH2 0x1E0 DUP6 ADD CALLDATALOAD MULMOD DUP2 MSTORE PUSH32 0x30644E72E131A029B85045B68181585D2833E84879B9709143E1F593F0000001 PUSH1 0x40 DUP4 ADD MLOAD DUP3 MLOAD ADDMOD DUP2 MSTORE PUSH32 0x30644E72E131A029B85045B68181585D2833E84879B9709143E1F593F0000001 PUSH2 0x180 DUP5 ADD CALLDATALOAD DUP3 MLOAD ADDMOD DUP2 MSTORE PUSH1 0x20 DUP2 ADD PUSH32 0x30644E72E131A029B85045B68181585D2833E84879B9709143E1F593F0000001 PUSH1 0x20 DUP5 ADD MLOAD PUSH2 0x200 DUP7 ADD CALLDATALOAD MULMOD DUP2 MSTORE PUSH32 0x30644E72E131A029B85045B68181585D2833E84879B9709143E1F593F0000001 PUSH1 0x40 DUP5 ADD MLOAD DUP3 MLOAD ADDMOD DUP2 MSTORE PUSH32 0x30644E72E131A029B85045B68181585D2833E84879B9709143E1F593F0000001 PUSH2 0x1A0 DUP6 ADD CALLDATALOAD DUP3 MLOAD ADDMOD DUP2 MSTORE PUSH1 0x40 DUP3 ADD PUSH32 0x30644E72E131A029B85045B68181585D2833E84879B9709143E1F593F0000001 PUSH1 0x40 DUP6 ADD MLOAD PUSH2 0x1C0 DUP8 ADD CALLDATALOAD ADDMOD DUP2 MSTORE PUSH32 0x30644E72E131A029B85045B68181585D2833E84879B9709143E1F593F0000001 DUP3 MLOAD DUP5 MLOAD MULMOD DUP4 MSTORE PUSH32 0x30644E72E131A029B85045B68181585D2833E84879B9709143E1F593F0000001 DUP2 MLOAD DUP5 MLOAD MULMOD DUP4 MSTORE PUSH32 0x30644E72E131A029B85045B68181585D2833E84879B9709143E1F593F0000001 PUSH1 0x0 DUP6 ADD MLOAD DUP5 MLOAD MULMOD DUP4 MSTORE PUSH32 0x30644E72E131A029B85045B68181585D2833E84879B9709143E1F593F0000001 PUSH2 0x260 DUP7 ADD CALLDATALOAD DUP5 MLOAD MULMOD DUP4 MSTORE PUSH1 0x60 DUP4 ADD PUSH32 0x30644E72E131A029B85045B68181585D2833E84879B9709143E1F593F0000001 PUSH2 0x180 DUP7 ADD MLOAD PUSH2 0x2A0 DUP9 ADD CALLDATALOAD ADDMOD DUP2 MSTORE PUSH32 0x30644E72E131A029B85045B68181585D2833E84879B9709143E1F593F0000001 DUP5 MLOAD DUP3 MLOAD ADDMOD DUP2 MSTORE PUSH32 0x30644E72E131A029B85045B68181585D2833E84879B9709143E1F593F0000001 PUSH1 0x80 DUP7 ADD MLOAD PUSH32 0x30644E72E131A029B85045B68181585D2833E84879B9709143E1F593F0000001 SUB DUP3 MLOAD ADDMOD DUP2 MSTORE PUSH32 0x30644E72E131A029B85045B68181585D2833E84879B9709143E1F593F0000001 PUSH2 0x1A0 DUP7 ADD MLOAD PUSH2 0x280 DUP9 ADD CALLDATALOAD MULMOD DUP4 MSTORE DUP3 MLOAD DUP2 MLOAD EQ PUSH2 0x1E0 DUP7 ADD MSTORE POP POP POP POP POP POP JUMP JUMPDEST PUSH1 0x40 MLOAD DUP3 MLOAD DUP6 MSTORE PUSH1 0x20 DUP4 ADD MLOAD PUSH1 0x20 DUP7 ADD MSTORE DUP4 MLOAD PUSH1 0x40 DUP7 ADD MSTORE PUSH1 0x20 DUP5 ADD MLOAD PUSH1 0x60 DUP7 ADD MSTORE PUSH1 0x40 DUP3 PUSH1 0x80 DUP8 PUSH1 0x6 GAS STATICCALL DUP1 PUSH2 0x2798 JUMPI PUSH2 0x2797 PUSH2 0x20D JUMP JUMPDEST JUMPDEST POP POP POP POP POP POP JUMP JUMPDEST PUSH1 0x40 MLOAD DUP3 MLOAD DUP6 MSTORE PUSH1 0x20 DUP4 ADD MLOAD PUSH1 0x20 DUP7 ADD MSTORE DUP4 CALLDATALOAD PUSH1 0x40 DUP7 ADD MSTORE PUSH1 0x20 DUP5 ADD CALLDATALOAD PUSH1 0x60 DUP7 ADD MSTORE PUSH1 0x40 DUP3 PUSH1 0x80 DUP8 PUSH1 0x6 GAS STATICCALL DUP1 PUSH2 0x27DA JUMPI PUSH2 0x27D9 PUSH2 0x20D JUMP JUMPDEST JUMPDEST POP POP POP POP POP POP JUMP JUMPDEST PUSH1 0x40 MLOAD DUP3 MLOAD DUP6 MSTORE PUSH1 0x20 DUP4 ADD MLOAD PUSH1 0x20 DUP7 ADD MSTORE DUP4 PUSH1 0x40 DUP7 ADD MSTORE PUSH1 0x40 DUP3 PUSH1 0x60 DUP8 PUSH1 0x7 GAS STATICCALL DUP1 PUSH2 0x2811 JUMPI PUSH2 0x2810 PUSH2 0x20D JUMP JUMPDEST JUMPDEST POP POP POP POP POP POP JUMP JUMPDEST PUSH1 0x40 MLOAD DUP3 CALLDATALOAD DUP6 MSTORE PUSH1 0x20 DUP4 ADD CALLDATALOAD PUSH1 0x20 DUP7 ADD MSTORE DUP4 PUSH1 0x40 DUP7 ADD MSTORE PUSH1 0x40 DUP3 PUSH1 0x60 DUP8 PUSH1 0x7 GAS STATICCALL DUP1 PUSH2 0x2848 JUMPI PUSH2 0x2847 PUSH2 0x20D JUMP JUMPDEST JUMPDEST POP POP POP POP POP POP JUMP JUMPDEST PUSH1 0x40 MLOAD DUP3 MLOAD DUP6 MSTORE PUSH1 0x20 DUP4 ADD MLOAD PUSH1 0x20 DUP7 ADD MSTORE DUP4 PUSH1 0x40 DUP7 ADD MSTORE PUSH1 0x40 DUP6 PUSH1 0x60 DUP8 PUSH1 0x7 GAS STATICCALL DUP3 MLOAD PUSH1 0x40 DUP8 ADD MSTORE PUSH1 0x20 DUP4 ADD MLOAD PUSH1 0x60 DUP8 ADD MSTORE PUSH1 0x40 DUP4 PUSH1 0x80 DUP9 PUSH1 0x6 GAS STATICCALL DUP2 AND SWAP1 POP DUP1 PUSH2 0x289E JUMPI PUSH2 0x289D PUSH2 0x20D JUMP JUMPDEST JUMPDEST POP POP POP POP POP POP JUMP JUMPDEST PUSH1 0x40 MLOAD DUP3 CALLDATALOAD DUP6 MSTORE PUSH1 0x20 DUP4 ADD CALLDATALOAD PUSH1 0x20 DUP7 ADD MSTORE DUP4 PUSH1 0x40 DUP7 ADD MSTORE PUSH1 0x40 DUP6 PUSH1 0x60 DUP8 PUSH1 0x7 GAS STATICCALL DUP3 MLOAD PUSH1 0x40 DUP8 ADD MSTORE PUSH1 0x20 DUP4 ADD MLOAD PUSH1 0x60 DUP8 ADD MSTORE PUSH1 0x40 DUP4 PUSH1 0x80 DUP9 PUSH1 0x6 GAS STATICCALL DUP2 AND SWAP1 POP DUP1 PUSH2 0x28F4 JUMPI PUSH2 0x28F3 PUSH2 0x20D JUMP JUMPDEST JUMPDEST POP POP POP POP POP POP JUMP JUMPDEST PUSH32 0x30644E72E131A029B85045B68181585D2833E84879B9709143E1F593F0000001 DUP4 DUP4 CALLDATALOAD MULMOD PUSH32 0x30644E72E131A029B85045B68181585D2833E84879B9709143E1F593F0000001 DUP2 DUP4 MLOAD ADDMOD DUP3 MSTORE POP POP POP POP JUMP JUMPDEST PUSH1 0x0 PUSH1 0x20 DUP5 MSTORE PUSH1 0x20 DUP1 DUP6 ADD MSTORE PUSH1 0x20 PUSH1 0x40 DUP6 ADD MSTORE DUP2 PUSH1 0x60 DUP6 ADD MSTORE DUP3 PUSH1 0x80 DUP6 ADD MSTORE PUSH32 0x30644E72E131A029B85045B68181585D2833E84879B9709143E1F593F0000001 PUSH1 0xA0 DUP6 ADD MSTORE PUSH1 0x20 DUP5 PUSH1 0xC0 DUP7 PUSH1 0x5 GAS STATICCALL PUSH1 0x0 DUP2 SUB PUSH2 0x29AE JUMPI PUSH2 0x29AD PUSH2 0x389 JUMP JUMPDEST JUMPDEST DUP5 MLOAD SWAP2 POP POP SWAP4 SWAP3 POP POP POP JUMP JUMPDEST POP POP POP POP POP POP POP SWAP5 SWAP4 POP POP POP POP JUMP JUMPDEST PUSH1 0x0 DUP1 REVERT JUMPDEST PUSH1 0x0 DUP1 REVERT JUMPDEST PUSH1 0x0 DUP1 REVERT JUMPDEST PUSH1 0x0 DUP1 REVERT JUMPDEST PUSH1 0x0 DUP1 REVERT JUMPDEST PUSH1 0x0 DUP1 DUP4 PUSH1 0x1F DUP5 ADD SLT PUSH2 0x29F8 JUMPI PUSH2 0x29F7 PUSH2 0x29D3 JUMP JUMPDEST JUMPDEST DUP3 CALLDATALOAD SWAP1 POP PUSH8 0xFFFFFFFFFFFFFFFF DUP2 GT ISZERO PUSH2 0x2A15 JUMPI PUSH2 0x2A14 PUSH2 0x29D8 JUMP JUMPDEST JUMPDEST PUSH1 0x20 DUP4 ADD SWAP2 POP DUP4 PUSH1 0x1 DUP3 MUL DUP4 ADD GT ISZERO PUSH2 0x2A31 JUMPI PUSH2 0x2A30 PUSH2 0x29DD JUMP JUMPDEST JUMPDEST SWAP3 POP SWAP3 SWAP1 POP JUMP JUMPDEST PUSH1 0x0 DUP1 DUP4 PUSH1 0x1F DUP5 ADD SLT PUSH2 0x2A4E JUMPI PUSH2 0x2A4D PUSH2 0x29D3 JUMP JUMPDEST JUMPDEST DUP3 CALLDATALOAD SWAP1 POP PUSH8 0xFFFFFFFFFFFFFFFF DUP2 GT ISZERO PUSH2 0x2A6B JUMPI PUSH2 0x2A6A PUSH2 0x29D8 JUMP JUMPDEST JUMPDEST PUSH1 0x20 DUP4 ADD SWAP2 POP DUP4 PUSH1 0x20 DUP3 MUL DUP4 ADD GT ISZERO PUSH2 0x2A87 JUMPI PUSH2 0x2A86 PUSH2 0x29DD JUMP JUMPDEST JUMPDEST SWAP3 POP SWAP3 SWAP1 POP JUMP JUMPDEST PUSH1 0x0 DUP1 PUSH1 0x0 DUP1 PUSH1 0x40 DUP6 DUP8 SUB SLT ISZERO PUSH2 0x2AA8 JUMPI PUSH2 0x2AA7 PUSH2 0x29C9 JUMP JUMPDEST JUMPDEST PUSH1 0x0 DUP6 ADD CALLDATALOAD PUSH8 0xFFFFFFFFFFFFFFFF DUP2 GT ISZERO PUSH2 0x2AC6 JUMPI PUSH2 0x2AC5 PUSH2 0x29CE JUMP JUMPDEST JUMPDEST PUSH2 0x2AD2 DUP8 DUP3 DUP9 ADD PUSH2 0x29E2 JUMP JUMPDEST SWAP5 POP SWAP5 POP POP PUSH1 0x20 DUP6 ADD CALLDATALOAD PUSH8 0xFFFFFFFFFFFFFFFF DUP2 GT ISZERO PUSH2 0x2AF5 JUMPI PUSH2 0x2AF4 PUSH2 0x29CE JUMP JUMPDEST JUMPDEST PUSH2 0x2B01 DUP8 DUP3 DUP9 ADD PUSH2 0x2A38 JUMP JUMPDEST SWAP3 POP SWAP3 POP POP SWAP3 SWAP6 SWAP2 SWAP5 POP SWAP3 POP JUMP JUMPDEST PUSH1 0x0 DUP2 ISZERO ISZERO SWAP1 POP SWAP2 SWAP1 POP JUMP JUMPDEST PUSH2 0x2B24 DUP2 PUSH2 0x2B0F JUMP JUMPDEST DUP3 MSTORE POP POP JUMP JUMPDEST PUSH1 0x0 PUSH1 0x20 DUP3 ADD SWAP1 POP PUSH2 0x2B3F PUSH1 0x0 DUP4 ADD DUP5 PUSH2 0x2B1B JUMP JUMPDEST SWAP3 SWAP2 POP POP JUMP INVALID LOG2 PUSH5 0x6970667358 0x22 SLT KECCAK256 MSTORE8 PUSH32 0xE601F2820CA8B1CF3010C39CFA93CDB0F468341904E115921BDFCF0DCC6C6473 PUSH16 0x6C634300081800330000000000000000 "
        },
        "methodIdentifiers": {
          "Verify(bytes,uint256[])": "7e4f7a8a"
        }
      }
    }
  }
}