{
  "contracts/Deposit.sol": {
    "Deposit": {
      "abi": [
        {
          "inputs": [],
          "name": "MerkleTreeFull",
          "type": "error"
        },
        {
          "inputs": [],
          "name": "depositCount",
          "outputs": [
            {
              "internalType": "uint256",
              "name": "",
              "type": "uint256"
            }
          ],
          "stateMutability": "view",
          "type": "function"
        },
        {
          "inputs": [],
          "name": "getBranch",
          "outputs": [
            {
              "internalType": "bytes32[32]",
              "name": "",
              "type": "bytes32[32]"
            }
          ],
          "stateMutability": "view",
          "type": "function"
        },
        {
          "inputs": [
            {
              "internalType": "bytes32",
              "name": "leafHash",
              "type": "bytes32"
            },
            {
              "internalType": "bytes32[32]",
              "name": "smtProof",
              "type": "bytes32[32]"
            },
            {
              "internalType": "uint32",
              "name": "index",
              "type": "uint32"
            },
            {
              "internalType": "bytes32",
              "name": "root",
              "type": "bytes32"
            }
          ],
          "name": "verifyMerkleProof",
          "outputs": [
            {
              "internalType": "bool",
              "name": "",
              "type": "bool"
            }
          ],
          "stateMutability": "pure",
          "type": "function"
        }
      ],
      "evm": {
        "bytecode": {
          "linkReferences": {},
          "object": "608060405234801561001057600080fd5b506104e1806100206000396000f3fe608060405234801561001057600080fd5b50600436106100415760003560e01c80632dfdf0b514610046578063ea8ef6be14610064578063fb57083414610082575b600080fd5b61004e6100b2565b60405161005b9190610210565b60405180910390f35b61006c6100b8565b60405161007991906102e0565b60405180910390f35b61009c6004803603810190610097919061038f565b610103565b6040516100a99190610414565b60405180910390f35b60205481565b6100c06101d4565b60006020806020026040519081016040528092919082602080156100f9576020028201915b8154815260200190600101908083116100e5575b5050505050905090565b60008085905060005b60208110156101c557600180828763ffffffff16901c1663ffffffff1603610175578581602081106101415761014061042f565b5b60200201358260405160200161015892919061047f565b6040516020818303038152906040528051906020012091506101b8565b818682602081106101895761018861042f565b5b602002013560405160200161019f92919061047f565b6040516020818303038152906040528051906020012091505b808060010191505061010c565b50828114915050949350505050565b604051806104000160405280602090602082028036833780820191505090505090565b6000819050919050565b61020a816101f7565b82525050565b60006020820190506102256000830184610201565b92915050565b600060209050919050565b600081905092915050565b6000819050919050565b6000819050919050565b61025e8161024b565b82525050565b60006102708383610255565b60208301905092915050565b6000602082019050919050565b6102928161022b565b61029c8184610236565b92506102a782610241565b8060005b838110156102d85781516102bf8782610264565b96506102ca8361027c565b9250506001810190506102ab565b505050505050565b6000610400820190506102f66000830184610289565b92915050565b600080fd5b61030a8161024b565b811461031557600080fd5b50565b60008135905061032781610301565b92915050565b600080fd5b600081905082602080028201111561034d5761034c61032d565b5b92915050565b600063ffffffff82169050919050565b61036c81610353565b811461037757600080fd5b50565b60008135905061038981610363565b92915050565b60008060008061046085870312156103aa576103a96102fc565b5b60006103b887828801610318565b94505060206103c987828801610332565b9350506104206103db8782880161037a565b9250506104406103ed87828801610318565b91505092959194509250565b60008115159050919050565b61040e816103f9565b82525050565b60006020820190506104296000830184610405565b92915050565b7f4e487b7100000000000000000000000000000000000000000000000000000000600052603260045260246000fd5b6000819050919050565b6104796104748261024b565b61045e565b82525050565b600061048b8285610468565b60208201915061049b8284610468565b602082019150819050939250505056fea264697066735822122052ec9fa8f2094fd6e29b923480905bf24c76b597641659b94e643ffba7dd33c664736f6c63430008180033",
          "opcodes": "PUSH1 0x80 PUSH1 0x40 MSTORE CALLVALUE DUP1 ISZERO PUSH2 0x10 JUMPI PUSH1 0x0 DUP1 REVERT JUMPDEST POP PUSH2 0x4E1 DUP1 PUSH2 0x20 PUSH1 0x0 CODECOPY PUSH1 0x0 RETURN INVALID PUSH1 0x80 PUSH1 0x40 MSTORE CALLVALUE DUP1 ISZERO PUSH2 0x10 JUMPI PUSH1 0x0 DUP1 REVERT JUMPDEST POP PUSH1 0x4 CALLDATASIZE LT PUSH2 0x41 JUMPI PUSH1 0x0 CALLDATALOAD PUSH1 0xE0 SHR DUP1 PUSH4 0x2DFDF0B5 EQ PUSH2 0x46 JUMPI DUP1 PUSH4 0xEA8EF6BE EQ PUSH2 0x64 JUMPI DUP1 PUSH4 0xFB570834 EQ PUSH2 0x82 JUMPI JUMPDEST PUSH1 0x0 DUP1 REVERT JUMPDEST PUSH2 0x4E PUSH2 0xB2 JUMP JUMPDEST PUSH1 0x40 MLOAD PUSH2 0x5B SWAP2 SWAP1 PUSH2 0x210 JUMP JUMPDEST PUSH1 0x40 MLOAD DUP1 SWAP2 SUB SWAP1 RETURN JUMPDEST PUSH2 0x6C PUSH2 0xB8 JUMP JUMPDEST PUSH1 0x40 MLOAD PUSH2 0x79 SWAP2 SWAP1 PUSH2 0x2E0 JUMP JUMPDEST PUSH1 0x40 MLOAD DUP1 SWAP2 SUB SWAP1 RETURN JUMPDEST PUSH2 0x9C PUSH1 0x4 DUP1 CALLDATASIZE SUB DUP2 ADD SWAP1 PUSH2 0x97 SWAP2 SWAP1 PUSH2 0x38F JUMP JUMPDEST PUSH2 0x103 JUMP JUMPDEST PUSH1 0x40 MLOAD PUSH2 0xA9 SWAP2 SWAP1 PUSH2 0x414 JUMP JUMPDEST PUSH1 0x40 MLOAD DUP1 SWAP2 SUB SWAP1 RETURN JUMPDEST PUSH1 0x20 SLOAD DUP2 JUMP JUMPDEST PUSH2 0xC0 PUSH2 0x1D4 JUMP JUMPDEST PUSH1 0x0 PUSH1 0x20 DUP1 PUSH1 0x20 MUL PUSH1 0x40 MLOAD SWAP1 DUP2 ADD PUSH1 0x40 MSTORE DUP1 SWAP3 SWAP2 SWAP1 DUP3 PUSH1 0x20 DUP1 ISZERO PUSH2 0xF9 JUMPI PUSH1 0x20 MUL DUP3 ADD SWAP2 JUMPDEST DUP2 SLOAD DUP2 MSTORE PUSH1 0x20 ADD SWAP1 PUSH1 0x1 ADD SWAP1 DUP1 DUP4 GT PUSH2 0xE5 JUMPI JUMPDEST POP POP POP POP POP SWAP1 POP SWAP1 JUMP JUMPDEST PUSH1 0x0 DUP1 DUP6 SWAP1 POP PUSH1 0x0 JUMPDEST PUSH1 0x20 DUP2 LT ISZERO PUSH2 0x1C5 JUMPI PUSH1 0x1 DUP1 DUP3 DUP8 PUSH4 0xFFFFFFFF AND SWAP1 SHR AND PUSH4 0xFFFFFFFF AND SUB PUSH2 0x175 JUMPI DUP6 DUP2 PUSH1 0x20 DUP2 LT PUSH2 0x141 JUMPI PUSH2 0x140 PUSH2 0x42F JUMP JUMPDEST JUMPDEST PUSH1 0x20 MUL ADD CALLDATALOAD DUP3 PUSH1 0x40 MLOAD PUSH1 0x20 ADD PUSH2 0x158 SWAP3 SWAP2 SWAP1 PUSH2 0x47F JUMP JUMPDEST PUSH1 0x40 MLOAD PUSH1 0x20 DUP2 DUP4 SUB SUB DUP2 MSTORE SWAP1 PUSH1 0x40 MSTORE DUP1 MLOAD SWAP1 PUSH1 0x20 ADD KECCAK256 SWAP2 POP PUSH2 0x1B8 JUMP JUMPDEST DUP2 DUP7 DUP3 PUSH1 0x20 DUP2 LT PUSH2 0x189 JUMPI PUSH2 0x188 PUSH2 0x42F JUMP JUMPDEST JUMPDEST PUSH1 0x20 MUL ADD CALLDATALOAD PUSH1 0x40 MLOAD PUSH1 0x20 ADD PUSH2 0x19F SWAP3 SWAP2 SWAP1 PUSH2 0x47F JUMP JUMPDEST PUSH1 0x40 MLOAD PUSH1 0x20 DUP2 DUP4 SUB SUB DUP2 MSTORE SWAP1 PUSH1 0x40 MSTORE DUP1 MLOAD SWAP1 PUSH1 0x20 ADD KECCAK256 SWAP2 POP JUMPDEST DUP1 DUP1 PUSH1 0x1 ADD SWAP2 POP POP PUSH2 0x10C JUMP JUMPDEST POP DUP3 DUP2 EQ SWAP2 POP POP SWAP5 SWAP4 POP POP POP POP JUMP JUMPDEST PUSH1 0x40 MLOAD DUP1 PUSH2 0x400 ADD PUSH1 0x40 MSTORE DUP1 PUSH1 0x20 SWAP1 PUSH1 0x20 DUP3 MUL DUP1 CALLDATASIZE DUP4 CALLDATACOPY DUP1 DUP3 ADD SWAP2 POP POP SWAP1 POP POP SWAP1 JUMP JUMPDEST PUSH1 0x0 DUP2 SWAP1 POP SWAP2 SWAP1 POP JUMP JUMPDEST PUSH2 0x20A DUP2 PUSH2 0x1F7 JUMP JUMPDEST DUP3 MSTORE POP POP JUMP JUMPDEST PUSH1 0x0 PUSH1 0x20 DUP3 ADD SWAP1 POP PUSH2 0x225 PUSH1 0x0 DUP4 ADD DUP5 PUSH2 0x201 JUMP JUMPDEST SWAP3 SWAP2 POP POP JUMP JUMPDEST PUSH1 0x0 PUSH1 0x20 SWAP1 POP SWAP2 SWAP1 POP JUMP JUMPDEST PUSH1 0x0 DUP2 SWAP1 POP SWAP3 SWAP2 POP POP JUMP JUMPDEST PUSH1 0x0 DUP2 SWAP1 POP SWAP2 SWAP1 POP JUMP JUMPDEST PUSH1 0x0 DUP2 SWAP1 POP SWAP2 SWAP1 POP JUMP JUMPDEST PUSH2 0x25E DUP2 PUSH2 0x24B JUMP JUMPDEST DUP3 MSTORE POP POP JUMP JUMPDEST PUSH1 0x0 PUSH2 0x270 DUP4 DUP4 PUSH2 0x255 JUMP JUMPDEST PUSH1 0x20 DUP4 ADD SWAP1 POP SWAP3 SWAP2 POP POP JUMP JUMPDEST PUSH1 0x0 PUSH1 0x20 DUP3 ADD SWAP1 POP SWAP2 SWAP1 POP JUMP JUMPDEST PUSH2 0x292 DUP2 PUSH2 0x22B JUMP JUMPDEST PUSH2 0x29C DUP2 DUP5 PUSH2 0x236 JUMP JUMPDEST SWAP3 POP PUSH2 0x2A7 DUP3 PUSH2 0x241 JUMP JUMPDEST DUP1 PUSH1 0x0 JUMPDEST DUP4 DUP2 LT ISZERO PUSH2 0x2D8 JUMPI DUP2 MLOAD PUSH2 0x2BF DUP8 DUP3 PUSH2 0x264 JUMP JUMPDEST SWAP7 POP PUSH2 0x2CA DUP4 PUSH2 0x27C JUMP JUMPDEST SWAP3 POP POP PUSH1 0x1 DUP2 ADD SWAP1 POP PUSH2 0x2AB JUMP JUMPDEST POP POP POP POP POP POP JUMP JUMPDEST PUSH1 0x0 PUSH2 0x400 DUP3 ADD SWAP1 POP PUSH2 0x2F6 PUSH1 0x0 DUP4 ADD DUP5 PUSH2 0x289 JUMP JUMPDEST SWAP3 SWAP2 POP POP JUMP JUMPDEST PUSH1 0x0 DUP1 REVERT JUMPDEST PUSH2 0x30A DUP2 PUSH2 0x24B JUMP JUMPDEST DUP2 EQ PUSH2 0x315 JUMPI PUSH1 0x0 DUP1 REVERT JUMPDEST POP JUMP JUMPDEST PUSH1 0x0 DUP2 CALLDATALOAD SWAP1 POP PUSH2 0x327 DUP2 PUSH2 0x301 JUMP JUMPDEST SWAP3 SWAP2 POP POP JUMP JUMPDEST PUSH1 0x0 DUP1 REVERT JUMPDEST PUSH1 0x0 DUP2 SWAP1 POP DUP3 PUSH1 0x20 DUP1 MUL DUP3 ADD GT ISZERO PUSH2 0x34D JUMPI PUSH2 0x34C PUSH2 0x32D JUMP JUMPDEST JUMPDEST SWAP3 SWAP2 POP POP JUMP JUMPDEST PUSH1 0x0 PUSH4 0xFFFFFFFF DUP3 AND SWAP1 POP SWAP2 SWAP1 POP JUMP JUMPDEST PUSH2 0x36C DUP2 PUSH2 0x353 JUMP JUMPDEST DUP2 EQ PUSH2 0x377 JUMPI PUSH1 0x0 DUP1 REVERT JUMPDEST POP JUMP JUMPDEST PUSH1 0x0 DUP2 CALLDATALOAD SWAP1 POP PUSH2 0x389 DUP2 PUSH2 0x363 JUMP JUMPDEST SWAP3 SWAP2 POP POP JUMP JUMPDEST PUSH1 0x0 DUP1 PUSH1 0x0 DUP1 PUSH2 0x460 DUP6 DUP8 SUB SLT ISZERO PUSH2 0x3AA JUMPI PUSH2 0x3A9 PUSH2 0x2FC JUMP JUMPDEST JUMPDEST PUSH1 0x0 PUSH2 0x3B8 DUP8 DUP3 DUP9 ADD PUSH2 0x318 JUMP JUMPDEST SWAP5 POP POP PUSH1 0x20 PUSH2 0x3C9 DUP8 DUP3 DUP9 ADD PUSH2 0x332 JUMP JUMPDEST SWAP4 POP POP PUSH2 0x420 PUSH2 0x3DB DUP8 DUP3 DUP9 ADD PUSH2 0x37A JUMP JUMPDEST SWAP3 POP POP PUSH2 0x440 PUSH2 0x3ED DUP8 DUP3 DUP9 ADD PUSH2 0x318 JUMP JUMPDEST SWAP2 POP POP SWAP3 SWAP6 SWAP2 SWAP5 POP SWAP3 POP JUMP JUMPDEST PUSH1 0x0 DUP2 ISZERO ISZERO SWAP1 POP SWAP2 SWAP1 POP JUMP JUMPDEST PUSH2 0x40E DUP2 PUSH2 0x3F9 JUMP JUMPDEST DUP3 MSTORE POP POP JUMP JUMPDEST PUSH1 0x0 PUSH1 0x20 DUP3 ADD SWAP1 POP PUSH2 0x429 PUSH1 0x0 DUP4 ADD DUP5 PUSH2 0x405 JUMP JUMPDEST SWAP3 SWAP2 POP POP JUMP JUMPDEST PUSH32 0x4E487B7100000000000000000000000000000000000000000000000000000000 PUSH1 0x0 MSTORE PUSH1 0x32 PUSH1 0x4 MSTORE PUSH1 0x24 PUSH1 0x0 REVERT JUMPDEST PUSH1 0x0 DUP2 SWAP1 POP SWAP2 SWAP1 POP JUMP JUMPDEST PUSH2 0x479 PUSH2 0x474 DUP3 PUSH2 0x24B JUMP JUMPDEST PUSH2 0x45E JUMP JUMPDEST DUP3 MSTORE POP POP JUMP JUMPDEST PUSH1 0x0 PUSH2 0x48B DUP3 DUP6 PUSH2 0x468 JUMP JUMPDEST PUSH1 0x20 DUP3 ADD SWAP2 POP PUSH2 0x49B DUP3 DUP5 PUSH2 0x468 JUMP JUMPDEST PUSH1 0x20 DUP3 ADD SWAP2 POP DUP2 SWAP1 POP SWAP4 SWAP3 POP POP POP JUMP INVALID LOG2 PUSH5 0x6970667358 0x22 SLT KECCAK256 MSTORE 0xEC SWAP16 0xA8 CALLCODE MULMOD 0x4F 0xD6 0xE2 SWAP12 SWAP3 CALLVALUE DUP1 SWAP1 JUMPDEST CALLCODE 0x4C PUSH23 0xB597641659B94E643FFBA7DD33C664736F6C6343000818 STOP CALLER "
        },
        "methodIdentifiers": {
          "depositCount()": "2dfdf0b5",
          "getBranch()": "ea8ef6be",
          "verifyMerkleProof(bytes32,bytes32[32],uint32,bytes32)": "fb570834"
        }
      }
    }
  }
}