{
  "contracts/int1/int1/layer2/Int1LV2.sol": {
    "Int1LV2": {
      "abi": [
        {
          "inputs": [],
          "name": "AccessControlBadConfirmation",
          "type": "error"
        },
        {
          "inputs": [
            {
              "internalType": "address",
              "name": "account",
              "type": "address"
            },
            {
              "internalType": "bytes32",
              "name": "neededRole",
              "type": "bytes32"
            }
          ],
          "name": "AccessControlUnauthorizedAccount",
          "type": "error"
        },
        {
          "inputs": [
            {
              "internalType": "address",
              "name": "target",
              "type": "address"
            }
          ],
          "name": "AddressEmptyCode",
          "type": "error"
        },
        {
          "inputs": [],
          "name": "AlreadyAnalyzed",
          "type": "error"
        },
        {
          "inputs": [
            {
              "internalType": "address",
              "name": "implementation",
              "type": "address"
            }
          ],
          "name": "ERC1967InvalidImplementation",
          "type": "error"
        },
        {
          "inputs": [],
          "name": "ERC1967NonPayable",
          "type": "error"
        },
        {
          "inputs": [],
          "name": "FailedInnerCall",
          "type": "error"
        },
        {
          "inputs": [],
          "name": "GasTooHigh",
          "type": "error"
        },
        {
          "inputs": [
            {
              "internalType": "bytes32",
              "name": "depositDataHash",
              "type": "bytes32"
            },
            {
              "internalType": "bytes32",
              "name": "calculatedHash",
              "type": "bytes32"
            }
          ],
          "name": "InvalidDepositHash",
          "type": "error"
        },
        {
          "inputs": [
            {
              "internalType": "bytes32",
              "name": "depositRoot",
              "type": "bytes32"
            }
          ],
          "name": "InvalidDepositRoot",
          "type": "error"
        },
        {
          "inputs": [],
          "name": "InvalidInitialization",
          "type": "error"
        },
        {
          "inputs": [],
          "name": "InvalidProof",
          "type": "error"
        },
        {
          "inputs": [],
          "name": "InvalidTokenIndex",
          "type": "error"
        },
        {
          "inputs": [],
          "name": "MerkleTreeFull",
          "type": "error"
        },
        {
          "inputs": [],
          "name": "NotInitializing",
          "type": "error"
        },
        {
          "inputs": [],
          "name": "OnlySenderCanCancelDeposit",
          "type": "error"
        },
        {
          "inputs": [],
          "name": "RecipientSaltHashAlreadyUsed",
          "type": "error"
        },
        {
          "inputs": [
            {
              "internalType": "uint256",
              "name": "upToDepositId",
              "type": "uint256"
            },
            {
              "internalType": "uint256",
              "name": "firstDepositId",
              "type": "uint256"
            },
            {
              "internalType": "uint256",
              "name": "lastDepositId",
              "type": "uint256"
            }
          ],
          "name": "TriedAnalyzeOutOfRange",
          "type": "error"
        },
        {
          "inputs": [],
          "name": "TriedToDepositZero",
          "type": "error"
        },
        {
          "inputs": [
            {
              "internalType": "uint256",
              "name": "rejectIndex",
              "type": "uint256"
            },
            {
              "internalType": "uint256",
              "name": "front",
              "type": "uint256"
            },
            {
              "internalType": "uint256",
              "name": "upToDepositId",
              "type": "uint256"
            }
          ],
          "name": "TriedToRejectOutOfRange",
          "type": "error"
        },
        {
          "inputs": [],
          "name": "UUPSUnauthorizedCallContext",
          "type": "error"
        },
        {
          "inputs": [
            {
              "internalType": "bytes32",
              "name": "slot",
              "type": "bytes32"
            }
          ],
          "name": "UUPSUnsupportedProxiableUUID",
          "type": "error"
        },
        {
          "inputs": [
            {
              "internalType": "bytes32",
              "name": "nullifier",
              "type": "bytes32"
            }
          ],
          "name": "UsedNullifier",
          "type": "error"
        },
        {
          "anonymous": false,
          "inputs": [
            {
              "indexed": true,
              "internalType": "uint256",
              "name": "depositId",
              "type": "uint256"
            }
          ],
          "name": "DepositCanceled",
          "type": "event"
        },
        {
          "anonymous": false,
          "inputs": [
            {
              "indexed": true,
              "internalType": "uint32",
              "name": "depositIndex",
              "type": "uint32"
            },
            {
              "indexed": true,
              "internalType": "bytes32",
              "name": "depositHash",
              "type": "bytes32"
            }
          ],
          "name": "DepositLeafInserted",
          "type": "event"
        },
        {
          "anonymous": false,
          "inputs": [
            {
              "indexed": true,
              "internalType": "uint256",
              "name": "depositId",
              "type": "uint256"
            },
            {
              "indexed": true,
              "internalType": "address",
              "name": "sender",
              "type": "address"
            },
            {
              "indexed": true,
              "internalType": "bytes32",
              "name": "recipientSaltHash",
              "type": "bytes32"
            },
            {
              "indexed": false,
              "internalType": "uint32",
              "name": "tokenIndex",
              "type": "uint32"
            },
            {
              "indexed": false,
              "internalType": "uint256",
              "name": "amount",
              "type": "uint256"
            },
            {
              "indexed": false,
              "internalType": "uint256",
              "name": "depositedAt",
              "type": "uint256"
            }
          ],
          "name": "Deposited",
          "type": "event"
        },
        {
          "anonymous": false,
          "inputs": [
            {
              "indexed": true,
              "internalType": "uint256",
              "name": "upToDepositId",
              "type": "uint256"
            },
            {
              "indexed": false,
              "internalType": "uint256[]",
              "name": "rejectedIndices",
              "type": "uint256[]"
            },
            {
              "indexed": false,
              "internalType": "bytes32[]",
              "name": "depositHashes",
              "type": "bytes32[]"
            }
          ],
          "name": "DepositsAnalyzedAndProcessed",
          "type": "event"
        },
        {
          "anonymous": false,
          "inputs": [
            {
              "indexed": false,
              "internalType": "uint64",
              "name": "version",
              "type": "uint64"
            }
          ],
          "name": "Initialized",
          "type": "event"
        },
        {
          "anonymous": false,
          "inputs": [
            {
              "indexed": true,
              "internalType": "bytes32",
              "name": "role",
              "type": "bytes32"
            },
            {
              "indexed": true,
              "internalType": "bytes32",
              "name": "previousAdminRole",
              "type": "bytes32"
            },
            {
              "indexed": true,
              "internalType": "bytes32",
              "name": "newAdminRole",
              "type": "bytes32"
            }
          ],
          "name": "RoleAdminChanged",
          "type": "event"
        },
        {
          "anonymous": false,
          "inputs": [
            {
              "indexed": true,
              "internalType": "bytes32",
              "name": "role",
              "type": "bytes32"
            },
            {
              "indexed": true,
              "internalType": "address",
              "name": "account",
              "type": "address"
            },
            {
              "indexed": true,
              "internalType": "address",
              "name": "sender",
              "type": "address"
            }
          ],
          "name": "RoleGranted",
          "type": "event"
        },
        {
          "anonymous": false,
          "inputs": [
            {
              "indexed": true,
              "internalType": "bytes32",
              "name": "role",
              "type": "bytes32"
            },
            {
              "indexed": true,
              "internalType": "address",
              "name": "account",
              "type": "address"
            },
            {
              "indexed": true,
              "internalType": "address",
              "name": "sender",
              "type": "address"
            }
          ],
          "name": "RoleRevoked",
          "type": "event"
        },
        {
          "anonymous": false,
          "inputs": [
            {
              "indexed": true,
              "internalType": "address",
              "name": "implementation",
              "type": "address"
            }
          ],
          "name": "Upgraded",
          "type": "event"
        },
        {
          "anonymous": false,
          "inputs": [
            {
              "indexed": true,
              "internalType": "address",
              "name": "recipient",
              "type": "address"
            },
            {
              "indexed": true,
              "internalType": "bytes32",
              "name": "nullifier",
              "type": "bytes32"
            },
            {
              "indexed": false,
              "internalType": "uint32",
              "name": "tokenIndex",
              "type": "uint32"
            },
            {
              "indexed": false,
              "internalType": "uint256",
              "name": "amount",
              "type": "uint256"
            }
          ],
          "name": "Withdrawn",
          "type": "event"
        },
        {
          "inputs": [],
          "name": "ANALYZER",
          "outputs": [
            {
              "internalType": "bytes32",
              "name": "",
              "type": "bytes32"
            }
          ],
          "stateMutability": "view",
          "type": "function"
        },
        {
          "inputs": [],
          "name": "DEFAULT_ADMIN_ROLE",
          "outputs": [
            {
              "internalType": "bytes32",
              "name": "",
              "type": "bytes32"
            }
          ],
          "stateMutability": "view",
          "type": "function"
        },
        {
          "inputs": [],
          "name": "TX_BASE_GAS",
          "outputs": [
            {
              "internalType": "uint256",
              "name": "",
              "type": "uint256"
            }
          ],
          "stateMutability": "view",
          "type": "function"
        },
        {
          "inputs": [],
          "name": "TX_TRANSFER_GAS",
          "outputs": [
            {
              "internalType": "uint256",
              "name": "",
              "type": "uint256"
            }
          ],
          "stateMutability": "view",
          "type": "function"
        },
        {
          "inputs": [],
          "name": "UPGRADE_INTERFACE_VERSION",
          "outputs": [
            {
              "internalType": "string",
              "name": "",
              "type": "string"
            }
          ],
          "stateMutability": "view",
          "type": "function"
        },
        {
          "inputs": [],
          "name": "WITHDRAWER",
          "outputs": [
            {
              "internalType": "bytes32",
              "name": "",
              "type": "bytes32"
            }
          ],
          "stateMutability": "view",
          "type": "function"
        },
        {
          "inputs": [
            {
              "internalType": "uint256",
              "name": "upToDepositId",
              "type": "uint256"
            },
            {
              "internalType": "uint256[]",
              "name": "rejectDepositIds",
              "type": "uint256[]"
            }
          ],
          "name": "analyzeAndProcessDeposits",
          "outputs": [],
          "stateMutability": "nonpayable",
          "type": "function"
        },
        {
          "inputs": [
            {
              "internalType": "uint256",
              "name": "depositId",
              "type": "uint256"
            },
            {
              "components": [
                {
                  "internalType": "bytes32",
                  "name": "recipientSaltHash",
                  "type": "bytes32"
                },
                {
                  "internalType": "uint32",
                  "name": "tokenIndex",
                  "type": "uint32"
                },
                {
                  "internalType": "uint256",
                  "name": "amount",
                  "type": "uint256"
                }
              ],
              "internalType": "struct DepositLib.Deposit",
              "name": "deposit",
              "type": "tuple"
            }
          ],
          "name": "cancelDeposit",
          "outputs": [],
          "stateMutability": "nonpayable",
          "type": "function"
        },
        {
          "inputs": [],
          "name": "depositIndex",
          "outputs": [
            {
              "internalType": "uint32",
              "name": "",
              "type": "uint32"
            }
          ],
          "stateMutability": "view",
          "type": "function"
        },
        {
          "inputs": [
            {
              "internalType": "bytes32",
              "name": "recipientSaltHash",
              "type": "bytes32"
            }
          ],
          "name": "depositNativeToken",
          "outputs": [],
          "stateMutability": "payable",
          "type": "function"
        },
        {
          "inputs": [
            {
              "internalType": "bytes32",
              "name": "",
              "type": "bytes32"
            }
          ],
          "name": "depositRoots",
          "outputs": [
            {
              "internalType": "uint256",
              "name": "",
              "type": "uint256"
            }
          ],
          "stateMutability": "view",
          "type": "function"
        },
        {
          "inputs": [
            {
              "internalType": "uint256",
              "name": "depositId",
              "type": "uint256"
            }
          ],
          "name": "getDepositData",
          "outputs": [
            {
              "components": [
                {
                  "internalType": "bytes32",
                  "name": "depositHash",
                  "type": "bytes32"
                },
                {
                  "internalType": "address",
                  "name": "sender",
                  "type": "address"
                },
                {
                  "internalType": "bool",
                  "name": "isRejected",
                  "type": "bool"
                }
              ],
              "internalType": "struct DepositQueueLibV2.DepositData",
              "name": "",
              "type": "tuple"
            }
          ],
          "stateMutability": "view",
          "type": "function"
        },
        {
          "inputs": [
            {
              "internalType": "uint256[]",
              "name": "depositIds",
              "type": "uint256[]"
            }
          ],
          "name": "getDepositDataBatch",
          "outputs": [
            {
              "components": [
                {
                  "internalType": "bytes32",
                  "name": "depositHash",
                  "type": "bytes32"
                },
                {
                  "internalType": "address",
                  "name": "sender",
                  "type": "address"
                },
                {
                  "internalType": "bool",
                  "name": "isRejected",
                  "type": "bool"
                }
              ],
              "internalType": "struct DepositQueueLibV2.DepositData[]",
              "name": "",
              "type": "tuple[]"
            }
          ],
          "stateMutability": "view",
          "type": "function"
        },
        {
          "inputs": [],
          "name": "getDepositRoot",
          "outputs": [
            {
              "internalType": "bytes32",
              "name": "",
              "type": "bytes32"
            }
          ],
          "stateMutability": "view",
          "type": "function"
        },
        {
          "inputs": [],
          "name": "getLastDepositId",
          "outputs": [
            {
              "internalType": "uint256",
              "name": "",
              "type": "uint256"
            }
          ],
          "stateMutability": "view",
          "type": "function"
        },
        {
          "inputs": [],
          "name": "getLastProcessedDepositId",
          "outputs": [
            {
              "internalType": "uint256",
              "name": "",
              "type": "uint256"
            }
          ],
          "stateMutability": "view",
          "type": "function"
        },
        {
          "inputs": [
            {
              "internalType": "bytes32",
              "name": "role",
              "type": "bytes32"
            }
          ],
          "name": "getRoleAdmin",
          "outputs": [
            {
              "internalType": "bytes32",
              "name": "",
              "type": "bytes32"
            }
          ],
          "stateMutability": "view",
          "type": "function"
        },
        {
          "inputs": [
            {
              "internalType": "bytes32",
              "name": "role",
              "type": "bytes32"
            },
            {
              "internalType": "address",
              "name": "account",
              "type": "address"
            }
          ],
          "name": "grantRole",
          "outputs": [],
          "stateMutability": "nonpayable",
          "type": "function"
        },
        {
          "inputs": [
            {
              "internalType": "bytes32",
              "name": "role",
              "type": "bytes32"
            },
            {
              "internalType": "address",
              "name": "account",
              "type": "address"
            }
          ],
          "name": "hasRole",
          "outputs": [
            {
              "internalType": "bool",
              "name": "",
              "type": "bool"
            }
          ],
          "stateMutability": "view",
          "type": "function"
        },
        {
          "inputs": [
            {
              "internalType": "address",
              "name": "withdrawalVerifier_",
              "type": "address"
            },
            {
              "internalType": "address",
              "name": "admin_",
              "type": "address"
            }
          ],
          "name": "initialize",
          "outputs": [],
          "stateMutability": "nonpayable",
          "type": "function"
        },
        {
          "inputs": [
            {
              "internalType": "bytes32",
              "name": "",
              "type": "bytes32"
            }
          ],
          "name": "nullifiers",
          "outputs": [
            {
              "internalType": "uint256",
              "name": "",
              "type": "uint256"
            }
          ],
          "stateMutability": "view",
          "type": "function"
        },
        {
          "inputs": [],
          "name": "proxiableUUID",
          "outputs": [
            {
              "internalType": "bytes32",
              "name": "",
              "type": "bytes32"
            }
          ],
          "stateMutability": "view",
          "type": "function"
        },
        {
          "inputs": [
            {
              "internalType": "bytes32",
              "name": "role",
              "type": "bytes32"
            },
            {
              "internalType": "address",
              "name": "callerConfirmation",
              "type": "address"
            }
          ],
          "name": "renounceRole",
          "outputs": [],
          "stateMutability": "nonpayable",
          "type": "function"
        },
        {
          "inputs": [
            {
              "internalType": "bytes32",
              "name": "role",
              "type": "bytes32"
            },
            {
              "internalType": "address",
              "name": "account",
              "type": "address"
            }
          ],
          "name": "revokeRole",
          "outputs": [],
          "stateMutability": "nonpayable",
          "type": "function"
        },
        {
          "inputs": [
            {
              "internalType": "address",
              "name": "verifier_",
              "type": "address"
            }
          ],
          "name": "setVerifier",
          "outputs": [],
          "stateMutability": "nonpayable",
          "type": "function"
        },
        {
          "inputs": [
            {
              "internalType": "bytes4",
              "name": "interfaceId",
              "type": "bytes4"
            }
          ],
          "name": "supportsInterface",
          "outputs": [
            {
              "internalType": "bool",
              "name": "",
              "type": "bool"
            }
          ],
          "stateMutability": "view",
          "type": "function"
        },
        {
          "inputs": [
            {
              "internalType": "address",
              "name": "newImplementation",
              "type": "address"
            },
            {
              "internalType": "bytes",
              "name": "data",
              "type": "bytes"
            }
          ],
          "name": "upgradeToAndCall",
          "outputs": [],
          "stateMutability": "payable",
          "type": "function"
        },
        {
          "inputs": [
            {
              "components": [
                {
                  "internalType": "bytes32",
                  "name": "depositRoot",
                  "type": "bytes32"
                },
                {
                  "internalType": "bytes32",
                  "name": "nullifier",
                  "type": "bytes32"
                },
                {
                  "internalType": "address",
                  "name": "recipient",
                  "type": "address"
                },
                {
                  "internalType": "uint32",
                  "name": "tokenIndex",
                  "type": "uint32"
                },
                {
                  "internalType": "uint256",
                  "name": "amount",
                  "type": "uint256"
                }
              ],
              "internalType": "struct IInt1.WithdrawalPublicInputs",
              "name": "pis",
              "type": "tuple"
            },
            {
              "internalType": "bytes",
              "name": "proof",
              "type": "bytes"
            }
          ],
          "name": "verifyProof",
          "outputs": [
            {
              "internalType": "bool",
              "name": "",
              "type": "bool"
            }
          ],
          "stateMutability": "view",
          "type": "function"
        },
        {
          "inputs": [
            {
              "components": [
                {
                  "internalType": "bytes32",
                  "name": "depositRoot",
                  "type": "bytes32"
                },
                {
                  "internalType": "bytes32",
                  "name": "nullifier",
                  "type": "bytes32"
                },
                {
                  "internalType": "address",
                  "name": "recipient",
                  "type": "address"
                },
                {
                  "internalType": "uint32",
                  "name": "tokenIndex",
                  "type": "uint32"
                },
                {
                  "internalType": "uint256",
                  "name": "amount",
                  "type": "uint256"
                }
              ],
              "internalType": "struct IInt1.WithdrawalPublicInputs",
              "name": "publicInputs",
              "type": "tuple"
            },
            {
              "internalType": "bytes",
              "name": "proof",
              "type": "bytes"
            }
          ],
          "name": "withdraw",
          "outputs": [],
          "stateMutability": "payable",
          "type": "function"
        },
        {
          "inputs": [],
          "name": "withdrawalVerifier",
          "outputs": [
            {
              "internalType": "contract IPlonkVerifier",
              "name": "",
              "type": "address"
            }
          ],
          "stateMutability": "view",
          "type": "function"
        }
      ],
      "evm": {
        "bytecode": {
          "linkReferences": {},
          "object": "60a06040523073ffffffffffffffffffffffffffffffffffffffff1660809073ffffffffffffffffffffffffffffffffffffffff16815250348015604257600080fd5b506080516143e961006c60003960008181612081015281816120d6015261229701526143e96000f3fe6080604052600436106101cd5760003560e01c806366941984116100f7578063c13819b611610095578063defe4d5b11610064578063defe4d5b14610672578063e09dfaa21461069b578063eff97cd2146106d8578063ffd5533214610715576101cd565b8063c13819b6146105b6578063d547741f146105f3578063dd4d4e891461061c578063dd9ea29914610647576101cd565b806391d14854116100d157806391d14854146104f85780639a33390614610535578063a217fddf14610560578063ad3cb1cc1461058b576101cd565b806366941984146104795780636ef5475b146104a45780637b898939146104cd576101cd565b80633310ea4f1161016f578063485cc9551161013e578063485cc955146103e05780634f1ef2861461040957806352d1902d146104255780635437988d14610450576101cd565b80633310ea4f1461034557806336568abe1461036157806337f9fe261461038a5780633ae05047146103b5576101cd565b8063248a9ca3116101ab578063248a9ca3146102775780632997e86b146102b45780632f2ff15d146102f15780632f7d39221461031a576101cd565b806301ffc9a7146101d25780630c0b59b91461020f578063232c1c8a1461023a575b600080fd5b3480156101de57600080fd5b506101f960048036038101906101f49190612f40565b610731565b6040516102069190612f88565b60405180910390f35b34801561021b57600080fd5b506102246107ab565b6040516102319190612fbc565b60405180910390f35b34801561024657600080fd5b50610261600480360381019061025c9190613166565b6107cf565b60405161026e91906132ff565b60405180910390f35b34801561028357600080fd5b5061029e6004803603810190610299919061334d565b610930565b6040516102ab9190612fbc565b60405180910390f35b3480156102c057600080fd5b506102db60048036038101906102d6919061334d565b61095e565b6040516102e89190613389565b60405180910390f35b3480156102fd57600080fd5b50610318600480360381019061031391906133d0565b610976565b005b34801561032657600080fd5b5061032f610998565b60405161033c9190613389565b60405180910390f35b61035f600480360381019061035a9190613538565b61099e565b005b34801561036d57600080fd5b50610388600480360381019061038391906133d0565b610d3f565b005b34801561039657600080fd5b5061039f610dba565b6040516103ac91906135f7565b60405180910390f35b3480156103c157600080fd5b506103ca610dde565b6040516103d79190612fbc565b60405180910390f35b3480156103ec57600080fd5b5061040760048036038101906104029190613612565b610e53565b005b610423600480360381019061041e9190613707565b6110c1565b005b34801561043157600080fd5b5061043a6110e0565b6040516104479190612fbc565b60405180910390f35b34801561045c57600080fd5b5061047760048036038101906104729190613763565b611113565b005b34801561048557600080fd5b5061048e611164565b60405161049b9190612fbc565b60405180910390f35b3480156104b057600080fd5b506104cb60048036038101906104c691906137b4565b611188565b005b3480156104d957600080fd5b506104e26114f0565b6040516104ef9190613803565b60405180910390f35b34801561050457600080fd5b5061051f600480360381019061051a91906133d0565b611506565b60405161052c9190612f88565b60405180910390f35b34801561054157600080fd5b5061054a61157f565b6040516105579190613389565b60405180910390f35b34801561056c57600080fd5b50610575611585565b6040516105829190612fbc565b60405180910390f35b34801561059757600080fd5b506105a061158c565b6040516105ad919061389d565b60405180910390f35b3480156105c257600080fd5b506105dd60048036038101906105d891906138bf565b6115c5565b6040516105ea919061392e565b60405180910390f35b3480156105ff57600080fd5b5061061a600480360381019061061591906133d0565b61167f565b005b34801561062857600080fd5b506106316116a1565b60405161063e9190613389565b60405180910390f35b34801561065357600080fd5b5061065c6116ba565b6040516106699190613389565b60405180910390f35b34801561067e57600080fd5b5061069960048036038101906106949190613949565b6116d3565b005b3480156106a757600080fd5b506106c260048036038101906106bd919061334d565b6118cb565b6040516106cf9190613389565b60405180910390f35b3480156106e457600080fd5b506106ff60048036038101906106fa9190613538565b6118e3565b60405161070c9190612f88565b60405180910390f35b61072f600480360381019061072a919061334d565b6119db565b005b60007f7965db0b000000000000000000000000000000000000000000000000000000007bffffffffffffffffffffffffffffffffffffffffffffffffffffffff1916827bffffffffffffffffffffffffffffffffffffffffffffffffffffffff191614806107a457506107a382611b4b565b5b9050919050565b7fe5002bd16ffc71462a6c1c19eaf55e254c97864c770378b6f68c1a085231514a81565b60606000825167ffffffffffffffff8111156107ee576107ed612fed565b5b60405190808252806020026020018201604052801561082757816020015b610814612e98565b81526020019060019003908161080c5790505b50905060005b835181101561092657602360000184828151811061084e5761084d6139a5565b5b602002602001015181548110610867576108666139a5565b5b9060005260206000209060020201604051806060016040529081600082015481526020016001820160009054906101000a900473ffffffffffffffffffffffffffffffffffffffff1673ffffffffffffffffffffffffffffffffffffffff1673ffffffffffffffffffffffffffffffffffffffff1681526020016001820160149054906101000a900460ff16151515158152505082828151811061090e5761090d6139a5565b5b6020026020010181905250808060010191505061082d565b5080915050919050565b60008061093b611bb5565b905080600001600084815260200190815260200160002060010154915050919050565b60276020528060005260406000206000915090505481565b61097f82610930565b61098881611bdd565b6109928383611bf1565b50505050565b61520881565b60005a9050600060266000866000015181526020019081526020016000205403610a035783600001516040517f1497ae930000000000000000000000000000000000000000000000000000000081526004016109fa9190612fbc565b60405180910390fd5b600060276000866020015181526020019081526020016000205414610a635783602001516040517f3d39a253000000000000000000000000000000000000000000000000000000008152600401610a5a9190612fbc565b60405180910390fd5b610a6e8484846118e3565b610aa4576040517f09bde33900000000000000000000000000000000000000000000000000000000815260040160405180910390fd5b6000846060015163ffffffff1614610ae8576040517f609f982f00000000000000000000000000000000000000000000000000000000815260040160405180910390fd5b426027600086602001518152602001908152602001600020819055508360200151846040015173ffffffffffffffffffffffffffffffffffffffff167f38cde577523eac700ac823c90961f96de39cbc1d0b288ca592f5e9c7b67d7d7386606001518760800151604051610b5d9291906139d4565b60405180910390a3610b967f779b9d7b1cefd23059ce3e2b194efb3183a6685dd830e8cbb723b0cbeb982b28610b91611cf2565b611506565b15610cde5760003a5a836108fc6002610baf9190613a2c565b615208610bbc9190613a6e565b610bc69190613a6e565b610bd09190613aa2565b610bda9190613a2c565b9050348560800151610bec9190613a6e565b811115610c25576040517fb257743000000000000000000000000000000000000000000000000000000000815260040160405180910390fd5b846040015173ffffffffffffffffffffffffffffffffffffffff166108fc82348860800151610c549190613a6e565b610c5e9190613aa2565b9081150290604051600060405180830381858888f19350505050158015610c89573d6000803e3d6000fd5b50610c92611cf2565b73ffffffffffffffffffffffffffffffffffffffff166108fc829081150290604051600060405180830381858888f19350505050158015610cd7573d6000803e3d6000fd5b5050610d39565b836040015173ffffffffffffffffffffffffffffffffffffffff166108fc348660800151610d0c9190613a6e565b9081150290604051600060405180830381858888f19350505050158015610d37573d6000803e3d6000fd5b505b50505050565b610d47611cf2565b73ffffffffffffffffffffffffffffffffffffffff168173ffffffffffffffffffffffffffffffffffffffff1614610dab576040517f6697b23200000000000000000000000000000000000000000000000000000000815260040160405180910390fd5b610db58282611cfa565b505050565b60008054906101000a900473ffffffffffffffffffffffffffffffffffffffff1681565b6000610e4e600160405180606001604052908160008201602080602002604051908101604052809291908260208015610e2c576020028201915b815481526020019060010190808311610e18575b5050505050815260200160208201548152602001602182015481525050611dfc565b905090565b6000610e5d611eec565b905060008160000160089054906101000a900460ff1615905060008260000160009054906101000a900467ffffffffffffffff1690506000808267ffffffffffffffff16148015610eab5750825b9050600060018367ffffffffffffffff16148015610ee0575060003073ffffffffffffffffffffffffffffffffffffffff163b145b905081158015610eee575080155b15610f25576040517ff92ee8a900000000000000000000000000000000000000000000000000000000815260040160405180910390fd5b60018560000160006101000a81548167ffffffffffffffff021916908367ffffffffffffffff1602179055508315610f755760018560000160086101000a81548160ff0219169083151502179055505b866000806101000a81548173ffffffffffffffffffffffffffffffffffffffff021916908373ffffffffffffffffffffffffffffffffffffffff160217905550610fbf6001611f14565b610fc96023611f90565b426026600061103c60016040518060600160405290816000820160208060200260405190810160405280929190826020801561101a576020028201915b815481526020019060010190808311611006575b5050505050815260200160208201548152602001602182015481525050611dfc565b81526020019081526020016000208190555061105b6000801b87611bf1565b5083156110b85760008560000160086101000a81548160ff0219169083151502179055507fc7f505b2f371ae2175ee4913f4499e1f2633a7b5936321eed1cdaeb6115181d260016040516110af9190613b25565b60405180910390a15b50505050505050565b6110c961207f565b6110d282612165565b6110dc8282612176565b5050565b60006110ea612295565b7f360894a13ba1a3210667c828492db98dca3e2076cc3735a920a3ca505d382bbc60001b905090565b6000801b61112081611bdd565b816000806101000a81548173ffffffffffffffffffffffffffffffffffffffff021916908373ffffffffffffffffffffffffffffffffffffffff1602179055505050565b7f779b9d7b1cefd23059ce3e2b194efb3183a6685dd830e8cbb723b0cbeb982b2881565b818180360381019061119a9190613ba4565b6000602360000183815481106111b3576111b26139a5565b5b9060005260206000209060020201604051806060016040529081600082015481526020016001820160009054906101000a900473ffffffffffffffffffffffffffffffffffffffff1673ffffffffffffffffffffffffffffffffffffffff1673ffffffffffffffffffffffffffffffffffffffff1681526020016001820160149054906101000a900460ff1615151515815250509050611251611cf2565b73ffffffffffffffffffffffffffffffffffffffff16816020015173ffffffffffffffffffffffffffffffffffffffff16146112b9576040517f8b2ea0f800000000000000000000000000000000000000000000000000000000815260040160405180910390fd5b60006112c48361231c565b905080826000015114611314578160000151816040517f7be225b600000000000000000000000000000000000000000000000000000000815260040161130b929190613bd1565b60405180910390fd5b61131c6116a1565b841161136557600015158260400151151503611364576040517f643710d400000000000000000000000000000000000000000000000000000000815260040160405180910390fd5b5b600061137b87602361235c90919063ffffffff16565b9050611385611cf2565b73ffffffffffffffffffffffffffffffffffffffff16816020015173ffffffffffffffffffffffffffffffffffffffff16146113ed576040517f8b2ea0f800000000000000000000000000000000000000000000000000000000815260040160405180910390fd5b611406868036038101906114019190613ba4565b61231c565b81600001511461146b57806000015161142e878036038101906114299190613ba4565b61231c565b6040517f7be225b6000000000000000000000000000000000000000000000000000000008152600401611462929190613bd1565b60405180910390fd5b806020015173ffffffffffffffffffffffffffffffffffffffff166108fc87604001359081150290604051600060405180830381858888f193505050501580156114b9573d6000803e3d6000fd5b50867f0c1c0787650562778c282502dfd6dcea2fb79d23783920aa18aee36b4aa3dc4860405160405180910390a250505050505050565b600060149054906101000a900463ffffffff1681565b600080611511611bb5565b905080600001600085815260200190815260200160002060000160008473ffffffffffffffffffffffffffffffffffffffff1673ffffffffffffffffffffffffffffffffffffffff16815260200190815260200160002060009054906101000a900460ff1691505092915050565b6108fc81565b6000801b81565b6040518060400160405280600581526020017f352e302e3000000000000000000000000000000000000000000000000000000081525081565b6115cd612e98565b602360000182815481106115e4576115e36139a5565b5b9060005260206000209060020201604051806060016040529081600082015481526020016001820160009054906101000a900473ffffffffffffffffffffffffffffffffffffffff1673ffffffffffffffffffffffffffffffffffffffff1673ffffffffffffffffffffffffffffffffffffffff1681526020016001820160149054906101000a900460ff1615151515815250509050919050565b61168882610930565b61169181611bdd565b61169b8383611cfa565b50505050565b600060016023600101546116b59190613aa2565b905090565b600060016023600201546116ce9190613aa2565b905090565b7fe5002bd16ffc71462a6c1c19eaf55e254c97864c770378b6f68c1a085231514a6116fd81611bdd565b6000611715848460236124809092919063ffffffff16565b905060005b81518110156117ff57611751828281518110611739576117386139a5565b5b6020026020010151600161284f90919063ffffffff16565b818181518110611764576117636139a5565b5b6020026020010151600060149054906101000a900463ffffffff1663ffffffff167f529a1f0fdd7142aabe2b12dd8590a30a26c8427b5200ad8c775a5b4aa03fb41d60405160405180910390a36000601481819054906101000a900463ffffffff16809291906117d390613bfa565b91906101000a81548163ffffffff021916908363ffffffff16021790555050808060010191505061171a565b50600061187060016040518060600160405290816000820160208060200260405190810160405280929190826020801561184e576020028201915b81548152602001906001019080831161183a575b5050505050815260200160208201548152602001602182015481525050611dfc565b9050426026600083815260200190815260200160002081905550847ff18887951e0128c56f80fe285e446cc180799fea48be52617a5b00d742ccd7cc85846040516118bc929190613d93565b60405180910390a25050505050565b60266020528060005260406000206000915090505481565b60008084600001518560200151866040015187606001518860800151604051602001611913959493929190613e8a565b60405160208183030381529060405280519060200120905060008054906101000a900473ffffffffffffffffffffffffffffffffffffffff1673ffffffffffffffffffffffffffffffffffffffff16637e4f7a8a858561197285612968565b6040518463ffffffff1660e01b815260040161199093929190613f27565b602060405180830381865afa1580156119ad573d6000803e3d6000fd5b505050506040513d601f19601f820116820180604052508101906119d19190613f8c565b9150509392505050565b806028600082815260200190815260200160002060009054906101000a900460ff1615611a34576040517f1e5bb9fc00000000000000000000000000000000000000000000000000000000815260040160405180910390fd5b60003403611a6e576040517f94fe88d900000000000000000000000000000000000000000000000000000000815260040160405180910390fd5b60016028600084815260200190815260200160002060006101000a81548160ff0219169083151502179055506000611ac66040518060600160405280858152602001600063ffffffff1681526020013481525061231c565b90506000611ae782611ad6611cf2565b6023612a139092919063ffffffff16565b905083611af2611cf2565b73ffffffffffffffffffffffffffffffffffffffff16827f1e88950eef3c1bd8dd83d765aec1f21f34ca153104f0acd7a6218bf8f48e841060003442604051611b3d93929190613ff4565b60405180910390a450505050565b60007f01ffc9a7000000000000000000000000000000000000000000000000000000007bffffffffffffffffffffffffffffffffffffffffffffffffffffffff1916827bffffffffffffffffffffffffffffffffffffffffffffffffffffffff1916149050919050565b60007f02dd7bc7dec4dceedda775e58dd541e08a116c6c53815c0bd028192f7b626800905090565b611bee81611be9611cf2565b612b11565b50565b600080611bfc611bb5565b9050611c088484611506565b611ce657600181600001600086815260200190815260200160002060000160008573ffffffffffffffffffffffffffffffffffffffff1673ffffffffffffffffffffffffffffffffffffffff16815260200190815260200160002060006101000a81548160ff021916908315150217905550611c82611cf2565b73ffffffffffffffffffffffffffffffffffffffff168373ffffffffffffffffffffffffffffffffffffffff16857f2f8788117e7eff1d82e926ec794901d17c78024a50270940304540a733656f0d60405160405180910390a46001915050611cec565b60009150505b92915050565b600033905090565b600080611d05611bb5565b9050611d118484611506565b15611df057600081600001600086815260200190815260200160002060000160008573ffffffffffffffffffffffffffffffffffffffff1673ffffffffffffffffffffffffffffffffffffffff16815260200190815260200160002060006101000a81548160ff021916908315150217905550611d8c611cf2565b73ffffffffffffffffffffffffffffffffffffffff168373ffffffffffffffffffffffffffffffffffffffff16857ff6391f5c32d9c69d2a47ea670b442974b53935d1edc7fd64eb21e047a839171b60405160405180910390a46001915050611df6565b60009150505b92915050565b6000808260400151905060008360200151905060008460400151905060005b6020811015611ee0576001808285901c1603611e7c5785600001518160208110611e4857611e476139a5565b5b602002015184604051602001611e5f92919061402b565b604051602081830303815290604052805190602001209350611ea8565b8382604051602001611e8f92919061402b565b6040516020818303038152906040528051906020012093505b8182604051602001611ebb92919061402b565b6040516020818303038152906040528051906020012091508080600101915050611e1b565b50829350505050919050565b60007ff0c57e16840df040f15088dc2f81fe391c3923bec73e23a9662efc9c229c6a00905090565b60008160200181905550611f4c60405180606001604052806000801b8152602001600063ffffffff168152602001600081525061231c565b816021018190555060005b6020811015611f8c576000801b826000018260208110611f7a57611f796139a5565b5b01819055508080600101915050611f57565b5050565b8060000160405180606001604052806000801b8152602001600073ffffffffffffffffffffffffffffffffffffffff1681526020016000151581525090806001815401808255809150506001900390600052602060002090600202016000909190919091506000820151816000015560208201518160010160006101000a81548173ffffffffffffffffffffffffffffffffffffffff021916908373ffffffffffffffffffffffffffffffffffffffff16021790555060408201518160010160146101000a81548160ff0219169083151502179055505050600181600101819055506001816002018190555050565b7f000000000000000000000000000000000000000000000000000000000000000073ffffffffffffffffffffffffffffffffffffffff163073ffffffffffffffffffffffffffffffffffffffff16148061212c57507f000000000000000000000000000000000000000000000000000000000000000073ffffffffffffffffffffffffffffffffffffffff16612113612b62565b73ffffffffffffffffffffffffffffffffffffffff1614155b15612163576040517fe07c8dba00000000000000000000000000000000000000000000000000000000815260040160405180910390fd5b565b6000801b61217281611bdd565b5050565b8173ffffffffffffffffffffffffffffffffffffffff166352d1902d6040518163ffffffff1660e01b8152600401602060405180830381865afa9250505080156121de57506040513d601f19601f820116820180604052508101906121db919061406c565b60015b61221f57816040517f4c9c8ce300000000000000000000000000000000000000000000000000000000815260040161221691906140a8565b60405180910390fd5b7f360894a13ba1a3210667c828492db98dca3e2076cc3735a920a3ca505d382bbc60001b811461228657806040517faa1d49a400000000000000000000000000000000000000000000000000000000815260040161227d9190612fbc565b60405180910390fd5b6122908383612bb9565b505050565b7f000000000000000000000000000000000000000000000000000000000000000073ffffffffffffffffffffffffffffffffffffffff163073ffffffffffffffffffffffffffffffffffffffff161461231a576040517fe07c8dba00000000000000000000000000000000000000000000000000000000815260040160405180910390fd5b565b600081600001518260200151836040015160405160200161233f939291906140c3565b604051602081830303815290604052805190602001209050919050565b612364612e98565b82600001828154811061237a576123796139a5565b5b9060005260206000209060020201604051806060016040529081600082015481526020016001820160009054906101000a900473ffffffffffffffffffffffffffffffffffffffff1673ffffffffffffffffffffffffffffffffffffffff1673ffffffffffffffffffffffffffffffffffffffff1681526020016001820160149054906101000a900460ff1615151515815250509050826000018281548110612426576124256139a5565b5b90600052602060002090600202016000808201600090556001820160006101000a81549073ffffffffffffffffffffffffffffffffffffffff02191690556001820160146101000a81549060ff0219169055505092915050565b606060008460010154905084600201548410158061249d57508084105b156124f3578381600187600201546124b59190613aa2565b6040517f3b4055360000000000000000000000000000000000000000000000000000000081526004016124ea93929190614100565b60405180910390fd5b60005b83518110156125c3576000848281518110612514576125136139a5565b5b602002602001015190508581118061252b57508281105b1561257557808760010154876040517f9e16c3b900000000000000000000000000000000000000000000000000000000815260040161256c93929190614100565b60405180910390fd5b600187600001828154811061258d5761258c6139a5565b5b906000526020600020906002020160010160146101000a81548160ff0219169083151502179055505080806001019150506124f6565b50600080866001015490505b8581116126ad57600073ffffffffffffffffffffffffffffffffffffffff16876000018281548110612604576126036139a5565b5b906000526020600020906002020160010160009054906101000a900473ffffffffffffffffffffffffffffffffffffffff1673ffffffffffffffffffffffffffffffffffffffff16031561269a57866000018181548110612668576126676139a5565b5b906000526020600020906002020160010160149054906101000a900460ff1661269a57818061269690614137565b9250505b80806126a590614137565b9150506125cf565b5060008167ffffffffffffffff8111156126ca576126c9612fed565b5b6040519080825280602002602001820160405280156126f85781602001602082028036833780820191505090505b509050600080886001015490505b87811161282b57600073ffffffffffffffffffffffffffffffffffffffff1689600001828154811061273b5761273a6139a5565b5b906000526020600020906002020160010160009054906101000a900473ffffffffffffffffffffffffffffffffffffffff1673ffffffffffffffffffffffffffffffffffffffff1603156128185788600001818154811061279f5761279e6139a5565b5b906000526020600020906002020160010160149054906101000a900460ff16612818578860000181815481106127d8576127d76139a5565b5b9060005260206000209060020201600001548383815181106127fd576127fc6139a5565b5b602002602001018181525050818061281490614137565b9250505b808061282390614137565b915050612706565b506001876128399190613a6e565b8860010181905550819450505050509392505050565b600081905060016020600261286491906142b2565b61286e9190613aa2565b8360200154106128aa576040517fef5ccf6600000000000000000000000000000000000000000000000000000000815260040160405180910390fd5b600083602001600081546128bd90614137565b919050819055905060005b6020811015612951576001808284901c160361290257828560000182602081106128f5576128f46139a5565b5b0181905550505050612964565b846000018160208110612918576129176139a5565b5b01548360405160200161292c92919061402b565b60405160208183030381529060405280519060200120925080806001019150506128c8565b506000612961576129606142fd565b5b50505b5050565b60606000600867ffffffffffffffff81111561298757612986612fed565b5b6040519080825280602002602001820160405280156129b55781602001602082028036833780820191505090505b50905060005b6008811015612a09576020816129d19190613a2c565b84901b60e01c63ffffffff168282815181106129f0576129ef6139a5565b5b60200260200101818152505080806001019150506129bb565b5080915050919050565b60008360000160405180606001604052808581526020018473ffffffffffffffffffffffffffffffffffffffff1681526020016000151581525090806001815401808255809150506001900390600052602060002090600202016000909190919091506000820151816000015560208201518160010160006101000a81548173ffffffffffffffffffffffffffffffffffffffff021916908373ffffffffffffffffffffffffffffffffffffffff16021790555060408201518160010160146101000a81548160ff021916908315150217905550505083600201549050836002016000815480929190612b0590614137565b91905055509392505050565b612b1b8282611506565b612b5e5780826040517fe2517d3f000000000000000000000000000000000000000000000000000000008152600401612b5592919061432c565b60405180910390fd5b5050565b6000612b907f360894a13ba1a3210667c828492db98dca3e2076cc3735a920a3ca505d382bbc60001b612c2c565b60000160009054906101000a900473ffffffffffffffffffffffffffffffffffffffff16905090565b612bc282612c36565b8173ffffffffffffffffffffffffffffffffffffffff167fbc7cd75a20ee27fd9adebab32041f755214dbc6bffa90cc0225b39da2e5c2d3b60405160405180910390a2600081511115612c1f57612c198282612d03565b50612c28565b612c27612d87565b5b5050565b6000819050919050565b60008173ffffffffffffffffffffffffffffffffffffffff163b03612c9257806040517f4c9c8ce3000000000000000000000000000000000000000000000000000000008152600401612c8991906140a8565b60405180910390fd5b80612cbf7f360894a13ba1a3210667c828492db98dca3e2076cc3735a920a3ca505d382bbc60001b612c2c565b60000160006101000a81548173ffffffffffffffffffffffffffffffffffffffff021916908373ffffffffffffffffffffffffffffffffffffffff16021790555050565b60606000808473ffffffffffffffffffffffffffffffffffffffff1684604051612d2d919061439c565b600060405180830381855af49150503d8060008114612d68576040519150601f19603f3d011682016040523d82523d6000602084013e612d6d565b606091505b5091509150612d7d858383612dc4565b9250505092915050565b6000341115612dc2576040517fb398979f00000000000000000000000000000000000000000000000000000000815260040160405180910390fd5b565b606082612dd957612dd482612e53565b612e4b565b60008251148015612e01575060008473ffffffffffffffffffffffffffffffffffffffff163b145b15612e4357836040517f9996b315000000000000000000000000000000000000000000000000000000008152600401612e3a91906140a8565b60405180910390fd5b819050612e4c565b5b9392505050565b600081511115612e665780518082602001fd5b6040517f1425ea4200000000000000000000000000000000000000000000000000000000815260040160405180910390fd5b604051806060016040528060008019168152602001600073ffffffffffffffffffffffffffffffffffffffff1681526020016000151581525090565b6000604051905090565b600080fd5b600080fd5b60007fffffffff0000000000000000000000000000000000000000000000000000000082169050919050565b612f1d81612ee8565b8114612f2857600080fd5b50565b600081359050612f3a81612f14565b92915050565b600060208284031215612f5657612f55612ede565b5b6000612f6484828501612f2b565b91505092915050565b60008115159050919050565b612f8281612f6d565b82525050565b6000602082019050612f9d6000830184612f79565b92915050565b6000819050919050565b612fb681612fa3565b82525050565b6000602082019050612fd16000830184612fad565b92915050565b600080fd5b6000601f19601f8301169050919050565b7f4e487b7100000000000000000000000000000000000000000000000000000000600052604160045260246000fd5b61302582612fdc565b810181811067ffffffffffffffff8211171561304457613043612fed565b5b80604052505050565b6000613057612ed4565b9050613063828261301c565b919050565b600067ffffffffffffffff82111561308357613082612fed565b5b602082029050602081019050919050565b600080fd5b6000819050919050565b6130ac81613099565b81146130b757600080fd5b50565b6000813590506130c9816130a3565b92915050565b60006130e26130dd84613068565b61304d565b9050808382526020820190506020840283018581111561310557613104613094565b5b835b8181101561312e578061311a88826130ba565b845260208401935050602081019050613107565b5050509392505050565b600082601f83011261314d5761314c612fd7565b5b813561315d8482602086016130cf565b91505092915050565b60006020828403121561317c5761317b612ede565b5b600082013567ffffffffffffffff81111561319a57613199612ee3565b5b6131a684828501613138565b91505092915050565b600081519050919050565b600082825260208201905092915050565b6000819050602082019050919050565b6131e481612fa3565b82525050565b600073ffffffffffffffffffffffffffffffffffffffff82169050919050565b6000613215826131ea565b9050919050565b6132258161320a565b82525050565b61323481612f6d565b82525050565b60608201600082015161325060008501826131db565b506020820151613263602085018261321c565b506040820151613276604085018261322b565b50505050565b6000613288838361323a565b60608301905092915050565b6000602082019050919050565b60006132ac826131af565b6132b681856131ba565b93506132c1836131cb565b8060005b838110156132f25781516132d9888261327c565b97506132e483613294565b9250506001810190506132c5565b5085935050505092915050565b6000602082019050818103600083015261331981846132a1565b905092915050565b61332a81612fa3565b811461333557600080fd5b50565b60008135905061334781613321565b92915050565b60006020828403121561336357613362612ede565b5b600061337184828501613338565b91505092915050565b61338381613099565b82525050565b600060208201905061339e600083018461337a565b92915050565b6133ad8161320a565b81146133b857600080fd5b50565b6000813590506133ca816133a4565b92915050565b600080604083850312156133e7576133e6612ede565b5b60006133f585828601613338565b9250506020613406858286016133bb565b9150509250929050565b600080fd5b600063ffffffff82169050919050565b61342e81613415565b811461343957600080fd5b50565b60008135905061344b81613425565b92915050565b600060a0828403121561346757613466613410565b5b61347160a061304d565b9050600061348184828501613338565b600083015250602061349584828501613338565b60208301525060406134a9848285016133bb565b60408301525060606134bd8482850161343c565b60608301525060806134d1848285016130ba565b60808301525092915050565b600080fd5b60008083601f8401126134f8576134f7612fd7565b5b8235905067ffffffffffffffff811115613515576135146134dd565b5b60208301915083600182028301111561353157613530613094565b5b9250929050565b600080600060c0848603121561355157613550612ede565b5b600061355f86828701613451565b93505060a084013567ffffffffffffffff8111156135805761357f612ee3565b5b61358c868287016134e2565b92509250509250925092565b6000819050919050565b60006135bd6135b86135b3846131ea565b613598565b6131ea565b9050919050565b60006135cf826135a2565b9050919050565b60006135e1826135c4565b9050919050565b6135f1816135d6565b82525050565b600060208201905061360c60008301846135e8565b92915050565b6000806040838503121561362957613628612ede565b5b6000613637858286016133bb565b9250506020613648858286016133bb565b9150509250929050565b600080fd5b600067ffffffffffffffff82111561367257613671612fed565b5b61367b82612fdc565b9050602081019050919050565b82818337600083830152505050565b60006136aa6136a584613657565b61304d565b9050828152602081018484840111156136c6576136c5613652565b5b6136d1848285613688565b509392505050565b600082601f8301126136ee576136ed612fd7565b5b81356136fe848260208601613697565b91505092915050565b6000806040838503121561371e5761371d612ede565b5b600061372c858286016133bb565b925050602083013567ffffffffffffffff81111561374d5761374c612ee3565b5b613759858286016136d9565b9150509250929050565b60006020828403121561377957613778612ede565b5b6000613787848285016133bb565b91505092915050565b600080fd5b6000606082840312156137ab576137aa613790565b5b81905092915050565b600080608083850312156137cb576137ca612ede565b5b60006137d9858286016130ba565b92505060206137ea85828601613795565b9150509250929050565b6137fd81613415565b82525050565b600060208201905061381860008301846137f4565b92915050565b600081519050919050565b600082825260208201905092915050565b60005b8381101561385857808201518184015260208101905061383d565b60008484015250505050565b600061386f8261381e565b6138798185613829565b935061388981856020860161383a565b61389281612fdc565b840191505092915050565b600060208201905081810360008301526138b78184613864565b905092915050565b6000602082840312156138d5576138d4612ede565b5b60006138e3848285016130ba565b91505092915050565b60608201600082015161390260008501826131db565b506020820151613915602085018261321c565b506040820151613928604085018261322b565b50505050565b600060608201905061394360008301846138ec565b92915050565b600080604083850312156139605761395f612ede565b5b600061396e858286016130ba565b925050602083013567ffffffffffffffff81111561398f5761398e612ee3565b5b61399b85828601613138565b9150509250929050565b7f4e487b7100000000000000000000000000000000000000000000000000000000600052603260045260246000fd5b60006040820190506139e960008301856137f4565b6139f6602083018461337a565b9392505050565b7f4e487b7100000000000000000000000000000000000000000000000000000000600052601160045260246000fd5b6000613a3782613099565b9150613a4283613099565b9250828202613a5081613099565b91508282048414831517613a6757613a666139fd565b5b5092915050565b6000613a7982613099565b9150613a8483613099565b9250828201905080821115613a9c57613a9b6139fd565b5b92915050565b6000613aad82613099565b9150613ab883613099565b9250828203905081811115613ad057613acf6139fd565b5b92915050565b6000819050919050565b600067ffffffffffffffff82169050919050565b6000613b0f613b0a613b0584613ad6565b613598565b613ae0565b9050919050565b613b1f81613af4565b82525050565b6000602082019050613b3a6000830184613b16565b92915050565b600060608284031215613b5657613b55613410565b5b613b60606061304d565b90506000613b7084828501613338565b6000830152506020613b848482850161343c565b6020830152506040613b98848285016130ba565b60408301525092915050565b600060608284031215613bba57613bb9612ede565b5b6000613bc884828501613b40565b91505092915050565b6000604082019050613be66000830185612fad565b613bf36020830184612fad565b9392505050565b6000613c0582613415565b915063ffffffff8203613c1b57613c1a6139fd565b5b600182019050919050565b600081519050919050565b600082825260208201905092915050565b6000819050602082019050919050565b613c5b81613099565b82525050565b6000613c6d8383613c52565b60208301905092915050565b6000602082019050919050565b6000613c9182613c26565b613c9b8185613c31565b9350613ca683613c42565b8060005b83811015613cd7578151613cbe8882613c61565b9750613cc983613c79565b925050600181019050613caa565b5085935050505092915050565b600081519050919050565b600082825260208201905092915050565b6000819050602082019050919050565b6000613d1c83836131db565b60208301905092915050565b6000602082019050919050565b6000613d4082613ce4565b613d4a8185613cef565b9350613d5583613d00565b8060005b83811015613d86578151613d6d8882613d10565b9750613d7883613d28565b925050600181019050613d59565b5085935050505092915050565b60006040820190508181036000830152613dad8185613c86565b90508181036020830152613dc18184613d35565b90509392505050565b6000819050919050565b613de5613de082612fa3565b613dca565b82525050565b60008160601b9050919050565b6000613e0382613deb565b9050919050565b6000613e1582613df8565b9050919050565b613e2d613e288261320a565b613e0a565b82525050565b60008160e01b9050919050565b6000613e4b82613e33565b9050919050565b613e63613e5e82613415565b613e40565b82525050565b6000819050919050565b613e84613e7f82613099565b613e69565b82525050565b6000613e968288613dd4565b602082019150613ea68287613dd4565b602082019150613eb68286613e1c565b601482019150613ec68285613e52565b600482019150613ed68284613e73565b6020820191508190509695505050505050565b600082825260208201905092915050565b6000613f068385613ee9565b9350613f13838584613688565b613f1c83612fdc565b840190509392505050565b60006040820190508181036000830152613f42818587613efa565b90508181036020830152613f568184613c86565b9050949350505050565b613f6981612f6d565b8114613f7457600080fd5b50565b600081519050613f8681613f60565b92915050565b600060208284031215613fa257613fa1612ede565b5b6000613fb084828501613f77565b91505092915050565b6000819050919050565b6000613fde613fd9613fd484613fb9565b613598565b613415565b9050919050565b613fee81613fc3565b82525050565b60006060820190506140096000830186613fe5565b614016602083018561337a565b614023604083018461337a565b949350505050565b60006140378285613dd4565b6020820191506140478284613dd4565b6020820191508190509392505050565b60008151905061406681613321565b92915050565b60006020828403121561408257614081612ede565b5b600061409084828501614057565b91505092915050565b6140a28161320a565b82525050565b60006020820190506140bd6000830184614099565b92915050565b60006140cf8286613dd4565b6020820191506140df8285613e52565b6004820191506140ef8284613e73565b602082019150819050949350505050565b6000606082019050614115600083018661337a565b614122602083018561337a565b61412f604083018461337a565b949350505050565b600061414282613099565b91507fffffffffffffffffffffffffffffffffffffffffffffffffffffffffffffffff8203614174576141736139fd565b5b600182019050919050565b60008160011c9050919050565b6000808291508390505b60018511156141d6578086048111156141b2576141b16139fd565b5b60018516156141c15780820291505b80810290506141cf8561417f565b9450614196565b94509492505050565b6000826141ef57600190506142ab565b816141fd57600090506142ab565b8160018114614213576002811461421d5761424c565b60019150506142ab565b60ff84111561422f5761422e6139fd565b5b8360020a915084821115614246576142456139fd565b5b506142ab565b5060208310610133831016604e8410600b84101617156142815782820a90508381111561427c5761427b6139fd565b5b6142ab565b61428e848484600161418c565b925090508184048111156142a5576142a46139fd565b5b81810290505b9392505050565b60006142bd82613099565b91506142c883613099565b92506142f57fffffffffffffffffffffffffffffffffffffffffffffffffffffffffffffffff84846141df565b905092915050565b7f4e487b7100000000000000000000000000000000000000000000000000000000600052600160045260246000fd5b60006040820190506143416000830185614099565b61434e6020830184612fad565b9392505050565b600081519050919050565b600081905092915050565b600061437682614355565b6143808185614360565b935061439081856020860161383a565b80840191505092915050565b60006143a8828461436b565b91508190509291505056fea26469706673582212208890472c7af3d57305ef172bebd824350682a0dc49bf9c84d73a05e4d5fe15b464736f6c634300081b0033",
          "opcodes": "PUSH1 0xA0 PUSH1 0x40 MSTORE ADDRESS PUSH20 0xFFFFFFFFFFFFFFFFFFFFFFFFFFFFFFFFFFFFFFFF AND PUSH1 0x80 SWAP1 PUSH20 0xFFFFFFFFFFFFFFFFFFFFFFFFFFFFFFFFFFFFFFFF AND DUP2 MSTORE POP CALLVALUE DUP1 ISZERO PUSH1 0x42 JUMPI PUSH1 0x0 DUP1 REVERT JUMPDEST POP PUSH1 0x80 MLOAD PUSH2 0x43E9 PUSH2 0x6C PUSH1 0x0 CODECOPY PUSH1 0x0 DUP2 DUP2 PUSH2 0x2081 ADD MSTORE DUP2 DUP2 PUSH2 0x20D6 ADD MSTORE PUSH2 0x2297 ADD MSTORE PUSH2 0x43E9 PUSH1 0x0 RETURN INVALID PUSH1 0x80 PUSH1 0x40 MSTORE PUSH1 0x4 CALLDATASIZE LT PUSH2 0x1CD JUMPI PUSH1 0x0 CALLDATALOAD PUSH1 0xE0 SHR DUP1 PUSH4 0x66941984 GT PUSH2 0xF7 JUMPI DUP1 PUSH4 0xC13819B6 GT PUSH2 0x95 JUMPI DUP1 PUSH4 0xDEFE4D5B GT PUSH2 0x64 JUMPI DUP1 PUSH4 0xDEFE4D5B EQ PUSH2 0x672 JUMPI DUP1 PUSH4 0xE09DFAA2 EQ PUSH2 0x69B JUMPI DUP1 PUSH4 0xEFF97CD2 EQ PUSH2 0x6D8 JUMPI DUP1 PUSH4 0xFFD55332 EQ PUSH2 0x715 JUMPI PUSH2 0x1CD JUMP JUMPDEST DUP1 PUSH4 0xC13819B6 EQ PUSH2 0x5B6 JUMPI DUP1 PUSH4 0xD547741F EQ PUSH2 0x5F3 JUMPI DUP1 PUSH4 0xDD4D4E89 EQ PUSH2 0x61C JUMPI DUP1 PUSH4 0xDD9EA299 EQ PUSH2 0x647 JUMPI PUSH2 0x1CD JUMP JUMPDEST DUP1 PUSH4 0x91D14854 GT PUSH2 0xD1 JUMPI DUP1 PUSH4 0x91D14854 EQ PUSH2 0x4F8 JUMPI DUP1 PUSH4 0x9A333906 EQ PUSH2 0x535 JUMPI DUP1 PUSH4 0xA217FDDF EQ PUSH2 0x560 JUMPI DUP1 PUSH4 0xAD3CB1CC EQ PUSH2 0x58B JUMPI PUSH2 0x1CD JUMP JUMPDEST DUP1 PUSH4 0x66941984 EQ PUSH2 0x479 JUMPI DUP1 PUSH4 0x6EF5475B EQ PUSH2 0x4A4 JUMPI DUP1 PUSH4 0x7B898939 EQ PUSH2 0x4CD JUMPI PUSH2 0x1CD JUMP JUMPDEST DUP1 PUSH4 0x3310EA4F GT PUSH2 0x16F JUMPI DUP1 PUSH4 0x485CC955 GT PUSH2 0x13E JUMPI DUP1 PUSH4 0x485CC955 EQ PUSH2 0x3E0 JUMPI DUP1 PUSH4 0x4F1EF286 EQ PUSH2 0x409 JUMPI DUP1 PUSH4 0x52D1902D EQ PUSH2 0x425 JUMPI DUP1 PUSH4 0x5437988D EQ PUSH2 0x450 JUMPI PUSH2 0x1CD JUMP JUMPDEST DUP1 PUSH4 0x3310EA4F EQ PUSH2 0x345 JUMPI DUP1 PUSH4 0x36568ABE EQ PUSH2 0x361 JUMPI DUP1 PUSH4 0x37F9FE26 EQ PUSH2 0x38A JUMPI DUP1 PUSH4 0x3AE05047 EQ PUSH2 0x3B5 JUMPI PUSH2 0x1CD JUMP JUMPDEST DUP1 PUSH4 0x248A9CA3 GT PUSH2 0x1AB JUMPI DUP1 PUSH4 0x248A9CA3 EQ PUSH2 0x277 JUMPI DUP1 PUSH4 0x2997E86B EQ PUSH2 0x2B4 JUMPI DUP1 PUSH4 0x2F2FF15D EQ PUSH2 0x2F1 JUMPI DUP1 PUSH4 0x2F7D3922 EQ PUSH2 0x31A JUMPI PUSH2 0x1CD JUMP JUMPDEST DUP1 PUSH4 0x1FFC9A7 EQ PUSH2 0x1D2 JUMPI DUP1 PUSH4 0xC0B59B9 EQ PUSH2 0x20F JUMPI DUP1 PUSH4 0x232C1C8A EQ PUSH2 0x23A JUMPI JUMPDEST PUSH1 0x0 DUP1 REVERT JUMPDEST CALLVALUE DUP1 ISZERO PUSH2 0x1DE JUMPI PUSH1 0x0 DUP1 REVERT JUMPDEST POP PUSH2 0x1F9 PUSH1 0x4 DUP1 CALLDATASIZE SUB DUP2 ADD SWAP1 PUSH2 0x1F4 SWAP2 SWAP1 PUSH2 0x2F40 JUMP JUMPDEST PUSH2 0x731 JUMP JUMPDEST PUSH1 0x40 MLOAD PUSH2 0x206 SWAP2 SWAP1 PUSH2 0x2F88 JUMP JUMPDEST PUSH1 0x40 MLOAD DUP1 SWAP2 SUB SWAP1 RETURN JUMPDEST CALLVALUE DUP1 ISZERO PUSH2 0x21B JUMPI PUSH1 0x0 DUP1 REVERT JUMPDEST POP PUSH2 0x224 PUSH2 0x7AB JUMP JUMPDEST PUSH1 0x40 MLOAD PUSH2 0x231 SWAP2 SWAP1 PUSH2 0x2FBC JUMP JUMPDEST PUSH1 0x40 MLOAD DUP1 SWAP2 SUB SWAP1 RETURN JUMPDEST CALLVALUE DUP1 ISZERO PUSH2 0x246 JUMPI PUSH1 0x0 DUP1 REVERT JUMPDEST POP PUSH2 0x261 PUSH1 0x4 DUP1 CALLDATASIZE SUB DUP2 ADD SWAP1 PUSH2 0x25C SWAP2 SWAP1 PUSH2 0x3166 JUMP JUMPDEST PUSH2 0x7CF JUMP JUMPDEST PUSH1 0x40 MLOAD PUSH2 0x26E SWAP2 SWAP1 PUSH2 0x32FF JUMP JUMPDEST PUSH1 0x40 MLOAD DUP1 SWAP2 SUB SWAP1 RETURN JUMPDEST CALLVALUE DUP1 ISZERO PUSH2 0x283 JUMPI PUSH1 0x0 DUP1 REVERT JUMPDEST POP PUSH2 0x29E PUSH1 0x4 DUP1 CALLDATASIZE SUB DUP2 ADD SWAP1 PUSH2 0x299 SWAP2 SWAP1 PUSH2 0x334D JUMP JUMPDEST PUSH2 0x930 JUMP JUMPDEST PUSH1 0x40 MLOAD PUSH2 0x2AB SWAP2 SWAP1 PUSH2 0x2FBC JUMP JUMPDEST PUSH1 0x40 MLOAD DUP1 SWAP2 SUB SWAP1 RETURN JUMPDEST CALLVALUE DUP1 ISZERO PUSH2 0x2C0 JUMPI PUSH1 0x0 DUP1 REVERT JUMPDEST POP PUSH2 0x2DB PUSH1 0x4 DUP1 CALLDATASIZE SUB DUP2 ADD SWAP1 PUSH2 0x2D6 SWAP2 SWAP1 PUSH2 0x334D JUMP JUMPDEST PUSH2 0x95E JUMP JUMPDEST PUSH1 0x40 MLOAD PUSH2 0x2E8 SWAP2 SWAP1 PUSH2 0x3389 JUMP JUMPDEST PUSH1 0x40 MLOAD DUP1 SWAP2 SUB SWAP1 RETURN JUMPDEST CALLVALUE DUP1 ISZERO PUSH2 0x2FD JUMPI PUSH1 0x0 DUP1 REVERT JUMPDEST POP PUSH2 0x318 PUSH1 0x4 DUP1 CALLDATASIZE SUB DUP2 ADD SWAP1 PUSH2 0x313 SWAP2 SWAP1 PUSH2 0x33D0 JUMP JUMPDEST PUSH2 0x976 JUMP JUMPDEST STOP JUMPDEST CALLVALUE DUP1 ISZERO PUSH2 0x326 JUMPI PUSH1 0x0 DUP1 REVERT JUMPDEST POP PUSH2 0x32F PUSH2 0x998 JUMP JUMPDEST PUSH1 0x40 MLOAD PUSH2 0x33C SWAP2 SWAP1 PUSH2 0x3389 JUMP JUMPDEST PUSH1 0x40 MLOAD DUP1 SWAP2 SUB SWAP1 RETURN JUMPDEST PUSH2 0x35F PUSH1 0x4 DUP1 CALLDATASIZE SUB DUP2 ADD SWAP1 PUSH2 0x35A SWAP2 SWAP1 PUSH2 0x3538 JUMP JUMPDEST PUSH2 0x99E JUMP JUMPDEST STOP JUMPDEST CALLVALUE DUP1 ISZERO PUSH2 0x36D JUMPI PUSH1 0x0 DUP1 REVERT JUMPDEST POP PUSH2 0x388 PUSH1 0x4 DUP1 CALLDATASIZE SUB DUP2 ADD SWAP1 PUSH2 0x383 SWAP2 SWAP1 PUSH2 0x33D0 JUMP JUMPDEST PUSH2 0xD3F JUMP JUMPDEST STOP JUMPDEST CALLVALUE DUP1 ISZERO PUSH2 0x396 JUMPI PUSH1 0x0 DUP1 REVERT JUMPDEST POP PUSH2 0x39F PUSH2 0xDBA JUMP JUMPDEST PUSH1 0x40 MLOAD PUSH2 0x3AC SWAP2 SWAP1 PUSH2 0x35F7 JUMP JUMPDEST PUSH1 0x40 MLOAD DUP1 SWAP2 SUB SWAP1 RETURN JUMPDEST CALLVALUE DUP1 ISZERO PUSH2 0x3C1 JUMPI PUSH1 0x0 DUP1 REVERT JUMPDEST POP PUSH2 0x3CA PUSH2 0xDDE JUMP JUMPDEST PUSH1 0x40 MLOAD PUSH2 0x3D7 SWAP2 SWAP1 PUSH2 0x2FBC JUMP JUMPDEST PUSH1 0x40 MLOAD DUP1 SWAP2 SUB SWAP1 RETURN JUMPDEST CALLVALUE DUP1 ISZERO PUSH2 0x3EC JUMPI PUSH1 0x0 DUP1 REVERT JUMPDEST POP PUSH2 0x407 PUSH1 0x4 DUP1 CALLDATASIZE SUB DUP2 ADD SWAP1 PUSH2 0x402 SWAP2 SWAP1 PUSH2 0x3612 JUMP JUMPDEST PUSH2 0xE53 JUMP JUMPDEST STOP JUMPDEST PUSH2 0x423 PUSH1 0x4 DUP1 CALLDATASIZE SUB DUP2 ADD SWAP1 PUSH2 0x41E SWAP2 SWAP1 PUSH2 0x3707 JUMP JUMPDEST PUSH2 0x10C1 JUMP JUMPDEST STOP JUMPDEST CALLVALUE DUP1 ISZERO PUSH2 0x431 JUMPI PUSH1 0x0 DUP1 REVERT JUMPDEST POP PUSH2 0x43A PUSH2 0x10E0 JUMP JUMPDEST PUSH1 0x40 MLOAD PUSH2 0x447 SWAP2 SWAP1 PUSH2 0x2FBC JUMP JUMPDEST PUSH1 0x40 MLOAD DUP1 SWAP2 SUB SWAP1 RETURN JUMPDEST CALLVALUE DUP1 ISZERO PUSH2 0x45C JUMPI PUSH1 0x0 DUP1 REVERT JUMPDEST POP PUSH2 0x477 PUSH1 0x4 DUP1 CALLDATASIZE SUB DUP2 ADD SWAP1 PUSH2 0x472 SWAP2 SWAP1 PUSH2 0x3763 JUMP JUMPDEST PUSH2 0x1113 JUMP JUMPDEST STOP JUMPDEST CALLVALUE DUP1 ISZERO PUSH2 0x485 JUMPI PUSH1 0x0 DUP1 REVERT JUMPDEST POP PUSH2 0x48E PUSH2 0x1164 JUMP JUMPDEST PUSH1 0x40 MLOAD PUSH2 0x49B SWAP2 SWAP1 PUSH2 0x2FBC JUMP JUMPDEST PUSH1 0x40 MLOAD DUP1 SWAP2 SUB SWAP1 RETURN JUMPDEST CALLVALUE DUP1 ISZERO PUSH2 0x4B0 JUMPI PUSH1 0x0 DUP1 REVERT JUMPDEST POP PUSH2 0x4CB PUSH1 0x4 DUP1 CALLDATASIZE SUB DUP2 ADD SWAP1 PUSH2 0x4C6 SWAP2 SWAP1 PUSH2 0x37B4 JUMP JUMPDEST PUSH2 0x1188 JUMP JUMPDEST STOP JUMPDEST CALLVALUE DUP1 ISZERO PUSH2 0x4D9 JUMPI PUSH1 0x0 DUP1 REVERT JUMPDEST POP PUSH2 0x4E2 PUSH2 0x14F0 JUMP JUMPDEST PUSH1 0x40 MLOAD PUSH2 0x4EF SWAP2 SWAP1 PUSH2 0x3803 JUMP JUMPDEST PUSH1 0x40 MLOAD DUP1 SWAP2 SUB SWAP1 RETURN JUMPDEST CALLVALUE DUP1 ISZERO PUSH2 0x504 JUMPI PUSH1 0x0 DUP1 REVERT JUMPDEST POP PUSH2 0x51F PUSH1 0x4 DUP1 CALLDATASIZE SUB DUP2 ADD SWAP1 PUSH2 0x51A SWAP2 SWAP1 PUSH2 0x33D0 JUMP JUMPDEST PUSH2 0x1506 JUMP JUMPDEST PUSH1 0x40 MLOAD PUSH2 0x52C SWAP2 SWAP1 PUSH2 0x2F88 JUMP JUMPDEST PUSH1 0x40 MLOAD DUP1 SWAP2 SUB SWAP1 RETURN JUMPDEST CALLVALUE DUP1 ISZERO PUSH2 0x541 JUMPI PUSH1 0x0 DUP1 REVERT JUMPDEST POP PUSH2 0x54A PUSH2 0x157F JUMP JUMPDEST PUSH1 0x40 MLOAD PUSH2 0x557 SWAP2 SWAP1 PUSH2 0x3389 JUMP JUMPDEST PUSH1 0x40 MLOAD DUP1 SWAP2 SUB SWAP1 RETURN JUMPDEST CALLVALUE DUP1 ISZERO PUSH2 0x56C JUMPI PUSH1 0x0 DUP1 REVERT JUMPDEST POP PUSH2 0x575 PUSH2 0x1585 JUMP JUMPDEST PUSH1 0x40 MLOAD PUSH2 0x582 SWAP2 SWAP1 PUSH2 0x2FBC JUMP JUMPDEST PUSH1 0x40 MLOAD DUP1 SWAP2 SUB SWAP1 RETURN JUMPDEST CALLVALUE DUP1 ISZERO PUSH2 0x597 JUMPI PUSH1 0x0 DUP1 REVERT JUMPDEST POP PUSH2 0x5A0 PUSH2 0x158C JUMP JUMPDEST PUSH1 0x40 MLOAD PUSH2 0x5AD SWAP2 SWAP1 PUSH2 0x389D JUMP JUMPDEST PUSH1 0x40 MLOAD DUP1 SWAP2 SUB SWAP1 RETURN JUMPDEST CALLVALUE DUP1 ISZERO PUSH2 0x5C2 JUMPI PUSH1 0x0 DUP1 REVERT JUMPDEST POP PUSH2 0x5DD PUSH1 0x4 DUP1 CALLDATASIZE SUB DUP2 ADD SWAP1 PUSH2 0x5D8 SWAP2 SWAP1 PUSH2 0x38BF JUMP JUMPDEST PUSH2 0x15C5 JUMP JUMPDEST PUSH1 0x40 MLOAD PUSH2 0x5EA SWAP2 SWAP1 PUSH2 0x392E JUMP JUMPDEST PUSH1 0x40 MLOAD DUP1 SWAP2 SUB SWAP1 RETURN JUMPDEST CALLVALUE DUP1 ISZERO PUSH2 0x5FF JUMPI PUSH1 0x0 DUP1 REVERT JUMPDEST POP PUSH2 0x61A PUSH1 0x4 DUP1 CALLDATASIZE SUB DUP2 ADD SWAP1 PUSH2 0x615 SWAP2 SWAP1 PUSH2 0x33D0 JUMP JUMPDEST PUSH2 0x167F JUMP JUMPDEST STOP JUMPDEST CALLVALUE DUP1 ISZERO PUSH2 0x628 JUMPI PUSH1 0x0 DUP1 REVERT JUMPDEST POP PUSH2 0x631 PUSH2 0x16A1 JUMP JUMPDEST PUSH1 0x40 MLOAD PUSH2 0x63E SWAP2 SWAP1 PUSH2 0x3389 JUMP JUMPDEST PUSH1 0x40 MLOAD DUP1 SWAP2 SUB SWAP1 RETURN JUMPDEST CALLVALUE DUP1 ISZERO PUSH2 0x653 JUMPI PUSH1 0x0 DUP1 REVERT JUMPDEST POP PUSH2 0x65C PUSH2 0x16BA JUMP JUMPDEST PUSH1 0x40 MLOAD PUSH2 0x669 SWAP2 SWAP1 PUSH2 0x3389 JUMP JUMPDEST PUSH1 0x40 MLOAD DUP1 SWAP2 SUB SWAP1 RETURN JUMPDEST CALLVALUE DUP1 ISZERO PUSH2 0x67E JUMPI PUSH1 0x0 DUP1 REVERT JUMPDEST POP PUSH2 0x699 PUSH1 0x4 DUP1 CALLDATASIZE SUB DUP2 ADD SWAP1 PUSH2 0x694 SWAP2 SWAP1 PUSH2 0x3949 JUMP JUMPDEST PUSH2 0x16D3 JUMP JUMPDEST STOP JUMPDEST CALLVALUE DUP1 ISZERO PUSH2 0x6A7 JUMPI PUSH1 0x0 DUP1 REVERT JUMPDEST POP PUSH2 0x6C2 PUSH1 0x4 DUP1 CALLDATASIZE SUB DUP2 ADD SWAP1 PUSH2 0x6BD SWAP2 SWAP1 PUSH2 0x334D JUMP JUMPDEST PUSH2 0x18CB JUMP JUMPDEST PUSH1 0x40 MLOAD PUSH2 0x6CF SWAP2 SWAP1 PUSH2 0x3389 JUMP JUMPDEST PUSH1 0x40 MLOAD DUP1 SWAP2 SUB SWAP1 RETURN JUMPDEST CALLVALUE DUP1 ISZERO PUSH2 0x6E4 JUMPI PUSH1 0x0 DUP1 REVERT JUMPDEST POP PUSH2 0x6FF PUSH1 0x4 DUP1 CALLDATASIZE SUB DUP2 ADD SWAP1 PUSH2 0x6FA SWAP2 SWAP1 PUSH2 0x3538 JUMP JUMPDEST PUSH2 0x18E3 JUMP JUMPDEST PUSH1 0x40 MLOAD PUSH2 0x70C SWAP2 SWAP1 PUSH2 0x2F88 JUMP JUMPDEST PUSH1 0x40 MLOAD DUP1 SWAP2 SUB SWAP1 RETURN JUMPDEST PUSH2 0x72F PUSH1 0x4 DUP1 CALLDATASIZE SUB DUP2 ADD SWAP1 PUSH2 0x72A SWAP2 SWAP1 PUSH2 0x334D JUMP JUMPDEST PUSH2 0x19DB JUMP JUMPDEST STOP JUMPDEST PUSH1 0x0 PUSH32 0x7965DB0B00000000000000000000000000000000000000000000000000000000 PUSH28 0xFFFFFFFFFFFFFFFFFFFFFFFFFFFFFFFFFFFFFFFFFFFFFFFFFFFFFFFF NOT AND DUP3 PUSH28 0xFFFFFFFFFFFFFFFFFFFFFFFFFFFFFFFFFFFFFFFFFFFFFFFFFFFFFFFF NOT AND EQ DUP1 PUSH2 0x7A4 JUMPI POP PUSH2 0x7A3 DUP3 PUSH2 0x1B4B JUMP JUMPDEST JUMPDEST SWAP1 POP SWAP2 SWAP1 POP JUMP JUMPDEST PUSH32 0xE5002BD16FFC71462A6C1C19EAF55E254C97864C770378B6F68C1A085231514A DUP2 JUMP JUMPDEST PUSH1 0x60 PUSH1 0x0 DUP3 MLOAD PUSH8 0xFFFFFFFFFFFFFFFF DUP2 GT ISZERO PUSH2 0x7EE JUMPI PUSH2 0x7ED PUSH2 0x2FED JUMP JUMPDEST JUMPDEST PUSH1 0x40 MLOAD SWAP1 DUP1 DUP3 MSTORE DUP1 PUSH1 0x20 MUL PUSH1 0x20 ADD DUP3 ADD PUSH1 0x40 MSTORE DUP1 ISZERO PUSH2 0x827 JUMPI DUP2 PUSH1 0x20 ADD JUMPDEST PUSH2 0x814 PUSH2 0x2E98 JUMP JUMPDEST DUP2 MSTORE PUSH1 0x20 ADD SWAP1 PUSH1 0x1 SWAP1 SUB SWAP1 DUP2 PUSH2 0x80C JUMPI SWAP1 POP JUMPDEST POP SWAP1 POP PUSH1 0x0 JUMPDEST DUP4 MLOAD DUP2 LT ISZERO PUSH2 0x926 JUMPI PUSH1 0x23 PUSH1 0x0 ADD DUP5 DUP3 DUP2 MLOAD DUP2 LT PUSH2 0x84E JUMPI PUSH2 0x84D PUSH2 0x39A5 JUMP JUMPDEST JUMPDEST PUSH1 0x20 MUL PUSH1 0x20 ADD ADD MLOAD DUP2 SLOAD DUP2 LT PUSH2 0x867 JUMPI PUSH2 0x866 PUSH2 0x39A5 JUMP JUMPDEST JUMPDEST SWAP1 PUSH1 0x0 MSTORE PUSH1 0x20 PUSH1 0x0 KECCAK256 SWAP1 PUSH1 0x2 MUL ADD PUSH1 0x40 MLOAD DUP1 PUSH1 0x60 ADD PUSH1 0x40 MSTORE SWAP1 DUP2 PUSH1 0x0 DUP3 ADD SLOAD DUP2 MSTORE PUSH1 0x20 ADD PUSH1 0x1 DUP3 ADD PUSH1 0x0 SWAP1 SLOAD SWAP1 PUSH2 0x100 EXP SWAP1 DIV PUSH20 0xFFFFFFFFFFFFFFFFFFFFFFFFFFFFFFFFFFFFFFFF AND PUSH20 0xFFFFFFFFFFFFFFFFFFFFFFFFFFFFFFFFFFFFFFFF AND PUSH20 0xFFFFFFFFFFFFFFFFFFFFFFFFFFFFFFFFFFFFFFFF AND DUP2 MSTORE PUSH1 0x20 ADD PUSH1 0x1 DUP3 ADD PUSH1 0x14 SWAP1 SLOAD SWAP1 PUSH2 0x100 EXP SWAP1 DIV PUSH1 0xFF AND ISZERO ISZERO ISZERO ISZERO DUP2 MSTORE POP POP DUP3 DUP3 DUP2 MLOAD DUP2 LT PUSH2 0x90E JUMPI PUSH2 0x90D PUSH2 0x39A5 JUMP JUMPDEST JUMPDEST PUSH1 0x20 MUL PUSH1 0x20 ADD ADD DUP2 SWAP1 MSTORE POP DUP1 DUP1 PUSH1 0x1 ADD SWAP2 POP POP PUSH2 0x82D JUMP JUMPDEST POP DUP1 SWAP2 POP POP SWAP2 SWAP1 POP JUMP JUMPDEST PUSH1 0x0 DUP1 PUSH2 0x93B PUSH2 0x1BB5 JUMP JUMPDEST SWAP1 POP DUP1 PUSH1 0x0 ADD PUSH1 0x0 DUP5 DUP2 MSTORE PUSH1 0x20 ADD SWAP1 DUP2 MSTORE PUSH1 0x20 ADD PUSH1 0x0 KECCAK256 PUSH1 0x1 ADD SLOAD SWAP2 POP POP SWAP2 SWAP1 POP JUMP JUMPDEST PUSH1 0x27 PUSH1 0x20 MSTORE DUP1 PUSH1 0x0 MSTORE PUSH1 0x40 PUSH1 0x0 KECCAK256 PUSH1 0x0 SWAP2 POP SWAP1 POP SLOAD DUP2 JUMP JUMPDEST PUSH2 0x97F DUP3 PUSH2 0x930 JUMP JUMPDEST PUSH2 0x988 DUP2 PUSH2 0x1BDD JUMP JUMPDEST PUSH2 0x992 DUP4 DUP4 PUSH2 0x1BF1 JUMP JUMPDEST POP POP POP POP JUMP JUMPDEST PUSH2 0x5208 DUP2 JUMP JUMPDEST PUSH1 0x0 GAS SWAP1 POP PUSH1 0x0 PUSH1 0x26 PUSH1 0x0 DUP7 PUSH1 0x0 ADD MLOAD DUP2 MSTORE PUSH1 0x20 ADD SWAP1 DUP2 MSTORE PUSH1 0x20 ADD PUSH1 0x0 KECCAK256 SLOAD SUB PUSH2 0xA03 JUMPI DUP4 PUSH1 0x0 ADD MLOAD PUSH1 0x40 MLOAD PUSH32 0x1497AE9300000000000000000000000000000000000000000000000000000000 DUP2 MSTORE PUSH1 0x4 ADD PUSH2 0x9FA SWAP2 SWAP1 PUSH2 0x2FBC JUMP JUMPDEST PUSH1 0x40 MLOAD DUP1 SWAP2 SUB SWAP1 REVERT JUMPDEST PUSH1 0x0 PUSH1 0x27 PUSH1 0x0 DUP7 PUSH1 0x20 ADD MLOAD DUP2 MSTORE PUSH1 0x20 ADD SWAP1 DUP2 MSTORE PUSH1 0x20 ADD PUSH1 0x0 KECCAK256 SLOAD EQ PUSH2 0xA63 JUMPI DUP4 PUSH1 0x20 ADD MLOAD PUSH1 0x40 MLOAD PUSH32 0x3D39A25300000000000000000000000000000000000000000000000000000000 DUP2 MSTORE PUSH1 0x4 ADD PUSH2 0xA5A SWAP2 SWAP1 PUSH2 0x2FBC JUMP JUMPDEST PUSH1 0x40 MLOAD DUP1 SWAP2 SUB SWAP1 REVERT JUMPDEST PUSH2 0xA6E DUP5 DUP5 DUP5 PUSH2 0x18E3 JUMP JUMPDEST PUSH2 0xAA4 JUMPI PUSH1 0x40 MLOAD PUSH32 0x9BDE33900000000000000000000000000000000000000000000000000000000 DUP2 MSTORE PUSH1 0x4 ADD PUSH1 0x40 MLOAD DUP1 SWAP2 SUB SWAP1 REVERT JUMPDEST PUSH1 0x0 DUP5 PUSH1 0x60 ADD MLOAD PUSH4 0xFFFFFFFF AND EQ PUSH2 0xAE8 JUMPI PUSH1 0x40 MLOAD PUSH32 0x609F982F00000000000000000000000000000000000000000000000000000000 DUP2 MSTORE PUSH1 0x4 ADD PUSH1 0x40 MLOAD DUP1 SWAP2 SUB SWAP1 REVERT JUMPDEST TIMESTAMP PUSH1 0x27 PUSH1 0x0 DUP7 PUSH1 0x20 ADD MLOAD DUP2 MSTORE PUSH1 0x20 ADD SWAP1 DUP2 MSTORE PUSH1 0x20 ADD PUSH1 0x0 KECCAK256 DUP2 SWAP1 SSTORE POP DUP4 PUSH1 0x20 ADD MLOAD DUP5 PUSH1 0x40 ADD MLOAD PUSH20 0xFFFFFFFFFFFFFFFFFFFFFFFFFFFFFFFFFFFFFFFF AND PUSH32 0x38CDE577523EAC700AC823C90961F96DE39CBC1D0B288CA592F5E9C7B67D7D73 DUP7 PUSH1 0x60 ADD MLOAD DUP8 PUSH1 0x80 ADD MLOAD PUSH1 0x40 MLOAD PUSH2 0xB5D SWAP3 SWAP2 SWAP1 PUSH2 0x39D4 JUMP JUMPDEST PUSH1 0x40 MLOAD DUP1 SWAP2 SUB SWAP1 LOG3 PUSH2 0xB96 PUSH32 0x779B9D7B1CEFD23059CE3E2B194EFB3183A6685DD830E8CBB723B0CBEB982B28 PUSH2 0xB91 PUSH2 0x1CF2 JUMP JUMPDEST PUSH2 0x1506 JUMP JUMPDEST ISZERO PUSH2 0xCDE JUMPI PUSH1 0x0 GASPRICE GAS DUP4 PUSH2 0x8FC PUSH1 0x2 PUSH2 0xBAF SWAP2 SWAP1 PUSH2 0x3A2C JUMP JUMPDEST PUSH2 0x5208 PUSH2 0xBBC SWAP2 SWAP1 PUSH2 0x3A6E JUMP JUMPDEST PUSH2 0xBC6 SWAP2 SWAP1 PUSH2 0x3A6E JUMP JUMPDEST PUSH2 0xBD0 SWAP2 SWAP1 PUSH2 0x3AA2 JUMP JUMPDEST PUSH2 0xBDA SWAP2 SWAP1 PUSH2 0x3A2C JUMP JUMPDEST SWAP1 POP CALLVALUE DUP6 PUSH1 0x80 ADD MLOAD PUSH2 0xBEC SWAP2 SWAP1 PUSH2 0x3A6E JUMP JUMPDEST DUP2 GT ISZERO PUSH2 0xC25 JUMPI PUSH1 0x40 MLOAD PUSH32 0xB257743000000000000000000000000000000000000000000000000000000000 DUP2 MSTORE PUSH1 0x4 ADD PUSH1 0x40 MLOAD DUP1 SWAP2 SUB SWAP1 REVERT JUMPDEST DUP5 PUSH1 0x40 ADD MLOAD PUSH20 0xFFFFFFFFFFFFFFFFFFFFFFFFFFFFFFFFFFFFFFFF AND PUSH2 0x8FC DUP3 CALLVALUE DUP9 PUSH1 0x80 ADD MLOAD PUSH2 0xC54 SWAP2 SWAP1 PUSH2 0x3A6E JUMP JUMPDEST PUSH2 0xC5E SWAP2 SWAP1 PUSH2 0x3AA2 JUMP JUMPDEST SWAP1 DUP2 ISZERO MUL SWAP1 PUSH1 0x40 MLOAD PUSH1 0x0 PUSH1 0x40 MLOAD DUP1 DUP4 SUB DUP2 DUP6 DUP9 DUP9 CALL SWAP4 POP POP POP POP ISZERO DUP1 ISZERO PUSH2 0xC89 JUMPI RETURNDATASIZE PUSH1 0x0 DUP1 RETURNDATACOPY RETURNDATASIZE PUSH1 0x0 REVERT JUMPDEST POP PUSH2 0xC92 PUSH2 0x1CF2 JUMP JUMPDEST PUSH20 0xFFFFFFFFFFFFFFFFFFFFFFFFFFFFFFFFFFFFFFFF AND PUSH2 0x8FC DUP3 SWAP1 DUP2 ISZERO MUL SWAP1 PUSH1 0x40 MLOAD PUSH1 0x0 PUSH1 0x40 MLOAD DUP1 DUP4 SUB DUP2 DUP6 DUP9 DUP9 CALL SWAP4 POP POP POP POP ISZERO DUP1 ISZERO PUSH2 0xCD7 JUMPI RETURNDATASIZE PUSH1 0x0 DUP1 RETURNDATACOPY RETURNDATASIZE PUSH1 0x0 REVERT JUMPDEST POP POP PUSH2 0xD39 JUMP JUMPDEST DUP4 PUSH1 0x40 ADD MLOAD PUSH20 0xFFFFFFFFFFFFFFFFFFFFFFFFFFFFFFFFFFFFFFFF AND PUSH2 0x8FC CALLVALUE DUP7 PUSH1 0x80 ADD MLOAD PUSH2 0xD0C SWAP2 SWAP1 PUSH2 0x3A6E JUMP JUMPDEST SWAP1 DUP2 ISZERO MUL SWAP1 PUSH1 0x40 MLOAD PUSH1 0x0 PUSH1 0x40 MLOAD DUP1 DUP4 SUB DUP2 DUP6 DUP9 DUP9 CALL SWAP4 POP POP POP POP ISZERO DUP1 ISZERO PUSH2 0xD37 JUMPI RETURNDATASIZE PUSH1 0x0 DUP1 RETURNDATACOPY RETURNDATASIZE PUSH1 0x0 REVERT JUMPDEST POP JUMPDEST POP POP POP POP JUMP JUMPDEST PUSH2 0xD47 PUSH2 0x1CF2 JUMP JUMPDEST PUSH20 0xFFFFFFFFFFFFFFFFFFFFFFFFFFFFFFFFFFFFFFFF AND DUP2 PUSH20 0xFFFFFFFFFFFFFFFFFFFFFFFFFFFFFFFFFFFFFFFF AND EQ PUSH2 0xDAB JUMPI PUSH1 0x40 MLOAD PUSH32 0x6697B23200000000000000000000000000000000000000000000000000000000 DUP2 MSTORE PUSH1 0x4 ADD PUSH1 0x40 MLOAD DUP1 SWAP2 SUB SWAP1 REVERT JUMPDEST PUSH2 0xDB5 DUP3 DUP3 PUSH2 0x1CFA JUMP JUMPDEST POP POP POP JUMP JUMPDEST PUSH1 0x0 DUP1 SLOAD SWAP1 PUSH2 0x100 EXP SWAP1 DIV PUSH20 0xFFFFFFFFFFFFFFFFFFFFFFFFFFFFFFFFFFFFFFFF AND DUP2 JUMP JUMPDEST PUSH1 0x0 PUSH2 0xE4E PUSH1 0x1 PUSH1 0x40 MLOAD DUP1 PUSH1 0x60 ADD PUSH1 0x40 MSTORE SWAP1 DUP2 PUSH1 0x0 DUP3 ADD PUSH1 0x20 DUP1 PUSH1 0x20 MUL PUSH1 0x40 MLOAD SWAP1 DUP2 ADD PUSH1 0x40 MSTORE DUP1 SWAP3 SWAP2 SWAP1 DUP3 PUSH1 0x20 DUP1 ISZERO PUSH2 0xE2C JUMPI PUSH1 0x20 MUL DUP3 ADD SWAP2 JUMPDEST DUP2 SLOAD DUP2 MSTORE PUSH1 0x20 ADD SWAP1 PUSH1 0x1 ADD SWAP1 DUP1 DUP4 GT PUSH2 0xE18 JUMPI JUMPDEST POP POP POP POP POP DUP2 MSTORE PUSH1 0x20 ADD PUSH1 0x20 DUP3 ADD SLOAD DUP2 MSTORE PUSH1 0x20 ADD PUSH1 0x21 DUP3 ADD SLOAD DUP2 MSTORE POP POP PUSH2 0x1DFC JUMP JUMPDEST SWAP1 POP SWAP1 JUMP JUMPDEST PUSH1 0x0 PUSH2 0xE5D PUSH2 0x1EEC JUMP JUMPDEST SWAP1 POP PUSH1 0x0 DUP2 PUSH1 0x0 ADD PUSH1 0x8 SWAP1 SLOAD SWAP1 PUSH2 0x100 EXP SWAP1 DIV PUSH1 0xFF AND ISZERO SWAP1 POP PUSH1 0x0 DUP3 PUSH1 0x0 ADD PUSH1 0x0 SWAP1 SLOAD SWAP1 PUSH2 0x100 EXP SWAP1 DIV PUSH8 0xFFFFFFFFFFFFFFFF AND SWAP1 POP PUSH1 0x0 DUP1 DUP3 PUSH8 0xFFFFFFFFFFFFFFFF AND EQ DUP1 ISZERO PUSH2 0xEAB JUMPI POP DUP3 JUMPDEST SWAP1 POP PUSH1 0x0 PUSH1 0x1 DUP4 PUSH8 0xFFFFFFFFFFFFFFFF AND EQ DUP1 ISZERO PUSH2 0xEE0 JUMPI POP PUSH1 0x0 ADDRESS PUSH20 0xFFFFFFFFFFFFFFFFFFFFFFFFFFFFFFFFFFFFFFFF AND EXTCODESIZE EQ JUMPDEST SWAP1 POP DUP2 ISZERO DUP1 ISZERO PUSH2 0xEEE JUMPI POP DUP1 ISZERO JUMPDEST ISZERO PUSH2 0xF25 JUMPI PUSH1 0x40 MLOAD PUSH32 0xF92EE8A900000000000000000000000000000000000000000000000000000000 DUP2 MSTORE PUSH1 0x4 ADD PUSH1 0x40 MLOAD DUP1 SWAP2 SUB SWAP1 REVERT JUMPDEST PUSH1 0x1 DUP6 PUSH1 0x0 ADD PUSH1 0x0 PUSH2 0x100 EXP DUP2 SLOAD DUP2 PUSH8 0xFFFFFFFFFFFFFFFF MUL NOT AND SWAP1 DUP4 PUSH8 0xFFFFFFFFFFFFFFFF AND MUL OR SWAP1 SSTORE POP DUP4 ISZERO PUSH2 0xF75 JUMPI PUSH1 0x1 DUP6 PUSH1 0x0 ADD PUSH1 0x8 PUSH2 0x100 EXP DUP2 SLOAD DUP2 PUSH1 0xFF MUL NOT AND SWAP1 DUP4 ISZERO ISZERO MUL OR SWAP1 SSTORE POP JUMPDEST DUP7 PUSH1 0x0 DUP1 PUSH2 0x100 EXP DUP2 SLOAD DUP2 PUSH20 0xFFFFFFFFFFFFFFFFFFFFFFFFFFFFFFFFFFFFFFFF MUL NOT AND SWAP1 DUP4 PUSH20 0xFFFFFFFFFFFFFFFFFFFFFFFFFFFFFFFFFFFFFFFF AND MUL OR SWAP1 SSTORE POP PUSH2 0xFBF PUSH1 0x1 PUSH2 0x1F14 JUMP JUMPDEST PUSH2 0xFC9 PUSH1 0x23 PUSH2 0x1F90 JUMP JUMPDEST TIMESTAMP PUSH1 0x26 PUSH1 0x0 PUSH2 0x103C PUSH1 0x1 PUSH1 0x40 MLOAD DUP1 PUSH1 0x60 ADD PUSH1 0x40 MSTORE SWAP1 DUP2 PUSH1 0x0 DUP3 ADD PUSH1 0x20 DUP1 PUSH1 0x20 MUL PUSH1 0x40 MLOAD SWAP1 DUP2 ADD PUSH1 0x40 MSTORE DUP1 SWAP3 SWAP2 SWAP1 DUP3 PUSH1 0x20 DUP1 ISZERO PUSH2 0x101A JUMPI PUSH1 0x20 MUL DUP3 ADD SWAP2 JUMPDEST DUP2 SLOAD DUP2 MSTORE PUSH1 0x20 ADD SWAP1 PUSH1 0x1 ADD SWAP1 DUP1 DUP4 GT PUSH2 0x1006 JUMPI JUMPDEST POP POP POP POP POP DUP2 MSTORE PUSH1 0x20 ADD PUSH1 0x20 DUP3 ADD SLOAD DUP2 MSTORE PUSH1 0x20 ADD PUSH1 0x21 DUP3 ADD SLOAD DUP2 MSTORE POP POP PUSH2 0x1DFC JUMP JUMPDEST DUP2 MSTORE PUSH1 0x20 ADD SWAP1 DUP2 MSTORE PUSH1 0x20 ADD PUSH1 0x0 KECCAK256 DUP2 SWAP1 SSTORE POP PUSH2 0x105B PUSH1 0x0 DUP1 SHL DUP8 PUSH2 0x1BF1 JUMP JUMPDEST POP DUP4 ISZERO PUSH2 0x10B8 JUMPI PUSH1 0x0 DUP6 PUSH1 0x0 ADD PUSH1 0x8 PUSH2 0x100 EXP DUP2 SLOAD DUP2 PUSH1 0xFF MUL NOT AND SWAP1 DUP4 ISZERO ISZERO MUL OR SWAP1 SSTORE POP PUSH32 0xC7F505B2F371AE2175EE4913F4499E1F2633A7B5936321EED1CDAEB6115181D2 PUSH1 0x1 PUSH1 0x40 MLOAD PUSH2 0x10AF SWAP2 SWAP1 PUSH2 0x3B25 JUMP JUMPDEST PUSH1 0x40 MLOAD DUP1 SWAP2 SUB SWAP1 LOG1 JUMPDEST POP POP POP POP POP POP POP JUMP JUMPDEST PUSH2 0x10C9 PUSH2 0x207F JUMP JUMPDEST PUSH2 0x10D2 DUP3 PUSH2 0x2165 JUMP JUMPDEST PUSH2 0x10DC DUP3 DUP3 PUSH2 0x2176 JUMP JUMPDEST POP POP JUMP JUMPDEST PUSH1 0x0 PUSH2 0x10EA PUSH2 0x2295 JUMP JUMPDEST PUSH32 0x360894A13BA1A3210667C828492DB98DCA3E2076CC3735A920A3CA505D382BBC PUSH1 0x0 SHL SWAP1 POP SWAP1 JUMP JUMPDEST PUSH1 0x0 DUP1 SHL PUSH2 0x1120 DUP2 PUSH2 0x1BDD JUMP JUMPDEST DUP2 PUSH1 0x0 DUP1 PUSH2 0x100 EXP DUP2 SLOAD DUP2 PUSH20 0xFFFFFFFFFFFFFFFFFFFFFFFFFFFFFFFFFFFFFFFF MUL NOT AND SWAP1 DUP4 PUSH20 0xFFFFFFFFFFFFFFFFFFFFFFFFFFFFFFFFFFFFFFFF AND MUL OR SWAP1 SSTORE POP POP POP JUMP JUMPDEST PUSH32 0x779B9D7B1CEFD23059CE3E2B194EFB3183A6685DD830E8CBB723B0CBEB982B28 DUP2 JUMP JUMPDEST DUP2 DUP2 DUP1 CALLDATASIZE SUB DUP2 ADD SWAP1 PUSH2 0x119A SWAP2 SWAP1 PUSH2 0x3BA4 JUMP JUMPDEST PUSH1 0x0 PUSH1 0x23 PUSH1 0x0 ADD DUP4 DUP2 SLOAD DUP2 LT PUSH2 0x11B3 JUMPI PUSH2 0x11B2 PUSH2 0x39A5 JUMP JUMPDEST JUMPDEST SWAP1 PUSH1 0x0 MSTORE PUSH1 0x20 PUSH1 0x0 KECCAK256 SWAP1 PUSH1 0x2 MUL ADD PUSH1 0x40 MLOAD DUP1 PUSH1 0x60 ADD PUSH1 0x40 MSTORE SWAP1 DUP2 PUSH1 0x0 DUP3 ADD SLOAD DUP2 MSTORE PUSH1 0x20 ADD PUSH1 0x1 DUP3 ADD PUSH1 0x0 SWAP1 SLOAD SWAP1 PUSH2 0x100 EXP SWAP1 DIV PUSH20 0xFFFFFFFFFFFFFFFFFFFFFFFFFFFFFFFFFFFFFFFF AND PUSH20 0xFFFFFFFFFFFFFFFFFFFFFFFFFFFFFFFFFFFFFFFF AND PUSH20 0xFFFFFFFFFFFFFFFFFFFFFFFFFFFFFFFFFFFFFFFF AND DUP2 MSTORE PUSH1 0x20 ADD PUSH1 0x1 DUP3 ADD PUSH1 0x14 SWAP1 SLOAD SWAP1 PUSH2 0x100 EXP SWAP1 DIV PUSH1 0xFF AND ISZERO ISZERO ISZERO ISZERO DUP2 MSTORE POP POP SWAP1 POP PUSH2 0x1251 PUSH2 0x1CF2 JUMP JUMPDEST PUSH20 0xFFFFFFFFFFFFFFFFFFFFFFFFFFFFFFFFFFFFFFFF AND DUP2 PUSH1 0x20 ADD MLOAD PUSH20 0xFFFFFFFFFFFFFFFFFFFFFFFFFFFFFFFFFFFFFFFF AND EQ PUSH2 0x12B9 JUMPI PUSH1 0x40 MLOAD PUSH32 0x8B2EA0F800000000000000000000000000000000000000000000000000000000 DUP2 MSTORE PUSH1 0x4 ADD PUSH1 0x40 MLOAD DUP1 SWAP2 SUB SWAP1 REVERT JUMPDEST PUSH1 0x0 PUSH2 0x12C4 DUP4 PUSH2 0x231C JUMP JUMPDEST SWAP1 POP DUP1 DUP3 PUSH1 0x0 ADD MLOAD EQ PUSH2 0x1314 JUMPI DUP2 PUSH1 0x0 ADD MLOAD DUP2 PUSH1 0x40 MLOAD PUSH32 0x7BE225B600000000000000000000000000000000000000000000000000000000 DUP2 MSTORE PUSH1 0x4 ADD PUSH2 0x130B SWAP3 SWAP2 SWAP1 PUSH2 0x3BD1 JUMP JUMPDEST PUSH1 0x40 MLOAD DUP1 SWAP2 SUB SWAP1 REVERT JUMPDEST PUSH2 0x131C PUSH2 0x16A1 JUMP JUMPDEST DUP5 GT PUSH2 0x1365 JUMPI PUSH1 0x0 ISZERO ISZERO DUP3 PUSH1 0x40 ADD MLOAD ISZERO ISZERO SUB PUSH2 0x1364 JUMPI PUSH1 0x40 MLOAD PUSH32 0x643710D400000000000000000000000000000000000000000000000000000000 DUP2 MSTORE PUSH1 0x4 ADD PUSH1 0x40 MLOAD DUP1 SWAP2 SUB SWAP1 REVERT JUMPDEST JUMPDEST PUSH1 0x0 PUSH2 0x137B DUP8 PUSH1 0x23 PUSH2 0x235C SWAP1 SWAP2 SWAP1 PUSH4 0xFFFFFFFF AND JUMP JUMPDEST SWAP1 POP PUSH2 0x1385 PUSH2 0x1CF2 JUMP JUMPDEST PUSH20 0xFFFFFFFFFFFFFFFFFFFFFFFFFFFFFFFFFFFFFFFF AND DUP2 PUSH1 0x20 ADD MLOAD PUSH20 0xFFFFFFFFFFFFFFFFFFFFFFFFFFFFFFFFFFFFFFFF AND EQ PUSH2 0x13ED JUMPI PUSH1 0x40 MLOAD PUSH32 0x8B2EA0F800000000000000000000000000000000000000000000000000000000 DUP2 MSTORE PUSH1 0x4 ADD PUSH1 0x40 MLOAD DUP1 SWAP2 SUB SWAP1 REVERT JUMPDEST PUSH2 0x1406 DUP7 DUP1 CALLDATASIZE SUB DUP2 ADD SWAP1 PUSH2 0x1401 SWAP2 SWAP1 PUSH2 0x3BA4 JUMP JUMPDEST PUSH2 0x231C JUMP JUMPDEST DUP2 PUSH1 0x0 ADD MLOAD EQ PUSH2 0x146B JUMPI DUP1 PUSH1 0x0 ADD MLOAD PUSH2 0x142E DUP8 DUP1 CALLDATASIZE SUB DUP2 ADD SWAP1 PUSH2 0x1429 SWAP2 SWAP1 PUSH2 0x3BA4 JUMP JUMPDEST PUSH2 0x231C JUMP JUMPDEST PUSH1 0x40 MLOAD PUSH32 0x7BE225B600000000000000000000000000000000000000000000000000000000 DUP2 MSTORE PUSH1 0x4 ADD PUSH2 0x1462 SWAP3 SWAP2 SWAP1 PUSH2 0x3BD1 JUMP JUMPDEST PUSH1 0x40 MLOAD DUP1 SWAP2 SUB SWAP1 REVERT JUMPDEST DUP1 PUSH1 0x20 ADD MLOAD PUSH20 0xFFFFFFFFFFFFFFFFFFFFFFFFFFFFFFFFFFFFFFFF AND PUSH2 0x8FC DUP8 PUSH1 0x40 ADD CALLDATALOAD SWAP1 DUP2 ISZERO MUL SWAP1 PUSH1 0x40 MLOAD PUSH1 0x0 PUSH1 0x40 MLOAD DUP1 DUP4 SUB DUP2 DUP6 DUP9 DUP9 CALL SWAP4 POP POP POP POP ISZERO DUP1 ISZERO PUSH2 0x14B9 JUMPI RETURNDATASIZE PUSH1 0x0 DUP1 RETURNDATACOPY RETURNDATASIZE PUSH1 0x0 REVERT JUMPDEST POP DUP7 PUSH32 0xC1C0787650562778C282502DFD6DCEA2FB79D23783920AA18AEE36B4AA3DC48 PUSH1 0x40 MLOAD PUSH1 0x40 MLOAD DUP1 SWAP2 SUB SWAP1 LOG2 POP POP POP POP POP POP POP JUMP JUMPDEST PUSH1 0x0 PUSH1 0x14 SWAP1 SLOAD SWAP1 PUSH2 0x100 EXP SWAP1 DIV PUSH4 0xFFFFFFFF AND DUP2 JUMP JUMPDEST PUSH1 0x0 DUP1 PUSH2 0x1511 PUSH2 0x1BB5 JUMP JUMPDEST SWAP1 POP DUP1 PUSH1 0x0 ADD PUSH1 0x0 DUP6 DUP2 MSTORE PUSH1 0x20 ADD SWAP1 DUP2 MSTORE PUSH1 0x20 ADD PUSH1 0x0 KECCAK256 PUSH1 0x0 ADD PUSH1 0x0 DUP5 PUSH20 0xFFFFFFFFFFFFFFFFFFFFFFFFFFFFFFFFFFFFFFFF AND PUSH20 0xFFFFFFFFFFFFFFFFFFFFFFFFFFFFFFFFFFFFFFFF AND DUP2 MSTORE PUSH1 0x20 ADD SWAP1 DUP2 MSTORE PUSH1 0x20 ADD PUSH1 0x0 KECCAK256 PUSH1 0x0 SWAP1 SLOAD SWAP1 PUSH2 0x100 EXP SWAP1 DIV PUSH1 0xFF AND SWAP2 POP POP SWAP3 SWAP2 POP POP JUMP JUMPDEST PUSH2 0x8FC DUP2 JUMP JUMPDEST PUSH1 0x0 DUP1 SHL DUP2 JUMP JUMPDEST PUSH1 0x40 MLOAD DUP1 PUSH1 0x40 ADD PUSH1 0x40 MSTORE DUP1 PUSH1 0x5 DUP2 MSTORE PUSH1 0x20 ADD PUSH32 0x352E302E30000000000000000000000000000000000000000000000000000000 DUP2 MSTORE POP DUP2 JUMP JUMPDEST PUSH2 0x15CD PUSH2 0x2E98 JUMP JUMPDEST PUSH1 0x23 PUSH1 0x0 ADD DUP3 DUP2 SLOAD DUP2 LT PUSH2 0x15E4 JUMPI PUSH2 0x15E3 PUSH2 0x39A5 JUMP JUMPDEST JUMPDEST SWAP1 PUSH1 0x0 MSTORE PUSH1 0x20 PUSH1 0x0 KECCAK256 SWAP1 PUSH1 0x2 MUL ADD PUSH1 0x40 MLOAD DUP1 PUSH1 0x60 ADD PUSH1 0x40 MSTORE SWAP1 DUP2 PUSH1 0x0 DUP3 ADD SLOAD DUP2 MSTORE PUSH1 0x20 ADD PUSH1 0x1 DUP3 ADD PUSH1 0x0 SWAP1 SLOAD SWAP1 PUSH2 0x100 EXP SWAP1 DIV PUSH20 0xFFFFFFFFFFFFFFFFFFFFFFFFFFFFFFFFFFFFFFFF AND PUSH20 0xFFFFFFFFFFFFFFFFFFFFFFFFFFFFFFFFFFFFFFFF AND PUSH20 0xFFFFFFFFFFFFFFFFFFFFFFFFFFFFFFFFFFFFFFFF AND DUP2 MSTORE PUSH1 0x20 ADD PUSH1 0x1 DUP3 ADD PUSH1 0x14 SWAP1 SLOAD SWAP1 PUSH2 0x100 EXP SWAP1 DIV PUSH1 0xFF AND ISZERO ISZERO ISZERO ISZERO DUP2 MSTORE POP POP SWAP1 POP SWAP2 SWAP1 POP JUMP JUMPDEST PUSH2 0x1688 DUP3 PUSH2 0x930 JUMP JUMPDEST PUSH2 0x1691 DUP2 PUSH2 0x1BDD JUMP JUMPDEST PUSH2 0x169B DUP4 DUP4 PUSH2 0x1CFA JUMP JUMPDEST POP POP POP POP JUMP JUMPDEST PUSH1 0x0 PUSH1 0x1 PUSH1 0x23 PUSH1 0x1 ADD SLOAD PUSH2 0x16B5 SWAP2 SWAP1 PUSH2 0x3AA2 JUMP JUMPDEST SWAP1 POP SWAP1 JUMP JUMPDEST PUSH1 0x0 PUSH1 0x1 PUSH1 0x23 PUSH1 0x2 ADD SLOAD PUSH2 0x16CE SWAP2 SWAP1 PUSH2 0x3AA2 JUMP JUMPDEST SWAP1 POP SWAP1 JUMP JUMPDEST PUSH32 0xE5002BD16FFC71462A6C1C19EAF55E254C97864C770378B6F68C1A085231514A PUSH2 0x16FD DUP2 PUSH2 0x1BDD JUMP JUMPDEST PUSH1 0x0 PUSH2 0x1715 DUP5 DUP5 PUSH1 0x23 PUSH2 0x2480 SWAP1 SWAP3 SWAP2 SWAP1 PUSH4 0xFFFFFFFF AND JUMP JUMPDEST SWAP1 POP PUSH1 0x0 JUMPDEST DUP2 MLOAD DUP2 LT ISZERO PUSH2 0x17FF JUMPI PUSH2 0x1751 DUP3 DUP3 DUP2 MLOAD DUP2 LT PUSH2 0x1739 JUMPI PUSH2 0x1738 PUSH2 0x39A5 JUMP JUMPDEST JUMPDEST PUSH1 0x20 MUL PUSH1 0x20 ADD ADD MLOAD PUSH1 0x1 PUSH2 0x284F SWAP1 SWAP2 SWAP1 PUSH4 0xFFFFFFFF AND JUMP JUMPDEST DUP2 DUP2 DUP2 MLOAD DUP2 LT PUSH2 0x1764 JUMPI PUSH2 0x1763 PUSH2 0x39A5 JUMP JUMPDEST JUMPDEST PUSH1 0x20 MUL PUSH1 0x20 ADD ADD MLOAD PUSH1 0x0 PUSH1 0x14 SWAP1 SLOAD SWAP1 PUSH2 0x100 EXP SWAP1 DIV PUSH4 0xFFFFFFFF AND PUSH4 0xFFFFFFFF AND PUSH32 0x529A1F0FDD7142AABE2B12DD8590A30A26C8427B5200AD8C775A5B4AA03FB41D PUSH1 0x40 MLOAD PUSH1 0x40 MLOAD DUP1 SWAP2 SUB SWAP1 LOG3 PUSH1 0x0 PUSH1 0x14 DUP2 DUP2 SWAP1 SLOAD SWAP1 PUSH2 0x100 EXP SWAP1 DIV PUSH4 0xFFFFFFFF AND DUP1 SWAP3 SWAP2 SWAP1 PUSH2 0x17D3 SWAP1 PUSH2 0x3BFA JUMP JUMPDEST SWAP2 SWAP1 PUSH2 0x100 EXP DUP2 SLOAD DUP2 PUSH4 0xFFFFFFFF MUL NOT AND SWAP1 DUP4 PUSH4 0xFFFFFFFF AND MUL OR SWAP1 SSTORE POP POP DUP1 DUP1 PUSH1 0x1 ADD SWAP2 POP POP PUSH2 0x171A JUMP JUMPDEST POP PUSH1 0x0 PUSH2 0x1870 PUSH1 0x1 PUSH1 0x40 MLOAD DUP1 PUSH1 0x60 ADD PUSH1 0x40 MSTORE SWAP1 DUP2 PUSH1 0x0 DUP3 ADD PUSH1 0x20 DUP1 PUSH1 0x20 MUL PUSH1 0x40 MLOAD SWAP1 DUP2 ADD PUSH1 0x40 MSTORE DUP1 SWAP3 SWAP2 SWAP1 DUP3 PUSH1 0x20 DUP1 ISZERO PUSH2 0x184E JUMPI PUSH1 0x20 MUL DUP3 ADD SWAP2 JUMPDEST DUP2 SLOAD DUP2 MSTORE PUSH1 0x20 ADD SWAP1 PUSH1 0x1 ADD SWAP1 DUP1 DUP4 GT PUSH2 0x183A JUMPI JUMPDEST POP POP POP POP POP DUP2 MSTORE PUSH1 0x20 ADD PUSH1 0x20 DUP3 ADD SLOAD DUP2 MSTORE PUSH1 0x20 ADD PUSH1 0x21 DUP3 ADD SLOAD DUP2 MSTORE POP POP PUSH2 0x1DFC JUMP JUMPDEST SWAP1 POP TIMESTAMP PUSH1 0x26 PUSH1 0x0 DUP4 DUP2 MSTORE PUSH1 0x20 ADD SWAP1 DUP2 MSTORE PUSH1 0x20 ADD PUSH1 0x0 KECCAK256 DUP2 SWAP1 SSTORE POP DUP5 PUSH32 0xF18887951E0128C56F80FE285E446CC180799FEA48BE52617A5B00D742CCD7CC DUP6 DUP5 PUSH1 0x40 MLOAD PUSH2 0x18BC SWAP3 SWAP2 SWAP1 PUSH2 0x3D93 JUMP JUMPDEST PUSH1 0x40 MLOAD DUP1 SWAP2 SUB SWAP1 LOG2 POP POP POP POP POP JUMP JUMPDEST PUSH1 0x26 PUSH1 0x20 MSTORE DUP1 PUSH1 0x0 MSTORE PUSH1 0x40 PUSH1 0x0 KECCAK256 PUSH1 0x0 SWAP2 POP SWAP1 POP SLOAD DUP2 JUMP JUMPDEST PUSH1 0x0 DUP1 DUP5 PUSH1 0x0 ADD MLOAD DUP6 PUSH1 0x20 ADD MLOAD DUP7 PUSH1 0x40 ADD MLOAD DUP8 PUSH1 0x60 ADD MLOAD DUP9 PUSH1 0x80 ADD MLOAD PUSH1 0x40 MLOAD PUSH1 0x20 ADD PUSH2 0x1913 SWAP6 SWAP5 SWAP4 SWAP3 SWAP2 SWAP1 PUSH2 0x3E8A JUMP JUMPDEST PUSH1 0x40 MLOAD PUSH1 0x20 DUP2 DUP4 SUB SUB DUP2 MSTORE SWAP1 PUSH1 0x40 MSTORE DUP1 MLOAD SWAP1 PUSH1 0x20 ADD KECCAK256 SWAP1 POP PUSH1 0x0 DUP1 SLOAD SWAP1 PUSH2 0x100 EXP SWAP1 DIV PUSH20 0xFFFFFFFFFFFFFFFFFFFFFFFFFFFFFFFFFFFFFFFF AND PUSH20 0xFFFFFFFFFFFFFFFFFFFFFFFFFFFFFFFFFFFFFFFF AND PUSH4 0x7E4F7A8A DUP6 DUP6 PUSH2 0x1972 DUP6 PUSH2 0x2968 JUMP JUMPDEST PUSH1 0x40 MLOAD DUP5 PUSH4 0xFFFFFFFF AND PUSH1 0xE0 SHL DUP2 MSTORE PUSH1 0x4 ADD PUSH2 0x1990 SWAP4 SWAP3 SWAP2 SWAP1 PUSH2 0x3F27 JUMP JUMPDEST PUSH1 0x20 PUSH1 0x40 MLOAD DUP1 DUP4 SUB DUP2 DUP7 GAS STATICCALL ISZERO DUP1 ISZERO PUSH2 0x19AD JUMPI RETURNDATASIZE PUSH1 0x0 DUP1 RETURNDATACOPY RETURNDATASIZE PUSH1 0x0 REVERT JUMPDEST POP POP POP POP PUSH1 0x40 MLOAD RETURNDATASIZE PUSH1 0x1F NOT PUSH1 0x1F DUP3 ADD AND DUP3 ADD DUP1 PUSH1 0x40 MSTORE POP DUP2 ADD SWAP1 PUSH2 0x19D1 SWAP2 SWAP1 PUSH2 0x3F8C JUMP JUMPDEST SWAP2 POP POP SWAP4 SWAP3 POP POP POP JUMP JUMPDEST DUP1 PUSH1 0x28 PUSH1 0x0 DUP3 DUP2 MSTORE PUSH1 0x20 ADD SWAP1 DUP2 MSTORE PUSH1 0x20 ADD PUSH1 0x0 KECCAK256 PUSH1 0x0 SWAP1 SLOAD SWAP1 PUSH2 0x100 EXP SWAP1 DIV PUSH1 0xFF AND ISZERO PUSH2 0x1A34 JUMPI PUSH1 0x40 MLOAD PUSH32 0x1E5BB9FC00000000000000000000000000000000000000000000000000000000 DUP2 MSTORE PUSH1 0x4 ADD PUSH1 0x40 MLOAD DUP1 SWAP2 SUB SWAP1 REVERT JUMPDEST PUSH1 0x0 CALLVALUE SUB PUSH2 0x1A6E JUMPI PUSH1 0x40 MLOAD PUSH32 0x94FE88D900000000000000000000000000000000000000000000000000000000 DUP2 MSTORE PUSH1 0x4 ADD PUSH1 0x40 MLOAD DUP1 SWAP2 SUB SWAP1 REVERT JUMPDEST PUSH1 0x1 PUSH1 0x28 PUSH1 0x0 DUP5 DUP2 MSTORE PUSH1 0x20 ADD SWAP1 DUP2 MSTORE PUSH1 0x20 ADD PUSH1 0x0 KECCAK256 PUSH1 0x0 PUSH2 0x100 EXP DUP2 SLOAD DUP2 PUSH1 0xFF MUL NOT AND SWAP1 DUP4 ISZERO ISZERO MUL OR SWAP1 SSTORE POP PUSH1 0x0 PUSH2 0x1AC6 PUSH1 0x40 MLOAD DUP1 PUSH1 0x60 ADD PUSH1 0x40 MSTORE DUP1 DUP6 DUP2 MSTORE PUSH1 0x20 ADD PUSH1 0x0 PUSH4 0xFFFFFFFF AND DUP2 MSTORE PUSH1 0x20 ADD CALLVALUE DUP2 MSTORE POP PUSH2 0x231C JUMP JUMPDEST SWAP1 POP PUSH1 0x0 PUSH2 0x1AE7 DUP3 PUSH2 0x1AD6 PUSH2 0x1CF2 JUMP JUMPDEST PUSH1 0x23 PUSH2 0x2A13 SWAP1 SWAP3 SWAP2 SWAP1 PUSH4 0xFFFFFFFF AND JUMP JUMPDEST SWAP1 POP DUP4 PUSH2 0x1AF2 PUSH2 0x1CF2 JUMP JUMPDEST PUSH20 0xFFFFFFFFFFFFFFFFFFFFFFFFFFFFFFFFFFFFFFFF AND DUP3 PUSH32 0x1E88950EEF3C1BD8DD83D765AEC1F21F34CA153104F0ACD7A6218BF8F48E8410 PUSH1 0x0 CALLVALUE TIMESTAMP PUSH1 0x40 MLOAD PUSH2 0x1B3D SWAP4 SWAP3 SWAP2 SWAP1 PUSH2 0x3FF4 JUMP JUMPDEST PUSH1 0x40 MLOAD DUP1 SWAP2 SUB SWAP1 LOG4 POP POP POP POP JUMP JUMPDEST PUSH1 0x0 PUSH32 0x1FFC9A700000000000000000000000000000000000000000000000000000000 PUSH28 0xFFFFFFFFFFFFFFFFFFFFFFFFFFFFFFFFFFFFFFFFFFFFFFFFFFFFFFFF NOT AND DUP3 PUSH28 0xFFFFFFFFFFFFFFFFFFFFFFFFFFFFFFFFFFFFFFFFFFFFFFFFFFFFFFFF NOT AND EQ SWAP1 POP SWAP2 SWAP1 POP JUMP JUMPDEST PUSH1 0x0 PUSH32 0x2DD7BC7DEC4DCEEDDA775E58DD541E08A116C6C53815C0BD028192F7B626800 SWAP1 POP SWAP1 JUMP JUMPDEST PUSH2 0x1BEE DUP2 PUSH2 0x1BE9 PUSH2 0x1CF2 JUMP JUMPDEST PUSH2 0x2B11 JUMP JUMPDEST POP JUMP JUMPDEST PUSH1 0x0 DUP1 PUSH2 0x1BFC PUSH2 0x1BB5 JUMP JUMPDEST SWAP1 POP PUSH2 0x1C08 DUP5 DUP5 PUSH2 0x1506 JUMP JUMPDEST PUSH2 0x1CE6 JUMPI PUSH1 0x1 DUP2 PUSH1 0x0 ADD PUSH1 0x0 DUP7 DUP2 MSTORE PUSH1 0x20 ADD SWAP1 DUP2 MSTORE PUSH1 0x20 ADD PUSH1 0x0 KECCAK256 PUSH1 0x0 ADD PUSH1 0x0 DUP6 PUSH20 0xFFFFFFFFFFFFFFFFFFFFFFFFFFFFFFFFFFFFFFFF AND PUSH20 0xFFFFFFFFFFFFFFFFFFFFFFFFFFFFFFFFFFFFFFFF AND DUP2 MSTORE PUSH1 0x20 ADD SWAP1 DUP2 MSTORE PUSH1 0x20 ADD PUSH1 0x0 KECCAK256 PUSH1 0x0 PUSH2 0x100 EXP DUP2 SLOAD DUP2 PUSH1 0xFF MUL NOT AND SWAP1 DUP4 ISZERO ISZERO MUL OR SWAP1 SSTORE POP PUSH2 0x1C82 PUSH2 0x1CF2 JUMP JUMPDEST PUSH20 0xFFFFFFFFFFFFFFFFFFFFFFFFFFFFFFFFFFFFFFFF AND DUP4 PUSH20 0xFFFFFFFFFFFFFFFFFFFFFFFFFFFFFFFFFFFFFFFF AND DUP6 PUSH32 0x2F8788117E7EFF1D82E926EC794901D17C78024A50270940304540A733656F0D PUSH1 0x40 MLOAD PUSH1 0x40 MLOAD DUP1 SWAP2 SUB SWAP1 LOG4 PUSH1 0x1 SWAP2 POP POP PUSH2 0x1CEC JUMP JUMPDEST PUSH1 0x0 SWAP2 POP POP JUMPDEST SWAP3 SWAP2 POP POP JUMP JUMPDEST PUSH1 0x0 CALLER SWAP1 POP SWAP1 JUMP JUMPDEST PUSH1 0x0 DUP1 PUSH2 0x1D05 PUSH2 0x1BB5 JUMP JUMPDEST SWAP1 POP PUSH2 0x1D11 DUP5 DUP5 PUSH2 0x1506 JUMP JUMPDEST ISZERO PUSH2 0x1DF0 JUMPI PUSH1 0x0 DUP2 PUSH1 0x0 ADD PUSH1 0x0 DUP7 DUP2 MSTORE PUSH1 0x20 ADD SWAP1 DUP2 MSTORE PUSH1 0x20 ADD PUSH1 0x0 KECCAK256 PUSH1 0x0 ADD PUSH1 0x0 DUP6 PUSH20 0xFFFFFFFFFFFFFFFFFFFFFFFFFFFFFFFFFFFFFFFF AND PUSH20 0xFFFFFFFFFFFFFFFFFFFFFFFFFFFFFFFFFFFFFFFF AND DUP2 MSTORE PUSH1 0x20 ADD SWAP1 DUP2 MSTORE PUSH1 0x20 ADD PUSH1 0x0 KECCAK256 PUSH1 0x0 PUSH2 0x100 EXP DUP2 SLOAD DUP2 PUSH1 0xFF MUL NOT AND SWAP1 DUP4 ISZERO ISZERO MUL OR SWAP1 SSTORE POP PUSH2 0x1D8C PUSH2 0x1CF2 JUMP JUMPDEST PUSH20 0xFFFFFFFFFFFFFFFFFFFFFFFFFFFFFFFFFFFFFFFF AND DUP4 PUSH20 0xFFFFFFFFFFFFFFFFFFFFFFFFFFFFFFFFFFFFFFFF AND DUP6 PUSH32 0xF6391F5C32D9C69D2A47EA670B442974B53935D1EDC7FD64EB21E047A839171B PUSH1 0x40 MLOAD PUSH1 0x40 MLOAD DUP1 SWAP2 SUB SWAP1 LOG4 PUSH1 0x1 SWAP2 POP POP PUSH2 0x1DF6 JUMP JUMPDEST PUSH1 0x0 SWAP2 POP POP JUMPDEST SWAP3 SWAP2 POP POP JUMP JUMPDEST PUSH1 0x0 DUP1 DUP3 PUSH1 0x40 ADD MLOAD SWAP1 POP PUSH1 0x0 DUP4 PUSH1 0x20 ADD MLOAD SWAP1 POP PUSH1 0x0 DUP5 PUSH1 0x40 ADD MLOAD SWAP1 POP PUSH1 0x0 JUMPDEST PUSH1 0x20 DUP2 LT ISZERO PUSH2 0x1EE0 JUMPI PUSH1 0x1 DUP1 DUP3 DUP6 SWAP1 SHR AND SUB PUSH2 0x1E7C JUMPI DUP6 PUSH1 0x0 ADD MLOAD DUP2 PUSH1 0x20 DUP2 LT PUSH2 0x1E48 JUMPI PUSH2 0x1E47 PUSH2 0x39A5 JUMP JUMPDEST JUMPDEST PUSH1 0x20 MUL ADD MLOAD DUP5 PUSH1 0x40 MLOAD PUSH1 0x20 ADD PUSH2 0x1E5F SWAP3 SWAP2 SWAP1 PUSH2 0x402B JUMP JUMPDEST PUSH1 0x40 MLOAD PUSH1 0x20 DUP2 DUP4 SUB SUB DUP2 MSTORE SWAP1 PUSH1 0x40 MSTORE DUP1 MLOAD SWAP1 PUSH1 0x20 ADD KECCAK256 SWAP4 POP PUSH2 0x1EA8 JUMP JUMPDEST DUP4 DUP3 PUSH1 0x40 MLOAD PUSH1 0x20 ADD PUSH2 0x1E8F SWAP3 SWAP2 SWAP1 PUSH2 0x402B JUMP JUMPDEST PUSH1 0x40 MLOAD PUSH1 0x20 DUP2 DUP4 SUB SUB DUP2 MSTORE SWAP1 PUSH1 0x40 MSTORE DUP1 MLOAD SWAP1 PUSH1 0x20 ADD KECCAK256 SWAP4 POP JUMPDEST DUP2 DUP3 PUSH1 0x40 MLOAD PUSH1 0x20 ADD PUSH2 0x1EBB SWAP3 SWAP2 SWAP1 PUSH2 0x402B JUMP JUMPDEST PUSH1 0x40 MLOAD PUSH1 0x20 DUP2 DUP4 SUB SUB DUP2 MSTORE SWAP1 PUSH1 0x40 MSTORE DUP1 MLOAD SWAP1 PUSH1 0x20 ADD KECCAK256 SWAP2 POP DUP1 DUP1 PUSH1 0x1 ADD SWAP2 POP POP PUSH2 0x1E1B JUMP JUMPDEST POP DUP3 SWAP4 POP POP POP POP SWAP2 SWAP1 POP JUMP JUMPDEST PUSH1 0x0 PUSH32 0xF0C57E16840DF040F15088DC2F81FE391C3923BEC73E23A9662EFC9C229C6A00 SWAP1 POP SWAP1 JUMP JUMPDEST PUSH1 0x0 DUP2 PUSH1 0x20 ADD DUP2 SWAP1 SSTORE POP PUSH2 0x1F4C PUSH1 0x40 MLOAD DUP1 PUSH1 0x60 ADD PUSH1 0x40 MSTORE DUP1 PUSH1 0x0 DUP1 SHL DUP2 MSTORE PUSH1 0x20 ADD PUSH1 0x0 PUSH4 0xFFFFFFFF AND DUP2 MSTORE PUSH1 0x20 ADD PUSH1 0x0 DUP2 MSTORE POP PUSH2 0x231C JUMP JUMPDEST DUP2 PUSH1 0x21 ADD DUP2 SWAP1 SSTORE POP PUSH1 0x0 JUMPDEST PUSH1 0x20 DUP2 LT ISZERO PUSH2 0x1F8C JUMPI PUSH1 0x0 DUP1 SHL DUP3 PUSH1 0x0 ADD DUP3 PUSH1 0x20 DUP2 LT PUSH2 0x1F7A JUMPI PUSH2 0x1F79 PUSH2 0x39A5 JUMP JUMPDEST JUMPDEST ADD DUP2 SWAP1 SSTORE POP DUP1 DUP1 PUSH1 0x1 ADD SWAP2 POP POP PUSH2 0x1F57 JUMP JUMPDEST POP POP JUMP JUMPDEST DUP1 PUSH1 0x0 ADD PUSH1 0x40 MLOAD DUP1 PUSH1 0x60 ADD PUSH1 0x40 MSTORE DUP1 PUSH1 0x0 DUP1 SHL DUP2 MSTORE PUSH1 0x20 ADD PUSH1 0x0 PUSH20 0xFFFFFFFFFFFFFFFFFFFFFFFFFFFFFFFFFFFFFFFF AND DUP2 MSTORE PUSH1 0x20 ADD PUSH1 0x0 ISZERO ISZERO DUP2 MSTORE POP SWAP1 DUP1 PUSH1 0x1 DUP2 SLOAD ADD DUP1 DUP3 SSTORE DUP1 SWAP2 POP POP PUSH1 0x1 SWAP1 SUB SWAP1 PUSH1 0x0 MSTORE PUSH1 0x20 PUSH1 0x0 KECCAK256 SWAP1 PUSH1 0x2 MUL ADD PUSH1 0x0 SWAP1 SWAP2 SWAP1 SWAP2 SWAP1 SWAP2 POP PUSH1 0x0 DUP3 ADD MLOAD DUP2 PUSH1 0x0 ADD SSTORE PUSH1 0x20 DUP3 ADD MLOAD DUP2 PUSH1 0x1 ADD PUSH1 0x0 PUSH2 0x100 EXP DUP2 SLOAD DUP2 PUSH20 0xFFFFFFFFFFFFFFFFFFFFFFFFFFFFFFFFFFFFFFFF MUL NOT AND SWAP1 DUP4 PUSH20 0xFFFFFFFFFFFFFFFFFFFFFFFFFFFFFFFFFFFFFFFF AND MUL OR SWAP1 SSTORE POP PUSH1 0x40 DUP3 ADD MLOAD DUP2 PUSH1 0x1 ADD PUSH1 0x14 PUSH2 0x100 EXP DUP2 SLOAD DUP2 PUSH1 0xFF MUL NOT AND SWAP1 DUP4 ISZERO ISZERO MUL OR SWAP1 SSTORE POP POP POP PUSH1 0x1 DUP2 PUSH1 0x1 ADD DUP2 SWAP1 SSTORE POP PUSH1 0x1 DUP2 PUSH1 0x2 ADD DUP2 SWAP1 SSTORE POP POP JUMP JUMPDEST PUSH32 0x0 PUSH20 0xFFFFFFFFFFFFFFFFFFFFFFFFFFFFFFFFFFFFFFFF AND ADDRESS PUSH20 0xFFFFFFFFFFFFFFFFFFFFFFFFFFFFFFFFFFFFFFFF AND EQ DUP1 PUSH2 0x212C JUMPI POP PUSH32 0x0 PUSH20 0xFFFFFFFFFFFFFFFFFFFFFFFFFFFFFFFFFFFFFFFF AND PUSH2 0x2113 PUSH2 0x2B62 JUMP JUMPDEST PUSH20 0xFFFFFFFFFFFFFFFFFFFFFFFFFFFFFFFFFFFFFFFF AND EQ ISZERO JUMPDEST ISZERO PUSH2 0x2163 JUMPI PUSH1 0x40 MLOAD PUSH32 0xE07C8DBA00000000000000000000000000000000000000000000000000000000 DUP2 MSTORE PUSH1 0x4 ADD PUSH1 0x40 MLOAD DUP1 SWAP2 SUB SWAP1 REVERT JUMPDEST JUMP JUMPDEST PUSH1 0x0 DUP1 SHL PUSH2 0x2172 DUP2 PUSH2 0x1BDD JUMP JUMPDEST POP POP JUMP JUMPDEST DUP2 PUSH20 0xFFFFFFFFFFFFFFFFFFFFFFFFFFFFFFFFFFFFFFFF AND PUSH4 0x52D1902D PUSH1 0x40 MLOAD DUP2 PUSH4 0xFFFFFFFF AND PUSH1 0xE0 SHL DUP2 MSTORE PUSH1 0x4 ADD PUSH1 0x20 PUSH1 0x40 MLOAD DUP1 DUP4 SUB DUP2 DUP7 GAS STATICCALL SWAP3 POP POP POP DUP1 ISZERO PUSH2 0x21DE JUMPI POP PUSH1 0x40 MLOAD RETURNDATASIZE PUSH1 0x1F NOT PUSH1 0x1F DUP3 ADD AND DUP3 ADD DUP1 PUSH1 0x40 MSTORE POP DUP2 ADD SWAP1 PUSH2 0x21DB SWAP2 SWAP1 PUSH2 0x406C JUMP JUMPDEST PUSH1 0x1 JUMPDEST PUSH2 0x221F JUMPI DUP2 PUSH1 0x40 MLOAD PUSH32 0x4C9C8CE300000000000000000000000000000000000000000000000000000000 DUP2 MSTORE PUSH1 0x4 ADD PUSH2 0x2216 SWAP2 SWAP1 PUSH2 0x40A8 JUMP JUMPDEST PUSH1 0x40 MLOAD DUP1 SWAP2 SUB SWAP1 REVERT JUMPDEST PUSH32 0x360894A13BA1A3210667C828492DB98DCA3E2076CC3735A920A3CA505D382BBC PUSH1 0x0 SHL DUP2 EQ PUSH2 0x2286 JUMPI DUP1 PUSH1 0x40 MLOAD PUSH32 0xAA1D49A400000000000000000000000000000000000000000000000000000000 DUP2 MSTORE PUSH1 0x4 ADD PUSH2 0x227D SWAP2 SWAP1 PUSH2 0x2FBC JUMP JUMPDEST PUSH1 0x40 MLOAD DUP1 SWAP2 SUB SWAP1 REVERT JUMPDEST PUSH2 0x2290 DUP4 DUP4 PUSH2 0x2BB9 JUMP JUMPDEST POP POP POP JUMP JUMPDEST PUSH32 0x0 PUSH20 0xFFFFFFFFFFFFFFFFFFFFFFFFFFFFFFFFFFFFFFFF AND ADDRESS PUSH20 0xFFFFFFFFFFFFFFFFFFFFFFFFFFFFFFFFFFFFFFFF AND EQ PUSH2 0x231A JUMPI PUSH1 0x40 MLOAD PUSH32 0xE07C8DBA00000000000000000000000000000000000000000000000000000000 DUP2 MSTORE PUSH1 0x4 ADD PUSH1 0x40 MLOAD DUP1 SWAP2 SUB SWAP1 REVERT JUMPDEST JUMP JUMPDEST PUSH1 0x0 DUP2 PUSH1 0x0 ADD MLOAD DUP3 PUSH1 0x20 ADD MLOAD DUP4 PUSH1 0x40 ADD MLOAD PUSH1 0x40 MLOAD PUSH1 0x20 ADD PUSH2 0x233F SWAP4 SWAP3 SWAP2 SWAP1 PUSH2 0x40C3 JUMP JUMPDEST PUSH1 0x40 MLOAD PUSH1 0x20 DUP2 DUP4 SUB SUB DUP2 MSTORE SWAP1 PUSH1 0x40 MSTORE DUP1 MLOAD SWAP1 PUSH1 0x20 ADD KECCAK256 SWAP1 POP SWAP2 SWAP1 POP JUMP JUMPDEST PUSH2 0x2364 PUSH2 0x2E98 JUMP JUMPDEST DUP3 PUSH1 0x0 ADD DUP3 DUP2 SLOAD DUP2 LT PUSH2 0x237A JUMPI PUSH2 0x2379 PUSH2 0x39A5 JUMP JUMPDEST JUMPDEST SWAP1 PUSH1 0x0 MSTORE PUSH1 0x20 PUSH1 0x0 KECCAK256 SWAP1 PUSH1 0x2 MUL ADD PUSH1 0x40 MLOAD DUP1 PUSH1 0x60 ADD PUSH1 0x40 MSTORE SWAP1 DUP2 PUSH1 0x0 DUP3 ADD SLOAD DUP2 MSTORE PUSH1 0x20 ADD PUSH1 0x1 DUP3 ADD PUSH1 0x0 SWAP1 SLOAD SWAP1 PUSH2 0x100 EXP SWAP1 DIV PUSH20 0xFFFFFFFFFFFFFFFFFFFFFFFFFFFFFFFFFFFFFFFF AND PUSH20 0xFFFFFFFFFFFFFFFFFFFFFFFFFFFFFFFFFFFFFFFF AND PUSH20 0xFFFFFFFFFFFFFFFFFFFFFFFFFFFFFFFFFFFFFFFF AND DUP2 MSTORE PUSH1 0x20 ADD PUSH1 0x1 DUP3 ADD PUSH1 0x14 SWAP1 SLOAD SWAP1 PUSH2 0x100 EXP SWAP1 DIV PUSH1 0xFF AND ISZERO ISZERO ISZERO ISZERO DUP2 MSTORE POP POP SWAP1 POP DUP3 PUSH1 0x0 ADD DUP3 DUP2 SLOAD DUP2 LT PUSH2 0x2426 JUMPI PUSH2 0x2425 PUSH2 0x39A5 JUMP JUMPDEST JUMPDEST SWAP1 PUSH1 0x0 MSTORE PUSH1 0x20 PUSH1 0x0 KECCAK256 SWAP1 PUSH1 0x2 MUL ADD PUSH1 0x0 DUP1 DUP3 ADD PUSH1 0x0 SWAP1 SSTORE PUSH1 0x1 DUP3 ADD PUSH1 0x0 PUSH2 0x100 EXP DUP2 SLOAD SWAP1 PUSH20 0xFFFFFFFFFFFFFFFFFFFFFFFFFFFFFFFFFFFFFFFF MUL NOT AND SWAP1 SSTORE PUSH1 0x1 DUP3 ADD PUSH1 0x14 PUSH2 0x100 EXP DUP2 SLOAD SWAP1 PUSH1 0xFF MUL NOT AND SWAP1 SSTORE POP POP SWAP3 SWAP2 POP POP JUMP JUMPDEST PUSH1 0x60 PUSH1 0x0 DUP5 PUSH1 0x1 ADD SLOAD SWAP1 POP DUP5 PUSH1 0x2 ADD SLOAD DUP5 LT ISZERO DUP1 PUSH2 0x249D JUMPI POP DUP1 DUP5 LT JUMPDEST ISZERO PUSH2 0x24F3 JUMPI DUP4 DUP2 PUSH1 0x1 DUP8 PUSH1 0x2 ADD SLOAD PUSH2 0x24B5 SWAP2 SWAP1 PUSH2 0x3AA2 JUMP JUMPDEST PUSH1 0x40 MLOAD PUSH32 0x3B40553600000000000000000000000000000000000000000000000000000000 DUP2 MSTORE PUSH1 0x4 ADD PUSH2 0x24EA SWAP4 SWAP3 SWAP2 SWAP1 PUSH2 0x4100 JUMP JUMPDEST PUSH1 0x40 MLOAD DUP1 SWAP2 SUB SWAP1 REVERT JUMPDEST PUSH1 0x0 JUMPDEST DUP4 MLOAD DUP2 LT ISZERO PUSH2 0x25C3 JUMPI PUSH1 0x0 DUP5 DUP3 DUP2 MLOAD DUP2 LT PUSH2 0x2514 JUMPI PUSH2 0x2513 PUSH2 0x39A5 JUMP JUMPDEST JUMPDEST PUSH1 0x20 MUL PUSH1 0x20 ADD ADD MLOAD SWAP1 POP DUP6 DUP2 GT DUP1 PUSH2 0x252B JUMPI POP DUP3 DUP2 LT JUMPDEST ISZERO PUSH2 0x2575 JUMPI DUP1 DUP8 PUSH1 0x1 ADD SLOAD DUP8 PUSH1 0x40 MLOAD PUSH32 0x9E16C3B900000000000000000000000000000000000000000000000000000000 DUP2 MSTORE PUSH1 0x4 ADD PUSH2 0x256C SWAP4 SWAP3 SWAP2 SWAP1 PUSH2 0x4100 JUMP JUMPDEST PUSH1 0x40 MLOAD DUP1 SWAP2 SUB SWAP1 REVERT JUMPDEST PUSH1 0x1 DUP8 PUSH1 0x0 ADD DUP3 DUP2 SLOAD DUP2 LT PUSH2 0x258D JUMPI PUSH2 0x258C PUSH2 0x39A5 JUMP JUMPDEST JUMPDEST SWAP1 PUSH1 0x0 MSTORE PUSH1 0x20 PUSH1 0x0 KECCAK256 SWAP1 PUSH1 0x2 MUL ADD PUSH1 0x1 ADD PUSH1 0x14 PUSH2 0x100 EXP DUP2 SLOAD DUP2 PUSH1 0xFF MUL NOT AND SWAP1 DUP4 ISZERO ISZERO MUL OR SWAP1 SSTORE POP POP DUP1 DUP1 PUSH1 0x1 ADD SWAP2 POP POP PUSH2 0x24F6 JUMP JUMPDEST POP PUSH1 0x0 DUP1 DUP7 PUSH1 0x1 ADD SLOAD SWAP1 POP JUMPDEST DUP6 DUP2 GT PUSH2 0x26AD JUMPI PUSH1 0x0 PUSH20 0xFFFFFFFFFFFFFFFFFFFFFFFFFFFFFFFFFFFFFFFF AND DUP8 PUSH1 0x0 ADD DUP3 DUP2 SLOAD DUP2 LT PUSH2 0x2604 JUMPI PUSH2 0x2603 PUSH2 0x39A5 JUMP JUMPDEST JUMPDEST SWAP1 PUSH1 0x0 MSTORE PUSH1 0x20 PUSH1 0x0 KECCAK256 SWAP1 PUSH1 0x2 MUL ADD PUSH1 0x1 ADD PUSH1 0x0 SWAP1 SLOAD SWAP1 PUSH2 0x100 EXP SWAP1 DIV PUSH20 0xFFFFFFFFFFFFFFFFFFFFFFFFFFFFFFFFFFFFFFFF AND PUSH20 0xFFFFFFFFFFFFFFFFFFFFFFFFFFFFFFFFFFFFFFFF AND SUB ISZERO PUSH2 0x269A JUMPI DUP7 PUSH1 0x0 ADD DUP2 DUP2 SLOAD DUP2 LT PUSH2 0x2668 JUMPI PUSH2 0x2667 PUSH2 0x39A5 JUMP JUMPDEST JUMPDEST SWAP1 PUSH1 0x0 MSTORE PUSH1 0x20 PUSH1 0x0 KECCAK256 SWAP1 PUSH1 0x2 MUL ADD PUSH1 0x1 ADD PUSH1 0x14 SWAP1 SLOAD SWAP1 PUSH2 0x100 EXP SWAP1 DIV PUSH1 0xFF AND PUSH2 0x269A JUMPI DUP2 DUP1 PUSH2 0x2696 SWAP1 PUSH2 0x4137 JUMP JUMPDEST SWAP3 POP POP JUMPDEST DUP1 DUP1 PUSH2 0x26A5 SWAP1 PUSH2 0x4137 JUMP JUMPDEST SWAP2 POP POP PUSH2 0x25CF JUMP JUMPDEST POP PUSH1 0x0 DUP2 PUSH8 0xFFFFFFFFFFFFFFFF DUP2 GT ISZERO PUSH2 0x26CA JUMPI PUSH2 0x26C9 PUSH2 0x2FED JUMP JUMPDEST JUMPDEST PUSH1 0x40 MLOAD SWAP1 DUP1 DUP3 MSTORE DUP1 PUSH1 0x20 MUL PUSH1 0x20 ADD DUP3 ADD PUSH1 0x40 MSTORE DUP1 ISZERO PUSH2 0x26F8 JUMPI DUP2 PUSH1 0x20 ADD PUSH1 0x20 DUP3 MUL DUP1 CALLDATASIZE DUP4 CALLDATACOPY DUP1 DUP3 ADD SWAP2 POP POP SWAP1 POP JUMPDEST POP SWAP1 POP PUSH1 0x0 DUP1 DUP9 PUSH1 0x1 ADD SLOAD SWAP1 POP JUMPDEST DUP8 DUP2 GT PUSH2 0x282B JUMPI PUSH1 0x0 PUSH20 0xFFFFFFFFFFFFFFFFFFFFFFFFFFFFFFFFFFFFFFFF AND DUP10 PUSH1 0x0 ADD DUP3 DUP2 SLOAD DUP2 LT PUSH2 0x273B JUMPI PUSH2 0x273A PUSH2 0x39A5 JUMP JUMPDEST JUMPDEST SWAP1 PUSH1 0x0 MSTORE PUSH1 0x20 PUSH1 0x0 KECCAK256 SWAP1 PUSH1 0x2 MUL ADD PUSH1 0x1 ADD PUSH1 0x0 SWAP1 SLOAD SWAP1 PUSH2 0x100 EXP SWAP1 DIV PUSH20 0xFFFFFFFFFFFFFFFFFFFFFFFFFFFFFFFFFFFFFFFF AND PUSH20 0xFFFFFFFFFFFFFFFFFFFFFFFFFFFFFFFFFFFFFFFF AND SUB ISZERO PUSH2 0x2818 JUMPI DUP9 PUSH1 0x0 ADD DUP2 DUP2 SLOAD DUP2 LT PUSH2 0x279F JUMPI PUSH2 0x279E PUSH2 0x39A5 JUMP JUMPDEST JUMPDEST SWAP1 PUSH1 0x0 MSTORE PUSH1 0x20 PUSH1 0x0 KECCAK256 SWAP1 PUSH1 0x2 MUL ADD PUSH1 0x1 ADD PUSH1 0x14 SWAP1 SLOAD SWAP1 PUSH2 0x100 EXP SWAP1 DIV PUSH1 0xFF AND PUSH2 0x2818 JUMPI DUP9 PUSH1 0x0 ADD DUP2 DUP2 SLOAD DUP2 LT PUSH2 0x27D8 JUMPI PUSH2 0x27D7 PUSH2 0x39A5 JUMP JUMPDEST JUMPDEST SWAP1 PUSH1 0x0 MSTORE PUSH1 0x20 PUSH1 0x0 KECCAK256 SWAP1 PUSH1 0x2 MUL ADD PUSH1 0x0 ADD SLOAD DUP4 DUP4 DUP2 MLOAD DUP2 LT PUSH2 0x27FD JUMPI PUSH2 0x27FC PUSH2 0x39A5 JUMP JUMPDEST JUMPDEST PUSH1 0x20 MUL PUSH1 0x20 ADD ADD DUP2 DUP2 MSTORE POP POP DUP2 DUP1 PUSH2 0x2814 SWAP1 PUSH2 0x4137 JUMP JUMPDEST SWAP3 POP POP JUMPDEST DUP1 DUP1 PUSH2 0x2823 SWAP1 PUSH2 0x4137 JUMP JUMPDEST SWAP2 POP POP PUSH2 0x2706 JUMP JUMPDEST POP PUSH1 0x1 DUP8 PUSH2 0x2839 SWAP2 SWAP1 PUSH2 0x3A6E JUMP JUMPDEST DUP9 PUSH1 0x1 ADD DUP2 SWAP1 SSTORE POP DUP2 SWAP5 POP POP POP POP POP SWAP4 SWAP3 POP POP POP JUMP JUMPDEST PUSH1 0x0 DUP2 SWAP1 POP PUSH1 0x1 PUSH1 0x20 PUSH1 0x2 PUSH2 0x2864 SWAP2 SWAP1 PUSH2 0x42B2 JUMP JUMPDEST PUSH2 0x286E SWAP2 SWAP1 PUSH2 0x3AA2 JUMP JUMPDEST DUP4 PUSH1 0x20 ADD SLOAD LT PUSH2 0x28AA JUMPI PUSH1 0x40 MLOAD PUSH32 0xEF5CCF6600000000000000000000000000000000000000000000000000000000 DUP2 MSTORE PUSH1 0x4 ADD PUSH1 0x40 MLOAD DUP1 SWAP2 SUB SWAP1 REVERT JUMPDEST PUSH1 0x0 DUP4 PUSH1 0x20 ADD PUSH1 0x0 DUP2 SLOAD PUSH2 0x28BD SWAP1 PUSH2 0x4137 JUMP JUMPDEST SWAP2 SWAP1 POP DUP2 SWAP1 SSTORE SWAP1 POP PUSH1 0x0 JUMPDEST PUSH1 0x20 DUP2 LT ISZERO PUSH2 0x2951 JUMPI PUSH1 0x1 DUP1 DUP3 DUP5 SWAP1 SHR AND SUB PUSH2 0x2902 JUMPI DUP3 DUP6 PUSH1 0x0 ADD DUP3 PUSH1 0x20 DUP2 LT PUSH2 0x28F5 JUMPI PUSH2 0x28F4 PUSH2 0x39A5 JUMP JUMPDEST JUMPDEST ADD DUP2 SWAP1 SSTORE POP POP POP POP PUSH2 0x2964 JUMP JUMPDEST DUP5 PUSH1 0x0 ADD DUP2 PUSH1 0x20 DUP2 LT PUSH2 0x2918 JUMPI PUSH2 0x2917 PUSH2 0x39A5 JUMP JUMPDEST JUMPDEST ADD SLOAD DUP4 PUSH1 0x40 MLOAD PUSH1 0x20 ADD PUSH2 0x292C SWAP3 SWAP2 SWAP1 PUSH2 0x402B JUMP JUMPDEST PUSH1 0x40 MLOAD PUSH1 0x20 DUP2 DUP4 SUB SUB DUP2 MSTORE SWAP1 PUSH1 0x40 MSTORE DUP1 MLOAD SWAP1 PUSH1 0x20 ADD KECCAK256 SWAP3 POP DUP1 DUP1 PUSH1 0x1 ADD SWAP2 POP POP PUSH2 0x28C8 JUMP JUMPDEST POP PUSH1 0x0 PUSH2 0x2961 JUMPI PUSH2 0x2960 PUSH2 0x42FD JUMP JUMPDEST JUMPDEST POP POP JUMPDEST POP POP JUMP JUMPDEST PUSH1 0x60 PUSH1 0x0 PUSH1 0x8 PUSH8 0xFFFFFFFFFFFFFFFF DUP2 GT ISZERO PUSH2 0x2987 JUMPI PUSH2 0x2986 PUSH2 0x2FED JUMP JUMPDEST JUMPDEST PUSH1 0x40 MLOAD SWAP1 DUP1 DUP3 MSTORE DUP1 PUSH1 0x20 MUL PUSH1 0x20 ADD DUP3 ADD PUSH1 0x40 MSTORE DUP1 ISZERO PUSH2 0x29B5 JUMPI DUP2 PUSH1 0x20 ADD PUSH1 0x20 DUP3 MUL DUP1 CALLDATASIZE DUP4 CALLDATACOPY DUP1 DUP3 ADD SWAP2 POP POP SWAP1 POP JUMPDEST POP SWAP1 POP PUSH1 0x0 JUMPDEST PUSH1 0x8 DUP2 LT ISZERO PUSH2 0x2A09 JUMPI PUSH1 0x20 DUP2 PUSH2 0x29D1 SWAP2 SWAP1 PUSH2 0x3A2C JUMP JUMPDEST DUP5 SWAP1 SHL PUSH1 0xE0 SHR PUSH4 0xFFFFFFFF AND DUP3 DUP3 DUP2 MLOAD DUP2 LT PUSH2 0x29F0 JUMPI PUSH2 0x29EF PUSH2 0x39A5 JUMP JUMPDEST JUMPDEST PUSH1 0x20 MUL PUSH1 0x20 ADD ADD DUP2 DUP2 MSTORE POP POP DUP1 DUP1 PUSH1 0x1 ADD SWAP2 POP POP PUSH2 0x29BB JUMP JUMPDEST POP DUP1 SWAP2 POP POP SWAP2 SWAP1 POP JUMP JUMPDEST PUSH1 0x0 DUP4 PUSH1 0x0 ADD PUSH1 0x40 MLOAD DUP1 PUSH1 0x60 ADD PUSH1 0x40 MSTORE DUP1 DUP6 DUP2 MSTORE PUSH1 0x20 ADD DUP5 PUSH20 0xFFFFFFFFFFFFFFFFFFFFFFFFFFFFFFFFFFFFFFFF AND DUP2 MSTORE PUSH1 0x20 ADD PUSH1 0x0 ISZERO ISZERO DUP2 MSTORE POP SWAP1 DUP1 PUSH1 0x1 DUP2 SLOAD ADD DUP1 DUP3 SSTORE DUP1 SWAP2 POP POP PUSH1 0x1 SWAP1 SUB SWAP1 PUSH1 0x0 MSTORE PUSH1 0x20 PUSH1 0x0 KECCAK256 SWAP1 PUSH1 0x2 MUL ADD PUSH1 0x0 SWAP1 SWAP2 SWAP1 SWAP2 SWAP1 SWAP2 POP PUSH1 0x0 DUP3 ADD MLOAD DUP2 PUSH1 0x0 ADD SSTORE PUSH1 0x20 DUP3 ADD MLOAD DUP2 PUSH1 0x1 ADD PUSH1 0x0 PUSH2 0x100 EXP DUP2 SLOAD DUP2 PUSH20 0xFFFFFFFFFFFFFFFFFFFFFFFFFFFFFFFFFFFFFFFF MUL NOT AND SWAP1 DUP4 PUSH20 0xFFFFFFFFFFFFFFFFFFFFFFFFFFFFFFFFFFFFFFFF AND MUL OR SWAP1 SSTORE POP PUSH1 0x40 DUP3 ADD MLOAD DUP2 PUSH1 0x1 ADD PUSH1 0x14 PUSH2 0x100 EXP DUP2 SLOAD DUP2 PUSH1 0xFF MUL NOT AND SWAP1 DUP4 ISZERO ISZERO MUL OR SWAP1 SSTORE POP POP POP DUP4 PUSH1 0x2 ADD SLOAD SWAP1 POP DUP4 PUSH1 0x2 ADD PUSH1 0x0 DUP2 SLOAD DUP1 SWAP3 SWAP2 SWAP1 PUSH2 0x2B05 SWAP1 PUSH2 0x4137 JUMP JUMPDEST SWAP2 SWAP1 POP SSTORE POP SWAP4 SWAP3 POP POP POP JUMP JUMPDEST PUSH2 0x2B1B DUP3 DUP3 PUSH2 0x1506 JUMP JUMPDEST PUSH2 0x2B5E JUMPI DUP1 DUP3 PUSH1 0x40 MLOAD PUSH32 0xE2517D3F00000000000000000000000000000000000000000000000000000000 DUP2 MSTORE PUSH1 0x4 ADD PUSH2 0x2B55 SWAP3 SWAP2 SWAP1 PUSH2 0x432C JUMP JUMPDEST PUSH1 0x40 MLOAD DUP1 SWAP2 SUB SWAP1 REVERT JUMPDEST POP POP JUMP JUMPDEST PUSH1 0x0 PUSH2 0x2B90 PUSH32 0x360894A13BA1A3210667C828492DB98DCA3E2076CC3735A920A3CA505D382BBC PUSH1 0x0 SHL PUSH2 0x2C2C JUMP JUMPDEST PUSH1 0x0 ADD PUSH1 0x0 SWAP1 SLOAD SWAP1 PUSH2 0x100 EXP SWAP1 DIV PUSH20 0xFFFFFFFFFFFFFFFFFFFFFFFFFFFFFFFFFFFFFFFF AND SWAP1 POP SWAP1 JUMP JUMPDEST PUSH2 0x2BC2 DUP3 PUSH2 0x2C36 JUMP JUMPDEST DUP2 PUSH20 0xFFFFFFFFFFFFFFFFFFFFFFFFFFFFFFFFFFFFFFFF AND PUSH32 0xBC7CD75A20EE27FD9ADEBAB32041F755214DBC6BFFA90CC0225B39DA2E5C2D3B PUSH1 0x40 MLOAD PUSH1 0x40 MLOAD DUP1 SWAP2 SUB SWAP1 LOG2 PUSH1 0x0 DUP2 MLOAD GT ISZERO PUSH2 0x2C1F JUMPI PUSH2 0x2C19 DUP3 DUP3 PUSH2 0x2D03 JUMP JUMPDEST POP PUSH2 0x2C28 JUMP JUMPDEST PUSH2 0x2C27 PUSH2 0x2D87 JUMP JUMPDEST JUMPDEST POP POP JUMP JUMPDEST PUSH1 0x0 DUP2 SWAP1 POP SWAP2 SWAP1 POP JUMP JUMPDEST PUSH1 0x0 DUP2 PUSH20 0xFFFFFFFFFFFFFFFFFFFFFFFFFFFFFFFFFFFFFFFF AND EXTCODESIZE SUB PUSH2 0x2C92 JUMPI DUP1 PUSH1 0x40 MLOAD PUSH32 0x4C9C8CE300000000000000000000000000000000000000000000000000000000 DUP2 MSTORE PUSH1 0x4 ADD PUSH2 0x2C89 SWAP2 SWAP1 PUSH2 0x40A8 JUMP JUMPDEST PUSH1 0x40 MLOAD DUP1 SWAP2 SUB SWAP1 REVERT JUMPDEST DUP1 PUSH2 0x2CBF PUSH32 0x360894A13BA1A3210667C828492DB98DCA3E2076CC3735A920A3CA505D382BBC PUSH1 0x0 SHL PUSH2 0x2C2C JUMP JUMPDEST PUSH1 0x0 ADD PUSH1 0x0 PUSH2 0x100 EXP DUP2 SLOAD DUP2 PUSH20 0xFFFFFFFFFFFFFFFFFFFFFFFFFFFFFFFFFFFFFFFF MUL NOT AND SWAP1 DUP4 PUSH20 0xFFFFFFFFFFFFFFFFFFFFFFFFFFFFFFFFFFFFFFFF AND MUL OR SWAP1 SSTORE POP POP JUMP JUMPDEST PUSH1 0x60 PUSH1 0x0 DUP1 DUP5 PUSH20 0xFFFFFFFFFFFFFFFFFFFFFFFFFFFFFFFFFFFFFFFF AND DUP5 PUSH1 0x40 MLOAD PUSH2 0x2D2D SWAP2 SWAP1 PUSH2 0x439C JUMP JUMPDEST PUSH1 0x0 PUSH1 0x40 MLOAD DUP1 DUP4 SUB DUP2 DUP6 GAS DELEGATECALL SWAP2 POP POP RETURNDATASIZE DUP1 PUSH1 0x0 DUP2 EQ PUSH2 0x2D68 JUMPI PUSH1 0x40 MLOAD SWAP2 POP PUSH1 0x1F NOT PUSH1 0x3F RETURNDATASIZE ADD AND DUP3 ADD PUSH1 0x40 MSTORE RETURNDATASIZE DUP3 MSTORE RETURNDATASIZE PUSH1 0x0 PUSH1 0x20 DUP5 ADD RETURNDATACOPY PUSH2 0x2D6D JUMP JUMPDEST PUSH1 0x60 SWAP2 POP JUMPDEST POP SWAP2 POP SWAP2 POP PUSH2 0x2D7D DUP6 DUP4 DUP4 PUSH2 0x2DC4 JUMP JUMPDEST SWAP3 POP POP POP SWAP3 SWAP2 POP POP JUMP JUMPDEST PUSH1 0x0 CALLVALUE GT ISZERO PUSH2 0x2DC2 JUMPI PUSH1 0x40 MLOAD PUSH32 0xB398979F00000000000000000000000000000000000000000000000000000000 DUP2 MSTORE PUSH1 0x4 ADD PUSH1 0x40 MLOAD DUP1 SWAP2 SUB SWAP1 REVERT JUMPDEST JUMP JUMPDEST PUSH1 0x60 DUP3 PUSH2 0x2DD9 JUMPI PUSH2 0x2DD4 DUP3 PUSH2 0x2E53 JUMP JUMPDEST PUSH2 0x2E4B JUMP JUMPDEST PUSH1 0x0 DUP3 MLOAD EQ DUP1 ISZERO PUSH2 0x2E01 JUMPI POP PUSH1 0x0 DUP5 PUSH20 0xFFFFFFFFFFFFFFFFFFFFFFFFFFFFFFFFFFFFFFFF AND EXTCODESIZE EQ JUMPDEST ISZERO PUSH2 0x2E43 JUMPI DUP4 PUSH1 0x40 MLOAD PUSH32 0x9996B31500000000000000000000000000000000000000000000000000000000 DUP2 MSTORE PUSH1 0x4 ADD PUSH2 0x2E3A SWAP2 SWAP1 PUSH2 0x40A8 JUMP JUMPDEST PUSH1 0x40 MLOAD DUP1 SWAP2 SUB SWAP1 REVERT JUMPDEST DUP2 SWAP1 POP PUSH2 0x2E4C JUMP JUMPDEST JUMPDEST SWAP4 SWAP3 POP POP POP JUMP JUMPDEST PUSH1 0x0 DUP2 MLOAD GT ISZERO PUSH2 0x2E66 JUMPI DUP1 MLOAD DUP1 DUP3 PUSH1 0x20 ADD REVERT JUMPDEST PUSH1 0x40 MLOAD PUSH32 0x1425EA4200000000000000000000000000000000000000000000000000000000 DUP2 MSTORE PUSH1 0x4 ADD PUSH1 0x40 MLOAD DUP1 SWAP2 SUB SWAP1 REVERT JUMPDEST PUSH1 0x40 MLOAD DUP1 PUSH1 0x60 ADD PUSH1 0x40 MSTORE DUP1 PUSH1 0x0 DUP1 NOT AND DUP2 MSTORE PUSH1 0x20 ADD PUSH1 0x0 PUSH20 0xFFFFFFFFFFFFFFFFFFFFFFFFFFFFFFFFFFFFFFFF AND DUP2 MSTORE PUSH1 0x20 ADD PUSH1 0x0 ISZERO ISZERO DUP2 MSTORE POP SWAP1 JUMP JUMPDEST PUSH1 0x0 PUSH1 0x40 MLOAD SWAP1 POP SWAP1 JUMP JUMPDEST PUSH1 0x0 DUP1 REVERT JUMPDEST PUSH1 0x0 DUP1 REVERT JUMPDEST PUSH1 0x0 PUSH32 0xFFFFFFFF00000000000000000000000000000000000000000000000000000000 DUP3 AND SWAP1 POP SWAP2 SWAP1 POP JUMP JUMPDEST PUSH2 0x2F1D DUP2 PUSH2 0x2EE8 JUMP JUMPDEST DUP2 EQ PUSH2 0x2F28 JUMPI PUSH1 0x0 DUP1 REVERT JUMPDEST POP JUMP JUMPDEST PUSH1 0x0 DUP2 CALLDATALOAD SWAP1 POP PUSH2 0x2F3A DUP2 PUSH2 0x2F14 JUMP JUMPDEST SWAP3 SWAP2 POP POP JUMP JUMPDEST PUSH1 0x0 PUSH1 0x20 DUP3 DUP5 SUB SLT ISZERO PUSH2 0x2F56 JUMPI PUSH2 0x2F55 PUSH2 0x2EDE JUMP JUMPDEST JUMPDEST PUSH1 0x0 PUSH2 0x2F64 DUP5 DUP3 DUP6 ADD PUSH2 0x2F2B JUMP JUMPDEST SWAP2 POP POP SWAP3 SWAP2 POP POP JUMP JUMPDEST PUSH1 0x0 DUP2 ISZERO ISZERO SWAP1 POP SWAP2 SWAP1 POP JUMP JUMPDEST PUSH2 0x2F82 DUP2 PUSH2 0x2F6D JUMP JUMPDEST DUP3 MSTORE POP POP JUMP JUMPDEST PUSH1 0x0 PUSH1 0x20 DUP3 ADD SWAP1 POP PUSH2 0x2F9D PUSH1 0x0 DUP4 ADD DUP5 PUSH2 0x2F79 JUMP JUMPDEST SWAP3 SWAP2 POP POP JUMP JUMPDEST PUSH1 0x0 DUP2 SWAP1 POP SWAP2 SWAP1 POP JUMP JUMPDEST PUSH2 0x2FB6 DUP2 PUSH2 0x2FA3 JUMP JUMPDEST DUP3 MSTORE POP POP JUMP JUMPDEST PUSH1 0x0 PUSH1 0x20 DUP3 ADD SWAP1 POP PUSH2 0x2FD1 PUSH1 0x0 DUP4 ADD DUP5 PUSH2 0x2FAD JUMP JUMPDEST SWAP3 SWAP2 POP POP JUMP JUMPDEST PUSH1 0x0 DUP1 REVERT JUMPDEST PUSH1 0x0 PUSH1 0x1F NOT PUSH1 0x1F DUP4 ADD AND SWAP1 POP SWAP2 SWAP1 POP JUMP JUMPDEST PUSH32 0x4E487B7100000000000000000000000000000000000000000000000000000000 PUSH1 0x0 MSTORE PUSH1 0x41 PUSH1 0x4 MSTORE PUSH1 0x24 PUSH1 0x0 REVERT JUMPDEST PUSH2 0x3025 DUP3 PUSH2 0x2FDC JUMP JUMPDEST DUP2 ADD DUP2 DUP2 LT PUSH8 0xFFFFFFFFFFFFFFFF DUP3 GT OR ISZERO PUSH2 0x3044 JUMPI PUSH2 0x3043 PUSH2 0x2FED JUMP JUMPDEST JUMPDEST DUP1 PUSH1 0x40 MSTORE POP POP POP JUMP JUMPDEST PUSH1 0x0 PUSH2 0x3057 PUSH2 0x2ED4 JUMP JUMPDEST SWAP1 POP PUSH2 0x3063 DUP3 DUP3 PUSH2 0x301C JUMP JUMPDEST SWAP2 SWAP1 POP JUMP JUMPDEST PUSH1 0x0 PUSH8 0xFFFFFFFFFFFFFFFF DUP3 GT ISZERO PUSH2 0x3083 JUMPI PUSH2 0x3082 PUSH2 0x2FED JUMP JUMPDEST JUMPDEST PUSH1 0x20 DUP3 MUL SWAP1 POP PUSH1 0x20 DUP2 ADD SWAP1 POP SWAP2 SWAP1 POP JUMP JUMPDEST PUSH1 0x0 DUP1 REVERT JUMPDEST PUSH1 0x0 DUP2 SWAP1 POP SWAP2 SWAP1 POP JUMP JUMPDEST PUSH2 0x30AC DUP2 PUSH2 0x3099 JUMP JUMPDEST DUP2 EQ PUSH2 0x30B7 JUMPI PUSH1 0x0 DUP1 REVERT JUMPDEST POP JUMP JUMPDEST PUSH1 0x0 DUP2 CALLDATALOAD SWAP1 POP PUSH2 0x30C9 DUP2 PUSH2 0x30A3 JUMP JUMPDEST SWAP3 SWAP2 POP POP JUMP JUMPDEST PUSH1 0x0 PUSH2 0x30E2 PUSH2 0x30DD DUP5 PUSH2 0x3068 JUMP JUMPDEST PUSH2 0x304D JUMP JUMPDEST SWAP1 POP DUP1 DUP4 DUP3 MSTORE PUSH1 0x20 DUP3 ADD SWAP1 POP PUSH1 0x20 DUP5 MUL DUP4 ADD DUP6 DUP2 GT ISZERO PUSH2 0x3105 JUMPI PUSH2 0x3104 PUSH2 0x3094 JUMP JUMPDEST JUMPDEST DUP4 JUMPDEST DUP2 DUP2 LT ISZERO PUSH2 0x312E JUMPI DUP1 PUSH2 0x311A DUP9 DUP3 PUSH2 0x30BA JUMP JUMPDEST DUP5 MSTORE PUSH1 0x20 DUP5 ADD SWAP4 POP POP PUSH1 0x20 DUP2 ADD SWAP1 POP PUSH2 0x3107 JUMP JUMPDEST POP POP POP SWAP4 SWAP3 POP POP POP JUMP JUMPDEST PUSH1 0x0 DUP3 PUSH1 0x1F DUP4 ADD SLT PUSH2 0x314D JUMPI PUSH2 0x314C PUSH2 0x2FD7 JUMP JUMPDEST JUMPDEST DUP2 CALLDATALOAD PUSH2 0x315D DUP5 DUP3 PUSH1 0x20 DUP7 ADD PUSH2 0x30CF JUMP JUMPDEST SWAP2 POP POP SWAP3 SWAP2 POP POP JUMP JUMPDEST PUSH1 0x0 PUSH1 0x20 DUP3 DUP5 SUB SLT ISZERO PUSH2 0x317C JUMPI PUSH2 0x317B PUSH2 0x2EDE JUMP JUMPDEST JUMPDEST PUSH1 0x0 DUP3 ADD CALLDATALOAD PUSH8 0xFFFFFFFFFFFFFFFF DUP2 GT ISZERO PUSH2 0x319A JUMPI PUSH2 0x3199 PUSH2 0x2EE3 JUMP JUMPDEST JUMPDEST PUSH2 0x31A6 DUP5 DUP3 DUP6 ADD PUSH2 0x3138 JUMP JUMPDEST SWAP2 POP POP SWAP3 SWAP2 POP POP JUMP JUMPDEST PUSH1 0x0 DUP2 MLOAD SWAP1 POP SWAP2 SWAP1 POP JUMP JUMPDEST PUSH1 0x0 DUP3 DUP3 MSTORE PUSH1 0x20 DUP3 ADD SWAP1 POP SWAP3 SWAP2 POP POP JUMP JUMPDEST PUSH1 0x0 DUP2 SWAP1 POP PUSH1 0x20 DUP3 ADD SWAP1 POP SWAP2 SWAP1 POP JUMP JUMPDEST PUSH2 0x31E4 DUP2 PUSH2 0x2FA3 JUMP JUMPDEST DUP3 MSTORE POP POP JUMP JUMPDEST PUSH1 0x0 PUSH20 0xFFFFFFFFFFFFFFFFFFFFFFFFFFFFFFFFFFFFFFFF DUP3 AND SWAP1 POP SWAP2 SWAP1 POP JUMP JUMPDEST PUSH1 0x0 PUSH2 0x3215 DUP3 PUSH2 0x31EA JUMP JUMPDEST SWAP1 POP SWAP2 SWAP1 POP JUMP JUMPDEST PUSH2 0x3225 DUP2 PUSH2 0x320A JUMP JUMPDEST DUP3 MSTORE POP POP JUMP JUMPDEST PUSH2 0x3234 DUP2 PUSH2 0x2F6D JUMP JUMPDEST DUP3 MSTORE POP POP JUMP JUMPDEST PUSH1 0x60 DUP3 ADD PUSH1 0x0 DUP3 ADD MLOAD PUSH2 0x3250 PUSH1 0x0 DUP6 ADD DUP3 PUSH2 0x31DB JUMP JUMPDEST POP PUSH1 0x20 DUP3 ADD MLOAD PUSH2 0x3263 PUSH1 0x20 DUP6 ADD DUP3 PUSH2 0x321C JUMP JUMPDEST POP PUSH1 0x40 DUP3 ADD MLOAD PUSH2 0x3276 PUSH1 0x40 DUP6 ADD DUP3 PUSH2 0x322B JUMP JUMPDEST POP POP POP POP JUMP JUMPDEST PUSH1 0x0 PUSH2 0x3288 DUP4 DUP4 PUSH2 0x323A JUMP JUMPDEST PUSH1 0x60 DUP4 ADD SWAP1 POP SWAP3 SWAP2 POP POP JUMP JUMPDEST PUSH1 0x0 PUSH1 0x20 DUP3 ADD SWAP1 POP SWAP2 SWAP1 POP JUMP JUMPDEST PUSH1 0x0 PUSH2 0x32AC DUP3 PUSH2 0x31AF JUMP JUMPDEST PUSH2 0x32B6 DUP2 DUP6 PUSH2 0x31BA JUMP JUMPDEST SWAP4 POP PUSH2 0x32C1 DUP4 PUSH2 0x31CB JUMP JUMPDEST DUP1 PUSH1 0x0 JUMPDEST DUP4 DUP2 LT ISZERO PUSH2 0x32F2 JUMPI DUP2 MLOAD PUSH2 0x32D9 DUP9 DUP3 PUSH2 0x327C JUMP JUMPDEST SWAP8 POP PUSH2 0x32E4 DUP4 PUSH2 0x3294 JUMP JUMPDEST SWAP3 POP POP PUSH1 0x1 DUP2 ADD SWAP1 POP PUSH2 0x32C5 JUMP JUMPDEST POP DUP6 SWAP4 POP POP POP POP SWAP3 SWAP2 POP POP JUMP JUMPDEST PUSH1 0x0 PUSH1 0x20 DUP3 ADD SWAP1 POP DUP2 DUP2 SUB PUSH1 0x0 DUP4 ADD MSTORE PUSH2 0x3319 DUP2 DUP5 PUSH2 0x32A1 JUMP JUMPDEST SWAP1 POP SWAP3 SWAP2 POP POP JUMP JUMPDEST PUSH2 0x332A DUP2 PUSH2 0x2FA3 JUMP JUMPDEST DUP2 EQ PUSH2 0x3335 JUMPI PUSH1 0x0 DUP1 REVERT JUMPDEST POP JUMP JUMPDEST PUSH1 0x0 DUP2 CALLDATALOAD SWAP1 POP PUSH2 0x3347 DUP2 PUSH2 0x3321 JUMP JUMPDEST SWAP3 SWAP2 POP POP JUMP JUMPDEST PUSH1 0x0 PUSH1 0x20 DUP3 DUP5 SUB SLT ISZERO PUSH2 0x3363 JUMPI PUSH2 0x3362 PUSH2 0x2EDE JUMP JUMPDEST JUMPDEST PUSH1 0x0 PUSH2 0x3371 DUP5 DUP3 DUP6 ADD PUSH2 0x3338 JUMP JUMPDEST SWAP2 POP POP SWAP3 SWAP2 POP POP JUMP JUMPDEST PUSH2 0x3383 DUP2 PUSH2 0x3099 JUMP JUMPDEST DUP3 MSTORE POP POP JUMP JUMPDEST PUSH1 0x0 PUSH1 0x20 DUP3 ADD SWAP1 POP PUSH2 0x339E PUSH1 0x0 DUP4 ADD DUP5 PUSH2 0x337A JUMP JUMPDEST SWAP3 SWAP2 POP POP JUMP JUMPDEST PUSH2 0x33AD DUP2 PUSH2 0x320A JUMP JUMPDEST DUP2 EQ PUSH2 0x33B8 JUMPI PUSH1 0x0 DUP1 REVERT JUMPDEST POP JUMP JUMPDEST PUSH1 0x0 DUP2 CALLDATALOAD SWAP1 POP PUSH2 0x33CA DUP2 PUSH2 0x33A4 JUMP JUMPDEST SWAP3 SWAP2 POP POP JUMP JUMPDEST PUSH1 0x0 DUP1 PUSH1 0x40 DUP4 DUP6 SUB SLT ISZERO PUSH2 0x33E7 JUMPI PUSH2 0x33E6 PUSH2 0x2EDE JUMP JUMPDEST JUMPDEST PUSH1 0x0 PUSH2 0x33F5 DUP6 DUP3 DUP7 ADD PUSH2 0x3338 JUMP JUMPDEST SWAP3 POP POP PUSH1 0x20 PUSH2 0x3406 DUP6 DUP3 DUP7 ADD PUSH2 0x33BB JUMP JUMPDEST SWAP2 POP POP SWAP3 POP SWAP3 SWAP1 POP JUMP JUMPDEST PUSH1 0x0 DUP1 REVERT JUMPDEST PUSH1 0x0 PUSH4 0xFFFFFFFF DUP3 AND SWAP1 POP SWAP2 SWAP1 POP JUMP JUMPDEST PUSH2 0x342E DUP2 PUSH2 0x3415 JUMP JUMPDEST DUP2 EQ PUSH2 0x3439 JUMPI PUSH1 0x0 DUP1 REVERT JUMPDEST POP JUMP JUMPDEST PUSH1 0x0 DUP2 CALLDATALOAD SWAP1 POP PUSH2 0x344B DUP2 PUSH2 0x3425 JUMP JUMPDEST SWAP3 SWAP2 POP POP JUMP JUMPDEST PUSH1 0x0 PUSH1 0xA0 DUP3 DUP5 SUB SLT ISZERO PUSH2 0x3467 JUMPI PUSH2 0x3466 PUSH2 0x3410 JUMP JUMPDEST JUMPDEST PUSH2 0x3471 PUSH1 0xA0 PUSH2 0x304D JUMP JUMPDEST SWAP1 POP PUSH1 0x0 PUSH2 0x3481 DUP5 DUP3 DUP6 ADD PUSH2 0x3338 JUMP JUMPDEST PUSH1 0x0 DUP4 ADD MSTORE POP PUSH1 0x20 PUSH2 0x3495 DUP5 DUP3 DUP6 ADD PUSH2 0x3338 JUMP JUMPDEST PUSH1 0x20 DUP4 ADD MSTORE POP PUSH1 0x40 PUSH2 0x34A9 DUP5 DUP3 DUP6 ADD PUSH2 0x33BB JUMP JUMPDEST PUSH1 0x40 DUP4 ADD MSTORE POP PUSH1 0x60 PUSH2 0x34BD DUP5 DUP3 DUP6 ADD PUSH2 0x343C JUMP JUMPDEST PUSH1 0x60 DUP4 ADD MSTORE POP PUSH1 0x80 PUSH2 0x34D1 DUP5 DUP3 DUP6 ADD PUSH2 0x30BA JUMP JUMPDEST PUSH1 0x80 DUP4 ADD MSTORE POP SWAP3 SWAP2 POP POP JUMP JUMPDEST PUSH1 0x0 DUP1 REVERT JUMPDEST PUSH1 0x0 DUP1 DUP4 PUSH1 0x1F DUP5 ADD SLT PUSH2 0x34F8 JUMPI PUSH2 0x34F7 PUSH2 0x2FD7 JUMP JUMPDEST JUMPDEST DUP3 CALLDATALOAD SWAP1 POP PUSH8 0xFFFFFFFFFFFFFFFF DUP2 GT ISZERO PUSH2 0x3515 JUMPI PUSH2 0x3514 PUSH2 0x34DD JUMP JUMPDEST JUMPDEST PUSH1 0x20 DUP4 ADD SWAP2 POP DUP4 PUSH1 0x1 DUP3 MUL DUP4 ADD GT ISZERO PUSH2 0x3531 JUMPI PUSH2 0x3530 PUSH2 0x3094 JUMP JUMPDEST JUMPDEST SWAP3 POP SWAP3 SWAP1 POP JUMP JUMPDEST PUSH1 0x0 DUP1 PUSH1 0x0 PUSH1 0xC0 DUP5 DUP7 SUB SLT ISZERO PUSH2 0x3551 JUMPI PUSH2 0x3550 PUSH2 0x2EDE JUMP JUMPDEST JUMPDEST PUSH1 0x0 PUSH2 0x355F DUP7 DUP3 DUP8 ADD PUSH2 0x3451 JUMP JUMPDEST SWAP4 POP POP PUSH1 0xA0 DUP5 ADD CALLDATALOAD PUSH8 0xFFFFFFFFFFFFFFFF DUP2 GT ISZERO PUSH2 0x3580 JUMPI PUSH2 0x357F PUSH2 0x2EE3 JUMP JUMPDEST JUMPDEST PUSH2 0x358C DUP7 DUP3 DUP8 ADD PUSH2 0x34E2 JUMP JUMPDEST SWAP3 POP SWAP3 POP POP SWAP3 POP SWAP3 POP SWAP3 JUMP JUMPDEST PUSH1 0x0 DUP2 SWAP1 POP SWAP2 SWAP1 POP JUMP JUMPDEST PUSH1 0x0 PUSH2 0x35BD PUSH2 0x35B8 PUSH2 0x35B3 DUP5 PUSH2 0x31EA JUMP JUMPDEST PUSH2 0x3598 JUMP JUMPDEST PUSH2 0x31EA JUMP JUMPDEST SWAP1 POP SWAP2 SWAP1 POP JUMP JUMPDEST PUSH1 0x0 PUSH2 0x35CF DUP3 PUSH2 0x35A2 JUMP JUMPDEST SWAP1 POP SWAP2 SWAP1 POP JUMP JUMPDEST PUSH1 0x0 PUSH2 0x35E1 DUP3 PUSH2 0x35C4 JUMP JUMPDEST SWAP1 POP SWAP2 SWAP1 POP JUMP JUMPDEST PUSH2 0x35F1 DUP2 PUSH2 0x35D6 JUMP JUMPDEST DUP3 MSTORE POP POP JUMP JUMPDEST PUSH1 0x0 PUSH1 0x20 DUP3 ADD SWAP1 POP PUSH2 0x360C PUSH1 0x0 DUP4 ADD DUP5 PUSH2 0x35E8 JUMP JUMPDEST SWAP3 SWAP2 POP POP JUMP JUMPDEST PUSH1 0x0 DUP1 PUSH1 0x40 DUP4 DUP6 SUB SLT ISZERO PUSH2 0x3629 JUMPI PUSH2 0x3628 PUSH2 0x2EDE JUMP JUMPDEST JUMPDEST PUSH1 0x0 PUSH2 0x3637 DUP6 DUP3 DUP7 ADD PUSH2 0x33BB JUMP JUMPDEST SWAP3 POP POP PUSH1 0x20 PUSH2 0x3648 DUP6 DUP3 DUP7 ADD PUSH2 0x33BB JUMP JUMPDEST SWAP2 POP POP SWAP3 POP SWAP3 SWAP1 POP JUMP JUMPDEST PUSH1 0x0 DUP1 REVERT JUMPDEST PUSH1 0x0 PUSH8 0xFFFFFFFFFFFFFFFF DUP3 GT ISZERO PUSH2 0x3672 JUMPI PUSH2 0x3671 PUSH2 0x2FED JUMP JUMPDEST JUMPDEST PUSH2 0x367B DUP3 PUSH2 0x2FDC JUMP JUMPDEST SWAP1 POP PUSH1 0x20 DUP2 ADD SWAP1 POP SWAP2 SWAP1 POP JUMP JUMPDEST DUP3 DUP2 DUP4 CALLDATACOPY PUSH1 0x0 DUP4 DUP4 ADD MSTORE POP POP POP JUMP JUMPDEST PUSH1 0x0 PUSH2 0x36AA PUSH2 0x36A5 DUP5 PUSH2 0x3657 JUMP JUMPDEST PUSH2 0x304D JUMP JUMPDEST SWAP1 POP DUP3 DUP2 MSTORE PUSH1 0x20 DUP2 ADD DUP5 DUP5 DUP5 ADD GT ISZERO PUSH2 0x36C6 JUMPI PUSH2 0x36C5 PUSH2 0x3652 JUMP JUMPDEST JUMPDEST PUSH2 0x36D1 DUP5 DUP3 DUP6 PUSH2 0x3688 JUMP JUMPDEST POP SWAP4 SWAP3 POP POP POP JUMP JUMPDEST PUSH1 0x0 DUP3 PUSH1 0x1F DUP4 ADD SLT PUSH2 0x36EE JUMPI PUSH2 0x36ED PUSH2 0x2FD7 JUMP JUMPDEST JUMPDEST DUP2 CALLDATALOAD PUSH2 0x36FE DUP5 DUP3 PUSH1 0x20 DUP7 ADD PUSH2 0x3697 JUMP JUMPDEST SWAP2 POP POP SWAP3 SWAP2 POP POP JUMP JUMPDEST PUSH1 0x0 DUP1 PUSH1 0x40 DUP4 DUP6 SUB SLT ISZERO PUSH2 0x371E JUMPI PUSH2 0x371D PUSH2 0x2EDE JUMP JUMPDEST JUMPDEST PUSH1 0x0 PUSH2 0x372C DUP6 DUP3 DUP7 ADD PUSH2 0x33BB JUMP JUMPDEST SWAP3 POP POP PUSH1 0x20 DUP4 ADD CALLDATALOAD PUSH8 0xFFFFFFFFFFFFFFFF DUP2 GT ISZERO PUSH2 0x374D JUMPI PUSH2 0x374C PUSH2 0x2EE3 JUMP JUMPDEST JUMPDEST PUSH2 0x3759 DUP6 DUP3 DUP7 ADD PUSH2 0x36D9 JUMP JUMPDEST SWAP2 POP POP SWAP3 POP SWAP3 SWAP1 POP JUMP JUMPDEST PUSH1 0x0 PUSH1 0x20 DUP3 DUP5 SUB SLT ISZERO PUSH2 0x3779 JUMPI PUSH2 0x3778 PUSH2 0x2EDE JUMP JUMPDEST JUMPDEST PUSH1 0x0 PUSH2 0x3787 DUP5 DUP3 DUP6 ADD PUSH2 0x33BB JUMP JUMPDEST SWAP2 POP POP SWAP3 SWAP2 POP POP JUMP JUMPDEST PUSH1 0x0 DUP1 REVERT JUMPDEST PUSH1 0x0 PUSH1 0x60 DUP3 DUP5 SUB SLT ISZERO PUSH2 0x37AB JUMPI PUSH2 0x37AA PUSH2 0x3790 JUMP JUMPDEST JUMPDEST DUP2 SWAP1 POP SWAP3 SWAP2 POP POP JUMP JUMPDEST PUSH1 0x0 DUP1 PUSH1 0x80 DUP4 DUP6 SUB SLT ISZERO PUSH2 0x37CB JUMPI PUSH2 0x37CA PUSH2 0x2EDE JUMP JUMPDEST JUMPDEST PUSH1 0x0 PUSH2 0x37D9 DUP6 DUP3 DUP7 ADD PUSH2 0x30BA JUMP JUMPDEST SWAP3 POP POP PUSH1 0x20 PUSH2 0x37EA DUP6 DUP3 DUP7 ADD PUSH2 0x3795 JUMP JUMPDEST SWAP2 POP POP SWAP3 POP SWAP3 SWAP1 POP JUMP JUMPDEST PUSH2 0x37FD DUP2 PUSH2 0x3415 JUMP JUMPDEST DUP3 MSTORE POP POP JUMP JUMPDEST PUSH1 0x0 PUSH1 0x20 DUP3 ADD SWAP1 POP PUSH2 0x3818 PUSH1 0x0 DUP4 ADD DUP5 PUSH2 0x37F4 JUMP JUMPDEST SWAP3 SWAP2 POP POP JUMP JUMPDEST PUSH1 0x0 DUP2 MLOAD SWAP1 POP SWAP2 SWAP1 POP JUMP JUMPDEST PUSH1 0x0 DUP3 DUP3 MSTORE PUSH1 0x20 DUP3 ADD SWAP1 POP SWAP3 SWAP2 POP POP JUMP JUMPDEST PUSH1 0x0 JUMPDEST DUP4 DUP2 LT ISZERO PUSH2 0x3858 JUMPI DUP1 DUP3 ADD MLOAD DUP2 DUP5 ADD MSTORE PUSH1 0x20 DUP2 ADD SWAP1 POP PUSH2 0x383D JUMP JUMPDEST PUSH1 0x0 DUP5 DUP5 ADD MSTORE POP POP POP POP JUMP JUMPDEST PUSH1 0x0 PUSH2 0x386F DUP3 PUSH2 0x381E JUMP JUMPDEST PUSH2 0x3879 DUP2 DUP6 PUSH2 0x3829 JUMP JUMPDEST SWAP4 POP PUSH2 0x3889 DUP2 DUP6 PUSH1 0x20 DUP7 ADD PUSH2 0x383A JUMP JUMPDEST PUSH2 0x3892 DUP2 PUSH2 0x2FDC JUMP JUMPDEST DUP5 ADD SWAP2 POP POP SWAP3 SWAP2 POP POP JUMP JUMPDEST PUSH1 0x0 PUSH1 0x20 DUP3 ADD SWAP1 POP DUP2 DUP2 SUB PUSH1 0x0 DUP4 ADD MSTORE PUSH2 0x38B7 DUP2 DUP5 PUSH2 0x3864 JUMP JUMPDEST SWAP1 POP SWAP3 SWAP2 POP POP JUMP JUMPDEST PUSH1 0x0 PUSH1 0x20 DUP3 DUP5 SUB SLT ISZERO PUSH2 0x38D5 JUMPI PUSH2 0x38D4 PUSH2 0x2EDE JUMP JUMPDEST JUMPDEST PUSH1 0x0 PUSH2 0x38E3 DUP5 DUP3 DUP6 ADD PUSH2 0x30BA JUMP JUMPDEST SWAP2 POP POP SWAP3 SWAP2 POP POP JUMP JUMPDEST PUSH1 0x60 DUP3 ADD PUSH1 0x0 DUP3 ADD MLOAD PUSH2 0x3902 PUSH1 0x0 DUP6 ADD DUP3 PUSH2 0x31DB JUMP JUMPDEST POP PUSH1 0x20 DUP3 ADD MLOAD PUSH2 0x3915 PUSH1 0x20 DUP6 ADD DUP3 PUSH2 0x321C JUMP JUMPDEST POP PUSH1 0x40 DUP3 ADD MLOAD PUSH2 0x3928 PUSH1 0x40 DUP6 ADD DUP3 PUSH2 0x322B JUMP JUMPDEST POP POP POP POP JUMP JUMPDEST PUSH1 0x0 PUSH1 0x60 DUP3 ADD SWAP1 POP PUSH2 0x3943 PUSH1 0x0 DUP4 ADD DUP5 PUSH2 0x38EC JUMP JUMPDEST SWAP3 SWAP2 POP POP JUMP JUMPDEST PUSH1 0x0 DUP1 PUSH1 0x40 DUP4 DUP6 SUB SLT ISZERO PUSH2 0x3960 JUMPI PUSH2 0x395F PUSH2 0x2EDE JUMP JUMPDEST JUMPDEST PUSH1 0x0 PUSH2 0x396E DUP6 DUP3 DUP7 ADD PUSH2 0x30BA JUMP JUMPDEST SWAP3 POP POP PUSH1 0x20 DUP4 ADD CALLDATALOAD PUSH8 0xFFFFFFFFFFFFFFFF DUP2 GT ISZERO PUSH2 0x398F JUMPI PUSH2 0x398E PUSH2 0x2EE3 JUMP JUMPDEST JUMPDEST PUSH2 0x399B DUP6 DUP3 DUP7 ADD PUSH2 0x3138 JUMP JUMPDEST SWAP2 POP POP SWAP3 POP SWAP3 SWAP1 POP JUMP JUMPDEST PUSH32 0x4E487B7100000000000000000000000000000000000000000000000000000000 PUSH1 0x0 MSTORE PUSH1 0x32 PUSH1 0x4 MSTORE PUSH1 0x24 PUSH1 0x0 REVERT JUMPDEST PUSH1 0x0 PUSH1 0x40 DUP3 ADD SWAP1 POP PUSH2 0x39E9 PUSH1 0x0 DUP4 ADD DUP6 PUSH2 0x37F4 JUMP JUMPDEST PUSH2 0x39F6 PUSH1 0x20 DUP4 ADD DUP5 PUSH2 0x337A JUMP JUMPDEST SWAP4 SWAP3 POP POP POP JUMP JUMPDEST PUSH32 0x4E487B7100000000000000000000000000000000000000000000000000000000 PUSH1 0x0 MSTORE PUSH1 0x11 PUSH1 0x4 MSTORE PUSH1 0x24 PUSH1 0x0 REVERT JUMPDEST PUSH1 0x0 PUSH2 0x3A37 DUP3 PUSH2 0x3099 JUMP JUMPDEST SWAP2 POP PUSH2 0x3A42 DUP4 PUSH2 0x3099 JUMP JUMPDEST SWAP3 POP DUP3 DUP3 MUL PUSH2 0x3A50 DUP2 PUSH2 0x3099 JUMP JUMPDEST SWAP2 POP DUP3 DUP3 DIV DUP5 EQ DUP4 ISZERO OR PUSH2 0x3A67 JUMPI PUSH2 0x3A66 PUSH2 0x39FD JUMP JUMPDEST JUMPDEST POP SWAP3 SWAP2 POP POP JUMP JUMPDEST PUSH1 0x0 PUSH2 0x3A79 DUP3 PUSH2 0x3099 JUMP JUMPDEST SWAP2 POP PUSH2 0x3A84 DUP4 PUSH2 0x3099 JUMP JUMPDEST SWAP3 POP DUP3 DUP3 ADD SWAP1 POP DUP1 DUP3 GT ISZERO PUSH2 0x3A9C JUMPI PUSH2 0x3A9B PUSH2 0x39FD JUMP JUMPDEST JUMPDEST SWAP3 SWAP2 POP POP JUMP JUMPDEST PUSH1 0x0 PUSH2 0x3AAD DUP3 PUSH2 0x3099 JUMP JUMPDEST SWAP2 POP PUSH2 0x3AB8 DUP4 PUSH2 0x3099 JUMP JUMPDEST SWAP3 POP DUP3 DUP3 SUB SWAP1 POP DUP2 DUP2 GT ISZERO PUSH2 0x3AD0 JUMPI PUSH2 0x3ACF PUSH2 0x39FD JUMP JUMPDEST JUMPDEST SWAP3 SWAP2 POP POP JUMP JUMPDEST PUSH1 0x0 DUP2 SWAP1 POP SWAP2 SWAP1 POP JUMP JUMPDEST PUSH1 0x0 PUSH8 0xFFFFFFFFFFFFFFFF DUP3 AND SWAP1 POP SWAP2 SWAP1 POP JUMP JUMPDEST PUSH1 0x0 PUSH2 0x3B0F PUSH2 0x3B0A PUSH2 0x3B05 DUP5 PUSH2 0x3AD6 JUMP JUMPDEST PUSH2 0x3598 JUMP JUMPDEST PUSH2 0x3AE0 JUMP JUMPDEST SWAP1 POP SWAP2 SWAP1 POP JUMP JUMPDEST PUSH2 0x3B1F DUP2 PUSH2 0x3AF4 JUMP JUMPDEST DUP3 MSTORE POP POP JUMP JUMPDEST PUSH1 0x0 PUSH1 0x20 DUP3 ADD SWAP1 POP PUSH2 0x3B3A PUSH1 0x0 DUP4 ADD DUP5 PUSH2 0x3B16 JUMP JUMPDEST SWAP3 SWAP2 POP POP JUMP JUMPDEST PUSH1 0x0 PUSH1 0x60 DUP3 DUP5 SUB SLT ISZERO PUSH2 0x3B56 JUMPI PUSH2 0x3B55 PUSH2 0x3410 JUMP JUMPDEST JUMPDEST PUSH2 0x3B60 PUSH1 0x60 PUSH2 0x304D JUMP JUMPDEST SWAP1 POP PUSH1 0x0 PUSH2 0x3B70 DUP5 DUP3 DUP6 ADD PUSH2 0x3338 JUMP JUMPDEST PUSH1 0x0 DUP4 ADD MSTORE POP PUSH1 0x20 PUSH2 0x3B84 DUP5 DUP3 DUP6 ADD PUSH2 0x343C JUMP JUMPDEST PUSH1 0x20 DUP4 ADD MSTORE POP PUSH1 0x40 PUSH2 0x3B98 DUP5 DUP3 DUP6 ADD PUSH2 0x30BA JUMP JUMPDEST PUSH1 0x40 DUP4 ADD MSTORE POP SWAP3 SWAP2 POP POP JUMP JUMPDEST PUSH1 0x0 PUSH1 0x60 DUP3 DUP5 SUB SLT ISZERO PUSH2 0x3BBA JUMPI PUSH2 0x3BB9 PUSH2 0x2EDE JUMP JUMPDEST JUMPDEST PUSH1 0x0 PUSH2 0x3BC8 DUP5 DUP3 DUP6 ADD PUSH2 0x3B40 JUMP JUMPDEST SWAP2 POP POP SWAP3 SWAP2 POP POP JUMP JUMPDEST PUSH1 0x0 PUSH1 0x40 DUP3 ADD SWAP1 POP PUSH2 0x3BE6 PUSH1 0x0 DUP4 ADD DUP6 PUSH2 0x2FAD JUMP JUMPDEST PUSH2 0x3BF3 PUSH1 0x20 DUP4 ADD DUP5 PUSH2 0x2FAD JUMP JUMPDEST SWAP4 SWAP3 POP POP POP JUMP JUMPDEST PUSH1 0x0 PUSH2 0x3C05 DUP3 PUSH2 0x3415 JUMP JUMPDEST SWAP2 POP PUSH4 0xFFFFFFFF DUP3 SUB PUSH2 0x3C1B JUMPI PUSH2 0x3C1A PUSH2 0x39FD JUMP JUMPDEST JUMPDEST PUSH1 0x1 DUP3 ADD SWAP1 POP SWAP2 SWAP1 POP JUMP JUMPDEST PUSH1 0x0 DUP2 MLOAD SWAP1 POP SWAP2 SWAP1 POP JUMP JUMPDEST PUSH1 0x0 DUP3 DUP3 MSTORE PUSH1 0x20 DUP3 ADD SWAP1 POP SWAP3 SWAP2 POP POP JUMP JUMPDEST PUSH1 0x0 DUP2 SWAP1 POP PUSH1 0x20 DUP3 ADD SWAP1 POP SWAP2 SWAP1 POP JUMP JUMPDEST PUSH2 0x3C5B DUP2 PUSH2 0x3099 JUMP JUMPDEST DUP3 MSTORE POP POP JUMP JUMPDEST PUSH1 0x0 PUSH2 0x3C6D DUP4 DUP4 PUSH2 0x3C52 JUMP JUMPDEST PUSH1 0x20 DUP4 ADD SWAP1 POP SWAP3 SWAP2 POP POP JUMP JUMPDEST PUSH1 0x0 PUSH1 0x20 DUP3 ADD SWAP1 POP SWAP2 SWAP1 POP JUMP JUMPDEST PUSH1 0x0 PUSH2 0x3C91 DUP3 PUSH2 0x3C26 JUMP JUMPDEST PUSH2 0x3C9B DUP2 DUP6 PUSH2 0x3C31 JUMP JUMPDEST SWAP4 POP PUSH2 0x3CA6 DUP4 PUSH2 0x3C42 JUMP JUMPDEST DUP1 PUSH1 0x0 JUMPDEST DUP4 DUP2 LT ISZERO PUSH2 0x3CD7 JUMPI DUP2 MLOAD PUSH2 0x3CBE DUP9 DUP3 PUSH2 0x3C61 JUMP JUMPDEST SWAP8 POP PUSH2 0x3CC9 DUP4 PUSH2 0x3C79 JUMP JUMPDEST SWAP3 POP POP PUSH1 0x1 DUP2 ADD SWAP1 POP PUSH2 0x3CAA JUMP JUMPDEST POP DUP6 SWAP4 POP POP POP POP SWAP3 SWAP2 POP POP JUMP JUMPDEST PUSH1 0x0 DUP2 MLOAD SWAP1 POP SWAP2 SWAP1 POP JUMP JUMPDEST PUSH1 0x0 DUP3 DUP3 MSTORE PUSH1 0x20 DUP3 ADD SWAP1 POP SWAP3 SWAP2 POP POP JUMP JUMPDEST PUSH1 0x0 DUP2 SWAP1 POP PUSH1 0x20 DUP3 ADD SWAP1 POP SWAP2 SWAP1 POP JUMP JUMPDEST PUSH1 0x0 PUSH2 0x3D1C DUP4 DUP4 PUSH2 0x31DB JUMP JUMPDEST PUSH1 0x20 DUP4 ADD SWAP1 POP SWAP3 SWAP2 POP POP JUMP JUMPDEST PUSH1 0x0 PUSH1 0x20 DUP3 ADD SWAP1 POP SWAP2 SWAP1 POP JUMP JUMPDEST PUSH1 0x0 PUSH2 0x3D40 DUP3 PUSH2 0x3CE4 JUMP JUMPDEST PUSH2 0x3D4A DUP2 DUP6 PUSH2 0x3CEF JUMP JUMPDEST SWAP4 POP PUSH2 0x3D55 DUP4 PUSH2 0x3D00 JUMP JUMPDEST DUP1 PUSH1 0x0 JUMPDEST DUP4 DUP2 LT ISZERO PUSH2 0x3D86 JUMPI DUP2 MLOAD PUSH2 0x3D6D DUP9 DUP3 PUSH2 0x3D10 JUMP JUMPDEST SWAP8 POP PUSH2 0x3D78 DUP4 PUSH2 0x3D28 JUMP JUMPDEST SWAP3 POP POP PUSH1 0x1 DUP2 ADD SWAP1 POP PUSH2 0x3D59 JUMP JUMPDEST POP DUP6 SWAP4 POP POP POP POP SWAP3 SWAP2 POP POP JUMP JUMPDEST PUSH1 0x0 PUSH1 0x40 DUP3 ADD SWAP1 POP DUP2 DUP2 SUB PUSH1 0x0 DUP4 ADD MSTORE PUSH2 0x3DAD DUP2 DUP6 PUSH2 0x3C86 JUMP JUMPDEST SWAP1 POP DUP2 DUP2 SUB PUSH1 0x20 DUP4 ADD MSTORE PUSH2 0x3DC1 DUP2 DUP5 PUSH2 0x3D35 JUMP JUMPDEST SWAP1 POP SWAP4 SWAP3 POP POP POP JUMP JUMPDEST PUSH1 0x0 DUP2 SWAP1 POP SWAP2 SWAP1 POP JUMP JUMPDEST PUSH2 0x3DE5 PUSH2 0x3DE0 DUP3 PUSH2 0x2FA3 JUMP JUMPDEST PUSH2 0x3DCA JUMP JUMPDEST DUP3 MSTORE POP POP JUMP JUMPDEST PUSH1 0x0 DUP2 PUSH1 0x60 SHL SWAP1 POP SWAP2 SWAP1 POP JUMP JUMPDEST PUSH1 0x0 PUSH2 0x3E03 DUP3 PUSH2 0x3DEB JUMP JUMPDEST SWAP1 POP SWAP2 SWAP1 POP JUMP JUMPDEST PUSH1 0x0 PUSH2 0x3E15 DUP3 PUSH2 0x3DF8 JUMP JUMPDEST SWAP1 POP SWAP2 SWAP1 POP JUMP JUMPDEST PUSH2 0x3E2D PUSH2 0x3E28 DUP3 PUSH2 0x320A JUMP JUMPDEST PUSH2 0x3E0A JUMP JUMPDEST DUP3 MSTORE POP POP JUMP JUMPDEST PUSH1 0x0 DUP2 PUSH1 0xE0 SHL SWAP1 POP SWAP2 SWAP1 POP JUMP JUMPDEST PUSH1 0x0 PUSH2 0x3E4B DUP3 PUSH2 0x3E33 JUMP JUMPDEST SWAP1 POP SWAP2 SWAP1 POP JUMP JUMPDEST PUSH2 0x3E63 PUSH2 0x3E5E DUP3 PUSH2 0x3415 JUMP JUMPDEST PUSH2 0x3E40 JUMP JUMPDEST DUP3 MSTORE POP POP JUMP JUMPDEST PUSH1 0x0 DUP2 SWAP1 POP SWAP2 SWAP1 POP JUMP JUMPDEST PUSH2 0x3E84 PUSH2 0x3E7F DUP3 PUSH2 0x3099 JUMP JUMPDEST PUSH2 0x3E69 JUMP JUMPDEST DUP3 MSTORE POP POP JUMP JUMPDEST PUSH1 0x0 PUSH2 0x3E96 DUP3 DUP9 PUSH2 0x3DD4 JUMP JUMPDEST PUSH1 0x20 DUP3 ADD SWAP2 POP PUSH2 0x3EA6 DUP3 DUP8 PUSH2 0x3DD4 JUMP JUMPDEST PUSH1 0x20 DUP3 ADD SWAP2 POP PUSH2 0x3EB6 DUP3 DUP7 PUSH2 0x3E1C JUMP JUMPDEST PUSH1 0x14 DUP3 ADD SWAP2 POP PUSH2 0x3EC6 DUP3 DUP6 PUSH2 0x3E52 JUMP JUMPDEST PUSH1 0x4 DUP3 ADD SWAP2 POP PUSH2 0x3ED6 DUP3 DUP5 PUSH2 0x3E73 JUMP JUMPDEST PUSH1 0x20 DUP3 ADD SWAP2 POP DUP2 SWAP1 POP SWAP7 SWAP6 POP POP POP POP POP POP JUMP JUMPDEST PUSH1 0x0 DUP3 DUP3 MSTORE PUSH1 0x20 DUP3 ADD SWAP1 POP SWAP3 SWAP2 POP POP JUMP JUMPDEST PUSH1 0x0 PUSH2 0x3F06 DUP4 DUP6 PUSH2 0x3EE9 JUMP JUMPDEST SWAP4 POP PUSH2 0x3F13 DUP4 DUP6 DUP5 PUSH2 0x3688 JUMP JUMPDEST PUSH2 0x3F1C DUP4 PUSH2 0x2FDC JUMP JUMPDEST DUP5 ADD SWAP1 POP SWAP4 SWAP3 POP POP POP JUMP JUMPDEST PUSH1 0x0 PUSH1 0x40 DUP3 ADD SWAP1 POP DUP2 DUP2 SUB PUSH1 0x0 DUP4 ADD MSTORE PUSH2 0x3F42 DUP2 DUP6 DUP8 PUSH2 0x3EFA JUMP JUMPDEST SWAP1 POP DUP2 DUP2 SUB PUSH1 0x20 DUP4 ADD MSTORE PUSH2 0x3F56 DUP2 DUP5 PUSH2 0x3C86 JUMP JUMPDEST SWAP1 POP SWAP5 SWAP4 POP POP POP POP JUMP JUMPDEST PUSH2 0x3F69 DUP2 PUSH2 0x2F6D JUMP JUMPDEST DUP2 EQ PUSH2 0x3F74 JUMPI PUSH1 0x0 DUP1 REVERT JUMPDEST POP JUMP JUMPDEST PUSH1 0x0 DUP2 MLOAD SWAP1 POP PUSH2 0x3F86 DUP2 PUSH2 0x3F60 JUMP JUMPDEST SWAP3 SWAP2 POP POP JUMP JUMPDEST PUSH1 0x0 PUSH1 0x20 DUP3 DUP5 SUB SLT ISZERO PUSH2 0x3FA2 JUMPI PUSH2 0x3FA1 PUSH2 0x2EDE JUMP JUMPDEST JUMPDEST PUSH1 0x0 PUSH2 0x3FB0 DUP5 DUP3 DUP6 ADD PUSH2 0x3F77 JUMP JUMPDEST SWAP2 POP POP SWAP3 SWAP2 POP POP JUMP JUMPDEST PUSH1 0x0 DUP2 SWAP1 POP SWAP2 SWAP1 POP JUMP JUMPDEST PUSH1 0x0 PUSH2 0x3FDE PUSH2 0x3FD9 PUSH2 0x3FD4 DUP5 PUSH2 0x3FB9 JUMP JUMPDEST PUSH2 0x3598 JUMP JUMPDEST PUSH2 0x3415 JUMP JUMPDEST SWAP1 POP SWAP2 SWAP1 POP JUMP JUMPDEST PUSH2 0x3FEE DUP2 PUSH2 0x3FC3 JUMP JUMPDEST DUP3 MSTORE POP POP JUMP JUMPDEST PUSH1 0x0 PUSH1 0x60 DUP3 ADD SWAP1 POP PUSH2 0x4009 PUSH1 0x0 DUP4 ADD DUP7 PUSH2 0x3FE5 JUMP JUMPDEST PUSH2 0x4016 PUSH1 0x20 DUP4 ADD DUP6 PUSH2 0x337A JUMP JUMPDEST PUSH2 0x4023 PUSH1 0x40 DUP4 ADD DUP5 PUSH2 0x337A JUMP JUMPDEST SWAP5 SWAP4 POP POP POP POP JUMP JUMPDEST PUSH1 0x0 PUSH2 0x4037 DUP3 DUP6 PUSH2 0x3DD4 JUMP JUMPDEST PUSH1 0x20 DUP3 ADD SWAP2 POP PUSH2 0x4047 DUP3 DUP5 PUSH2 0x3DD4 JUMP JUMPDEST PUSH1 0x20 DUP3 ADD SWAP2 POP DUP2 SWAP1 POP SWAP4 SWAP3 POP POP POP JUMP JUMPDEST PUSH1 0x0 DUP2 MLOAD SWAP1 POP PUSH2 0x4066 DUP2 PUSH2 0x3321 JUMP JUMPDEST SWAP3 SWAP2 POP POP JUMP JUMPDEST PUSH1 0x0 PUSH1 0x20 DUP3 DUP5 SUB SLT ISZERO PUSH2 0x4082 JUMPI PUSH2 0x4081 PUSH2 0x2EDE JUMP JUMPDEST JUMPDEST PUSH1 0x0 PUSH2 0x4090 DUP5 DUP3 DUP6 ADD PUSH2 0x4057 JUMP JUMPDEST SWAP2 POP POP SWAP3 SWAP2 POP POP JUMP JUMPDEST PUSH2 0x40A2 DUP2 PUSH2 0x320A JUMP JUMPDEST DUP3 MSTORE POP POP JUMP JUMPDEST PUSH1 0x0 PUSH1 0x20 DUP3 ADD SWAP1 POP PUSH2 0x40BD PUSH1 0x0 DUP4 ADD DUP5 PUSH2 0x4099 JUMP JUMPDEST SWAP3 SWAP2 POP POP JUMP JUMPDEST PUSH1 0x0 PUSH2 0x40CF DUP3 DUP7 PUSH2 0x3DD4 JUMP JUMPDEST PUSH1 0x20 DUP3 ADD SWAP2 POP PUSH2 0x40DF DUP3 DUP6 PUSH2 0x3E52 JUMP JUMPDEST PUSH1 0x4 DUP3 ADD SWAP2 POP PUSH2 0x40EF DUP3 DUP5 PUSH2 0x3E73 JUMP JUMPDEST PUSH1 0x20 DUP3 ADD SWAP2 POP DUP2 SWAP1 POP SWAP5 SWAP4 POP POP POP POP JUMP JUMPDEST PUSH1 0x0 PUSH1 0x60 DUP3 ADD SWAP1 POP PUSH2 0x4115 PUSH1 0x0 DUP4 ADD DUP7 PUSH2 0x337A JUMP JUMPDEST PUSH2 0x4122 PUSH1 0x20 DUP4 ADD DUP6 PUSH2 0x337A JUMP JUMPDEST PUSH2 0x412F PUSH1 0x40 DUP4 ADD DUP5 PUSH2 0x337A JUMP JUMPDEST SWAP5 SWAP4 POP POP POP POP JUMP JUMPDEST PUSH1 0x0 PUSH2 0x4142 DUP3 PUSH2 0x3099 JUMP JUMPDEST SWAP2 POP PUSH32 0xFFFFFFFFFFFFFFFFFFFFFFFFFFFFFFFFFFFFFFFFFFFFFFFFFFFFFFFFFFFFFFFF DUP3 SUB PUSH2 0x4174 JUMPI PUSH2 0x4173 PUSH2 0x39FD JUMP JUMPDEST JUMPDEST PUSH1 0x1 DUP3 ADD SWAP1 POP SWAP2 SWAP1 POP JUMP JUMPDEST PUSH1 0x0 DUP2 PUSH1 0x1 SHR SWAP1 POP SWAP2 SWAP1 POP JUMP JUMPDEST PUSH1 0x0 DUP1 DUP3 SWAP2 POP DUP4 SWAP1 POP JUMPDEST PUSH1 0x1 DUP6 GT ISZERO PUSH2 0x41D6 JUMPI DUP1 DUP7 DIV DUP2 GT ISZERO PUSH2 0x41B2 JUMPI PUSH2 0x41B1 PUSH2 0x39FD JUMP JUMPDEST JUMPDEST PUSH1 0x1 DUP6 AND ISZERO PUSH2 0x41C1 JUMPI DUP1 DUP3 MUL SWAP2 POP JUMPDEST DUP1 DUP2 MUL SWAP1 POP PUSH2 0x41CF DUP6 PUSH2 0x417F JUMP JUMPDEST SWAP5 POP PUSH2 0x4196 JUMP JUMPDEST SWAP5 POP SWAP5 SWAP3 POP POP POP JUMP JUMPDEST PUSH1 0x0 DUP3 PUSH2 0x41EF JUMPI PUSH1 0x1 SWAP1 POP PUSH2 0x42AB JUMP JUMPDEST DUP2 PUSH2 0x41FD JUMPI PUSH1 0x0 SWAP1 POP PUSH2 0x42AB JUMP JUMPDEST DUP2 PUSH1 0x1 DUP2 EQ PUSH2 0x4213 JUMPI PUSH1 0x2 DUP2 EQ PUSH2 0x421D JUMPI PUSH2 0x424C JUMP JUMPDEST PUSH1 0x1 SWAP2 POP POP PUSH2 0x42AB JUMP JUMPDEST PUSH1 0xFF DUP5 GT ISZERO PUSH2 0x422F JUMPI PUSH2 0x422E PUSH2 0x39FD JUMP JUMPDEST JUMPDEST DUP4 PUSH1 0x2 EXP SWAP2 POP DUP5 DUP3 GT ISZERO PUSH2 0x4246 JUMPI PUSH2 0x4245 PUSH2 0x39FD JUMP JUMPDEST JUMPDEST POP PUSH2 0x42AB JUMP JUMPDEST POP PUSH1 0x20 DUP4 LT PUSH2 0x133 DUP4 LT AND PUSH1 0x4E DUP5 LT PUSH1 0xB DUP5 LT AND OR ISZERO PUSH2 0x4281 JUMPI DUP3 DUP3 EXP SWAP1 POP DUP4 DUP2 GT ISZERO PUSH2 0x427C JUMPI PUSH2 0x427B PUSH2 0x39FD JUMP JUMPDEST JUMPDEST PUSH2 0x42AB JUMP JUMPDEST PUSH2 0x428E DUP5 DUP5 DUP5 PUSH1 0x1 PUSH2 0x418C JUMP JUMPDEST SWAP3 POP SWAP1 POP DUP2 DUP5 DIV DUP2 GT ISZERO PUSH2 0x42A5 JUMPI PUSH2 0x42A4 PUSH2 0x39FD JUMP JUMPDEST JUMPDEST DUP2 DUP2 MUL SWAP1 POP JUMPDEST SWAP4 SWAP3 POP POP POP JUMP JUMPDEST PUSH1 0x0 PUSH2 0x42BD DUP3 PUSH2 0x3099 JUMP JUMPDEST SWAP2 POP PUSH2 0x42C8 DUP4 PUSH2 0x3099 JUMP JUMPDEST SWAP3 POP PUSH2 0x42F5 PUSH32 0xFFFFFFFFFFFFFFFFFFFFFFFFFFFFFFFFFFFFFFFFFFFFFFFFFFFFFFFFFFFFFFFF DUP5 DUP5 PUSH2 0x41DF JUMP JUMPDEST SWAP1 POP SWAP3 SWAP2 POP POP JUMP JUMPDEST PUSH32 0x4E487B7100000000000000000000000000000000000000000000000000000000 PUSH1 0x0 MSTORE PUSH1 0x1 PUSH1 0x4 MSTORE PUSH1 0x24 PUSH1 0x0 REVERT JUMPDEST PUSH1 0x0 PUSH1 0x40 DUP3 ADD SWAP1 POP PUSH2 0x4341 PUSH1 0x0 DUP4 ADD DUP6 PUSH2 0x4099 JUMP JUMPDEST PUSH2 0x434E PUSH1 0x20 DUP4 ADD DUP5 PUSH2 0x2FAD JUMP JUMPDEST SWAP4 SWAP3 POP POP POP JUMP JUMPDEST PUSH1 0x0 DUP2 MLOAD SWAP1 POP SWAP2 SWAP1 POP JUMP JUMPDEST PUSH1 0x0 DUP2 SWAP1 POP SWAP3 SWAP2 POP POP JUMP JUMPDEST PUSH1 0x0 PUSH2 0x4376 DUP3 PUSH2 0x4355 JUMP JUMPDEST PUSH2 0x4380 DUP2 DUP6 PUSH2 0x4360 JUMP JUMPDEST SWAP4 POP PUSH2 0x4390 DUP2 DUP6 PUSH1 0x20 DUP7 ADD PUSH2 0x383A JUMP JUMPDEST DUP1 DUP5 ADD SWAP2 POP POP SWAP3 SWAP2 POP POP JUMP JUMPDEST PUSH1 0x0 PUSH2 0x43A8 DUP3 DUP5 PUSH2 0x436B JUMP JUMPDEST SWAP2 POP DUP2 SWAP1 POP SWAP3 SWAP2 POP POP JUMP INVALID LOG2 PUSH5 0x6970667358 0x22 SLT KECCAK256 DUP9 SWAP1 SELFBALANCE 0x2C PUSH27 0xF3D57305EF172BEBD824350682A0DC49BF9C84D73A05E4D5FE15B4 PUSH5 0x736F6C6343 STOP ADDMOD SHL STOP CALLER "
        },
        "methodIdentifiers": {
          "ANALYZER()": "0c0b59b9",
          "DEFAULT_ADMIN_ROLE()": "a217fddf",
          "TX_BASE_GAS()": "2f7d3922",
          "TX_TRANSFER_GAS()": "9a333906",
          "UPGRADE_INTERFACE_VERSION()": "ad3cb1cc",
          "WITHDRAWER()": "66941984",
          "analyzeAndProcessDeposits(uint256,uint256[])": "defe4d5b",
          "cancelDeposit(uint256,(bytes32,uint32,uint256))": "6ef5475b",
          "depositIndex()": "7b898939",
          "depositNativeToken(bytes32)": "ffd55332",
          "depositRoots(bytes32)": "e09dfaa2",
          "getDepositData(uint256)": "c13819b6",
          "getDepositDataBatch(uint256[])": "232c1c8a",
          "getDepositRoot()": "3ae05047",
          "getLastDepositId()": "dd9ea299",
          "getLastProcessedDepositId()": "dd4d4e89",
          "getRoleAdmin(bytes32)": "248a9ca3",
          "grantRole(bytes32,address)": "2f2ff15d",
          "hasRole(bytes32,address)": "91d14854",
          "initialize(address,address)": "485cc955",
          "nullifiers(bytes32)": "2997e86b",
          "proxiableUUID()": "52d1902d",
          "renounceRole(bytes32,address)": "36568abe",
          "revokeRole(bytes32,address)": "d547741f",
          "setVerifier(address)": "5437988d",
          "supportsInterface(bytes4)": "01ffc9a7",
          "upgradeToAndCall(address,bytes)": "4f1ef286",
          "verifyProof((bytes32,bytes32,address,uint32,uint256),bytes)": "eff97cd2",
          "withdraw((bytes32,bytes32,address,uint32,uint256),bytes)": "3310ea4f",
          "withdrawalVerifier()": "37f9fe26"
        }
      },
      "storageLayout": {
        "storage": [
          {
            "astId": 1718,
            "contract": "contracts/int1/int1/layer2/Int1LV2.sol:Int1LV2",
            "label": "withdrawalVerifier",
            "offset": 0,
            "slot": "0",
            "type": "t_contract(IPlonkVerifier)2573"
          },
          {
            "astId": 1720,
            "contract": "contracts/int1/int1/layer2/Int1LV2.sol:Int1LV2",
            "label": "depositIndex",
            "offset": 20,
            "slot": "0",
            "type": "t_uint32"
          },
          {
            "astId": 1723,
            "contract": "contracts/int1/int1/layer2/Int1LV2.sol:Int1LV2",
            "label": "depositTree",
            "offset": 0,
            "slot": "1",
            "type": "t_struct(DepositTree)2983_storage"
          },
          {
            "astId": 1726,
            "contract": "contracts/int1/int1/layer2/Int1LV2.sol:Int1LV2",
            "label": "depositQueue",
            "offset": 0,
            "slot": "35",
            "type": "t_struct(DepositQueue)2642_storage"
          },
          {
            "astId": 1730,
            "contract": "contracts/int1/int1/layer2/Int1LV2.sol:Int1LV2",
            "label": "depositRoots",
            "offset": 0,
            "slot": "38",
            "type": "t_mapping(t_bytes32,t_uint256)"
          },
          {
            "astId": 1734,
            "contract": "contracts/int1/int1/layer2/Int1LV2.sol:Int1LV2",
            "label": "nullifiers",
            "offset": 0,
            "slot": "39",
            "type": "t_mapping(t_bytes32,t_uint256)"
          },
          {
            "astId": 1738,
            "contract": "contracts/int1/int1/layer2/Int1LV2.sol:Int1LV2",
            "label": "alreadyUseRecipientSaltHash",
            "offset": 0,
            "slot": "40",
            "type": "t_mapping(t_bytes32,t_bool)"
          }
        ],
        "types": {
          "t_address": {
            "encoding": "inplace",
            "label": "address",
            "numberOfBytes": "20"
          },
          "t_array(t_bytes32)32_storage": {
            "base": "t_bytes32",
            "encoding": "inplace",
            "label": "bytes32[32]",
            "numberOfBytes": "1024"
          },
          "t_array(t_struct(DepositData)2650_storage)dyn_storage": {
            "base": "t_struct(DepositData)2650_storage",
            "encoding": "dynamic_array",
            "label": "struct DepositQueueLibV2.DepositData[]",
            "numberOfBytes": "32"
          },
          "t_bool": {
            "encoding": "inplace",
            "label": "bool",
            "numberOfBytes": "1"
          },
          "t_bytes32": {
            "encoding": "inplace",
            "label": "bytes32",
            "numberOfBytes": "32"
          },
          "t_contract(IPlonkVerifier)2573": {
            "encoding": "inplace",
            "label": "contract IPlonkVerifier",
            "numberOfBytes": "20"
          },
          "t_mapping(t_bytes32,t_bool)": {
            "encoding": "mapping",
            "key": "t_bytes32",
            "label": "mapping(bytes32 => bool)",
            "numberOfBytes": "32",
            "value": "t_bool"
          },
          "t_mapping(t_bytes32,t_uint256)": {
            "encoding": "mapping",
            "key": "t_bytes32",
            "label": "mapping(bytes32 => uint256)",
            "numberOfBytes": "32",
            "value": "t_uint256"
          },
          "t_struct(DepositData)2650_storage": {
            "encoding": "inplace",
            "label": "struct DepositQueueLibV2.DepositData",
            "members": [
              {
                "astId": 2645,
                "contract": "contracts/int1/int1/layer2/Int1LV2.sol:Int1LV2",
                "label": "depositHash",
                "offset": 0,
                "slot": "0",
                "type": "t_bytes32"
              },
              {
                "astId": 2647,
                "contract": "contracts/int1/int1/layer2/Int1LV2.sol:Int1LV2",
                "label": "sender",
                "offset": 0,
                "slot": "1",
                "type": "t_address"
              },
              {
                "astId": 2649,
                "contract": "contracts/int1/int1/layer2/Int1LV2.sol:Int1LV2",
                "label": "isRejected",
                "offset": 20,
                "slot": "1",
                "type": "t_bool"
              }
            ],
            "numberOfBytes": "64"
          },
          "t_struct(DepositQueue)2642_storage": {
            "encoding": "inplace",
            "label": "struct DepositQueueLibV2.DepositQueue",
            "members": [
              {
                "astId": 2635,
                "contract": "contracts/int1/int1/layer2/Int1LV2.sol:Int1LV2",
                "label": "depositData",
                "offset": 0,
                "slot": "0",
                "type": "t_array(t_struct(DepositData)2650_storage)dyn_storage"
              },
              {
                "astId": 2638,
                "contract": "contracts/int1/int1/layer2/Int1LV2.sol:Int1LV2",
                "label": "front",
                "offset": 0,
                "slot": "1",
                "type": "t_uint256"
              },
              {
                "astId": 2641,
                "contract": "contracts/int1/int1/layer2/Int1LV2.sol:Int1LV2",
                "label": "rear",
                "offset": 0,
                "slot": "2",
                "type": "t_uint256"
              }
            ],
            "numberOfBytes": "96"
          },
          "t_struct(DepositTree)2983_storage": {
            "encoding": "inplace",
            "label": "struct DepositTreeLib.DepositTree",
            "members": [
              {
                "astId": 2978,
                "contract": "contracts/int1/int1/layer2/Int1LV2.sol:Int1LV2",
                "label": "_branch",
                "offset": 0,
                "slot": "0",
                "type": "t_array(t_bytes32)32_storage"
              },
              {
                "astId": 2980,
                "contract": "contracts/int1/int1/layer2/Int1LV2.sol:Int1LV2",
                "label": "depositCount",
                "offset": 0,
                "slot": "32",
                "type": "t_uint256"
              },
              {
                "astId": 2982,
                "contract": "contracts/int1/int1/layer2/Int1LV2.sol:Int1LV2",
                "label": "defaultHash",
                "offset": 0,
                "slot": "33",
                "type": "t_bytes32"
              }
            ],
            "numberOfBytes": "1088"
          },
          "t_uint256": {
            "encoding": "inplace",
            "label": "uint256",
            "numberOfBytes": "32"
          },
          "t_uint32": {
            "encoding": "inplace",
            "label": "uint32",
            "numberOfBytes": "4"
          }
        }
      }
    }
  }
}